:020000040800F2
:1000000000000220A94E0008D9490008DB49000879
:10001000DD490008DF490008E14900080000000050
:10002000000000000000000000000000E34900089C
:10003000E549000800000000E7490008E949000818
:10004000F94E0008F94E0008F94E0008F94E000874
:10005000F94E0008F94E0008F94E0008F94E000864
:10006000F94E0008F94E0008F94E0008F94E000854
:10007000F94E0008F94E0008F94E0008F94E000844
:10008000ED490008F9490008F94E0008F94E00084A
:10009000154A0008114A0008054A0008F94E0008F0
:1000A000F94E0008F94E0008F94E0008F94E000814
:1000B000F94E0008F94E0008F94E0008F94E000804
:1000C000F94E0008F94E0008F94E0008F94E0008F4
:1000D000F94E0008F94E0008F94E0008F94E0008E4
:1000E000F94E0008F94E0008F94E0008F94E0008D4
:1000F000F94E0008F94E0008F94E0008F94E0008C4
:10010000F94E0008F94E0008F94E0008F94E0008B3
:10011000F94E0008F94E0008194A0008254A00085F
:10012000F94E0008F94E0008F94E0008F94E000893
:10013000F94E00080000000000000000F94E000821
:10014000F94E0008F94E0008F94E0008F94E000873
:10015000F94E0008F94E0008F94E0008F94E000863
:10016000F94E0008F94E0008F94E0008F94E000853
:10017000F94E0008F94E0008F94E00080000000092
:1001800000000000F94E0008000000000000000020
:10019000F94E00080000000000000000F94E0008C1
:1001A000000000000000000000000000F94E000800
:1001B000F94E0008F94E0008F94E0008F94E000803
:0401C000F94E0008EC
:1001D00010B5054C237833B9044B13B10448AFF381
:1001E00000800123237010BD7C0600200000000069
:1001F0003CC6000808B5034B1BB103490348AFF3E5
:10020000008008BD00000000800600203CC60008F9
:1002100001F0FF01102A2BDB10F0070F08D010F8B7
:10022000013B013A8B422DD010F0070F42B3F6D1BB
:10023000F0B441EA012141EA014122F007047FF0D4
:1002400000070023F0E80256083C85EA010586EA2B
:10025000010685FA47F5A3FA87F586FA47F6A5FA67
:1002600087F68EB9EED1F0BC01F0FF0102F0070273
:1002700032B110F8013B013A83EA010313B1F8D11E
:100280000020704701387047002D06BF35460338FF
:10029000073815F0010F07D1013015F4807F02BF38
:1002A000013015F4C03F0130F0BC0138704700BF89
:1002B000034613F8012B002AFBD1181A01387047A6
:1002C00081F0004102E000BF83F0004330B54FEA07
:1002D00041044FEA430594EA050F08BF90EA020F74
:1002E0001FBF54EA000C55EA020C7FEA645C7FEA07
:1002F000655C00F0E2804FEA5454D4EB5555B8BF2A
:100300006D420CDD2C4480EA020281EA030382EA9A
:10031000000083EA010180EA020281EA0303362D2C
:1003200088BF30BD11F0004F4FEA01314FF4801CFF
:100330004CEA113102D0404261EB410113F0004F11
:100340004FEA03334CEA133302D0524263EB4303C8
:1003500094EA050F00F0A780A4F10104D5F1200E66
:100360000DDB02FA0EFC22FA05F2801841F10001C1
:1003700003FA0EF2801843FA05F359410EE0A5F195
:1003800020050EF1200E012A03FA0EFC28BF4CF0C6
:10039000020C43FA05F3C01851EBE37101F000457C
:1003A00007D54FF0000EDCF1000C7EEB00006EEB89
:1003B0000101B1F5801F1BD3B1F5001F0CD3490813
:1003C0005FEA30004FEA3C0C04F101044FEA44526A
:1003D00012F5800F80F09A80BCF1004F08BF5FEAF1
:1003E000500C50F1000041EB045141EA050130BDD1
:1003F0005FEA4C0C404141EB010111F4801FA4F174
:100400000104E9D191F0000F04BF01460020B1FAC8
:1004100081F308BF2033A3F10B03B3F120020CDA00
:100420000C3208DD02F1140CC2F10C0201FA0CF0DE
:1004300021FA02F10CE002F11402D8BFC2F1200C43
:1004400001FA02F120FA0CFCDCBF41EA0C019040F9
:10045000E41AA2BF01EB0451294330BD6FEA040442
:100460001F3C1CDA0C340EDC04F11404C4F120022D
:1004700020FA04F001FA02F340EA030021FA04F33F
:1004800045EA030130BDC4F10C04C4F1200220FA96
:1004900002F001FA04F340EA0300294630BD21FAD4
:1004A00004F0294630BD94F0000F83F4801306BF9A
:1004B00081F480110134013D4EE77FEA645C18BF8E
:1004C0007FEA655C29D094EA050F08BF90EA020F25
:1004D00005D054EA000C04BF1946104630BD91EA1D
:1004E000030F1EBF0021002030BD5FEA545C05D120
:1004F0004000494128BF41F0004130BD14F580045F
:100500003CBF01F5801130BD01F0004545F0FE41D2
:1005100041F470014FF0000030BD7FEA645C1ABF07
:10052000194610467FEA655C1CBF0B46024650EA3E
:10053000013406BF52EA033591EA030F41F400216A
:1005400030BD00BF90F0000F04BF0021704730B5F0
:100550004FF4806404F132044FF000054FF00001C5
:1005600050E700BF90F0000F04BF0021704730B586
:100570004FF4806404F1320410F0004548BF40425B
:100580004FF000013EE700BF42004FEAE2014FEAB0
:1005900031014FEA02701FBF12F07F4393F07F4F8B
:1005A00081F06051704792F0000F14BF93F07F4FBD
:1005B000704730B54FF4607401F0004521F0004100
:1005C00020E700BF50EA010208BF704730B54FF086
:1005D00000050AE050EA010208BF704730B511F08B
:1005E000004502D5404261EB41014FF4806404F1C3
:1005F00032045FEA915C3FF4DCAE4FF003025FEA45
:10060000DC0C18BF03325FEADC0C18BF033202EBCC
:10061000DC02C2F1200300FA03FC20FA02F001FA26
:1006200003FE40EA0E0021FA02F11444C1E600BFC5
:1006300070B54FF0FF0C4CF4E06C1CEA11541DBF78
:100640001CEA135594EA0C0F95EA0C0F00F0DEF843
:100650002C4481EA030621EA4C5123EA4C5350EA28
:10066000013518BF52EA033541F4801143F4801379
:1006700038D0A0FB02CE4FF00005E1FB02E506F00A
:100680000042E0FB03E54FF00006E1FB03569CF05F
:10069000000F18BF4EF0010EA4F1FF04B6F5007F65
:1006A00064F5407404D25FEA4E0E6D4146EB0606D7
:1006B00042EAC62141EA55514FEAC52040EA5E5060
:1006C0004FEACE2EB4F1FD0C88BFBCF5E06F1ED80A
:1006D000BEF1004F08BF5FEA500E50F1000041EB41
:1006E000045170BD06F0004646EA010140EA0200EE
:1006F00081EA0301B4EB5C04C2BFD4EB0C0541EA10
:10070000045170BD41F480114FF0000E013C00F324
:10071000AB8014F1360FDEBF002001F0004170BD48
:10072000C4F10004203C35DA0C341BDC04F1140461
:10073000C4F1200500FA05F320FA04F001FA05F2ED
:1007400040EA020001F0004221F0004110EBD370BA
:1007500021FA04F642EB06015EEA430E08BF20EAE6
:10076000D37070BDC4F10C04C4F1200500FA04F389
:1007700020FA05F001FA04F240EA020001F000411B
:1007800010EBD37041F100015EEA430E08BF20EA8E
:10079000D37070BDC4F1200500FA05F24EEA020ED6
:1007A00020FA04F301FA05F243EA020321FA04F005
:1007B00001F0004121FA04F220EA020000EBD370BC
:1007C0005EEA430E08BF20EAD37070BD94F0000FBC
:1007D0000FD101F00046400041EB010111F4801FF0
:1007E00008BF013CF7D041EA060195F0000F18BFA1
:1007F000704703F00046520043EB030313F4801FDD
:1008000008BF013DF7D043EA0603704794EA0C0F96
:100810000CEA135518BF95EA0C0F0CD050EA4106AC
:1008200018BF52EA4306D1D181EA030101F0004129
:100830004FF0000070BD50EA410606BF1046194651
:1008400052EA430619D094EA0C0F02D150EA01365D
:1008500013D195EA0C0F05D152EA03361CBF10469E
:1008600019460AD181EA030101F0004141F0FE413D
:1008700041F470014FF0000070BD41F0FE4141F4C1
:10088000780170BD70B54FF0FF0C4CF4E06C1CEAC1
:1008900011541DBF1CEA135594EA0C0F95EA0C0F76
:1008A00000F0A7F8A4EB050481EA030E52EA033531
:1008B0004FEA013100F088804FEA03334FF0805552
:1008C00045EA131343EA12634FEA022245EA11157F
:1008D00045EA10654FEA00260EF000419D4208BF30
:1008E000964244F1FD0404F5407402D25B084FEADD
:1008F0003202B61A65EB03055B084FEA32024FF489
:1009000080104FF4002CB6EB020E75EB030E22BFE5
:10091000B61A754640EA0C005B084FEA3202B6EBA5
:10092000020E75EB030E22BFB61A754640EA5C0054
:100930005B084FEA3202B6EB020E75EB030E22BFE4
:10094000B61A754640EA9C005B084FEA3202B6EBE5
:10095000020E75EB030E22BFB61A754640EADC00A4
:1009600055EA060E18D04FEA051545EA16754FEA06
:1009700006164FEAC30343EA52734FEAC2025FEA24
:100980001C1CC0D111F4801F0BD141EA00014FF0B3
:1009900000004FF0004CB6E711F4801F04BF014384
:1009A0000020B4F1FD0C88BFBCF5E06F3FF6AFAEA0
:1009B000B5EB030C04BFB6EB020C5FEA500C50F130
:1009C000000041EB045170BD0EF0004E4EEA1131B3
:1009D00014EB5C04C2BFD4EB0C0541EA045170BDBA
:1009E00041F480114FF0000E013C90E645EA060EFE
:1009F0008DE60CEA135594EA0C0F08BF95EA0C0F2C
:100A00003FF43BAF94EA0C0F0AD150EA01347FF473
:100A100034AF95EA0C0F7FF425AF104619462CE74A
:100A200095EA0C0F06D152EA03353FF4FDAE1046AD
:100A3000194622E750EA410618BF52EA43067FF4FE
:100A4000C5AE50EA41047FF40DAF52EA43057FF48E
:100A5000EBAE12E74FF0FF3C06E000BF4FF0010C99
:100A600002E000BF4FF0010C4DF804CD4FEA410CFD
:100A70007FEA6C5C4FEA430C18BF7FEA6C5C1BD0CA
:100A800001B050EA410C0CBF52EA430C91EA030F4B
:100A900002BF90EA020F0020704710F1000F91EAA8
:100AA000030F58BF994208BF90422CBFD8176FEA76
:100AB000E37040F0010070474FEA410C7FEA6C5C44
:100AC00002D150EA013C07D14FEA430C7FEA6C5C4B
:100AD000D6D152EA033CD3D05DF8040B704700BF77
:100AE0008446104662468C461946634600E000BFC5
:100AF00001B5FFF7B7FF002848BF10F1000F01BD97
:100B00004DF808EDFFF7F4FF0CBF012000205DF861
:100B100008FB00BF4DF808EDFFF7EAFF34BF0120E6
:100B200000205DF808FB00BF4DF808EDFFF7E0FF7F
:100B300094BF012000205DF808FB00BF4DF808EDD0
:100B4000FFF7CEFF94BF012000205DF808FB00BF37
:100B50004DF808EDFFF7C4FF34BF012000205DF819
:100B600008FB00BF4FEA410C7FEA6C5C02D150EAFF
:100B7000013C0AD14FEA430C7FEA6C5C02D152EA95
:100B8000033C02D14FF0000070474FF00100704766
:100B90004FEA410212F5001215D211D56FF47873A5
:100BA000B3EB625212D94FEAC12343F0004343EA48
:100BB000505311F0004F23FA02F018BF4042704723
:100BC0004FF00000704750EA013005D111F00040AD
:100BD00008BF6FF0004070474FF00000704700BF43
:100BE0004A0011D212F5001211D20DD56FF47873AC
:100BF000B3EB62520ED44FEAC12343F0004343EA01
:100C0000505323FA02F070474FF00000704750EA4B
:100C1000013002D14FF0FF3070474FF000007047B5
:100C20004FEA4102B2F1E04324BFB3F5001CDCF10E
:100C3000FE5C0DD901F0004C4FEAC0024CEA507046
:100C4000B2F1004F40EB830008BF20F00100704775
:100C500011F0804F21D113F13872BCBF01F0004078
:100C6000704741F480114FEA5252C2F11802C2F1AA
:100C7000200C10FA0CF320FA02F018BF40F001002B
:100C80004FEAC1234FEAD32303FA0CFC40EA0C00DD
:100C900023FA02F34FEA4303CCE77FEA625307D11A
:100CA00050EA01331EBF4FF0FE4040F44000704751
:100CB00001F0004040F0FE4040F40000704700BFEB
:100CC00053B94AB9002908BF00281CBF4FF0FF31B3
:100CD0004FF0FF3001F0F6B8ADF1080C6DE904CE2D
:100CE00000F006F8DDF804E0DDE9022304B0704707
:100CF0002DE9F0478C460D460446089E002B51D145
:100D00008A4217466DD9B2FA82FEBEF1000F0BD0AF
:100D1000CEF1200C01FA0EF520FA0CFC02FA0EF7C7
:100D20004CEA050C00FA0EF44FEA174A250CBCFBFE
:100D3000FAF81FFA87F90AFB18CC45EA0C4508FBBC
:100D400009F3AB420AD9ED1908F1FF3280F0238193
:100D5000AB4240F22081A8F102083D44ED1AA4B252
:100D6000B5FBFAF00AFB105544EA054400FB09F90B
:100D7000A14509D9E41900F1FF3380F00A81A145AA
:100D800040F2078102383C44A4EB090440EA0840E1
:100D90000021002E61D024FA0EF400233460736029
:100DA000BDE8F0878B4207D9002E54D0002186E899
:100DB00021000846BDE8F087B3FA83F1002940F02E
:100DC0008E80AB4202D3824200F2FA80841A65EB35
:100DD00003050120AC46002E3FD086E81010BDE888
:100DE000F08712B90127B7FBF2F7B7FA87FEBEF119
:100DF000000F34D1EB1B3A0C1FFA87FC0121B3FB27
:100E0000F2F8250C02FB183345EA03450CFB08F306
:100E1000AB4207D9ED1908F1FF3002D2AB4200F224
:100E2000D1808046ED1AA3B2B5FBF2F002FB10555B
:100E300043EA05440CFB00FCA44507D9E41900F182
:100E4000FF3302D2A44500F2B8801846A4EB0C048C
:100E500040EA08409DE731463046BDE8F087CEF1D4
:100E6000200405FA0EF307FA0EF720FA04F83A0CFC
:100E700025FA04F448EA0308B4FBF2F14FEA1845F6
:100E800002FB11441FFA87FC45EA044501FB0CF301
:100E9000AB4200FA0EF409D9ED1901F1FF3080F0F0
:100EA0008A80AB4240F2878002393D44EB1A1FFA38
:100EB00088F5B3FBF2F002FB103345EA034500FB73
:100EC0000CF3AB4207D9ED1900F1FF386FD2AB42FA
:100ED0006DD902383D44EB1A40EA01418FE7C1F178
:100EE000200722FA07F88B4005FA01F448EA0303C9
:100EF00020FA07FE4FEA134CFD404EEA040EB5FB04
:100F0000FCF94FEA1E440CFB19551FFA83F844EA1A
:100F1000054509FB08F4AC4202FA01F200FA01FAB5
:100F200008D9ED1809F1FF3043D2AC4241D9A9F1FB
:100F300002091D442D1B1FFA8EFEB5FBFCF00CFBB5
:100F400010554EEA054400FB08F8A04507D9E418FF
:100F500000F1FF3529D2A04527D902381C4440EAC8
:100F60000940A4EB0804A0FB02894C45C6464D4647
:100F700015D312D056B1BAEB0E0364EB050404FA94
:100F800007F7CB401F43CC40376074600021BDE8B9
:100F9000F0871846F8E69046E0E6C245EAD2B8EB9C
:100FA000020E69EB03050138E4E72846D7E740461F
:100FB00091E78146BEE7014678E702383C4445E7C1
:100FC000084608E7A8F102083D442BE703685A00E9
:100FD0004CBF43F0004323F000431844704700BF68
:100FE00061B32DE9F84F01F1FF3A90460646D1462C
:100FF000002707EB090404EBD4746410E5007119B1
:101000000846FFF7E3FFA245834605F10800304498
:1010100009D0FFF7DBFFC34500F1FF3005D840459D
:1010200009D2671CE5E7C34505D9A74202D004F100
:10103000FF39DEE700210846BDE8F88F0846704713
:10104000012807D0022807D0044B00280CBF1846FF
:101050000020704702487047024870474517000853
:10106000491700084D17000830B5244B83B00446DB
:101070008D1E7BB301A92846AFF3008020B30199F0
:101080002A46FFF7ADFF0146F0B1FFF79FFF4B681F
:10109000A064012B12D0002B01F1040020DBFFF72C
:1010A00095FF0023E06423650368002B1CDBFFF73A
:1010B0008DFF00232061184603B030BD002323615B
:1010C0000523184603B030BD0023236109231846C9
:1010D00003B030BD0A490B48091AC9100191CFE786
:1010E0000123E0642365DFE7C3F30360FFF7A8FF94
:1010F0000028206114BF00230923DCE70000000062
:10110000D0CC000868CB00080368DA0710B50446A5
:1011100006D49B0700F1480009D500F051FC236874
:10112000590709D51A070ED5DB0613D510BD00F0F7
:101130003FFC23685907F5D404F1D00000F048FCC7
:1011400023681A07F0D404F5A87000F049FC23685E
:10115000DB06EBD404F5E870BDE8104000F084BC79
:10116000036803B103441846704700BF0920704765
:10117000704700BF70B504460D4608E02B6C6361F4
:101180002A462369214601209847082808D1296C5E
:101190002046FFF769FF06460028EFD00BF002FA61
:1011A0000728FBD13046296CFFF7E2FF281D00F02D
:1011B000F3FB00BF2DE9F0470C1D054692460FCC0E
:1011C000ADF5727D03AE0FC60FCC0FC60FCC0FC6A8
:1011D00094E80F0002ACD5F80C80D5F8189086E89A
:1011E0000F0000232846216C2360FFF73DFFBAF172
:1011F000000F074614BF0A2609267FB1A36B46F0ED
:1012000010018DE810022A46636401202B46C04776
:1012100078BB38460DF5727DBDE8F087236C6B61B5
:101220004FF4F07221467AA807F04EFA2B697AAA99
:10123000294630469847889B82468DE81002314601
:1012400063642A462B460120C04790B94FF4F072E0
:101250007AA9204607F038FABAF1080F06D1216CB6
:101260002846FFF701FF09260746C6E7BAF1070F30
:1012700005D0092738460DF5727DBDE8F087384660
:10128000216CFFF775FF03A800F086FB406C7047E8
:10129000F0B5CB6B0B640E1D0F4604460FCEF9B0B4
:1012A00001AD0FC50FCE0FC50FCE0FC596E80F00CD
:1012B0004FF0FF3685E80F00009606E023696A4686
:1012C000214698470828054608D110992046FFF77F
:1012D000CBFE0028F2D0092079B0F0BD6846FFF7B8
:1012E00013FF062DF7D139462046FFF743FF00BF15
:1012F00030B4DD6BC160826119461D64002230BCD0
:1013000058E700BF70B5C66843690B6426B1012277
:10131000FFF750FF0BF046F903690A4604460D46F5
:10132000014602209847072807D0082803D12946FC
:101330002046FFF71FFF0BF035F93046296CFFF709
:1013400017FF281D00F028FBC2681AB1CA6B0A6497
:1013500000222FE79CE700BF704700BF836813B1EE
:10136000014601201847704700B5042907D8DFE877
:1013700001F00309060909000BB90F2A05D902205B
:101380005DF804FB01205DF804FB00EB82021846C7
:101390005368019A13605DF804FB00BF10B584B078
:1013A000002303AC0A4600941946FFF7DDFF0398BB
:1013B00004B010BD00B5042907D8DFE801F0030927
:1013C000060909000BB90F2A05D902205DF804FBB4
:1013D00001205DF804FB019900EB8202096851606D
:1013E00018465DF804FB00BF10B584B004AC0023C0
:1013F00044F8042D0A4600941946FFF7DBFF04B0B9
:1014000010BD00BFF0B5D36B1364151D07460E4623
:101410000FCDADF50F7D17AC0FC40FCD0FC40FCDA1
:101420000FC495E80F004FF0FF3584E80F001695C4
:1014300010E016A8FFF7D8FF314616A8B84716AA3D
:10144000694678B9049B08209847052804460AD0C5
:10145000092807D026996846FFF706FE6A460C2140
:101460000028E6D0092416A8FFF74EFE20460DF509
:101470000F7DF0BD2DE9F04F0D46C96C8BB00C1DF2
:10148000096807919146089400F0030B1E46002B53
:1014900060D10902032307918DF825608DF824306F
:1014A0002B6DBBF1020F08BFAC6B13F0010340D1F1
:1014B000019300F008030393D4F80080B8F1000F03
:1014C00039D0022E43D0B4F8008067880434AB6C66
:1014D00027F0010A0F2148469A44FFF75FFF824533
:1014E00033D828F001039A4450452CBF0020012036
:1014F0007F0007F0020708F0010847EA0807012FFC
:101500003ED035D3022F1CD1236823F00042029233
:10151000BBF1000F76D128B1039900297ED0002AB3
:1015200000F0A680002B77DB029B013304EB8304E1
:10153000C2E700230193022E3EDDFFF717FE0028CD
:1015400040D009200BB0BDE8F08F0020D0E76768DD
:101550000834BCE7022BA3DC0B0CDAB209048DF8CB
:101560002530022304EB820407918DF8243097E79D
:10157000BBF1000F02D0002840F0BD8004349BE78F
:10158000BBF1000F25D1A8B194E80C00991C4FEADB
:10159000D272D6D005F158010133069100F0A38034
:1015A000201DFFF7DDFD06AB01462846AFF30080A6
:1015B000002877D108347FE707A9484600F0EEFA03
:1015C0000028BED1019B002B5CD108200BB0BDE8E8
:1015D000F08F0D2148462F6AFFF7E0FE8742E9D1E0
:1015E000AB6A9C42E6D12046FFF7F0FC0F21024691
:1015F0004846FFF7F9FE48462A460021FFF7F4FE69
:1016000007209FE70D2148462F6AFFF7C7FE874254
:1016100058D02368002B87DA043485E7029B3BB35C
:1016200005F15803271DCDF810B0DDF80C80DDF86A
:1016300008A00596A3461C4602E0B245B04616D067
:1016400038460694FFF78CFD06AB0146002228467B
:10165000AFF3008008F1010604370028EDD0029BAB
:10166000059E43455C46DDF810B0D2D100E05C46F3
:1016700048460D21FFF792FE069B2862AC626B6222
:1016800006205FE70F214846FFF788FE0E2102463D
:101690004846FFF7A9FE4846294A0F21FFF7A4FE56
:1016A00007204FE707460D214846FFF777FE022F38
:1016B00028621DD12B46069A43F82C2F6B62AC6230
:1016C00006203FE7AB6A9C42A3D104220027A3185F
:1016D0000299A962EF622A636B632368BB421DDB38
:1016E0000123019320E748460D21FFF757FE2862AA
:1016F000069B6B62E3E72046FFF768FC043406466E
:10170000AC632846AFF3008000283FF41AAF484688
:1017100032460F21FFF768FE072013E70846013025
:1017200004EB8000FFF752FC0F2102464846FFF70A
:101730005BFE48462A463946FFF756FE072001E77A
:1017400000000000002395E6012393E6022391E6C2
:10175000F0B50446C5B004290DD8DFE801F0530305
:101760000C310F00012B4FEA124695B262D172196B
:10177000102A40F29B80022045B0F0BD002BFAD128
:10178000102AF8D82368D80600F1C68022AE304669
:10179000019200F073F9A06B019A0023012505FA6C
:1017A00003F1114203D0016846F8231004300133DD
:1017B000042BF4D1A063304600F056F90020DBE79B
:1017C000032BD8D1150C97B2EB19102BD3D8236863
:1017D0001E0700F1B58022AE304600F023F9ED007F
:1017E000A36B4FB1043D711903EBC70053F8042BF1
:1017F00041F8042F8342F9D13046A36300F0F0F89A
:101800000020B9E7002BB6D1A56B97B2201D0126A9
:1018100006FA03F1394203F1010302D0296801609D
:101820000435102B00F10400F2D112F400503BD12A
:10183000A563A1E7052B9ED17719202F9BD80F2EEA
:1018400066D92F46002D3AD12A460027002AA06BE0
:1018500072DD00EBC202014644A800EBC6008C38E2
:1018600051F8045B40F8045F9142F9D1084697B102
:10187000102E324644A938BF102201EBC202A2F555
:10188000C4727900043A00EB810150F8045B42F81D
:10189000045F8842F9D1012B48D00F2EA16333D9C0
:1018A00017B102A800F094F8002065E70F2E3FF66C
:1018B00062AF00272268D10717D4002F60D02268BA
:1018C000510745D4012B4DD00F2E06D822A80193E5
:1018D00000F07AF8019B002FB6D002A8019300F027
:1018E0007BF8019BC6F11002B0E722F00101052B45
:1018F0002160019320463BD022F0030240F8482BA0
:1019000000F05AF8019BD8E722A800F059F8C7E781
:10191000102FCED9103FCDE723F01003236004F53C
:10192000E870019200F0AAF8019A2FE70431A16350
:1019300022A800F03DF8B7E7002F99D10146AAE7A9
:1019400023F00803236004F5A87000F06BF842E769
:10195000204622F0040240F8D02B019300F03CF81E
:10196000019BAFE722A8019300F026F8019BB9E79D
:1019700041F0020140F8481B00F026F8019B9CE76B
:10198000012B03D00F2E3FF65FAF9FE722A80193F4
:1019900000F012F8019B57E700F1340191E838009C
:1019A0009C46A6464CF8045D90E8FF0FE54600BD56
:1019B00090EC210B704700BF80EC210B704700BFFB
:1019C00090EC200B704700BF80EC200B704700BFED
:1019D000D0EC200B704700BFC0EC200B704700BF5D
:1019E000F0EC0201F0EC0211F0EC0221F0EC02311B
:1019F000F0EC0241F0EC0251F0EC0261F0EC02710B
:101A0000F0EC0281F0EC0291F0EC02A1F0EC02B1FA
:101A1000F0EC02C1F0EC02D1F0EC02E1F0EC02F1EA
:101A2000704700BFE0EC0201E0EC0211E0EC0221A3
:101A3000E0EC0231E0EC0241E0EC0251E0EC02614A
:101A4000E0EC0271E0EC0281E0EC0291E0EC02A13A
:101A5000E0EC02B1E0EC02C1E0EC02D1E0EC02E12A
:101A6000E0EC02F1704700BFB0FC0181B0FC0191D5
:101A7000B0FC01A1B0FC01B1704700BFA0FC018126
:101A8000A0FC0191A0FC01A1A0FC01B1704700BF26
:101A9000EC4600B52DE900502DE9FF1F4FF0000383
:101AA0002DE90C0001A9FFF7F3FBDDF840E012B0CF
:101AB000704700BFEC4600B52DE900502DE9FF1F2F
:101AC0004FF000032DE90C0001A9FFF71BFCDDF826
:101AD00040E012B0704700BFEC4600B52DE9005061
:101AE0002DE9FF1F4FF000032DE90C0001A9FFF7BE
:101AF0002BFCDDF840E012B0704700BFEC4600B5AB
:101B00002DE900502DE9FF1F4FF000032DE90C00D7
:101B100001ABFFF7EDFBDDF840E012B0704700BF0E
:101B2000EC4600B52DE900502DE9FF1F4FF00003F2
:101B30002DE90C0001AAFFF765FCDDF840E012B0CA
:101B4000704700BF027A1AB9437A43B9B020704790
:101B50000368013A02721A020260180E7047426866
:101B6000013B10B4437213680321141D01721A0261
:101B7000446002605DF8044B180E704700B585B0F4
:101B800003AA0023009219460C22FFF7EDFB0398ED
:101B900005B05DF804FB00BFF0E700BF2DE9F0439E
:101BA000064685B00F464FF000083846FFF7CAFFDB
:101BB000B028044623D0050627D400230DF10C09D4
:101BC000194685000D22CDF800903046FFF7CCFB7A
:101BD000EDB2039BCDF80090600605F104054CBF03
:101BE0005D1BED18002319460D2230460395FFF7C3
:101BF000E1FB3846FFF7A6FFB0280446DBD1B8F179
:101C0000000F00F0958000201CE000F0F003802B16
:101C10005DD0902B19D0A02B2CD0B02B3FD0C02B57
:101C20006CD000F0F803D02B0BD100F0070201328A
:101C300042F40022052301213046FFF789FD0028E8
:101C4000B3D0092005B0BDE8F08300F00D030D2BE3
:101C5000F7D003AD002300F00F021946009530467F
:101C6000FFF782FB0023009519460D223046FFF74F
:101C7000A1FB9AE7C24302F007034FF47F621A41C7
:101C8000010702F47F624FF0000348BF42F4804234
:101C900019463046FFF75CFD0028D2D185E7B12810
:101CA00057D0B22868D0B32800F0958000F0FC032C
:101CB000B42BC6D000F007020132012342F4002207
:101CC00019463046FFF744FD0028BAD16DE7384683
:101CD000FFF738FF24020443B4F5004FB1D02401CC
:101CE0000023A2B219463046FFF732FD0028A8D1E2
:101CF00014F4004F18BF4FF0010856E7C6287DD0F6
:101D0000C72800F0868000F0F803C02B00F0948014
:101D1000C82800F09F80C92893D13846FFF712FFEA
:101D2000020300F00F0002F470220130024381E749
:101D300003AC43460E22414600943046FFF714FBA5
:101D40000094304643460F224146FFF733FB40469E
:101D500078E73846FFF7F6FE00283FF472AF10F040
:101D6000F0037FF46EAF024619463046FFF7F0FCF1
:101D700000287FF466AF18E700230DF10C090D224F
:101D80001946CDF800903046FFF7EEFA3846FFF7D7
:101D9000D9FE02064FF002040CD5039B00F07F0031
:101DA000A040034438460393FFF7CCFE030604F13A
:101DB0000704F2D4039BCDF8009000F07F02A2400C
:101DC00003F501740023144419460D223046039490
:101DD000FFF7F0FAE9E63846FFF7B4FE010300F03A
:101DE0000F0001F47021421C01230A4330461946BA
:101DF000FFF7AEFC00287FF424AFD6E63846FFF7A5
:101E0000A1FE010300F00F0001F47021421C032326
:101E1000EBE73846FFF796FE00283FF412AF10F0CC
:101E2000F0037FF40EAF024604213046FFF790FC2A
:101E300000287FF406AFB8E600F00F02013203235A
:101E400042F4202219463046FFF782FC00287FF436
:101E5000F8AEAAE63846FFF775FE00F0F00200F093
:101E60000F031032013343EA0232E3E610B5C36CCC
:101E700084B05A6803208DF80C00DC798DF80D4091
:101E800012020833084601A901920293FFF786FE69
:101E900004B010BD08B5FFF77FFE806C08BD00BF21
:101EA00008B5FFF779FEC06CC37900EB83000830FA
:101EB00008BD00BF08B50AF075FB00BF08B5FFF705
:101EC000F9FF00BF704700BF38B50E4A0E4B0546FC
:101ED00018784FF47A73B3FBF0F31068B0FBF3F0AB
:101EE00000F0B8FB044658B90F2D09D80246294620
:101EF0004FF0FF3000F06CFB044B20461D6038BDF6
:101F0000012038BD0800002000000020040000204F
:101F100008B50B4B1A6842F400721A601A6842F452
:101F200080621A601A6842F480721A60032000F01E
:101F30003DFB0020FFF7C8FF02F02EFD002008BD8A
:101F4000003C0240034A044B11681B780B441360A9
:101F5000704700BF0407002000000020014B1868F4
:101F6000704700BF0407002038B50446FFF7F6FFAE
:101F7000631C1CBF054B1B78054618BFE418FFF710
:101F8000EDFF401B8442FAD838BD00BF000000209E
:101F900038B5044600286ED090F820300BB901F017
:101FA000D5FE2268136823F002031360FFF7D6FF03
:101FB000054623685A68910751D41A6842F0010215
:101FC0001A60FFF7CBFF054623685A68D20754D53D
:101FD000227E012A1A680CBF42F0800222F08002A1
:101FE0001A60627E012A1A680CBF42F0400222F099
:101FF00040021A60A27E012A1A680CBF42F0200239
:1020000022F020021A60E27E012A1A680CBF22F038
:10201000100242F010021A60227F012A1A680CBFD7
:1020200042F0080222F008021A60627F012A1A6850
:102030000CBF42F0040222F004021A60E168A268B8
:102040000A4321690A4361690A43616801390A4305
:10205000DA6100200123606284F8203038BDFFF788
:102060007DFF401B0A28A4D9636A43F400336362EE
:10207000052384F82030012038BDFFF76FFF401B97
:102080000A28A1D9F0E7000090F82030013B012B8D
:1020900030B579D83F4BD3F8002242F00102C3F8A3
:1020A0000022D3F8002222F47C52C3F80022D3F895
:1020B0000022486A42EA0022C3F800224869D3F8A5
:1020C0001C5200F01F0201249440E2431540C3F863
:1020D0001C52CD69002D36D1D3F80C521540C3F8EF
:1020E0000C52C000CD688B8800F1804000F5C840DC
:1020F00043EA0543C0F840328D680B8843EA054344
:10210000C0F844328869234B002835D1D3F8040243
:102110001040C3F80402086990BBD3F814020240CF
:10212000C3F814220B6A1B4A012B02BFD2F81C32DF
:102130002343C2F81C32D2F8003223F00103C2F864
:102140000032002030BD012DDCD1D3F80C522543E4
:10215000C3F80C520B688D8845EA0345C30003F1B0
:10216000804303F5C8438889C3F840528D6840EA2C
:102170000540C3F84402C5E7D3F804022043C8E78A
:10218000D3F814222243CBE7436A43F4802343620B
:10219000012030BD0064004038B590F82030012B9C
:1021A00004461FD10268022380F82030136823F010
:1021B00001031360FFF7D2FE05462368586810F04C
:1021C000010001D1606238BDFFF7C8FE401B0A283C
:1021D000F3D9636A43F400336362052384F8203043
:1021E000012038BD436A43F400234362F8E7F0B5A9
:1021F00090F820500668013D012DB46840D814F0D5
:10220000E05F39D0C4F30164032C4FF0010505D120
:10221000436A43F4000343620120F0BDA5401D6002
:102220008868CF6804F1180308BB086847EA405083
:102230001B012401F05033190869097DC3F884019A
:10224000012902BFD3F8841141F48071C3F88411CD
:1022500034445168C4F88C111268C4F88821D3F84A
:10226000802142F00102C3F880210020F0BD4D68BA
:10227000384340EAC500DBE7436A43F40013CAE78A
:10228000436A43F48023C6E7F0B590F82040013C50
:10229000012C6BD8066841B9F468A40707D1436ADA
:1022A00043F4001343620120F0BD3469F5E70C01EB
:1022B0003519D5F8B07107F004079760002F4BD19E
:1022C000D5F8B0717F0D1760D5F8B071C7F340072E
:1022D000D760D5F8B47107F00F071761D5F8B4715E
:1022E000D5F8B4512644C7F307272D0C97615561E3
:1022F000D6F8B8211A7002682244D2F8B821120A1E
:102300005A7002682244D2F8B821120C9A700268FE
:102310002244D2F8B821120EDA7002682244D2F8B0
:10232000BC211A7102682244D2F8BC21120A5A71E7
:1023300002682244D2F8BC21120C9A71026814443B
:10234000D4F8BC21120EDA71036851B9DA6842F090
:102350002002DA600020F0BDD5F8B071FF085760A8
:10236000B2E71A6942F020021A61F3E7436A43F4C4
:10237000802397E790F82030013B012B05D80268B5
:1023800053691943516100207047436A43F4802325
:10239000436201207047704770477047704770472D
:1023A00070477047704770477047704770472DE916
:1023B000F84F03685E69D3F804909F68D3F80CB0B7
:1023C000D3F810A0D3F8188016F00104054622D0E7
:1023D00017F0010407D00122B9079A6040F1A380E9
:1023E000FFF7D9FF0024FB0509D52B684FF4807255
:1023F000B8059A6040F1A5802846FFF7CDFFFB03A2
:1024000009D52B684FF48032B8039A6040F1A78059
:102410002846FFF7C2FF330707D51BF0100F1FBF79
:102420002B68102244F40074DA60770708D51BF09B
:10243000080F05D02B680822DA602846FFF7B1FFA5
:10244000B00706D52B68DB68990702D0284601F053
:10245000DFFA720607D51AF0100F1FBF2B68102283
:1024600044F480641A61B30608D51AF0080F05D049
:102470002B6808221A612846FFF795FFF70606D554
:102480002B681B69980702D02846FFF78BFFB10322
:1024900008D519F0100F05D02B6810225A60284675
:1024A000FFF782FFF20308D519F0080F05D02B685B
:1024B00008225A602846FFF778FF33042AD519F01E
:1024C000040F2A6824D0F70504D518F0010F18BFAF
:1024D00044F00104B00504D518F0020F18BF44F011
:1024E0000204710504D518F0040F18BF44F0040469
:1024F00033050DD518F070030AD0302B4CD03CD8E2
:10250000102B43D0202B44D0936923F070039361A8
:10251000042353602CB16B6A1C436C622846FFF79E
:1025200045FFBDE8F88F7A0705D417F0080405D1F8
:10253000FFF734FF57E74FF4006454E74FF480543B
:1025400051E7790502D544F4005458E73A0502D51D
:1025500044F4804453E72846FFF721FF4FE779030F
:1025600002D544F4004456E73A0302D544F48034DB
:1025700051E72846FFF714FF4DE7502B0FD0602B93
:1025800010D0402BC0D144F04004BDE744F0080413
:10259000BAE744F01004B7E744F02004B4E744F08D
:1025A0008004B1E744F48074AEE70000074AD368C2
:1025B00023F4E0631B041B0C43F0BF63000243F4ED
:1025C000003300F4E0600343D360704700ED00E0A7
:1025D000174B30B5DC68C4F30224C4F10703251D92
:1025E000042B28BF0423062D4FF0010505FA03F341
:1025F00003F1FF338CBF033C00241940A14005FACE
:1026000004F4013C2240002842EA01024FEA02128F
:10261000ADBF00F1604000F00F00064B00F56140D7
:10262000B5BFD2B2D2B21A5480F8002330BD00BF79
:1026300000ED00E014ED00E0002808DB4209012372
:1026400000F01F0003FA00F0014B43F8220070472E
:1026500000E100E00138B0F1807F0AD2064B074A62
:102660005860F02182F823100020072298601A6039
:1026700070470120704700BF10E000E000ED00E06F
:102680000368DAB223F47F7323F003031821103AAE
:10269000B2FBF1F20449032A88BF0433895C8365E5
:1026A000C165806D704700BFF4C6000870B5044670
:1026B000FFF754FC0546002C71D0002384F8343019
:1026C0002268022384F83530136823F00103136075
:1026D00021680B68D8073CD40B68324D6268A0694A
:1026E0001D40A3681343E2681343226913436269E0
:1026F0001343E26903431343226A1343626A042AC1
:1027000043EA050301BF266BE56A35432B430B60A3
:102710004B69042A23F0070343EA02030BD1A26AA0
:10272000E56A13433DB1F8B9012A2DD001D3022A3D
:1027300001D1EA012BD44B612046FFF7A1FFE26DE6
:102740003F239340836000200123606584F8353087
:1027500070BDFFF703FC401B0528B9D92023636532
:10276000032084F8350070BDB0F5005F13D1032A53
:10277000E1D801A050F822F08F2700083327000885
:102780008F27000889270008B5F1C07FD3D14023E7
:1027900063650120E5E7022AF9D9032AC8E7012089
:1027A00070BD00BF3F8010F0F7B5002301935A4B76
:1027B000856D1F68C36D2E6808229A401642044634
:1027C0000CD001680868400708D5086820F00400AC
:1027D0000860AA60626D42F00102626501229A40BF
:1027E000164208D021684969090641BFAA60626D96
:1027F00042F00202626504229A40164208D0216823
:102800000968880741BFAA60626D42F004026265F0
:1028100010229A40164210D02368196809070CD577
:10282000AA601A68500335D51B68190301D4236CBC
:1028300000E0A36C0BB120469847E16D20228A404E
:10284000164238D023681868C60634D5AA6094F8B2
:102850003520052A1A6825D122F016021A605A6915
:1028600022F080025A61226C0AB9A26C1AB11A686D
:1028700022F008021A603F238B40AB60002384F8EB
:102880003430012384F83530236D0BB1204698474E
:1028900003B0F0BD1A68D2055EBF1A6822F00802C4
:1028A0001A60C4E7500328D51B68190332D4636C3F
:1028B0000BB120469847636D002BE9D0636DDA07B2
:1028C00019D50523226884F83530136823F00103F5
:1028D00013604FF41653B7FBF3F7019B01339F428C
:1028E000019302D31368DB07F7D4002384F8343054
:1028F000012384F83530E36CC7E71A6812F480725C
:1029000008D1196821F010011960012384F83420DE
:1029100084F83530E36BCBE7080000202DE9F04F59
:1029200085B00B68DFF8A081654ADFF8A0910193BC
:1029300000234FF0010E019C0EFA03FE0EEA04067E
:10294000B64540F0AA804C6824F01007022F16D13B
:102950004FEAD30A00EB8A0A03F0070BDAF820509B
:102960004FEA8B0B4FF00F0C0CFA0BFC25EA0C0C0A
:102970000D6905FA0BF545EA0C05CAF820504FEA37
:10298000430A0325D0F800B005FA0AF5ED4304F038
:10299000030C0BEA050B0CFA0AFC013F4CEA0B0C8A
:1029A000012FC0F800C011D8876807EA050BCF686F
:1029B00007FA0AFC4CEA0B078760476827EA0E0E05
:1029C000C4F300179F4047EA0E074760C7683D40C1
:1029D0008F6807FA0AF73D43C560E5005DD54FF003
:1029E000000BCDF80CB0D8F84470364D47F4804752
:1029F000C8F84470D8F8447007F480470397039FE1
:102A000023F0030707F1804707F59C3703F0030C19
:102A1000D7F808A04FEA8C0C4FF00F0E0EFA0CFE00
:102A2000A8422AEA0E0E3FD005F58065A8423DD0A7
:102A300005F58065A8423BD005F58065A84239D0F0
:102A400005F58065A84237D0484537D005F50065C3
:102A5000A84214BF0725062505FA0CF545EA0E0520
:102A6000BD601568F74314F4803F0CBF3D4035430B
:102A70001560556814F4003F0CBF3D403543556068
:102A8000956814F4801F0CBF3D4035439560D568B0
:102A9000A40254BF3D403543D5600133102B7FF471
:102AA00048AF05B0BDE8F08F5D46D5E70125D3E717
:102AB0000225D1E70325CFE70425CDE70525CBE7A0
:102AC000003C014000000240003802400014024077
:102AD0000AB1816170470904FBE7436931EA0303E6
:102AE00008BF0904816170472DE9F0410D46044695
:102AF00010B90120BDE8F081444B1A6802F00F02C2
:102B00008A4228D321688F072DD4C80740D43F4B71
:102B10001A6802F00F02954266D3226851076CD4FE
:102B2000130707D53A4A2169936823F4604343EABF
:102B3000C103936000F092F8354B364A9B68C3F3AB
:102B40000313D35CD840344B18600020FFF7BCF966
:102B50000020BDE8F081CAB21A701B6803F00F03B1
:102B60009942C6D1CEE72A4B11F0040F1EBF9A68D6
:102B700042F4E0529A600E0742BF9A6842F4604203
:102B80009A609A68A06822F0F00202439A60BCE75B
:102B900062681F4B012A1DD11B6813F4003FA8D0A7
:102BA0001B4EB36823F003031343B360FFF7D6F95A
:102BB00041F288380746B368626803F00C03B3EB50
:102BC000820FA4D0FFF7CAF9C01B4045F3D90320F8
:102BD000BDE8F081911E01291B6802D813F0007F27
:102BE000DDE713F0020FDAE7EAB21A701B6803F0B0
:102BF0000F039D427FF47DAF8FE70549E0688B6846
:102C000023F4E05303438B608AE700BF003C02409B
:102C100000380240FCC6000808000020044B054AAA
:102C20009B68C3F38223D35C034A1068D840704783
:102C3000003802400CC7000808000020044B054A79
:102C40009B68C3F34233D35C034A1068D840704793
:102C5000003802400CC7000808000020204908B5D1
:102C60008B6803F00C03082B07D00C2B20D01D4AD7
:102C70001D48042B18BF104608BD4A684B684968B8
:102C800013F4800314BF18481648C1F3881118BF05
:102C9000002302F03F02A1FB0001FEF711F8104BE8
:102CA0005B68C3F3014301335B00B0FBF3F008BD85
:102CB0004A684B68496813F4800314BF0A480948FE
:102CC000C1F3881118BF002302F03F02A1FB0001ED
:102CD000FDF7F6FF024B5B68C3F30273E5E700BF45
:102CE000003802400024F40000127A0003682DE945
:102CF000F341DF07044610D423689E0767D4236896
:102D00001A0700F1B28023685B0700F1D080A26946
:102D1000002A40F0398100201EE0974B9A6802F0AB
:102D20000C02042A10D09A6802F00C02082A02D180
:102D30005B685D0208D4904B9A6802F00C020C2A82
:102D40000DD15A6850020AD58B4B1B689903D3D515
:102D50006368002BD0D1012002B0BDE8F081626829
:102D6000B2F5803F11D11A6842F480321A60FFF741
:102D7000F5F8814D06462B689A03BDD4FFF7EEF8AF
:102D8000801B6428F7D90320E6E77B4DB2F5A02F1E
:102D90002B6807D143F480232B602B6843F48033E6
:102DA0002B60E4E723F480332B602B6823F480232B
:102DB0002B60002ADBD1FFF7D1F806462B689B0376
:102DC0009AD5FFF7CBF8801B6428F7D9DBE76A4B6D
:102DD0009A6812F00C0F10D09A6802F00C02082AC0
:102DE00002D15B685F0208D5634A936803F00C0365
:102DF0000C2B11D153685E020ED45F4B1A689507F5
:102E000002D5E268012AA6D11A68216922F0F802E7
:102E100042EAC1021A6072E7E268584BB2B101227D
:102E20001A60FFF79BF8544D06462B68980707D5A4
:102E30002B68226923F0F80343EAC2032B605EE7A4
:102E4000FFF78CF8801B0228EFD99CE71A60FFF788
:102E500085F8494D06462B6899077FF550AFFFF777
:102E60007DF8801B0228F6D98DE76269444B7AB160
:102E700001221A60FFF772F83F4D06466B6F9F07FD
:102E80003FF541AFFFF76AF8801B0228F6D97AE7D1
:102E90001A60FFF763F8384D06466B6F98077FF5A9
:102EA00032AFFFF75BF8801B0228F6D96BE7324B95
:102EB0001A6C12F0805228D101921A6C42F08052A2
:102EC0001A641B6C03F080530193019B01262D4D66
:102ED0002B68D9051BD5A368274D012B27D12B6F54
:102EE00043F001032B67FFF739F8234D074641F202
:102EF00088382B6F9B0739D5002E3FF408AF1E4A48
:102F0000136C23F08053136401E70026DFE72B687E
:102F100043F480732B60FFF721F807462B68DA052E
:102F2000D9D4FFF71BF8C01B0228F7D92BE7052BD4
:102F300004D12B6F43F004032B67D0E72A6F22F0F4
:102F400001022A672A6F22F004022A67002BCAD1E5
:102F5000FFF704F841F2883807462B6F9807CBD566
:102F6000FEF7FCFFC01B4045F7D90CE7FEF7F6FF64
:102F7000C01B4045BDD906E700380240000047426B
:102F8000800E474200700040234DAB6803F00C03F5
:102F9000082B3FF4E0AE214E0023022A33602DD1EE
:102FA000FEF7DCFF07462B68990121D4226AE3690A
:102FB0001343626A43EA8213E26A43EA0263226BC2
:102FC00043EA0273A26A144C5208013A43EA0243EC
:102FD0006B6001233360FEF7C1FF054623689A0149
:102FE0003FF599AEFEF7BAFF401B0228F6D9CAE6B4
:102FF000FEF7B4FFC01B0228D5D9C4E6FEF7AEFF2A
:1030000004462B689B017FF586AEFEF7A7FF001BE9
:103010000228F6D9B7E600BF0038024060004742F8
:10302000036A23F001030362036A70B5446882698E
:103030000D6822F073022A438D6823F002032B43AC
:103040000E4DA84202D00E4EB04210D1CE6823F0F1
:1030500008033343A84223F0040302D0084DA842DA
:1030600005D14D698E6924F4407435432C43446086
:1030700082614A684263036270BD00BF0000014084
:1030800000040140036A23F480730362036A70B58D
:103090004468C2690D6822F073022A438D6823F4E4
:1030A000007343EA0523114DA84203D005F580655E
:1030B000A84214D1CD6823F4006343EA05230B4DE5
:1030C000A84223F4806303D005F58065A84206D1A9
:1030D0004D698E6924F44054354344EA0514446034
:1030E000C2614A68C263036270BD00BF0000014054
:1030F000036A23F480530362036A30B54468C269EB
:103100000D6822F4E64242EA05228D6823F400535A
:1031100043EA0533084DA84203D005F58065A8426F
:1031200004D14D6924F4804444EA85144460C261AA
:103130004A680264036230BD000001400368DA6837
:1031400042F00102DA609A6802F00702062A1EBF06
:103150001A6842F001021A600020704770477047F9
:103160007047704703681A69910710B504460ED579
:10317000DA6892070BD56FF002021A619B6901228F
:103180009B07027777D0FFF7EAFF002323772368B6
:103190001A69500710D5DA6851070DD56FF004028F
:1031A0001A619B69022213F4407F2277204668D07F
:1031B000FFF7D5FF0023237723681A6912070FD57D
:1031C000DA6810070CD56FF008021A61DB69042277
:1031D0009907227720465AD0FFF7C1FF00232377B3
:1031E00023681A69D20610D5DA68D0060DD56FF0BB
:1031F00010021A61DB69082213F4407F227720460F
:103200004BD0FFF7ACFF0023237723681A69D1075F
:1032100008D5DA68D20705D56FF001021A61204699
:1032200000F036FD23681A69100608D5DA68110621
:1032300005D56FF080021A61204600F086F92368F8
:103240001A69520608D5DA68500605D56FF04002B3
:103250001A612046FFF785FF23681A69910622D577
:10326000DA6892061FD56FF0200220461A61BDE889
:10327000104000F069B9FFF771FF2046FFF770FFBB
:1032800083E7FFF76BFF2046FFF76AFF92E7FFF740
:1032900065FF2046FFF764FFA0E7FFF75FFF2046CA
:1032A000FFF75EFFAFE710BD304A0368904212D0CF
:1032B000B0F1804F0FD0A2F57C4290420BD002F5C6
:1032C0008062904207D002F58062904203D002F5FE
:1032D0007842904219D14A6823F070031343234A7D
:1032E000904229D0B0F1804F26D0A2F57C42904286
:1032F00022D002F5806290421ED002F58062904298
:103300001AD002F57842904216D0194A904213D052
:1033100002F5806290420FD002F5806290420BD09D
:10332000A2F59832904207D002F58062904203D015
:1033300002F58062904203D1CA6823F440731343BC
:103340004A6923F08003134303608B68C3620B68F0
:103350008362064B984203D003F58063984201D103
:103360000B69036301234361704700BF0000014004
:103370000040014010B50446A0B190F83D3003F084
:10338000FF021BB980F83C2001F022FC022384F8E4
:103390003D302068211DFFF787FF012384F83D3071
:1033A000002010BD012010BD10B50446A0B190F85A
:1033B0003D3003F0FF021BB980F83C2001F0F2FB26
:1033C000022384F83D302068211DFFF76DFF0123A3
:1033D00084F83D30002010BD012010BD036A23F0A9
:1033E00010030362036A70B5446882690D6822F4B1
:1033F000E64242EA05228D6823F0200343EA0513E2
:10340000104DA84203D005F58065A84214D1CD68BF
:1034100023F0800343EA05130A4DA84223F040033A
:1034200003D005F58065A84206D14D698E6924F464
:103430004064354344EA8504446082614A6882639B
:10344000036270BD0000014038B590F83C30012B9C
:1034500004464FF0020025D0012384F83C3084F864
:103460003D000C2A18D8DFE802F0071717171E17BF
:1034700017172F17171740002068FFF7D1FD236893
:1034800009699A6942F008029A619A6922F0040275
:103490009A619A690A439A610123002084F83D30B9
:1034A00084F83C0038BD2068FFF798FF236809695D
:1034B0009A6942F400629A619A6922F480629A6180
:1034C0009A6942EA0122E6E72068FFF7DBFD2368FC
:1034D0000969DA6942F00802DA61DA6922F0040265
:1034E000DA61DA690A43DA61D6E72068FFF700FE9D
:1034F00023680969DA6942F40062DA61DA6922F460
:103500008062DA61DA6942EA0122ECE790F83C3045
:10351000012B30B54FF0020314D0046880F83D3021
:103520006268A3680D68496822F0700223F0800386
:103530000B432A436260A360012380F83D300023DF
:1035400080F83C30184630BD704770472DE9F04791
:103550000668C2683369C16923F440531343336179
:10356000044683680069F2680343606922F41642E6
:10357000034322F00C020B431343F3607369A26907
:1035800023F440731343B1F5004F73617A4B7CD140
:103590009E4203D003F580639E4244D1FFF74EFB69
:1035A000192505FB00F360684FF064094000B3FB88
:1035B000F0F3B3FBF9F34FEA0318FFF73FFB63683F
:1035C00068435B00B0FBF3F7FFF738FB63686843C1
:1035D0005B00B0FBF3F3B3FBF9F309FB1373DB0000
:1035E0003233B3FBF9F35B0003F4F877FFF726FB04
:1035F000626868435200B0FBF2FAFFF71FFB636892
:1036000068435B00B0FBF3F3B3FBF9F309FB13A3CF
:10361000DB003233B3FBF9F303F0070343443B44CD
:10362000B360BDE8F087FFF7F9FA192505FB00F351
:1036300060684FF064094000B3FBF0F3B3FBF9F3AB
:103640004FEA0318FFF7EAFA636868435B00B0FBD0
:10365000F3F7FFF7E3FA636868435B00B0FBF3F34B
:10366000B3FBF9F309FB1373DB003233B3FBF9F35C
:103670005B0003F4F877FFF7D1FA62686843520001
:10368000B0FBF2FAFFF7CAFAB9E79E4202D03B4B11
:103690009E4240D1FFF7D2FA676819254FF06409BE
:1036A00005FB00F3BF00B3FBF7F3B3FBF9F31F0116
:1036B000FFF7C4FA636868439B00B0FBF3F8FFF7B9
:1036C000BDFA636868439B00B0FBF3F3B3FBF9F307
:1036D00009FB13831B013233B3FBF9F303F0F0084A
:1036E000FFF7ACFA626868439200B0FBF2FAFFF7AA
:1036F000A5FA636868439B00B0FBF3F3B3FBF9F3EF
:1037000009FB13A31B013233B3FBF9F303F00F03DF
:1037100043EA080383E7FFF781FA676819254FF04A
:10372000640905FB00F3BF00B3FBF7F3B3FBF9F348
:103730001F01FFF773FA636868439B00B0FBF3F85F
:10374000FFF76CFA636868439B00B0FBF3F3B3FBCD
:10375000F9F309FB13831B013233B3FBF9F303F0D5
:10376000F008FFF75BFA626868439200B0FBF2FA78
:10377000FFF754FABDE700BF0010014000140140FC
:10378000F8B504460E4617461D4621680B6836EA12
:10379000030301D10020F8BD6B1CF7D095B9236855
:1037A000DA6822F4D072DA605A6922F001025A61B2
:1037B000202384F8393084F83A30002384F83830F4
:1037C0000320F8BDFEF7CAFBC01B8542DDD2E6E749
:1037D00010B5044640B390F8393003F0FF021BB92E
:1037E00080F8382001F0C2FA2268242384F83930A6
:1037F000D36823F40053D3602046FFF7A7FE236865
:103800001A6922F490421A615A6922F02A025A6116
:10381000DA6842F40052DA6000202023E06384F882
:10382000393084F83A3010BD012010BD2DE9F04147
:103830001F4690F83930202B04460D4690464FD154
:1038400000294AD0002A48D090F83830012B47D0C0
:10385000012380F838300023C363212380F83930F6
:10386000FEF77CFBA4F824800646A4F82680E38CAF
:103870009BB26BB93B46324640212046FFF780FFA2
:10388000B0B9202384F8393084F83800BDE8F081DD
:10389000E38C013B9BB2E384A368B3F5805F3246BF
:1038A0003B464FF0800120460ED1FFF769FF10B173
:1038B0000320BDE8F0812B882268C3F3080353601E
:1038C000236943B90235D2E7FFF75AFF0028EFD149
:1038D00023682A785A600135C9E70120BDE8F081E4
:1038E0000220BDE8F0812DE9F0411F4690F83A3002
:1038F000202B04460D46904652D100294DD0002A77
:103900004BD090F83830012B4AD0012380F8383062
:103910000023C363222380F83A30FEF71FFBA4F88C
:103920002C800646A4F82E80E08D80B230B920238A
:1039300084F83A3084F83800BDE8F081E38D013B2B
:103940009BB2E385A368B3F5805F32463B464FF0F8
:103950002001204612D1FFF713FF10B10320BDE86C
:10396000F081236822695B6822B9C3F3080325F854
:10397000023BD9E7DBB225F8013BD5E7FFF700FFB3
:103980000028EBD1236821695B686A1C11B92B7090
:103990001546C9E703F07F03F9E70120BDE8F08190
:1039A0000220BDE8F081000080B58AB000AF00239E
:1039B0003B6000237B600023BB600023FB6000238F
:1039C0003B6100237B610123FB610023BB61012379
:1039D0003B623B4619460C48FEF756FB0346002B5C
:1039E00014BF01230023DBB2002B02D0074801F0F3
:1039F000B7FA0548FEF7D0FB02210348FEF7BAFCF0
:103A000000BF2837BD4680BD0807002058C6000803
:103A100080B582B000AF7860084B094A0021786811
:103A2000FEF732FC074B01221A7020210648FFF7EF
:103A300054F800BF0837BD4680BD00BF980600207F
:103A4000A0060020BC0600200000024080B584B023
:103A500000AFF860B9603B601346FB71FA79FB6810
:103A60001A61FB68BA685A60FB68BA681A60FB683A
:103A70009A6AFB689A60FB68DA6AFB68DA60FB683E
:103A800093F82030002B40F0EF80794B1B689B6847
:103A90009B0E03F00103012B0CBF01230023DBB2BB
:103AA000002B2BD0F96801233A687148FEF79FFB81
:103AB000F96801233A686E48FEF799FB0346002B2C
:103AC00014BF01230023DBB2002B0ED0FB680122C0
:103AD00083F82120664B1B689B691B0903F00702D2
:103AE000FB685A624FF0FF33BEE0FB68012283F8A7
:103AF0002020FB68002283F8212070E05C4B1B68CB
:103B00009B68DB0E03F00103012B0CBF0123002394
:103B1000DBB2002B2BD0F96802233A685448FEF739
:103B200066FBF96802233A685148FEF760FB0346DA
:103B3000002B14BF01230023DBB2002B0ED0FB6847
:103B4000012283F821204A4B1B689B691B0903F063
:103B50000702FB685A624FF0FF3385E0FB680122E1
:103B600083F82020FB68002283F8212037E0404BB7
:103B70001B689B681B0F03F00103012B0CBF012383
:103B80000023DBB2002B2AD0F96804233A683848B6
:103B9000FEF72DFBF96804233A683548FEF727FB4A
:103BA0000346002B14BF01230023DBB2002B0ED0F1
:103BB000FB68012283F821202D4B1B689B691B09A0
:103BC00003F00702FB685A624FF0FF334CE0FB68DA
:103BD000012283F82020FB68002283F82120FB6863
:103BE00093F82130002B2ED0FB685B6A013B052B3C
:103BF0003FF645AF01A252F823F000BF153C000884
:103C00001D3C0008253C00082D3C0008353C000800
:103C10003D3C0008174801F0A3F924E0164801F0E4
:103C20009FF920E0154801F09BF91CE0144801F0D1
:103C300097F918E0134801F093F914E0124801F0E5
:103C40008FF900BF0FE0FB6893F82030002B3FF4A2
:103C500016AFFB68002283F8202010210B48FEF7E6
:103C60003CFF002300E00AE718461037BD4680BD40
:103C70000807002070C6000880C6000890C600082B
:103C80009CC60008B4C60008CCC60008000002406C
:103C900080B582B000AF78607B681B68084A9342A9
:103CA00009D1084B1B6803F5F473184600F00EF8B1
:103CB000054B01221A7000BF0837BD4680BD00BF0A
:103CC00000100040C8060020C006002080B582B069
:103CD00000AF78607B685868002300224FF4886149
:103CE000FFF7B4FE0346002B14BF01230023DBB211
:103CF000002B03D008210348FEF7EFFE00BF083772
:103D0000BD4680BD000002400E480F494FF0807252
:103D100008B50823C2604FF4003280E80A0002614F
:103D20000023012283604361037642768376C37663
:103D300003774277FEF72CF918B1BDE8084000F090
:103D4000F5BD08BD080700200064004010B504461A
:103D500088B01422002103A801F0FAF82268204B51
:103D60009A423BD1002403F5EA3301941A6C1D48B2
:103D700042F000721A641A6C02F000720192019A09
:103D800002941A6B42F001021A631B6B03F00103E9
:103D90000293029B4FF4C053039302230493032323
:103DA000069303A909230793FEF7B8FD224621468F
:103DB0001420FEF70DFC1420FEF73EFC224621469F
:103DC0001520FEF705FC1520FEF736FC16202246CE
:103DD0002146FEF7FDFB1620FEF72EFC08B010BDB5
:103DE000006400400000024013B50F4B0024019412
:103DF0001A6B42F400121A631B6B03F40013224681
:103E0000214601931020019BFEF7E2FB1020FEF7F4
:103E100013FC224621461120FEF7DAFB1120FEF7A3
:103E20000BFC02B010BD00BF003802402DE9F0418C
:103E300014228AB00DEB0200002101F089F8002461
:103E4000344B01941A6B344EDFF8D880334F42F074
:103E500004021A631A6B02F004020192019A02949E
:103E60001A6B42F080021A631A6B02F0800202920F
:103E7000029A03941A6B42F001021A631A6B02F061
:103E800001020392039A04941A6B42F002021A632D
:103E90001B6B03F0020304932246304640F20331C9
:103EA000049BFEF715FE224640464FF48071FEF754
:103EB0000FFE22463846F021FEF70AFE4FF400536B
:103EC000059305A9164B0693304601250794FEF786
:103ED00025FD40F2033305A9304605930695079466
:103EE0000894FEF71BFD4FF4807305A94046059327
:103EF000069507940894FEF711FDF02305A93846AE
:103F00000593069507940894FEF708FD0AB0BDE8EE
:103F1000F08100BF00380240000802400004024067
:103F2000000021100000024080B485B000AFF860AE
:103F3000B9607A60FB68183300221A605A60FB6827
:103F4000002283F82020FB68002283F82120FB68F0
:103F5000002283F82220FB6800225A62FB68BA68BC
:103F60009A62FB687A68DA62FB6818461437BD46C5
:103F70005DF8047B704780B485B000AFF860B9602D
:103F80001346FB71FB68BA681A60FB799AB2FB684A
:103F90009A80FB6800229A60FB684FF00002DA60AA
:103FA000FB6818461437BD465DF8047B704780B443
:103FB00085B000AFF860B9601346FB80FB68BA6853
:103FC0001A60FB68043300221A605A60FB68FA88A2
:103FD0009A81FB6818461437BD465DF8047B70472C
:103FE00080B485B000AFF860B9601346FB71FB6820
:103FF000BA681A60FB68FA791A71FB6818461437B8
:10400000BD465DF8047B704780B485B000AFF860B2
:10401000B9601346FB80FB68BA681A60FB6804331A
:1040200000221A605A60FB68FA889A81FB68184679
:104030001437BD465DF8047B7047000080B485B03E
:1040400000AFF860B9607A60FB68BA681A60FB6814
:104050007A685A60FB681A4A9A60FB684FF40062FB
:10406000DA60FB68174A1A61FB68164A5A61FB68F6
:104070004FF000029A61FB684FF00002DA61FB68C2
:10408000002283F83020FB68002283F83120FB688F
:104090004FF000025A63FB684FF000029A63FB681E
:1040A0004FF00002DA63FB6800221A64FB6800220A
:1040B0005A64FB6818461437BD465DF8047B7047A8
:1040C0009EEF273DB81E853E80B485B000AFF860F6
:1040D000B9607A60FB68BA681A60FB680433002232
:1040E0001A605A609A60DA601A615A61FB687A68ED
:1040F000DA61FB6818461437BD465DF8047B7047EB
:1041000080B483B000AF786039607B683A681A6029
:104110007B68043300221A60C3F803207B68702296
:10412000DA607B6800221A617B6800221A757B685E
:1041300018460C37BD465DF8047B704780B582B0E9
:1041400000AF78607B68002204211846FFF7ECFE80
:104150007B683033022204211846FFF7E5FE7B68B6
:104160006033002200211846FFF7DEFE7B689033A3
:10417000796801221846FFF733FF7B689833796826
:1041800002221846FFF72CFF7B68A03379680322D0
:104190001846FFF725FF7B68A83379680422184684
:1041A000FFF71EFF7B68B033796805221846FFF7DA
:1041B00017FF7B68B833796806221846FFF710FFAF
:1041C0007B68C033796807221846FFF709FF7B68D0
:1041D000C833796808221846FFF702FF7B6803F1AD
:1041E000D0007B68603301221946FFF7E0FE7B6850
:1041F00003F1E0007B68603302221946FFF7D7FE27
:104200007B6803F1F0007B68603303221946FFF7F7
:10421000CEFE7B6803F580707B686033042219460C
:10422000FFF7C5FE7B6803F588707B686033052265
:104230001946FFF7BCFE7B6803F590707B6860331E
:1042400006221946FFF7B3FE7B6803F598707B687A
:10425000603307221946FFF7AAFE7B6803F5A070BA
:104260007B68603308221946FFF7A1FE7B6803F5DF
:10427000A873796801221846FFF7C6FE7B6803F52C
:10428000B073796802221846FFF7BEFE7B6803F51B
:10429000B873796803221846FFF7B6FE7B6803F50A
:1042A000C073796804221846FFF7AEFE7B6803F5F9
:1042B000C873796805221846FFF7A6FE7B6803F5E8
:1042C000D073796806221846FFF79EFE7B6803F5D7
:1042D000D873796807221846FFF796FE7B6803F5C6
:1042E000E073796808221846FFF78EFE7B6803F5B5
:1042F000E8727B68303319461046FFF701FF7B6890
:1043000003F5F47079687B6830331A46FFF796FE40
:104310007B6803F50C707B68303301221946FFF788
:104320002AFE7B6803F510707B6830330222194641
:10433000FFF721FE7B6803F514707B68303303229E
:104340001946FFF718FE7B6803F518707B68303359
:1043500004221946FFF70FFE7B6803F51C707B688B
:10436000303301221946FFF7AFFE7B6803F5247056
:104370007B68303302221946FFF7A6FE7B6803F5FF
:104380002C707B68303303221946FFF79DFE7B6853
:1043900003F534707B68303304221946FFF794FE2E
:1043A0007B6803F53C707B68303305221946FFF7C4
:1043B0008BFE7B6803F544707B6830330622194618
:1043C000FFF782FE7B6818460837BD4680BD0000B7
:1043D00080B52DED028B84B000AFF860B96087ED39
:1043E000010A97ED017ADFED396AC7EE267AFB689C
:1043F000C3ED007AFB6800229A80FB680022DA8015
:10440000FB684FF000029A60FB68BA68DA60FB68EC
:1044100093ED027AFB68D3ED007AB4EE677AF1EEA1
:1044200010FA40D0FB68DB8801339AB2FB68DA806F
:10443000FB6800229A80FB689B881A464FF6FE7341
:104440009A42E4DCFB68DB8807EE903AB8EE677AC4
:10445000FB689B8807EE903AF8EE677AF7EE006A01
:1044600077EEA67A27EE278AFEF7D8FB07EE900AAA
:10447000B8EE677AC8EE077AFB68C3ED027AFB688C
:1044800093ED027AFB68D3ED007AB4EE677AF1EE31
:1044900010FA06D0FB689B8801339AB2FB689A80B9
:1044A000C9E700BFB3E7FB68DB88013B1A46BB687E
:1044B0005A60FB689B881A46BB68DA60FB6818463E
:1044C0001037BD46BDEC028B80BD00BF00007A44B2
:1044D00080B582B000AF78607B68DB681846FEF775
:1044E0002DFE00BF0837BD4680BD80B483B000AF4D
:1044F0000346FB7100BF0C37BD465DF8047B704777
:1045000080B582B000AF0346FB71FB79002B05D06C
:10451000012201210648FEF7DBFA04E00022012116
:104520000348FEF7D5FA00BF0837BD4680BD00BF7F
:104530000008024080B582B000AF0346FB71FB79F2
:10454000002B05D0012202210648FEF7C1FA04E043
:10455000002202210348FEF7BBFA00BF0837BD4620
:1045600080BD00BF0008024080B584B000AF786015
:104570007B6803F0F003FB60FB689BB201221946E5
:104580000948FEF7A5FAFB68DB4303F0F003FB6084
:10459000FB689BB2002219460348FEF799FA00BF58
:1045A0001037BD4680BD00BF0004024080B582B018
:1045B00000AF03460A46FB711346BB71FB791846F0
:1045C000FFF7B8FFBB791846FFF7CEFF0120FFF7D2
:1045D00097FF0120FDF7C8FC0020FFF791FF0220A4
:1045E000FDF7C2FC00BF0837BD4680BD80B582B074
:1045F00000AF03460A46FB711346BB71FB791846B0
:10460000FFF798FFBB791846FFF7AEFF0120FFF7D1
:1046100077FF0120FDF7A8FC0020FFF771FFBB79B1
:104620001B01BB71BB791846FFF79EFF0120FFF706
:1046300067FF0120FDF798FC0020FFF761FF00BF36
:104640000837BD4680BD80B500AF01210020FFF7CF
:10465000CDFF00BF80BD80B584B000AF0346FB71C5
:104660000B46BB7113467B710823FB73FB79002B50
:1046700003D0FB7B43F00403FB73BB79002B03D017
:10468000FB7B43F00203FB737B79002B03D0FB7BA6
:1046900043F00103FB73FB7B19460020FFF7A6FFE5
:1046A00000BF1037BD4680BD80B500AF0020FFF7CA
:1046B0001CFF1E20FDF758FC30210020FFF776FF7D
:1046C0000520FDF751FC30210020FFF76FFF05208A
:1046D000FDF74AFC30210020FFF768FF0520FDF7B9
:1046E00043FC20210020FFF761FF0520FDF73CFC83
:1046F00020210020FFF75AFF0520FDF735FC20217F
:104700000020FFF753FF0520FDF72EFC00220021BB
:104710000020FFF7A0FF0520FDF726FCFFF793FF21
:104720000520FDF721FC06210020FFF75FFF282070
:10473000FDF71AFC002200210120FFF78CFF052065
:10474000FDF712FC00BF80BD80B582B000AF03460C
:10475000FB71FB7919460120FFF748FF00BF0837BE
:10476000BD4680BD80B582B000AF78607B681B78A5
:10477000002B08D07B681B781846FFF7E5FF7B68A5
:1047800001337B60F2E700BF0837BD4680BD000003
:1047900090B5ADF5537D00AFFDF7BAFB00F050F8D2
:1047A000FFF744FBFFF720FBFFF7AEFA00F0A6FA95
:1047B00000F0C0FA00F0B6F900F0D4F900F066FAA3
:1047C000FFF772FFFFF7F0F81748FFF7CBFF07F18D
:1047D00018031846FFF7B2FC144A07F118031360D8
:1047E00007F10803B2EE040A11491846FFF7F0FD7D
:1047F00007F108031846FFF76BFEFFF724FF0D488B
:10480000FFF7B0FF3B1D1B681846FBF7BDFE0346D4
:104810000C461A462346084800F0A2FB3B1D1946E9
:10482000064800F0B5FBEDE7D8C60008C806002032
:1048300030070020E0C60008E8C60008F0C60008FF
:1048400080B594B000AF07F11C0334220021184654
:1048500000F07EFB07F1080300221A605A609A609C
:10486000DA601A6100237B602E4A2E4B1B6C43F0EA
:10487000805313642B4B1B6C03F080537B607B686D
:1048800000233B60284A284B1B6843F440431360D5
:10489000254B1B6803F440433B603B680123FB61ED
:1048A0004FF480333B6202237B634FF48003BB638E
:1048B0000423FB63A0233B6402237B640223BB64C9
:1048C0000223FB6407F11C031846FEF70FFA0346A8
:1048D000002B14BF01230023DBB2002B01D000F01A
:1048E00025F80F23BB600223FB6000233B614FF4DC
:1048F000A0537B614FF48053BB6107F1080305218E
:104900001846FEF7F1F80346002B14BF01230023DD
:10491000DBB2002B01D000F009F800BF5037BD46D4
:1049200080BD00BF003802400070004080B400AF7E
:1049300000BFBD465DF8047B7047000007B502A9C3
:104940004FF6FF7341F8040D01220348FEF76EFF96
:10495000019803B05DF804FBF008002007B502A938
:10496000002301F8013D01224FF6FF730948FEF7CD
:10497000BAFF9DF807000D2804D1FFF7DFFF0A23D7
:104980008DF807309DF80700FFF7D8FF03B05DF8FA
:1049900004FB00BFF008002007B50E4B002100917A
:1049A0005A6C42F480425A645A6C02F4804200927B
:1049B000009A01911A6C42F080521A641B6C03F049
:1049C000805301930720019BFDF7F0FD03B05DF8D4
:1049D00004FB00BF003802407047FEE7FEE7FEE739
:1049E000FEE7704770477047FDF7ACBA0148FDF726
:1049F000DBBE00BFF00700200148FDF7D5BE00BFB9
:104A0000500800200148FDF7D2BC00BF0807002075
:104A1000FFF7F8BFFFF7F6BF0148FEF7A3BB00BFE3
:104A2000300700200148FEF79DBB00BFB007002003
:104A30000120704708B500F061FA162303604FF0BB
:104A4000FF3008BD08B500F059FA16230360FEE7F1
:104A5000F8B50E4617460D46AC1BA74206DDFFF71C
:104A60007DFFC0B20A2805F8010BF5D1601CF8BD26
:104A700070B50E4615460C46A31B9D4201DC284628
:104A800070BD14F8010BFFF759FFF5E708B50A4BA5
:104A90001968024609B9094919601868694602444B
:104AA0008A4206D900F02AFA0C2303604FF0FF3047
:104AB00008BD1A6008BD00BFCC06002040090020D8
:104AC0004FF0FF3070474FF400534B6000207047A9
:104AD00001207047002070470F49D1F8883043F417
:104AE0007003C1F888300D4B1A68002042F00102B3
:104AF0001A6098601A6822F0847222F480321A6078
:104B0000074A5A601A6822F480221A60D8604FF06F
:104B100000638B60704700BF00ED00E0003802408A
:104B20001030002413B50D4B0D480024009401945F
:104B300080E818008460C4608461FEF71BFC08B143
:104B4000FFF7F4FE6946064800940194FEF7DEFC88
:104B500008B1FFF7EBFE02B010BD00BF001000402F
:104B60003007002013B50D4B0D480024009401942C
:104B700080E818008460C4608461FEF7FBFB08B124
:104B8000FFF7D4FE6946064800940194FEF7BEFC88
:104B900008B1FFF7CBFE02B010BD00BF001400400B
:104BA000B00700200368B3F1804F82B00BD100231F
:104BB0000193064B1A6C42F001021A641B6C03F05D
:104BC00001030193019B02B0704700BF003802400F
:104BD00007B50368164A934215D10022154B00927F
:104BE000196C41F0100119641B6C03F01003009361
:104BF00036201146009BFDF7EBFC3620FDF71CFD2F
:104C000003B05DF804FB0C4A9342F9D10022094B32
:104C10000192196C41F0200119641B6C03F0200310
:104C2000019337201146019BFDF7D2FC3720E5E7C1
:104C300000100040003802400014004010B5044647
:104C400086B01422002101A800F082F92368B3F194
:104C5000804F14D1002300930A4B0B481A6B42F08B
:104C600001021A631B6B03F001030093009B0222F5
:104C7000012301A9019302920593FDF74FFE06B0AF
:104C800010BD00BF003802400000024010B50024F3
:104C90008AB01C22214603A80194029400F058F91E
:104CA000154809234FF0804280E80C0040F69F73BE
:104CB0008460C36004618461FEF776FB08B1FFF78E
:104CC00035FE01A90C4801940294FEF71FFC08B1BF
:104CD000FFF72CFE0022602303A9074803930492E8
:104CE00005920792FEF7B0FB08B1FFF71FFE0248DE
:104CF000FFF7A4FF0AB010BD7007002008B50B48ED
:104D00000B4B4FF4E13E80E808400C220023836007
:104D1000C360036142618361C361FEF759FD18B14D
:104D2000BDE80840FFF702BE08BD00BFB008002084
:104D30000010014008B50B480B4B4FF4E13E80E8F2
:104D400008400C2200238360C360036142618361D9
:104D5000C361FEF73DFD18B1BDE80840FFF7E6BDB1
:104D600008BD00BFF00800200044004070B51422C8
:104D70008AB0064600210DEB020000F0E9F8336826
:104D8000414A934226D1414B4148002101915A6C3E
:104D900042F010025A645A6C02F010020192019A19
:104DA00002911A6B42F001021A631B6B03F00103BC
:104DB0000293029B4FF4C0630593022306930123E1
:104DC00007930323089305A907230993FDF7A6FD7D
:104DD0000AB070BD2F4A9342FAD100252B4B0395A0
:104DE0001A6C2B482C4C42F400321A641A6C02F4F0
:104DF00000320392039A04951A6B42F001021A637F
:104E00001B6B03F001030493049B0C230593022303
:104E10000693012307930323089305A90723099306
:104E2000FDF77CFD1D4BE5604FF0006C4FF0400E30
:104E300084E8085020464FF4806323616561A561D2
:104E4000E56125626562FDF731FC08B1FFF76EFD93
:104E500034631348A663134C4FF0006384E80900E1
:104E60004FF4806200232046A360E3602261636107
:104E7000A361E36123626362FDF718FC08B1FFF7E9
:104E800055FD7463A663A3E700100140003802409B
:104E9000000002400044004050080020A060024092
:104EA00088600240F0070020DFF834D0002103E0E2
:104EB0000C4B5B58435004310B480C4B42189A4240
:104EC000F6D30B4A02E0002342F8043B094B9A4216
:104ED000F9D3FFF701FE00F017F8FFF759FC704710
:104EE00000000220D8CC0008000000207C06002032
:104EF0007C06002040090020FEE70000014B1868F6
:104F0000704700BF0C00002070B50D4E0D4CA41B67
:104F1000A4100025A54209D10B4E0C4C07F08EFBC6
:104F2000A41BA4100025A54205D170BD56F825305C
:104F300098470135EEE756F8253098470135F2E7F6
:104F4000D0CC0008D0CC0008D0CC0008D4CC0008CD
:104F500002440346934200D1704703F8011BF9E76E
:104F60000FB40A4B13B51C6824B1A36913B92046CA
:104F700002F060FE05AB049AA1680193204600F0A0
:104F80001FF802B0BDE8104004B070470C000020CC
:104F90000FB40A4B13B51C6824B1A36913B920469A
:104FA00002F048FE05AB049A61680193204601F0C7
:104FB00019FE02B0BDE8104004B070470C0000209C
:104FC0002DE9F04FBDB0884615461C461F46834666
:104FD00003F0A8F803680D931846FBF769F90990E8
:104FE000BBF1000F05D0DBF8183013B9584602F0BA
:104FF00021FE994B984537D1DBF80480D8F864300E
:10500000D80707D4B8F80C30990503D4D8F858005D
:1050100003F098F8B8F90C309A0409D443F400531B
:10502000A8F80C30D8F8643023F40053C8F8643082
:10503000B8F80C301E0702D5D8F8103003BB414633
:10504000584601F0F7FDD8B1D8F86430DD0707D431
:10505000B8F80C309C0503D4D8F8580003F073F866
:105060004FF0FF330A9326E07C4B984502D1DBF8E2
:105070000880C3E77A4B984508BFDBF80C80BDE792
:10508000B8F80C3003F01A020A2A18D1B8F90E2029
:10509000002A14DBD8F86420D00705D4990503D47E
:1050A000D8F8580003F04FF823462A4641465846A0
:1050B00000F0C2FF0A900A983DB0BDE8F08F9FED66
:1050C000647B8DED067B00232CAC1F9421932093F1
:1050D00005950393119310930A93059D2B4613F89E
:1050E000012B12B1252A40F08380059BEE1A0DD0CA
:1050F00084E84800219B33442193209B0133072BF4
:10510000209377DC08340A9B33440A932B78002BD6
:1051100000F039870023691C8DF85F301A464FF084
:10512000FF3A0B931D460A204E1C09780596029102
:1051300002992039582900F21D84DFE811F0B300EC
:105140001B041B04B8001B041B041B041B041B04CE
:105150001B04BB0065001B04C400C7001B04E40063
:10516000E700E700E700E700E700E700E700E70007
:10517000E7001B041B041B041B041B041B041B046F
:105180001B041B041B041B0131011B0431011B0404
:105190001B041B041B04FA001B041B0446031B0412
:1051A0001B041B041B041B04AD031B041B04930002
:1051B0001B041B041B041B041B041B041B041B04F7
:1051C0001B041B040D016B00310131013101FD0095
:1051D0006B001B041B0400011B04280348037C0311
:1051E00007011B048D031B04AF031B041B04C7032F
:1051F0001D4673E71FAA4146584606F00DF90028E0
:1052000040F099862CAC7EE701232B2205998BE791
:105210000F46FBE70BB18DF85F20AA0640F1B08086
:10522000073727F0070707F10803D7E9006704935A
:10523000002E77F1000306DA76424FF02D0367EB7C
:1052400047078DF85F300123D0E200BFAFF3008045
:105250000000000000000000C4C70008E4C7000808
:10526000A4C700080BB18DF85F20A24B1193A906CB
:1052700040F13183073727F0070707F10803D7E923
:1052800000670493EB070BD556EA070308D03023D9
:105290008DF860309DF808308DF8613045F00205DA
:1052A0000223A0E2002AB1D101232022AEE745F07B
:1052B0000105ABE73E680B96002E07F10401A7DA63
:1052C00076420B960F4645F004059FE705994E1C64
:1052D000097802912A2910D04FF0000A0596029908
:1052E000303909293FF624AF00FB0A1A05990E460A
:1052F00016F8011B02910596F1E73968059641EA17
:10530000E17A043782E745F080057FE700210B91C1
:1053100002990B9E303900FB06110B9105990E4640
:1053200016F8011B02910299059630390929EFD927
:10533000FEE645F0080569E745F0400566E7059992
:1053400009786C2905D105990131059145F02005B1
:105350005CE745F0100559E73B1D049300263B68C8
:105360008DF888308DF85F604FF0010A08960DF1D6
:1053700088091EE10BB18DF85F2045F010054CE760
:1053800015F0100F07F1040303D03E680493F717DC
:105390004EE73E68049315F0400F18BF36B2F6E7AB
:1053A0000BB18DF85F20073727F0070707F10803D7
:1053B000049397ED007B8DED067B069B1293079B74
:1053C00023F0004313934FF0FF324B4BDDE9120102
:1053D000FBF7C8FB002840F0E3854FF0FF32464B57
:1053E000DDE91201FBF7A0FB002840F0D98500227F
:1053F0000023DDE90601FBF78DFB10B12D238DF8AD
:105400005F303E4B3E4A029925F080054729CCBFCC
:10541000914699464FF0030A00260896C9E0BAF172
:10542000FF3F22D0029B23F02003472B04D1BAF187
:10543000000F08BF4FF0010A45F480731493079BD7
:10544000002B15DA069B0E93079B03F100430F9385
:105450002D230C93029B23F02007462F0ED0452FBF
:1054600046D10AF1010602210AE04FF0060AE3E7FD
:105470009DED067B00238DED0E7BEAE7564603216A
:105480001DAB01931AAB0093324619AB9DED0E0B89
:10549000584601F0C9FC472F814602D1EB0740F185
:1054A0008C8509EB0603462F039311D199F8003040
:1054B000302B09D100220023DDE90E01FBF720FB90
:1054C00010B9C6F101061996039A199B1A44039262
:1054D00000220023DDE90E01FBF712FB90B9302218
:1054E0001D9B039999420FD9591C1D911A70F7E71A
:1054F0005646B8E728C70008FFFFEF7F18C7000827
:105500001CC70008039B1D931D9B472FA3EB09039A
:10551000039340F0F880199BDF1C02DB9A4580F270
:105520001F81029B023B0293199A9DF808108DF887
:105530006C10531E002B1993B6BFC2F101032B222E
:105540002D22092B8DF86D2040F3FA800DF17B029E
:105550000A2693FBF6F006FB10333033092802F8D5
:10556000013C02F1FF31034600F3E380303301F8E0
:10557000013C023A0DF16E030DF17B0082421946A7
:10558000C0F0D980039A1BABCB1A012A109303EB0E
:10559000020A03DC15F00103089303D0099B9A4427
:1055A000002308930C9B13B12D238DF85F30149DBD
:1055B000002656453346B8BF53460C939DF85F30DE
:1055C00013B10C9B01330C9315F0020314931EBF0F
:1055D0000C9B02330C9315F08403159314D10B9B91
:1055E0000C9A9F1A002F0FDDA84B2360102F00F399
:1055F000D381219B67601F44209B21970133072B98
:10560000209300F3E08108349DF85F3073B10DF111
:105610005F03236001236360219B01332193209B5F
:105620000133072B209300F3D8810834149B6BB10E
:1056300018AB236002236360219B02332193209BDC
:105640000133072B209300F3D2810834159B802B64
:1056500014D10B9B0C9A9F1A002F0FDD8C4B2360EB
:10566000102F00F3CE81219B67601F44209B219760
:105670000133072B209300F3DD810834A6EB0A06E3
:10568000002E0FDD824F2760102E00F3DD81209B5E
:105690002198666001330644072B2196209300F37E
:1056A000EA810834E90500F1F081219B84E80006D5
:1056B00053442193209B0133072B209340F31B84F9
:1056C0001FAA4146584605F0A7FE002840F0338443
:1056D0002CAC680700F112840A9B0B9A0C998A4241
:1056E000ACBF9B185B180A93219B3BB11FAA414694
:1056F000584605F091FE002840F01D8400232093B9
:10570000049F2CACE9E4029B652B7FF70DAF029B55
:10571000662B25D1199B002B1ADDBAF1000F01D1A0
:10572000EE0702D5099A13445344199A08929A46EF
:1057300038E70A460DE712F8011B03F8011B1DE7C5
:10574000302213448DF86E208DF86F301CA919E7B4
:10575000BAF1000F01D1ED0715D5099B0133E3E73D
:10576000199A039B9A4206DBE8070ED5099B13445E
:1057700067220292D9E7039B0999002A0B44F7DCC0
:10578000C2F10102F3E70123CFE71346F0E70BB1C3
:105790008DF85F2015F0200F07F1040308D00A9957
:1057A0003A68CE1708463146C2E900011F4694E424
:1057B000E90603D53A680A991160F7E76A06F9D550
:1057C0003A68BDF828101180F0E745F0100515F093
:1057D000200322D0073727F0070707F10803D7E98E
:1057E00000670493002300228DF85F20BAF1FF3F89
:1057F00000F0E88325F08002089256EA070240F0A4
:10580000E683BAF1000F00F0A980012B75D0022BBE
:1058100000F0908000260027DFE33A1D15F010010C
:10582000049202D03E680027DDE715F04003F9D06E
:105830003E880027D6E73B1D0493302378228DF85D
:105840006030144B3E681193002745F002058DF837
:10585000612002230292C6E73B1D0026BAF1FF3FFA
:105860000493D7F800908DF85F600AD05246314615
:105870004846FAF7CDFC002800F08C80A0EB090A1E
:10588000CBE54846FAF714FD8246C6E54CC700084A
:105890005CC7000839C7000845F01005AE0609D5F9
:1058A000073727F0070707F10803D7E900670493D4
:1058B000012398E73B1D15F0100F049301D03E68BB
:1058C00002E06806FBD53E880027F1E70BB18DF8B2
:1058D0005F20A24BCAE43B1D15F0100F049301D0CA
:1058E0003E6802E06A06FBD53E880027CAE44B46C4
:1058F00074E3002F08BF0A2E05D20DF1F0093036EF
:1059000009F8416D85E30DF1B009304639460A22A8
:105910000023FBF7D5F9303209F8012D002330467A
:1059200039460A22FBF7CCF906460F4656EA07032A
:10593000EBD16EE3002600270DF1B00906F00F034E
:10594000119AD35C09F8013D330943EA07733A0918
:105950001E46174656EA0703F0D15AE33BB9E8075B
:1059600005D50DF1F009302309F8413D51E30DF162
:10597000B0094EE30BB18DF85F20029B002B00F0C5
:1059800002839DF808308DF8883000268DF85F601E
:105990000497E9E4064640E510236360219B103339
:1059A0002193209B0133072B209302DC0834103F06
:1059B0001AE61FAA4146584605F02EFD002840F081
:1059C000BA822CACF3E71FAA4146584605F024FDE5
:1059D000002840F0B0822CAC16E61FAA414658467B
:1059E00005F01AFD002840F0A6822CAC1EE61FAA86
:1059F0004146584605F010FD002840F09C822CAC32
:105A000024E610226260219A10322192209A0132FB
:105A1000072A209202DC0834103F20E61FAA4146E4
:105A20005846149305F0F8FC002840F084822CAC12
:105A3000149BF1E71FAA4146584605F0EDFC0028EB
:105A400040F079822CAC19E610236360219B10335F
:105A50002193209B0133072B209302DC0834103E56
:105A600011E61FAA4146584605F0D6FC002840F032
:105A700062822CACF3E71FAA4146584605F0CCFCE5
:105A8000002840F058822CAC0CE6029B652B40F3BA
:105A9000AD8100220023DDE90601FBF731F8002883
:105AA00062D02F4B236001236360219B013321933C
:105AB000209B0133072B209325DC0834199B039A84
:105AC000934202DBEA077FF504AE0D9B2360099B3E
:105AD0006360099A219B13442193209B0133072B78
