:020000040800F2
:100000000000022009520008E94C0008ED4C0008ED
:10001000F14C0008F54C0008F94C00080000000005
:10002000000000000000000000000000FD4C00087F
:10003000014D000800000000054D0008094D0008B2
:1000400059520008595200085952000859520008E4
:1000500059520008595200085952000859520008D4
:1000600059520008595200085952000859520008C4
:1000700059520008595200085952000859520008B4
:100080000D4D0008194D000859520008595200083A
:10009000254D0008314D00083D4D0008595200081B
:1000A0005952000859520008595200085952000884
:1000B0005952000859520008595200085952000874
:1000C0005952000859520008595200085952000864
:1000D0005952000859520008595200085952000854
:1000E0005952000859520008595200085952000844
:1000F0005952000859520008595200085952000834
:100100005952000859520008595200085952000823
:100110005952000859520008494D0008554D000831
:100120005952000859520008595200085952000803
:100130005952000800000000000000005952000859
:1001400059520008595200085952000859520008E3
:1001500059520008595200085952000859520008D3
:1001600059520008595200085952000859520008C3
:100170005952000859520008595200080000000066
:1001800000000000595200080000000000000000BC
:1001900059520008000000000000000059520008F9
:1001A000000000000000000000000000595200089C
:1001B0005952000859520008595200085952000873
:0401C0005952000888
:1001D00010B5054C237833B9044B13B10448AFF381
:1001E00000800123237010BD7C0600200000000069
:1001F000D48D000808B5034B1BB103490348AFF386
:10020000008008BD0000000080060020D48D00089A
:1002100001F0FF01102A2BDB10F0070F08D010F8B7
:10022000013B013A8B422DD010F0070F42B3F6D1BB
:10023000F0B441EA012141EA014122F007047FF0D4
:1002400000070023F0E80256083C85EA010586EA2B
:10025000010685FA47F5A3FA87F586FA47F6A5FA67
:1002600087F68EB9EED1F0BC01F0FF0102F0070273
:1002700032B110F8013B013A83EA010313B1F8D11E
:100280000020704701387047002D06BF35460338FF
:10029000073815F0010F07D1013015F4807F02BF38
:1002A000013015F4C03F0130F0BC0138704700BF89
:1002B000034613F8012B002AFBD1181A01387047A6
:1002C00081F0004102E000BF83F0004330B54FEA07
:1002D00041044FEA430594EA050F08BF90EA020F74
:1002E0001FBF54EA000C55EA020C7FEA645C7FEA07
:1002F000655C00F0E2804FEA5454D4EB5555B8BF2A
:100300006D420CDD2C4480EA020281EA030382EA9A
:10031000000083EA010180EA020281EA0303362D2C
:1003200088BF30BD11F0004F4FEA01314FF4801CFF
:100330004CEA113102D0404261EB410113F0004F11
:100340004FEA03334CEA133302D0524263EB4303C8
:1003500094EA050F00F0A780A4F10104D5F1200E66
:100360000DDB02FA0EFC22FA05F2801841F10001C1
:1003700003FA0EF2801843FA05F359410EE0A5F195
:1003800020050EF1200E012A03FA0EFC28BF4CF0C6
:10039000020C43FA05F3C01851EBE37101F000457C
:1003A00007D54FF0000EDCF1000C7EEB00006EEB89
:1003B0000101B1F5801F1BD3B1F5001F0CD3490813
:1003C0005FEA30004FEA3C0C04F101044FEA44526A
:1003D00012F5800F80F09A80BCF1004F08BF5FEAF1
:1003E000500C50F1000041EB045141EA050130BDD1
:1003F0005FEA4C0C404141EB010111F4801FA4F174
:100400000104E9D191F0000F04BF01460020B1FAC8
:1004100081F308BF2033A3F10B03B3F120020CDA00
:100420000C3208DD02F1140CC2F10C0201FA0CF0DE
:1004300021FA02F10CE002F11402D8BFC2F1200C43
:1004400001FA02F120FA0CFCDCBF41EA0C019040F9
:10045000E41AA2BF01EB0451294330BD6FEA040442
:100460001F3C1CDA0C340EDC04F11404C4F120022D
:1004700020FA04F001FA02F340EA030021FA04F33F
:1004800045EA030130BDC4F10C04C4F1200220FA96
:1004900002F001FA04F340EA0300294630BD21FAD4
:1004A00004F0294630BD94F0000F83F4801306BF9A
:1004B00081F480110134013D4EE77FEA645C18BF8E
:1004C0007FEA655C29D094EA050F08BF90EA020F25
:1004D00005D054EA000C04BF1946104630BD91EA1D
:1004E000030F1EBF0021002030BD5FEA545C05D120
:1004F0004000494128BF41F0004130BD14F580045F
:100500003CBF01F5801130BD01F0004545F0FE41D2
:1005100041F470014FF0000030BD7FEA645C1ABF07
:10052000194610467FEA655C1CBF0B46024650EA3E
:10053000013406BF52EA033591EA030F41F400216A
:1005400030BD00BF90F0000F04BF0021704730B5F0
:100550004FF4806404F132044FF000054FF00001C5
:1005600050E700BF90F0000F04BF0021704730B586
:100570004FF4806404F1320410F0004548BF40425B
:100580004FF000013EE700BF42004FEAE2014FEAB0
:1005900031014FEA02701FBF12F07F4393F07F4F8B
:1005A00081F06051704792F0000F14BF93F07F4FBD
:1005B000704730B54FF4607401F0004521F0004100
:1005C00020E700BF50EA010208BF704730B54FF086
:1005D00000050AE050EA010208BF704730B511F08B
:1005E000004502D5404261EB41014FF4806404F1C3
:1005F00032045FEA915C3FF4DCAE4FF003025FEA45
:10060000DC0C18BF03325FEADC0C18BF033202EBCC
:10061000DC02C2F1200300FA03FC20FA02F001FA26
:1006200003FE40EA0E0021FA02F11444C1E600BFC5
:1006300070B54FF0FF0C4CF4E06C1CEA11541DBF78
:100640001CEA135594EA0C0F95EA0C0F00F0DEF843
:100650002C4481EA030621EA4C5123EA4C5350EA28
:10066000013518BF52EA033541F4801143F4801379
:1006700038D0A0FB02CE4FF00005E1FB02E506F00A
:100680000042E0FB03E54FF00006E1FB03569CF05F
:10069000000F18BF4EF0010EA4F1FF04B6F5007F65
:1006A00064F5407404D25FEA4E0E6D4146EB0606D7
:1006B00042EAC62141EA55514FEAC52040EA5E5060
:1006C0004FEACE2EB4F1FD0C88BFBCF5E06F1ED80A
:1006D000BEF1004F08BF5FEA500E50F1000041EB41
:1006E000045170BD06F0004646EA010140EA0200EE
:1006F00081EA0301B4EB5C04C2BFD4EB0C0541EA10
:10070000045170BD41F480114FF0000E013C00F324
:10071000AB8014F1360FDEBF002001F0004170BD48
:10072000C4F10004203C35DA0C341BDC04F1140461
:10073000C4F1200500FA05F320FA04F001FA05F2ED
:1007400040EA020001F0004221F0004110EBD370BA
:1007500021FA04F642EB06015EEA430E08BF20EAE6
:10076000D37070BDC4F10C04C4F1200500FA04F389
:1007700020FA05F001FA04F240EA020001F000411B
:1007800010EBD37041F100015EEA430E08BF20EA8E
:10079000D37070BDC4F1200500FA05F24EEA020ED6
:1007A00020FA04F301FA05F243EA020321FA04F005
:1007B00001F0004121FA04F220EA020000EBD370BC
:1007C0005EEA430E08BF20EAD37070BD94F0000FBC
:1007D0000FD101F00046400041EB010111F4801FF0
:1007E00008BF013CF7D041EA060195F0000F18BFA1
:1007F000704703F00046520043EB030313F4801FDD
:1008000008BF013DF7D043EA0603704794EA0C0F96
:100810000CEA135518BF95EA0C0F0CD050EA4106AC
:1008200018BF52EA4306D1D181EA030101F0004129
:100830004FF0000070BD50EA410606BF1046194651
:1008400052EA430619D094EA0C0F02D150EA01365D
:1008500013D195EA0C0F05D152EA03361CBF10469E
:1008600019460AD181EA030101F0004141F0FE413D
:1008700041F470014FF0000070BD41F0FE4141F4C1
:10088000780170BD70B54FF0FF0C4CF4E06C1CEAC1
:1008900011541DBF1CEA135594EA0C0F95EA0C0F76
:1008A00000F0A7F8A4EB050481EA030E52EA033531
:1008B0004FEA013100F088804FEA03334FF0805552
:1008C00045EA131343EA12634FEA022245EA11157F
:1008D00045EA10654FEA00260EF000419D4208BF30
:1008E000964244F1FD0404F5407402D25B084FEADD
:1008F0003202B61A65EB03055B084FEA32024FF489
:1009000080104FF4002CB6EB020E75EB030E22BFE5
:10091000B61A754640EA0C005B084FEA3202B6EBA5
:10092000020E75EB030E22BFB61A754640EA5C0054
:100930005B084FEA3202B6EB020E75EB030E22BFE4
:10094000B61A754640EA9C005B084FEA3202B6EBE5
:10095000020E75EB030E22BFB61A754640EADC00A4
:1009600055EA060E18D04FEA051545EA16754FEA06
:1009700006164FEAC30343EA52734FEAC2025FEA24
:100980001C1CC0D111F4801F0BD141EA00014FF0B3
:1009900000004FF0004CB6E711F4801F04BF014384
:1009A0000020B4F1FD0C88BFBCF5E06F3FF6AFAEA0
:1009B000B5EB030C04BFB6EB020C5FEA500C50F130
:1009C000000041EB045170BD0EF0004E4EEA1131B3
:1009D00014EB5C04C2BFD4EB0C0541EA045170BDBA
:1009E00041F480114FF0000E013C90E645EA060EFE
:1009F0008DE60CEA135594EA0C0F08BF95EA0C0F2C
:100A00003FF43BAF94EA0C0F0AD150EA01347FF473
:100A100034AF95EA0C0F7FF425AF104619462CE74A
:100A200095EA0C0F06D152EA03353FF4FDAE1046AD
:100A3000194622E750EA410618BF52EA43067FF4FE
:100A4000C5AE50EA41047FF40DAF52EA43057FF48E
:100A5000EBAE12E74FF0FF3C06E000BF4FF0010C99
:100A600002E000BF4FF0010C4DF804CD4FEA410CFD
:100A70007FEA6C5C4FEA430C18BF7FEA6C5C1BD0CA
:100A800001B050EA410C0CBF52EA430C91EA030F4B
:100A900002BF90EA020F0020704710F1000F91EAA8
:100AA000030F58BF994208BF90422CBFD8176FEA76
:100AB000E37040F0010070474FEA410C7FEA6C5C44
:100AC00002D150EA013C07D14FEA430C7FEA6C5C4B
:100AD000D6D152EA033CD3D05DF8040B704700BF77
:100AE0008446104662468C461946634600E000BFC5
:100AF00001B5FFF7B7FF002848BF10F1000F01BD97
:100B00004DF808EDFFF7F4FF0CBF012000205DF861
:100B100008FB00BF4DF808EDFFF7EAFF34BF0120E6
:100B200000205DF808FB00BF4DF808EDFFF7E0FF7F
:100B300094BF012000205DF808FB00BF4DF808EDD0
:100B4000FFF7CEFF94BF012000205DF808FB00BF37
:100B50004DF808EDFFF7C4FF34BF012000205DF819
:100B600008FB00BF4FEA410C7FEA6C5C02D150EAFF
:100B7000013C0AD14FEA430C7FEA6C5C02D152EA95
:100B8000033C02D14FF0000070474FF00100704766
:100B90004FEA410212F5001215D211D56FF47873A5
:100BA000B3EB625212D94FEAC12343F0004343EA48
:100BB000505311F0004F23FA02F018BF4042704723
:100BC0004FF00000704750EA013005D111F00040AD
:100BD00008BF6FF0004070474FF00000704700BF43
:100BE00053B94AB9002908BF00281CBF4FF0FF3194
:100BF0004FF0FF3001F0F6B8ADF1080C6DE904CE0E
:100C000000F006F8DDF804E0DDE9022304B07047E7
:100C10002DE9F0478C460D460446089E002B51D125
:100C20008A4217466DD9B2FA82FEBEF1000F0BD090
:100C3000CEF1200C01FA0EF520FA0CFC02FA0EF7A8
:100C40004CEA050C00FA0EF44FEA174A250CBCFBDF
:100C5000FAF81FFA87F90AFB18CC45EA0C4508FB9D
:100C600009F3AB420AD9ED1908F1FF3280F0238174
:100C7000AB4240F22081A8F102083D44ED1AA4B233
:100C8000B5FBFAF00AFB105544EA054400FB09F9EC
:100C9000A14509D9E41900F1FF3380F00A81A1458B
:100CA00040F2078102383C44A4EB090440EA0840C2
:100CB0000021002E61D024FA0EF40023346073600A
:100CC000BDE8F0878B4207D9002E54D0002186E87A
:100CD00021000846BDE8F087B3FA83F1002940F00F
:100CE0008E80AB4202D3824200F2FA80841A65EB16
:100CF00003050120AC46002E3FD086E81010BDE869
:100D0000F08712B90127B7FBF2F7B7FA87FEBEF1F9
:100D1000000F34D1EB1B3A0C1FFA87FC0121B3FB07
:100D2000F2F8250C02FB183345EA03450CFB08F3E7
:100D3000AB4207D9ED1908F1FF3002D2AB4200F205
:100D4000D1808046ED1AA3B2B5FBF2F002FB10553C
:100D500043EA05440CFB00FCA44507D9E41900F163
:100D6000FF3302D2A44500F2B8801846A4EB0C046D
:100D700040EA08409DE731463046BDE8F087CEF1B5
:100D8000200405FA0EF307FA0EF720FA04F83A0CDD
:100D900025FA04F448EA0308B4FBF2F14FEA1845D7
:100DA00002FB11441FFA87FC45EA044501FB0CF3E2
:100DB000AB4200FA0EF409D9ED1901F1FF3080F0D1
:100DC0008A80AB4240F2878002393D44EB1A1FFA19
:100DD00088F5B3FBF2F002FB103345EA034500FB54
:100DE0000CF3AB4207D9ED1900F1FF386FD2AB42DB
:100DF0006DD902383D44EB1A40EA01418FE7C1F159
:100E0000200722FA07F88B4005FA01F448EA0303A9
:100E100020FA07FE4FEA134CFD404EEA040EB5FBE4
:100E2000FCF94FEA1E440CFB19551FFA83F844EAFB
:100E3000054509FB08F4AC4202FA01F200FA01FA96
:100E400008D9ED1809F1FF3043D2AC4241D9A9F1DC
:100E500002091D442D1B1FFA8EFEB5FBFCF00CFB96
:100E600010554EEA054400FB08F8A04507D9E418E0
:100E700000F1FF3529D2A04527D902381C4440EAA9
:100E80000940A4EB0804A0FB02894C45C6464D4628
:100E900015D312D056B1BAEB0E0364EB050404FA75
:100EA00007F7CB401F43CC40376074600021BDE89A
:100EB000F0871846F8E69046E0E6C245EAD2B8EB7D
:100EC000020E69EB03050138E4E72846D7E7404600
:100ED00091E78146BEE7014678E702383C4445E7A2
:100EE000084608E7A8F102083D442BE703685A00CA
:100EF0004CBF43F0004323F000431844704700BF49
:100F000061B32DE9F84F01F1FF3A90460646D1460C
:100F1000002707EB090404EBD4746410E500711991
:100F20000846FFF7E3FFA245834605F10800304479
:100F300009D0FFF7DBFFC34500F1FF3005D840457E
:100F400009D2671CE5E7C34505D9A74202D004F1E1
:100F5000FF39DEE700210846BDE8F88F08467047F4
:100F6000012807D0022807D0044B00280CBF1846E0
:100F70000020704702487047024870476516000815
:100F8000691600086D16000830B5244B83B004467E
:100F90008D1E7BB301A92846AFF3008020B30199D1
:100FA0002A46FFF7ADFF0146F0B1FFF79FFF4B6800
:100FB000A064012B12D0002B01F1040020DBFFF70D
:100FC00095FF0023E06423650368002B1CDBFFF71B
:100FD0008DFF00232061184603B030BD002323613C
:100FE0000523184603B030BD0023236109231846AA
:100FF00003B030BD0A490B48091AC9100191CFE767
:101000000123E0642365DFE7C3F30360FFF7A8FF74
:101010000028206114BF00230923DCE70000000042
:1010200028930008009200080368DA0710B5044608
:1010300006D49B0700F1480009D500F051FC236855
:10104000590709D51A070ED5DB0613D510BD00F0D8
:101050003FFC23685907F5D404F1D00000F048FCA8
:1010600023681A07F0D404F5A87000F049FC23683F
:10107000DB06EBD404F5E870BDE8104000F084BC5A
:10108000036803B103441846704700BF0920704746
:10109000704700BF70B504460D4608E02B6C6361D5
:1010A0002A462369214601209847082808D1296C3F
:1010B0002046FFF769FF06460028EFD007F03FFE05
:1010C0000728FBD13046296CFFF7E2FF281D00F00E
:1010D000F3FB00BF2DE9F0470C1D054692460FCCEF
:1010E000ADF5727D03AE0FC60FCC0FC60FCC0FC689
:1010F00094E80F0002ACD5F80C80D5F8189086E87B
:101100000F0000232846216C2360FFF73DFFBAF152
:10111000000F074614BF0A2609267FB1A36B46F0CD
:1011200010018DE810022A46636401202B46C04757
:1011300078BB38460DF5727DBDE8F087236C6B6196
:101140004FF4F07221467AA806F082FD2B697AAA44
:10115000294630469847889B82468DE810023146E2
:1011600063642A462B460120C04790B94FF4F072C1
:101170007AA9204606F06CFDBAF1080F06D1216C61
:101180002846FFF701FF09260746C6E7BAF1070F11
:1011900005D0092738460DF5727DBDE8F087384641
:1011A000216CFFF775FF03A800F086FB406C7047C9
:1011B000F0B5CB6B0B640E1D0F4604460FCEF9B095
:1011C00001AD0FC50FCE0FC50FCE0FC596E80F00AE
:1011D0004FF0FF3685E80F00009606E023696A4667
:1011E000214698470828054608D110992046FFF760
:1011F000CBFE0028F2D0092079B0F0BD6846FFF799
:1012000013FF062DF7D139462046FFF743FF00BFF5
:1012100030B4DD6BC160826119461D64002230BCB0
:1012200058E700BF70B5C66843690B6426B1012258
:10123000FFF750FF07F083FD03690A4604460D4699
:10124000014602209847072807D0082803D12946DD
:101250002046FFF71FFF07F072FD3046296CFFF7AD
:1012600017FF281D00F028FBC2681AB1CA6B0A6478
:1012700000222FE79CE700BF704700BF836813B1CF
:10128000014601201847704700B5042907D8DFE858
:1012900001F00309060909000BB90F2A05D902203C
:1012A0005DF804FB01205DF804FB00EB82021846A8
:1012B0005368019A13605DF804FB00BF10B584B059
:1012C000002303AC0A4600941946FFF7DDFF03989C
:1012D00004B010BD00B5042907D8DFE801F0030908
:1012E000060909000BB90F2A05D902205DF804FB95
:1012F00001205DF804FB019900EB8202096851604E
:1013000018465DF804FB00BF10B584B004AC0023A0
:1013100044F8042D0A4600941946FFF7DBFF04B099
:1013200010BD00BFF0B5D36B1364151D07460E4604
:101330000FCDADF50F7D17AC0FC40FCD0FC40FCD82
:101340000FC495E80F004FF0FF3584E80F001695A5
:1013500010E016A8FFF7D8FF314616A8B84716AA1E
:10136000694678B9049B08209847052804460AD0A6
:10137000092807D026996846FFF706FE6A460C2121
:101380000028E6D0092416A8FFF74EFE20460DF5EA
:101390000F7DF0BD2DE9F04F0D46C96C8BB00C1DD3
:1013A000096807919146089400F0030B1E46002B34
:1013B00060D10902032307918DF825608DF8243050
:1013C0002B6DBBF1020F08BFAC6B13F0010340D1D2
:1013D000019300F008030393D4F80080B8F1000FE4
:1013E00039D0022E43D0B4F8008067880434AB6C47
:1013F00027F0010A0F2148469A44FFF75FFF824514
:1014000033D828F001039A4450452CBF0020012016
:101410007F0007F0020708F0010847EA0807012FDC
:101420003ED035D3022F1CD1236823F00042029214
:10143000BBF1000F76D128B1039900297ED0002A94
:1014400000F0A680002B77DB029B013304EB8304C2
:10145000C2E700230193022E3EDDFFF717FE0028AE
:1014600040D009200BB0BDE8F08F0020D0E76768BE
:101470000834BCE7022BA3DC0B0CDAB209048DF8AC
:101480002530022304EB820407918DF8243097E77E
:10149000BBF1000F02D0002840F0BD8004349BE770
:1014A000BBF1000F25D1A8B194E80C00991C4FEABC
:1014B000D272D6D005F158010133069100F0A38015
:1014C000201DFFF7DDFD06AB01462846AFF3008087
:1014D000002877D108347FE707A9484600F0EEFAE4
:1014E0000028BED1019B002B5CD108200BB0BDE8C9
:1014F000F08F0D2148462F6AFFF7E0FE8742E9D1C1
:10150000AB6A9C42E6D12046FFF7F0FC0F21024671
:101510004846FFF7F9FE48462A460021FFF7F4FE49
:1015200007209FE70D2148462F6AFFF7C7FE874235
:1015300058D02368002B87DA043485E7029B3BB33D
:1015400005F15803271DCDF810B0DDF80C80DDF84B
:1015500008A00596A3461C4602E0B245B04616D048
:1015600038460694FFF78CFD06AB0146002228465C
:10157000AFF3008008F1010604370028EDD0029B8C
:10158000059E43455C46DDF810B0D2D100E05C46D4
:1015900048460D21FFF792FE069B2862AC626B6203
:1015A00006205FE70F214846FFF788FE0E2102461E
:1015B0004846FFF7A9FE4846294A0F21FFF7A4FE37
:1015C00007204FE707460D214846FFF777FE022F19
:1015D00028621DD12B46069A43F82C2F6B62AC6211
:1015E00006203FE7AB6A9C42A3D104220027A31840
:1015F0000299A962EF622A636B632368BB421DDB19
:101600000123019320E748460D21FFF757FE28628A
:10161000069B6B62E3E72046FFF768FC043406464E
:10162000AC632846AFF3008000283FF41AAF484669
:1016300032460F21FFF768FE072013E70846013006
:1016400004EB8000FFF752FC0F2102464846FFF7EB
:101650005BFE48462A463946FFF756FE072001E75B
:1016600000000000002395E6012393E6022391E6A3
:10167000F0B50446C5B004290DD8DFE801F05303E6
:101680000C310F00012B4FEA124695B262D172194C
:10169000102A40F29B80022045B0F0BD002BFAD109
:1016A000102AF8D82368D80600F1C68022AE30464A
:1016B000019200F073F9A06B019A0023012505FA4D
:1016C00003F1114203D0016846F8231004300133BE
:1016D000042BF4D1A063304600F056F90020DBE77C
:1016E000032BD8D1150C97B2EB19102BD3D8236844
:1016F0001E0700F1B58022AE304600F023F9ED0060
:10170000A36B4FB1043D711903EBC70053F8042BD1
:1017100041F8042F8342F9D13046A36300F0F0F87A
:101720000020B9E7002BB6D1A56B97B2201D01268A
:1017300006FA03F1394203F1010302D0296801607E
:101740000435102B00F10400F2D112F400503BD10B
:10175000A563A1E7052B9ED17719202F9BD80F2ECB
:1017600066D92F46002D3AD12A460027002AA06BC1
:1017700072DD00EBC202014644A800EBC6008C38C3
:1017800051F8045B40F8045F9142F9D1084697B1E3
:10179000102E324644A938BF102201EBC202A2F536
:1017A000C4727900043A00EB810150F8045B42F8FE
:1017B000045F8842F9D1012B48D00F2EA16333D9A1
:1017C00017B102A800F094F8002065E70F2E3FF64D
:1017D00062AF00272268D10717D4002F60D022689B
:1017E000510745D4012B4DD00F2E06D822A80193C6
:1017F00000F07AF8019B002FB6D002A8019300F008
:101800007BF8019BC6F11002B0E722F00101052B25
:101810002160019320463BD022F0030240F8482B80
:1018200000F05AF8019BD8E722A800F059F8C7E762
:10183000102FCED9103FCDE723F01003236004F51D
:10184000E870019200F0AAF8019A2FE70431A16331
:1018500022A800F03DF8B7E7002F99D10146AAE78A
:1018600023F00803236004F5A87000F06BF842E74A
:10187000204622F0040240F8D02B019300F03CF8FF
:10188000019BAFE722A8019300F026F8019BB9E77E
:1018900041F0020140F8481B00F026F8019B9CE74C
:1018A000012B03D00F2E3FF65FAF9FE722A80193D5
:1018B00000F012F8019B57E700F1340191E838007D
:1018C0009C46A6464CF8045D90E8FF0FE54600BD37
:1018D00090EC210B704700BF80EC210B704700BFDC
:1018E00090EC200B704700BF80EC200B704700BFCE
:1018F000D0EC200B704700BFC0EC200B704700BF3E
:10190000F0EC0201F0EC0211F0EC0221F0EC0231FB
:10191000F0EC0241F0EC0251F0EC0261F0EC0271EB
:10192000F0EC0281F0EC0291F0EC02A1F0EC02B1DB
:10193000F0EC02C1F0EC02D1F0EC02E1F0EC02F1CB
:10194000704700BFE0EC0201E0EC0211E0EC022184
:10195000E0EC0231E0EC0241E0EC0251E0EC02612B
:10196000E0EC0271E0EC0281E0EC0291E0EC02A11B
:10197000E0EC02B1E0EC02C1E0EC02D1E0EC02E10B
:10198000E0EC02F1704700BFB0FC0181B0FC0191B6
:10199000B0FC01A1B0FC01B1704700BFA0FC018107
:1019A000A0FC0191A0FC01A1A0FC01B1704700BF07
:1019B000EC4600B52DE900502DE9FF1F4FF0000364
:1019C0002DE90C0001A9FFF7F3FBDDF840E012B0B0
:1019D000704700BFEC4600B52DE900502DE9FF1F10
:1019E0004FF000032DE90C0001A9FFF71BFCDDF807
:1019F00040E012B0704700BFEC4600B52DE9005042
:101A00002DE9FF1F4FF000032DE90C0001A9FFF79E
:101A10002BFCDDF840E012B0704700BFEC4600B58B
:101A20002DE900502DE9FF1F4FF000032DE90C00B8
:101A300001ABFFF7EDFBDDF840E012B0704700BFEF
:101A4000EC4600B52DE900502DE9FF1F4FF00003D3
:101A50002DE90C0001AAFFF765FCDDF840E012B0AB
:101A6000704700BF027A1AB9437A43B9B020704771
:101A70000368013A02721A020260180E7047426847
:101A8000013B10B4437213680321141D01721A0242
:101A9000446002605DF8044B180E704700B585B0D5
:101AA00003AA0023009219460C22FFF7EDFB0398CE
:101AB00005B05DF804FB00BFF0E700BF2DE9F0437F
:101AC000064685B00F464FF000083846FFF7CAFFBC
:101AD000B028044623D0050627D400230DF10C09B5
:101AE000194685000D22CDF800903046FFF7CCFB5B
:101AF000EDB2039BCDF80090600605F104054CBFE4
:101B00005D1BED18002319460D2230460395FFF7A3
:101B1000E1FB3846FFF7A6FFB0280446DBD1B8F159
:101B2000000F00F0958000201CE000F0F003802BF7
:101B30005DD0902B19D0A02B2CD0B02B3FD0C02B38
:101B40006CD000F0F803D02B0BD100F0070201326B
:101B500042F40022052301213046FFF789FD0028C9
:101B6000B3D0092005B0BDE8F08300F00D030D2BC4
:101B7000F7D003AD002300F00F0219460095304660
:101B8000FFF782FB0023009519460D223046FFF730
:101B9000A1FB9AE7C24302F007034FF47F621A41A8
:101BA000010702F47F624FF0000348BF42F4804215
:101BB00019463046FFF75CFD0028D2D185E7B128F1
:101BC00057D0B22868D0B32800F0958000F0FC030D
:101BD000B42BC6D000F007020132012342F40022E8
:101BE00019463046FFF744FD0028BAD16DE7384664
:101BF000FFF738FF24020443B4F5004FB1D02401AD
:101C00000023A2B219463046FFF732FD0028A8D1C2
:101C100014F4004F18BF4FF0010856E7C6287DD0D6
:101C2000C72800F0868000F0F803C02B00F09480F5
:101C3000C82800F09F80C92893D13846FFF712FFCB
:101C4000020300F00F0002F470220130024381E72A
:101C500003AC43460E22414600943046FFF714FB86
:101C60000094304643460F224146FFF733FB40467F
:101C700078E73846FFF7F6FE00283FF472AF10F021
:101C8000F0037FF46EAF024619463046FFF7F0FCD2
:101C900000287FF466AF18E700230DF10C090D2230
:101CA0001946CDF800903046FFF7EEFA3846FFF7B8
:101CB000D9FE02064FF002040CD5039B00F07F0012
:101CC000A040034438460393FFF7CCFE030604F11B
:101CD0000704F2D4039BCDF8009000F07F02A240ED
:101CE00003F501740023144419460D223046039471
:101CF000FFF7F0FAE9E63846FFF7B4FE010300F01B
:101D00000F0001F47021421C01230A43304619469A
:101D1000FFF7AEFC00287FF424AFD6E63846FFF785
:101D2000A1FE010300F00F0001F47021421C032307
:101D3000EBE73846FFF796FE00283FF412AF10F0AD
:101D4000F0037FF40EAF024604213046FFF790FC0B
:101D500000287FF406AFB8E600F00F02013203233B
:101D600042F4202219463046FFF782FC00287FF417
:101D7000F8AEAAE63846FFF775FE00F0F00200F074
:101D80000F031032013343EA0232E3E610B5C36CAD
:101D900084B05A6803208DF80C00DC798DF80D4072
:101DA00012020833084601A901920293FFF786FE4A
:101DB00004B010BD08B5FFF77FFE806C08BD00BF02
:101DC00008B5FFF779FEC06CC37900EB83000830DB
:101DD00008BD00BF08B506F0B2FF00BF08B5FFF7A9
:101DE000F9FF00BF704700BF38B50E4A0E4B12789E
:101DF0001B6805464FF47A70B0FBF2F0B3FBF0F0CD
:101E000000F00EFC08B90F2D01D9012038BD0446A1
:101E1000024629464FF0FF3000F0BEFB034B204640
:101E20001D6038BD000000200800002004000020D4
:101E300008B50B4B1A6842F400721A601A6842F433
:101E400080621A601A6842F480721A60032000F0FF
:101E500091FB0020FFF7C8FF02F026FF002008BD1D
:101E6000003C0240034A044B11681B780B4413608A
:101E7000704700BF0407002000000020014B1868D5
:101E8000704700BF0407002038B50446FFF7F6FF8F
:101E9000631C054602D0044B1B781C44FFF7EEFF81
:101EA000401B8442FAD838BD0000002000287CD0B6
:101EB00090F8203070B50446002B73D02268136868
:101EC00023F002031360FFF7D9FF054604E0FFF794
:101ED000D5FF401B0A285CD823685A689107F6D4BE
:101EE0001A6842F001021A60FFF7C8FF054604E0D5
:101EF000FFF7C4FF401B0A284BD823685A68D20753
:101F0000F6D5227E012A1A680CBF42F0800222F028
:101F100080021A60627E012A1A680CBF42F04002F9
:101F200022F040021A60A27E012A1A680CBF42F019
:101F3000200222F020021A60E27E012A1A680CBFF9
:101F400022F0100242F010021A60227F012A1A6861
:101F50000CBF42F0080222F008021A60627F012AD8
:101F60001A680CBF42F0040222F004021A60A26850
:101F7000E66825696069616832432A430243013992
:101F80000A4301250021DA610846616284F8205085
:101F900070BD636A052243F400336362012084F854
:101FA000202070BD02F094F888E70120704700BF40
:101FB00090F82030013B012B05D9436A43F480237C
:101FC0004362012070473C4BD3F8002242F00102EB
:101FD000F0B4C3F80022D3F8002222F47C52C3F8F4
:101FE0000022D3F80022486A42EA0022C3F8002205
:101FF0004A69D3F81C52012402F01F0004FA00F0D1
:10200000C4432540C3F81C52CD69002D3AD0012DA0
:1020100015D1D3F80C520543C3F80C52D2000F6807
:102020008D888E688B8902F1804202F5C84245EAAC
:10203000074543EA0643C2F84052C2F844328B696E
:102040001D4A9BBBD2F804322340C2F804320B690C
:102050002BBB194BD3F814221440C3F814420B6A5B
:10206000012B05D1144BD3F81C221043C3F81C02DA
:10207000114AD2F8003223F001030020C2F80032E6
:10208000F0BC7047D3F80C522540C3F80C52D20074
:1020900002F18042CF688D888E680B88C5E7064ABA
:1020A000D2F814320343C2F81432D8E7D2F804321B
:1020B0000343C2F80432CAE70064004038B590F820
:1020C0002030012B05D0436A43F4002343620120F2
:1020D00038BD0268022380F82030136823F0010322
:1020E00013600446FFF7CAFE054604E0FFF7C6FE8C
:1020F000401B0A2807D823685B6813F00103F5D159
:102100006362184638BD636A052243F40033636294
:10211000012084F8202038BDF0B490F820400568F4
:10212000013C012CAE6806D9436A43F48023436224
:102130000120F0BC704716F0E05F2ED0C6F30166B8
:10214000032E31D00120B04018608B6893BB0C681F
:10215000C86806F118031B0140EA4450E850087DA6
:1021600009693601AB190128C3F8841105D1D3F8E8
:10217000841141F48071C3F8841135445168C5F865
:102180008C111268C5F88821D3F8802142F0010231
:102190000020C3F88021F0BC7047436A43F4001369
:1021A0004362F0BC01207047436A43F4000343627A
:1021B0000120BEE7CF684C6806F118003B430001E0
:1021C00043EAC4032B50CAE72DE9F04190F82040C0
:1021D000013C012C06D9436A43F480234362012069
:1021E000BDE8F081056800295AD02C69A4075AD0AF
:1021F0000C012E19D6F8B07107F004079760002F74
:102200005FD1D6F8B0717F0D1760D6F8B0C1D6F89F
:10221000B4E1D6F8B471D6F8B4612544CCF3400CDF
:10222000D5F8B881C2F80CC00EF00F05C7F3072728
:10223000360C15619761566183F80080026822446C
:10224000D2F8B821120A5A7002682244D2F8B82192
:10225000120C9A7002682244D2F8B821120EDA7079
:1022600002682244D2F8BC211A7102682244D2F8D2
:10227000BC21120A5A7102682244D2F8BC21120C05
:102280009A7102681444D4F8BC21120EDA71026803
:1022900081B9D36843F020030846D360BDE8F081DC
:1022A000EC68A607A4D1436A43F4001343620120FB
:1022B000BDE8F081136943F0200313610020BDE8FD
:1022C000F081D6F8B071FF0857609EE790F8203093
:1022D000013B012B05D9436A43F48023436201206B
:1022E000704702685369194351610020704700BF6D
:1022F000704700BF704700BF704700BF704700BF06
:10230000704700BF704700BF704700BF704700BFF5
:10231000704700BF704700BF704700BF704700BFE5
:102320002DE9F84F03685C69D3F804809F68D3F8FF
:102330000CB0D3F81090D3F818A014F0010506469D
:1023400025D017F0010540F09F804FF480414FF4F5
:102350000052F8050DD533684FF480709860BB05C6
:1023600000F1CA80780500F1DA803B0540F1EB808E
:102370000D46F8030BD533684FF48032B9039A60E9
:1023800000F1B6807A0340F1CC8045F40045270780
:1023900002D51BF0100F71D1600703D51BF0080F99
:1023A00040F08280A10704D53368DB689A0740F0CB
:1023B0009080630602D519F0100F59D1A70603D5F6
:1023C00019F0080F40F08980E00604D533681B69D6
:1023D000990740F08980A20302D518F0100F6AD146
:1023E000E30302D518F0080F6CD1270405D518F0C7
:1023F000040F0BD1336804225A602DB1736A1D4358
:1024000075623046FFF78AFFBDE8F88FE00504D516
:102410001AF0010F18BF45F00105A10504D51AF007
:10242000020F18BF45F00205620504D51AF0040F2B
:1024300018BF45F004052305DCD51AF0700AD9D081
:10244000BAF1300F00F08D8070D9BAF1500F00F062
:102450008580BAF1600F00F08780BAF1400F01D19A
:1024600045F0400533689A6922F070029A61C2E72C
:102470003368102245F480651A619FE733681022A3
:1024800045F40075DA6087E701229A60BB0737D40C
:102490007D073DD417F0080559D04FF4A0414FF403
:1024A00040524FF4805554E733680822DA603046D2
:1024B000FFF72AFF76E7336810225A603046FFF7AD
:1024C00029FF8DE7336808225A603046FFF724FF62
:1024D0008BE7304601F0E8FC6BE7336808221A61AD
:1024E0003046FFF715FF6FE73046FFF70FFF72E743
:1024F0003046FFF701FF4AE73046FFF7FBFE38E7BB
:10250000FFF7F6FE00254FF480414FF4005220E71C
:102510004FF490414FF420524FF4006519E71546EF
:1025200027E73B030BD545F4803530E7BAF1100FB0
:102530001DD0BAF1200F95D145F0100592E7304635
:10254000FFF7E0FE23E73046FFF7DAFE11E7FFF77B
:10255000D5FE4FF480414FF40052FAE645F0800575
:1025600080E745F020057DE745F480757AE745F082
:10257000080577E7074AD3684FF6FF010B400002D2
:1025800043F0BF6300F4E06043F400330343D360DF
:10259000704700BF00ED00E0184B70B4DC68C4F376
:1025A0000224C4F10706042E04F1040328BF042604
:1025B000062B17D9033C0125A540013D2A400123E4
:1025C000B340013B1940A140002841EA02010CDB65
:1025D00000F1604000F561400901C9B280F80013C4
:1025E00070BC704700221446E9E7054B00F00F006D
:1025F00009010344C9B2197670BC704700ED00E0D0
:10260000FCEC00E0002807DB00F01F01012340097B
:10261000024A8B4042F82030704700BF00E100E0E2
:102620000138B0F1807F0ED2084B10B4084C5860CE
:10263000F02084F823000022072110469A601960D8
:102640005DF8044B70470120704700BF10E000E0C8
:1026500000ED00E0F8B50446FFF710FC002C73D045
:102660000222236884F835201A68002122F0010232
:1026700084F8341005461A6005E0FFF7FFFB401BA5
:1026800005283BD823681A68D107F6D4A768626882
:10269000E66825696169A0693A4332432A430A43DF
:1026A000E169256A1F68354E02430A43616A2A437D
:1026B0003E40042942EA060227D01A605A6922F0F5
:1026C00007021143DAB22E4D5961103AA5FB0212EE
:1026D00012092C4823F47F73815CE16523F0030326
:1026E000032A88BF04333F228A4001250021A365C5
:1026F00008469A60616584F83550F8BD03232022AE
:102700006265184684F83530F8BDE56A216BA66A23
:1027100029430A431A605A6946F0040122F007026D
:102720001143002DCED088B1B0F5005F18D0022E35
:1027300003D9032EC6D1EA01C4D501234022626524
:10274000184684F83530F8BD0120F8BD012E03D0BD
:10275000F1D3022EB6D1EEE7B5F1C07FB2D1ECE7EE
:10276000032EAFD801A252F826F000BF3B27000885
:10277000372700083B270008592700083F8010F042
:10278000ABAAAAAAF08D0008F0B583B00023876D2C
:102790000193C36D3D68624908229A401542044680
:1027A0000E6803D001680868400776D401229A4079
:1027B000154203D021684969080668D404229A406A
:1027C000154203D02168096889075AD410229A401B
:1027D000154203D02168086800073FD420229A40A0
:1027E000154203D021680868C00625D4636D0BB379
:1027F000636DDA071AD50523216884F835300B6834
:10280000484A23F00103A2FB06020B60920A02E091
:102810000B68DB0704D5019B01339A420193F7D281
:102820000022012384F8342084F83530E36C0BB1A6
:102830002046984703B0F0BDBA6094F83520052AC9
:102840003BD00B6813F4802F0B6854D019035FD56D
:10285000E36B002BCAD020469847C7E7BA600A68E6
:1028600012F4802F0A6822D1D20503D40A6822F01C
:1028700008020A60226C002AB0D020469047E36D1F
:10288000ACE7BA60626D42F0040262659EE7BA602E
:10289000626D42F00202626590E7086820F0040071
:1028A0000860BA60626D42F0010262657EE7110362
:1028B000E0D5A26C002AE0D190E70A68206C22F0F3
:1028C00016020A604A6922F080024A6120B30A684F
:1028D00022F008020A603F22216D02FA03F3002071
:1028E0000122BB6084F8340084F835200029A1D08F
:1028F000204688479EE713F48073A9D10A68012017
:1029000022F010020A6084F8343084F835009FE722
:10291000636C002B9FD169E7A26C002AD7D1DAE75C
:1029200008000020B5814E1B2DE9F04FD1F800C002
:10293000DFF8FC81DFF8FCE183B0002503E001351E
:10294000102D00F093800123AB4003EA0C02934268
:10295000F5D14E6826F0100ABAF1020F00F0898016
:102960004FEA45090324D0F800B004FA09F4E4431F
:1029700006F003070BEA040B07FA09F70AF1FF3A1E
:1029800047EA0B07BAF1010F076040F29880C76869
:102990008B683C4003FA09F32343C360F300CED5B0
:1029A0004FF00009CDF80490D8F8443043F4804348
:1029B000C8F84430D8F8444025F0030303F18043BD
:1029C00004F4804403F59C33019405F00304019F53
:1029D000D3F808A0A4000F27A7402AEA070A4E4F01
:1029E000B8421AD007F58067B8427BD04B4FB84247
:1029F0007DD04B4FB8427FD04A4FB84200F0818023
:102A0000494FB84200F08280484FB8420CBF4FF0A7
:102A100006094FF0070909FA04F94AEA09079F6015
:102A2000DEF80030D443F70354BF23401343CEF8FD
:102A30000030DEF80430B70354BF23401343CEF810
:102A40000430DEF80830F70254BF23401343CEF8B9
:102A50000830DEF80C30B60205F1010554BF234002
:102A60001343102DCEF80C307FF46DAF03B0BDE8EA
:102A7000F08F4FEAD50900EB890905F00707D9F86F
:102A80002040BF004FF00F0B0BFA07FB24EA0B0AA4
:102A90000C69BC4044EA0A04C9F820404FEA4509E1
:102AA0000324D0F800A004FA09F4E44306F0030775
:102AB00004EA0A0A07FA09F747EA0A07076087687B
:102AC00007EA040ACF6807FA09F747EA0A078760A6
:102AD000D0F804A0C6F300172AEA0303AF401F434F
:102AE000476054E74FF0010909FA04F995E74FF000
:102AF000020909FA04F990E74FF0030909FA04F909
:102B00008BE74FF0040909FA04F986E74FF005094D
:102B100009FA04F981E700BF000002400008024002
:102B2000000C024000100240001402400018024055
:102B300000380240003C014002B90904816170473D
:102B4000436931EA030308BF09048161704700BF8C
:102B5000002800F0A980F8B590F83D30044603F055
:102B6000FF02002B00F08B802268242384F83D3084
:102B7000136823F00103136000F03CF961684B4BCC
:102B800099424BD84A4B984277D92268494B5568AD
:102B9000A3FB00639B0C25F03F051D435560156AA0
:102BA000013325F03F052B431362D56949000138F5
:102BB000B0FBF1F00130C0F30B0025F44F450428C1
:102BC00038BF042025F0FF052843D0611568E0696F
:102BD000266A2169E768636925F0C0053043284308
:102BE00010609068A56920F4034020F0FF0039438D
:102BF00001439160D1682B4321F0FF010B43D36067
:102C00001168002341F0010120251160184623645A
:102C100084F83D50236384F83E30F8BD264B98423B
:102C20002BD92268234B5768DFF890E0A668A3FBF6
:102C300000539D0C27F03F072F434FF496735760C6
:102C400003FB05F3AEFB0353156A9B0925F03F0513
:102C500001332B431362D56925F44F4525F0FF0559
:102C600096B9431E01EB4101B3FBF1F30133C3F30A
:102C70000B03BBB143F40040A6E70120F8BD80F888
:102C80003C2001F033FB6FE701EB810303EB830191
:102C9000431EB3FBF1F30133C3F30B0313B143F44E
:102CA000404091E701208FE701207047A086010096
:102CB0007F841E0083DE1B43FF083D00D34D62105E
:102CC00060B1484A136803F00F038B4208D2CBB2BD
:102CD0001370136803F00F03994201D0012070476D
:102CE00003682DE9F0419D0714D55C0704D53E4CDF
:102CF000A26842F4E052A2601A0704D53A4CA268D6
:102D000042F46042A260384C8568A26822F0F0026A
:102D10002A43A260DF0704460D4622D54268012AF5
:102D20005BD0931E012B304B1B6850D9990725D5DA
:102D30002D4EB36823F003031343B360FFF79EF8EF
:102D400041F28837804605E0FFF798F8A0EB0800CD
:102D5000B8423FD8B368626803F00C03B3EB820F4C
:102D6000F2D1204A136803F00F039D4209D2EBB25F
:102D70001370136803F00F039D4202D00120BDE8D9
:102D8000F08123685A0706D51749E0688A6822F45B
:102D9000E05202438A601B0707D5134A21699368F2
:102DA00023F4604343EAC103936000F043F80E4B01
:102DB0000E499B680E4AC3F30313CB5C20FA03F35E
:102DC00000201360FFF710F80020BDE8F0819801A3
:102DD000AED4D3E70320BDE8F081034B1B689E030C
:102DE000A6D4CBE7003C024000380240CC8E00085D
:102DF00008000020044B054A9B680549C3F3822361
:102E00000868D35CD840704700380240DC8E000868
:102E100008000020044B054A9B680549C3F3423370
:102E20000868D35CD840704700380240DC8E000848
:102E300008000020284908B58B6803F00C03082B14
:102E400007D00C2B1DD0254A2548042B18BF10464F
:102E500008BD4A684B6813F4800302F03F0230D18A
:102E600049681E48C1F38811A1FB0001FDF7B8FEB7
:102E7000194B5B68C3F3014301335B00B0FBF3F014
:102E800008BD4A684B6813F4800302F03F020ED17C
:102E900049681248C1F38811A1FB0001FDF7A0FEAB
:102EA0000D4B5B68C3F30273B0FBF3F008BD4B68D6
:102EB0000B48C3F38813A3FB00010023FDF790FE2A
:102EC000EEE74B680648C3F38813A3FB0001002319
:102ED000FDF786FECCE700BF003802400024F40076
:102EE00000127A002DE9F0410368DA0782B0044647
:102EF00036D5AA498A6802F00C02042A00F0D6806E
:102F00008A6802F00C02082A00F0CC80A3498A6883
:102F100002F00C020C2A00F058816368B3F5803F80
:102F200000F00581B3F5A02F00F06B819B4D2A685E
:102F300022F480322A602A6822F480222A60002B40
:102F400040F0FA80FEF79AFF064605E0FEF796FF8E
:102F5000801B642800F20E812B689903F6D4236845
:102F60009A072FD58D4A916811F00C0F00F0AC80B4
:102F7000916801F00C01082900F0A28087498A6855
:102F800002F00C020C2A00F07781E368002B00F0BD
:102F90002181834B814D01221A60FEF76FFF0646A7
:102FA00005E0FEF76BFF801B022800F2E3802B6830
:102FB0009807F6D52B68226923F0F80343EAC20389
:102FC0002B6023681A0715D56369002B00F08780F2
:102FD000744B724D01221A60FEF750FF064605E061
:102FE000FEF74CFF801B022800F2C4806B6F9B072A
:102FF000F6D52368580720D4A369D3B1674DAA68D2
:1030000002F00C02082A66D0022B674B4FF0000238
:103010001A6000F00081FEF731FF2C46054605E0FE
:10302000FEF72CFF401B022800F2A48023689B01BE
:10303000F6D4002002B0BDE8F081584A136C13F0BA
:10304000805368D00026594D2B68D90540F1828005
:10305000A368012B00F0CF80052B00F08F804F4D2F
:103060002A6F22F001022A672A6F22F004022A67DF
:10307000002B40F08C80FEF701FF41F2883780463C
:1030800005E0FEF7FBFEA0EB0800B84272D82B6FFC
:103090009807F6D4002EAFD0404A136C23F080532B
:1030A0001364A9E74A6857027FF530AF3B4A1268BC
:1030B00095037FF555AF6268002A7FF451AF0AE0AF
:1030C000526857023FF55AAF344A1268950716D531
:1030D000E268012A13D0012002B0BDE8F081314A34
:1030E0002E4D1360FEF7CAFE064604E0FEF7C6FE4C
:1030F000801B02283ED86B6F9F07F7D479E72749DA
:1031000020690A6822F0F80242EAC0020A601A073F
:103110007FF570AF58E70193136C43F0805313644D
:10312000136C03F080530193019B01268BE71B4A2C
:10313000136843F480331360FEF7A0FE174D064674
:1031400004E0FEF79BFE801B642813D82B689803CD
:10315000F7D504E72B6843F480732B60FEF78EFEEF
:1031600007462B68DA053FF573AFFEF787FEC01BF5
:103170000228F6D9032002B0BDE8F081074B1A6F90
:1031800042F004021A671A6F42F001021A67FEF752
:1031900075FE024D804641F288370FE0003802404C
:1031A00000004742800E47426000474200700040E6
:1031B000FEF764FEA0EB0800B842DBD82B6F9B073C
:1031C000F6D5002E3FF418AF66E74A6856027FF541
:1031D000A4AE6BE72B4A2C4D1360FEF74FFE06465C
:1031E00004E0FEF74BFE801B0228C3D82B6899072A
:1031F000F7D42368E6E6244A136F43F0010313670C
:10320000C5E7214B1A6842F480221A601A6842F41A
:1032100080321A6090E7FEF731FE064604E0FEF7C2
:103220002DFE801B0228A5D82B689901F7D4E369ED
:10323000D4F820E0676AE66AA26A206B1349124C50
:1032400043EA0E0343EA871343EA0663520843EA5C
:103250000073013A43EA024301226B600A60FEF701
:103260000DFE054604E0FEF709FE401B022881D84A
:1032700023689A01F7D5DCE64A6856023FF585AE29
:1032800022E700BF0000474200380240600047428A
:10329000002800F09880F8B590F83D30044603F01F
:1032A000FF02002B66D023684849022284F83D20A3
:1032B0008B421A6863D0B3F1804F72D0A1F57C4184
:1032C0008B422DD001F580618B4229D001F58061C0
:1032D0008B4225D001F578418B4221D001F5705108
:1032E0008B4239D001F580618B4235D001F5806188
:1032F0008B4231D0A1F598318B422DD001F5806100
:103300008B4229D001F580618B4225D0A569E06808
:10331000616822F080022A431A60D862996215E03F
:10332000A1682669A069E768656822F070020A430F
:1033300022F440722649324322F0800202438B423B
:103340001A60DF629D6201D162691A6301225A61CB
:10335000002084F83D20F8BD2669A069E568616811
:1033600022F44072324322F0800202431A60DD628E
:103370009962EBE780F83C2001F032FE93E7A56804
:103380002069A16922F070022A4322F440720243AC
:1033900022F080020A431A60E268DA6262689A6286
:1033A000D2E7A6682069A169E768656822F0700223
:1033B000324322F44072024322F080020A431A6030
:1033C000DF629D62C2E70120704700BF000001403C
:1033D000000401400368DA6842F00102DA609A688A
:1033E00002F00702062A03D01A6842F001021A60AE
:1033F00000207047002800F09880F8B590F83D3024
:10340000044603F0FF02002B66D0236848490222DD
:1034100084F83D208B421A6863D0B3F1804F72D09C
:10342000A1F57C418B422DD001F580618B4229D0E2
:1034300001F580618B4225D001F578418B4221D086
:1034400001F570518B4239D001F580618B4235D046
:1034500001F580618B4231D0A1F598318B422DD09E
:1034600001F580618B4229D001F580618B4225D026
:10347000A569E068616822F080022A431A60D86278
:10348000996215E0A1682669A069E768656822F07D
:1034900070020A4322F440722649324322F080022D
:1034A00002438B421A60DF629D6201D162691A6336
:1034B00001225A61002084F83D20F8BD2669A069E8
:1034C000E568616822F44072324322F080020243D0
:1034D0001A60DD629962EBE780F83C2001F06AFD3A
:1034E00093E7A5682069A16922F070022A4322F4BB
:1034F0004072024322F080020A431A60E268DA62F4
:1035000062689A62D2E7A6682069A169E76865687F
:1035100022F07002324322F44072024322F0800211
:103520000A431A60DF629D62C2E70120704700BF54
:10353000000001400004014090F83C30012B47D0CE
:10354000F0B50223012480F83C4080F83D300C2A7D
:1035500036D8DFE802F06C35353507353535983526
:1035600035353F000368D1F808E01D6A0F68744ED6
:1035700025F010051D621A6A5D689C6922F0200220
:1035800024F4E644B34242EA0E1244EA072400F06F
:10359000BB8006F58066B34200F0B6804E685D6081
:1035A0009C619E631A629C690D6944F400649C618D
:1035B000996921F4806199619A6942EA05229A61C8
:1035C0000023012280F83D2080F83C301846F0BDF1
:1035D000022070470368D1F808E01D6A0F68584E52
:1035E00025F480551D621A6A5D68DC6922F4005278
:1035F00024F4E644B34242EA0E3244EA07246ED091
:1036000006F58066B3426AD04E685D60DC611E6478
:103610001A62DC690D6944F40064DC61D96921F443
:103620008061D961DA6942EA0522DA61C8E7036894
:10363000D1F808E01D6A0F68414E25F001051D62B2
:103640001A6A5D689C6922F0020224F07304B34296
:1036500042EA0E0244EA070465D006F58066B342EA
:1036600061D04E685D609C615E631A629C690D6901
:1036700044F008049C61996921F0040199619A69F8
:103680002A439A619CE70368D1F808E01D6A0F6835
:103690002B4E25F480751D621A6A5D68DC6922F480
:1036A000007224F07304B34242EA0E2244EA070493
:1036B0001BD006F58066B34217D04E685D60DC61B2
:1036C000DE631A62DC690D6944F00804DC61D969C3
:1036D00021F00401D961DA692A43DA6170E74E69A1
:1036E00025F4804545EA86158EE7CE688F6922F479
:1036F000006242EA06224E6925F440553E4322F418
:10370000806245EA0615D8E7CE688F6922F080020C
:1037100042EA06124E6925F440653E4322F040021B
:1037200045EA86053AE7CE688F6922F008023243FF
:103730004E6925F440753E4322F00402354390E77C
:1037400000000140704700BF704700BF704700BFD6
:10375000704700BF03681A69910710B5044602D587
:10376000DA68920762D41A69500702D5DA685107FD
:1037700049D41A69120702D5DA68100731D41A69D8
:10378000D20602D5DA68D00618D41A69D10702D554
:10379000DA68D2076BD41A69100602D5DA68110606
:1037A0006DD41A69520602D5DA68500657D41A69E0
:1037B000910602D5DA68920649D410BD6FF0100266
:1037C0001A61DB69082213F4407F2277204661D119
:1037D000FFF7B8FF2046FFF7B9FF002223682277E2
:1037E000D3E76FF008021A61DB6904229907227798
:1037F000204655D1FFF7A6FF2046FFF7A7FF00227E
:1038000023682277BBE76FF004021A619B690222EA
:1038100013F4407F227720463FD1FFF793FF2046E5
:10382000FFF794FF002223682277A2E76FF00202DD
:103830001A619B6901229B07027728D1FFF782FF5B
:103840002046FFF783FF0022236822778BE76FF083
:10385000200220461A61BDE8104000F047B86FF022
:1038600040021A612046FFF773FF23689FE76FF05D
:1038700001021A61204600F0BDFB23688BE76FF060
:1038800080021A61204600F033F8236889E7FFF7C9
:103890005BFFD8E7FFF758FF9FE7FFF755FFC1E74A
:1038A000FFF752FFABE700BF90F83C20012A1AD087
:1038B00070B40222046880F83D2003466068A26864
:1038C0000E684D6822F0800220F0700131432A43D7
:1038D0000126002561602846A26083F83D6083F8D8
:1038E0003C5070BC70470220704700BF704700BF5B
:1038F000704700BF2DE9F047046822698246C0681E
:10390000DAF81C10DAF80830DAF81060DAF8145037
:1039100022F4405202432261E268DAF8180033438D
:1039200022F416422B4322F00C020B431343E360B4
:10393000636923F440730343B1F5004F6361AB4BFC
:1039400061D09C4200F0018103F580639C4200F04D
:10395000FC80FFF74FFAA64FDAF8043000EB800046
:1039600000EB80009B00B0FBF3F3A7FB03235B0994
:103970001D01FFF73FFADAF8043000EB80009B00EE
:1039800000EB8000B0FBF3F6FFF734FADAF804201E
:1039900000EB8000930000EB8000B0FBF3F3A7FB8B
:1039A00003234FF064095B0909FB13631B013233E6
:1039B000A7FB03235B0903F0F006FFF71BFADAF815
:1039C000042000EB8000930000EB8000B0FBF3F8D4
:1039D000FFF710FADAF8043000EB80009B0000EBF0
:1039E0008000B0FBF3F0A7FB0030400909FB108317
:1039F0001B013233A7FB0323C3F3431333432B448D
:103A0000A360BDE8F0879C425DD003F580639C42D3
:103A100059D0FFF7EFF9764FDAF8043000EB800069
:103A200000EB80005B00B0FBF3F3A7FB03235B0913
:103A30001E01FFF7DFF9DAF8043000EB80005B00CD
:103A400000EB8000B0FBF3F5FFF7D4F9DAF80420BF
:103A500000EB8000530000EB8000B0FBF3F3A7FB0A
:103A600003235B094FF0640909FB1353DB00323376
:103A7000A7FB03231B0903F4F875FFF7BBF9DAF87A
:103A8000042000EB800000EB80005300B0FBF3F853
:103A9000FFF7B0F9DAF8043000EB800000EB8000AB
:103AA0005B00B0FBF3F3A7FB03235B0909FB138364
:103AB000DB003233A7FB0323C3F3421333442B440D
:103AC000A360BDE8F087FFF7A5F9494FDAF80430A5
:103AD00000EB800000EB80005B00B0FBF3F3A7FB82
:103AE00003235B091E01FFF795F9DAF8043000EBB8
:103AF00080005B0000EB8000B0FBF3F5FFF78AF974
:103B0000DAF8042000EB8000530000EB8000B0FBEB
:103B1000F3F3A7FB03234FF064095B0909FB13537D
:103B2000DB003233A7FB03231B0903F4F875FFF70F
:103B300071F9DAF8042000EB8000530000EB8000FC
:103B4000B0FBF3F8FFF766F9A4E7FFF763F9284F36
:103B5000DAF8043000EB800000EB80009B00B0FB43
:103B6000F3F3A7FB03235B091D01FFF753F9DAF811
:103B7000043000EB80009B0000EB8000B0FBF3F60C
:103B8000FFF748F9DAF8042000EB8000930000EB1F
:103B90008000B0FBF3F3A7FB03234FF064095B093C
:103BA00009FB13631B013233A7FB03235B0903F0FB
:103BB000F006FFF72FF9DAF8042000EB80009300FD
:103BC00000EB8000B0FBF3F8FFF724F9DAF80430DB
:103BD00000EB800000EB80009B00B0FBF3F3A7FB41
:103BE00003235B0909FB138302E700BF00100140B8
:103BF0001F85EB5160B338B590F83930044603F0B7
:103C0000FF0203B32268242384F83930D36823F4F5
:103C10000053D3602046FFF76DFE23681A6922F433
:103C200090421A615A6922F02A025A61DA68002524
:103C3000202142F40052DA602846E56384F8391006
:103C400084F83A1038BD80F8382001F03BFAD9E703
:103C500001207047F0B50E4690F83910202983B046
:103C600002D0022003B0F0BD5EB352B31F4690F8FD
:103C70003830012B0446F4D0002001212123E063D9
:103C800084F8381084F839300192FEF7F7F8019A79
:103C9000A28405462068E284E38C9BB2002B35D0D9
:103CA000E28CA168013A92B2B1F5805FE28415D04E
:103CB000791C37D102681206FCD53378436001368F
:103CC000EAE70120CEE703681B060CD4002F33D0AF
:103CD000FEF7D4F8401B874220682DD3791CF2D11F
:103CE00002681206FCD533882269C3F308034360D7
:103CF000002AE4D10236CFE703685B060BD4DFB1BC
:103D0000FEF7BCF8401B8742206815D3791CF3D11D
:103D100003685A06FCD52023002084F8393084F843
:103D200038009FE703681B06C7D42FB1FEF7A6F83B
:103D3000401B87422068BBD2C36823F4D073C360A2
:103D40004369202223F001030021436184F83920D4
:103D5000032084F8381084F83A2083E7F0B50E4643
:103D600090F83A10202983B002D0022003B0F0BDB1
:103D7000002E2FD0002A2DD01F4690F83830012B6E
:103D80000446F2D0002001212223E06384F8381099
:103D900084F83A300192FEF771F8019AA28505463F
:103DA000E285E08D80B2002854D0E28DA368013A0C
:103DB00092B2B3F5805FE28517D0791C206822D1DA
:103DC00002689206FCD52369002B38D14368337012
:103DD0000136E6E70120C9E703689B060BD4E7B18B
:103DE000FEF74CF8401B874216D3791C2068F3D1AC
:103DF00002689206FCD523693BBB4368C3F3080302
:103E000026F8023BCDE703689B06DCD42FB1FEF712
:103E100035F8401B8742D0D22068C36823F4D073A2
:103E2000C3604369202223F001030021436184F829
:103E30003920032084F8381084F83A2096E7436844
:103E400003F07F0333700136ABE74368DBB226F83B
:103E5000013BA6E7202384F8380084F83A3085E750
:103E600000B58BB00023012269460D4800930193F1
:103E70000293039304930593069307920892FEF727
:103E800097F810B1074801F01BFA0548FEF716F93C
:103E900002210348FEF71AFA0BB05DF804FB00BFDD
:103EA00008070020F88D000810B5084C00212346B3
:103EB00004F10802FEF788F9012384F82430202158
:103EC0000348BDE81040FEF73BBE00BF9806002047
:103ED000000002402DE9F04104460E46C06A94F805
:103EE0002010226166602660A26A3A4D3A4F3B4E2E
:103EF000A2609846E06000294AD12B689968490180
:103F000036D49A68120146D49B68DB0058D494F8E2
:103F10002130002BF1D0636A013B052BEDD8DFE89F
:103F200003F0211B150F0903384601F0C9F994F875
:103F30002010E0E7304601F0C3F994F82010DAE7EA
:103F4000274801F0BDF994F82010D4E7254801F086
:103F5000B7F994F82010CEE7234801F0B1F994F8AE
:103F60002010C8E7214801F0ABF994F82010C2E70F
:103F70004246012321461748FEF7CEF898B900259E
:103F800084F8215084F8205010211948FEF7D8FDFC
:103F90002846BDE8F0814246022321460D48FEF73F
:103FA000BBF80028EBD02B689B690122C3F30213F6
:103FB0004FF0FF35636284F821202846BDE8F08188
:103FC0004246042321460348FEF7A6F80028D6D02F
:103FD000E9E700BF080700206C8E0008548E000837
:103FE0003C8E0008308E0008208E0008108E0008DD
:103FF0000000024008B50268064B9A4200D008BD96
:10400000054B186800F5D47000F02CF8034B012222
:104010001A7008BD00100040C8060020C00600202D
:1040200030B5818800680C4D0C4C83B002AB002287
:1040300041F4886143F8042D89B2FFF74BFF204615
:1040400001F03EF92B681B09442BF8D1044801F01C
:1040500037F903B030BD00BFA0060020908E0008E5
:10406000788E000808B5002340681A464FF488612E
:10407000FFF730FF00B908BD08210248BDE808403D
:10408000FEF75EBD000002400F4B104A70B50121E3
:104090001A60082600224FF080754FF4003418464D
:1040A0005E60DD601C619A605A611A769A76DA76F3
:1040B0001A7759765977FDF7F9FE00B970BDBDE85A
:1040C000704000F065BD00BF08070020006400409C
:1040D000F0B50268244B89B000249A4204940394FA
:1040E00005940694079401D009B0F0BD03F5EA33B6
:1040F00001941A6C1D4842F000721A641A6C02F0A6
:1041000000720192019A02941A6B42F001021A6342
:104110001B6B03F00103029303A9092303224FF44D
:10412000C056022507930692029F03960495FEF758
:10413000FBFB224621461420FEF72EFA1420FEF740
:1041400061FA224621461520FEF726FA1520FEF7D1
:1041500059FA224621461620FEF71EFA1620FEF7CF
:1041600051FA09B0F0BD00BF0064004000000240F9
:1041700010B582B000240E4B01941A6B42F4001269
:104180001A631B6B03F4001322462146019310208F
:10419000019BFEF701FA1020FEF734FA2246214671
:1041A0001120FEF7F9F91120FEF72CFA02B010BD2C
:1041B000003802402DE9F0418AB00024364B0194CA
:1041C000069405940794089409941A6B334EDFF80B
:1041D000D880334F42F004021A631A6B02F00402D3
:1041E0000192019A02941A6B42F080021A631A6BD0
:1041F00002F080020292029A03941A6B42F00102CA
:104200001A631A6B02F001020392039A04941A6B68
:1042100042F002021A631B6B03F00203049322466E
:10422000304640F20331049BFEF786FC22464046AE
:104230004FF48071FEF780FC22463846F021FEF7ED
:104240007BFC4FF4005205A93046164B0592012520
:1042500006930794FEF768FB304605A940F2033346
:104260000593079408940695FEF75EFB404605A962
:104270004FF480730593069507940894FEF754FB5A
:10428000F02305A938460695079408940593FEF790
:104290004BFB0AB0BDE8F081003802400008024044
:1042A0000004024000002110000002400C4B0D4AA7
:1042B00010B54FF480410C4C1A60184600225C6027
:1042C00019619A60DA605A619A61DA611A62FEF7DE
:1042D0003FFC00B910BDBDE8104000F059BC00BF64
:1042E0003007002000580040A08601002DE9F0436F
:1042F0000268274B89B000249A42049403940594E1
:104300000694079402D009B0BDE8F083214D0094D3
:104310002B6B214843F002032B632B6B03F002034A
:104320000093009B01942B6B43F004032B632B6BD6
:1043300003F0040301934FF012094FF480634FF030
:1043400001080327042603A9019A0393CDF81090CE
:10435000CDF8148006970796FEF7E6FA4FF48053DF
:1043600003A90E480393CDF81090CDF8148006975A
:104370000796FEF7D9FA02942B6C43F480032B6462
:104380002B6C03F480030293029B09B0BDE8F08319
:10439000005800400038024000040240000802407B
:1043A000F8B5204D204E044604F0F00728460122BF
:1043B0000221FEF7C1FB394630460122FEF7BCFB65
:1043C000F943304601F0F0010022FEF7B5FB01226F
:1043D00011462846FEF7B0FB24010120FDF754FDED
:1043E000E4B2284600220121FEF7A6FB2146304612
:1043F0000122FEF7A1FBE143304601F0F00100226B
:10440000FEF79AFB012211462846FEF795FB012094
:10441000FDF73AFD284600220121BDE8F840FEF7ED
:104420008BBB00BF0008024000040240F8B5204DDD
:10443000204E044604F0F007284600220221FEF731
:104440007BFB394630460122FEF776FBF9433046C6
:1044500001F0F0010022FEF76FFB01221146284611
:10446000FEF76AFB24010120FDF70EFDE4B22846A9
:1044700000220121FEF760FB214630460122FEF7B3
:104480005BFBE143304601F0F0010022FEF754FBF4
:10449000012211462846FEF74FFB0120FDF7F4FCF0
:1044A000284600220121BDE8F840FEF745BB00BFC9
:1044B000000802400004024038B5754C754D1E20BE
:1044C000FDF7E2FC204600220221FEF735FB2846DC
:1044D00001223021FEF730FB28460022C021FEF7E2
:1044E0002BFB012211462046FEF726FB0120FDF79B
:1044F000CBFC002201212046FEF71EFB0220FDF727
:10450000C3FC0520FDF7C0FC204600220221FEF777
:1045100013FB284601223021FEF70EFB284600221D
:10452000C021FEF709FB012211462046FEF704FBDD
:104530000120FDF7A9FC002201212046FEF7FCFA2C
:104540000220FDF7A1FC0520FDF79EFC204600227D
:104550000221FEF7F1FA284601223021FEF7ECFA9B
:1045600028460022C021FEF7E7FA01221146204624
:10457000FEF7E2FA0120FDF787FC00220121204628
:10458000FEF7DAFA0220FDF77FFC0520FDF77CFC40
:10459000204600220221FEF7CFFA284601222021E0
:1045A000FEF7CAFA28460022D021FEF7C5FA0122FA
:1045B00011462046FEF7C0FA0120FDF765FC0022F7
:1045C00001212046FEF7B8FA0220FDF75DFC052028
:1045D000FDF75AFC204600220221FEF7ADFA2846DC
:1045E00001222021FEF7A8FA28460022D021FEF75A
:1045F000A3FA012211462046FEF79EFA0120FDF79C
:1046000043FC002201212046FEF796FA0220FDF726
:104610003BFC0520FDF738FC204600220221FEF776
:104620008BFA284601222021FEF786FA284600222E
:10463000D021FEF781FA012211462046FEF77CFACE
:104640000120FDF721FC002201212046FEF774FA2B
:104650000220FDF719FC0520FDF716FC0820FFF7E6
:10466000E5FE0520FDF710FC0120FFF7DFFE052029
:10467000FDF70AFC0620FFF7D9FE2820FDF704FC11
:104680000C20FFF7D3FE0520BDE83840FDF7FCBB4A
:10469000000802400004024000B52DED028B07EE39
:1046A000900A83B0B8EEE78AFEF7A4FBB5EE408A25
:1046B000F1EE10FA019035D007EE900AB8EEE76AF5
:1046C0000020F7EE005A4FF6FF71013080B207EE7E
:1046D000900AF8EE676AC6EE267AB4EE678AF1EEC3
:1046E00010FA1DD0012302E093B28B42EDD007EE09
:1046F000903AF8EE677A5A1C77EEA57A67EEA67ABA
:1047000086EE277AB4EE478AF1EE10FAECD1013842
:10471000064A5060D36003B0BDEC028B5DF804FB29
:104720000023F4E700234FF0FF30F1E7C407002037
:10473000F0B595B03422002107A800F0B9FD0023A0
:104740002949009303930293049305930693086CFD
:10475000264A40F080500864096C01F080510091B5
:1047600000990193136843F440431360136803F402
:1047700040430193012602234FF480354FF4800417
:104780000421A02207A8019F079608950D93119375
:10479000129313930E940F911092FEF7A3FB38B16E
:1047A000134C4E20FFF7FCFD14F8010F0028F9D13F
:1047B0000F26022500244FF4A0524FF4805302A884
:1047C000052102960395049405920693FEF778FA64
:1047D00038B1074C4E20FFF7E3FD14F8010F002815
:1047E000F9D115B0F0BD00BF0038024000700040A4
:1047F000AC8E00082DE9F0432DED048BADF53D7D29
:10480000FDF716FBFFF794FFFFF7D4FCFFF7B0FCB2
:10481000FFF73AFC00F01EFC00F038FC00F082FBD1
:1048200000F0A4FB00F022FBFFF740FDFFF744FE81
:10483000FFF716FBDFF8E882B44DB54E432404F0D1
:10484000F007012202212846FEF776F939460122B7
:104850003046FEF771F9F94301F0F00100223046CD
:10486000FEF76AF9012211462846FEF765F9240190
:104870000120FDF709FBE4B2002201212846FEF7E2
:104880005BF9214601223046FEF756F9E14301F07B
:10489000F00100223046FEF74FF90122114628466A
:1048A000FEF74AF90120FDF7EFFA00220121284620
:1048B000FEF742F918F8014F002CC0D1042218ABC2
:1048C0000221012503204FF0070C4FF0080E0A9239
:1048D00016928DF8AC200626052717918DF89C10AE
:1048E0008DF894508DF8A4008DF820408DF821406B
:1048F0008DF8224009940B948DF850408DF851406A
:104900008DF8524015948DF880408DF881408DF8D7
:104910008240219422942394CDF890D0CDF898D061
:10492000CDF8A0D0CDF8A8D0069407941294139493
:104930001E941F94CDF8B0D03493369338933A93A5
:104940003C933E934093429370239FED728AADF85F
:10495000EC208DF8C4C0ADF804C18DF8CCE0ADF802
:104960000CE1ADF8D450ADF8DC10ADF8E400ADF8D2
:104970001C51ADF82C118DF8BC60ADF8FC60CDF881
:10498000B8D0CDF8C0D0CDF8C8D0CDF810D1CDF882
:1049900020D1CDF830D18DF8B470ADF8F4704594D5
:1049A000469449944A944D9467934FF40063DFF81A
:1049B00074816D93DFF87091ADF84C210CABADF8BC
:1049C0007CC1ADF88CE164936B93ADF83C01ADF81C
:1049D0006C6165944E94CDF840D1CDF850D1ADF8CE
:1049E0005C71CDF860D1CDF870D1CDF880D16894EC
:1049F0008DF8A441CDF8A8D1CDF8B0915194CDF85F
:104A0000974152945594569459945A945D945E9457
:104A100061946294CDF8B8817C9380938493889359
:104A2000ADF824228C93ADF8F451ADF80412ADF832
:104A30001402CDF8BC818DF8D8418DF8D9417A9413
:104A40007B947E94829486948A948D948DED708A62
:104A50008DED718A8DED778A8DED788A8DED798A6D
:104A60008DED7F8A8DED838A8DED878A8DED8B8A22
:104A70008E948F949094919492949B912649A390B4
:104A800034A894939C93A493AB92AC9393959594F0
:104A90009D94A594AD9496949794989499949A948F
:104AA0009E949F94A094A194A294A694A794A89451
:104AB000A994AA94AE94AF94B094B194B294B397DD
:104AC000B493C1F800D0BB96B594B694B794B8949B
:104AD000B994BA94FFF7A4FA36A8FFF7A1FA36A85A
:104AE000FFF79EFA3AA8FFF79BFADFED0C8A4FF426
:104AF000DC70FFF7D1FD2546F0EE487A4FF6FF76E1
:104B0000F4EE687AF1EE10FA37D00FE000080240B8
:104B10000004024000000000C80600200BD7233C20
:104B2000C48E0008B81E853E9EEF273D0134A4B216
:104B300007EE904AF8EE679A0025B7EE009A07EE66
:104B4000905AB8EE678AFEF755F938EE098A07EEF3
:104B5000900A28EE298AB8EE677A6B1CC8EE077AAD
:104B6000F4EE687AF1EE10FACAD09DB2B542E6D101
:104B7000F4EE687AF1EE10FAD8D1044B013C1846F5
:104B80005C60DD60FEF726FCFEE700BF84070020C6
:104B90002DE9F041DFF89080214D224F4E2404F0A2
:104BA000F006012202212846FDF7C6FF3146012208
:104BB0003846FDF7C1FFF14301F0F001002238460D
:104BC000FDF7BAFF012211462846FDF7B5FF240183
:104BD0000120FDF759F9E4B2002201212846FDF732
:104BE000ABFF214601223846E443FDF7A5FF04F060
:104BF000F00100223846FDF79FFF012211462846AA
:104C0000FDF79AFF0120FDF73FF900220121284618
:104C1000FDF792FF18F8014F002CC0D1BDE8F081DC
:104C20000008024000040240AC8E000800B583B0CA
:104C300002A94FF6FF7341F8040D01220348FFF764
:104C400009F8019803B05DF804FB00BF4409002097
:104C500000B585B004A9002301F8093D01224FF6F3
:104C6000FF731048FFF77AF89DF807200D2A0CD043
:104C700004A94FF6FF7341F8042D0A480122FEF7FC
:104C8000E9FF039805B05DF804FB04A94FF6FF7334
:104C900041F8082D03480122FEF7DCFF0A228DF8B7
:104CA0000720E5E74409002000B583B00D4B002143
:104CB00000915A6C42F480425A645A6C02F4804269
:104CC0000092009A01911A6C42F080521A641B6C97
:104CD00003F0805301930720019BFDF74BFC03B0C9
:104CE0005DF804FB00380240704700BFFEE700BFDC
:104CF000FEE700BFFEE700BFFEE700BF704700BF52
:104D0000704700BF704700BFFDF7ACB80148FDF722
:104D10003BBD00BF440800200148FDF735BD00BF82
:104D2000A40800200148FDF7FBBA00BF08070020D7
:104D30000148FDF7F5BA00BF080700200148FDF75C
:104D4000EFBA00BF080700200148FEF703BD00BF0F
:104D5000840700200148FEF7FDBC00BF04080020C6
:104D60000120704708B500F079FA162303604FF070
:104D7000FF3008BD08B500F071FA16230360FEE7A6
:104D800070B5161E12DD0D46002402E09E420BD0C7
:104D90001C46FFF75DFFC0B20A2804F1010305F8C5
:104DA000010BF3D1184670BDA01C70BD012070BD71
:104DB00070B5161E07DD0C468D1914F8010BFFF7B0
:104DC00035FFAC42F9D1304670BD00BF0A4A08B584
:104DD000136873B118446946884202D810601846B7
:104DE00008BD00F03BFA0C2303604FF0FF33184678
:104DF00008BD024B1360EDE7CC06002094090020AB
:104E00004FF0FF30704700BF4FF400534B6000205D
:104E1000704700BF01207047002070471049114BB8
:104E2000D1F8882042F4700210B4C1F888201A68C2
:104E30000D4C002042F001021A6098601A6822F0BE
:104E4000847222F480321A605C601A684FF0006449
:104E500022F480221A60D8608C605DF8044B7047A1
:104E600000ED00E0003802401030002430B52B4C3B
:104E700091B000234FF08042204684E80C0002935A
:104E80000993A360E3602361A36103930A930B93E7
:104E90000C930D930E930F93FEF7ACFA20BB0023F7
:104EA00002A91E4802930393FEF7FEFCC8B9002333
:104EB000602509A91A4619480A930B930D93099581
:104EC000FEF73AFB08B1FFF763FE22680023B2F158
:104ED000804F0593049306930793089307D011B06E
:104EE00030BDFFF755FEE2E7FFF752FED7E702F5C8
:104EF0000E320193136B0A4843F001031363136BE3
:104F000003F0010301930222012304A9019C0493ED
:104F100008930592FDF708FD11B030BDC4070020CD
:104F20000000024000B50F4A0F4B136083B000230E
:104F30001046536000939360D36093610193FEF732
:104F4000A7F960B900236946064800930193FEF76C
:104F5000ABFC08B1FFF71CFE03B05DF804FBFFF7E4
:104F600017FEEFE7840700200010004000B50F4A4D
:104F70000F4B136083B0002310465360009393607F
:104F8000D36093610193FEF783F960B9002369460A
:104F9000064800930193FEF787FC08B1FFF7F8FD80
:104FA00003B05DF804FBFFF7F3FDEFE70408002012
:104FB000001400400368B3F1804F00D0704782B006
:104FC00003F50E33002201921A6C42F001021A64BA
:104FD0001B6C03F001030193019B02B0704700BFFB
:104FE00000B50368184A934283B019D0174A934218
:104FF00002D003B05DF804FB0022154B0192196C3E
:1050000041F0200119641B6C03F020030193114649
:105010003720019BFDF7C0FA3720FDF7F3FAE8E7E8
:1050200000220B4B0092196C41F0100119641B6CAB
:1050300003F01003009311463620009BFDF7ACFAF5
:105040003620FDF7DFFAD4E70010004000140040DE
:10505000003802400B4B0C4A10B50C211A604FF47B
:10506000E134002218465C6059619A60DA601A6186
:105070009A61DA61FEF7BEFD00B910BDBDE81040CF
:10508000FFF786BD04090020001001400B4B0C4ABD
:1050900010B50C211A604FF4E134002218465C6010
:1050A00059619A60DA601A619A61DA61FEF7A2FDCD
:1050B00000B910BDBDE81040FFF76ABD44090020EB
:1050C00000440040F0B50368474A8BB00024934287
:1050D0000694059407940894099459D0434A93423E
:1050E00001D00BB0F0BD424B03941A6C414E42F418
:1050F00000321A641A6C02F400320392039A049488
:105100001A6B42F001021A631B6B03F00103049354
:105110000C22022305A901270592069303220723E7
:1051200005463548079708920993DDF810E0334F9C
:10513000FDF7FAFB4FF0006140224FF480633046E8
:10514000F4607461B461F4613462746237607160F8
:10515000B2603361FDF77EFA002841D1284C2E63FE
:105160000023284FB5634FF000614FF48062204662
:10517000276061602261A360E3606361A361E36112
:1051800023626362FDF766FA38BB6C63A563A8E728
:10519000174B01945A6C184842F010025A645A6C2A
:1051A00002F010020192019A02941A6B42F001027D
:1051B0001A631B6B03F0010302934FF4C0660225D0
:1051C00001240322072305A9029F0596069507944B
:1051D00008920993FDF7A8FB83E7FFF7D9FCD4E712
:1051E000FFF7D6FCBAE700BF0010014000440040C2
:1051F00000380240A408002000000240A0600240E5
:105200004408002088600240DFF834D0002103E029
:105210000C4B5B58435004310B480C4B42189A42DC
:10522000F6D30B4A02E0002342F8043B094B9A42B2
:10523000F9D3FFF7F3FD00F017F8FFF7DBFA70473B
:105240000000022030930008000000207C060020AF
:105250007C06002094090020FEE70000014B18683E
:10526000704700BF0C00002070B50D4E0D4CA41B04
:10527000A4100025A54209D10B4E0C4C03F0AAFD49
:10528000A41BA4100025A54205D170BD56F82530F9
:1052900098470135EEE756F8253098470135F2E793
:1052A0002893000828930008289300082C930008EE
:1052B00002440346934200D1704703F8011BF9E70B
:1052C0000FB40A4B13B51C6824B1A36913B9204667
:1052D00002F07AF805AB049AA1680193204600F029
:1052E00007F802B0BDE8104004B070470C00002081
:1052F0002DE9F04FBDB0884615461C461F46834633
:1053000002F012FA03680D931846FAF7D1FF0990DC
:10531000BBF1000F05D0DBF8183013B9584602F086
:1053200053F8994B984537D1DBF80480D8F86430AE
:10533000D80707D4B8F80C30990503D4D8F858002A
:1053400002F002FAB8F90C309A0409D443F400537D
:10535000A8F80C30D8F8643023F40053C8F864304F
:10536000B8F80C301E0702D5D8F8103003BB414600
:10537000584601F039F8D8B1D8F86430DD0707D4C1
:10538000B8F80C309C0503D4D8F8580002F0DDF9C9
:105390004FF0FF330A9326E07C4B984502D1DBF8AF
:1053A0000880C3E77A4B984508BFDBF80C80BDE75F
:1053B000B8F80C3003F01A020A2A18D1B8F90E20F6
:1053C000002A14DBD8F86420D00705D4990503D44B
:1053D000D8F8580002F0B9F923462A464146584603
:1053E00000F0C2FF0A900A983DB0BDE8F08F9FED33
:1053F000647B8DED067B00232CAC1F9421932093BE
:1054000005950393119310930A93059D2B4613F86A
:10541000012B12B1252A40F08380059BEE1A0DD096
:1054200084E84800219B33442193209B0133072BC0
:10543000209377DC08340A9B33440A932B78002BA3
:1054400000F039870023691C8DF85F301A464FF051
:10545000FF3A0B931D460A204E1C097805960291CF
:1054600002992039582900F21D84DFE811F0B300B9
:105470001B041B04B8001B041B041B041B041B049B
:105480001B04BB0065001B04C400C7001B04E40030
:10549000E700E700E700E700E700E700E700E700D4
:1054A000E7001B041B041B041B041B041B041B043C
:1054B0001B041B041B041B0131011B0431011B04D1
:1054C0001B041B041B04FA001B041B0446031B04DF
:1054D0001B041B041B041B04AD031B041B049300CF
:1054E0001B041B041B041B041B041B041B041B04C4
:1054F0001B041B040D016B00310131013101FD0062
:105500006B001B041B0400011B04280348037C03DD
:1055100007011B048D031B04AF031B041B04C703FB
:105520001D4673E71FAA4146584602F0CCFE0028EC
:1055300040F099862CAC7EE701232B2205998BE75E
:105540000F46FBE70BB18DF85F20AA0640F1B08053
:10555000073727F0070707F10803D7E90067049327
:10556000002E77F1000306DA76424FF02D0367EB49
:1055700047078DF85F300123D0E200BFAFF3008012
:1055800000000000000000006C8F00088C8F0008F5
:105590004C8F00080BB18DF85F20A24B1193A90628
:1055A00040F13183073727F0070707F10803D7E9F0
:1055B00000670493EB070BD556EA070308D03023A6
:1055C0008DF860309DF808308DF8613045F00205A7
:1055D0000223A0E2002AB1D101232022AEE745F048
:1055E0000105ABE73E680B96002E07F10401A7DA30
:1055F00076420B960F4645F004059FE705994E1C31
:10560000097802912A2910D04FF0000A05960299D4
:10561000303909293FF624AF00FB0A1A05990E46D6
:1056200016F8011B02910596F1E73968059641EAE3
:10563000E17A043782E745F080057FE700210B918E
:1056400002990B9E303900FB06110B9105990E460D
:1056500016F8011B02910299059630390929EFD9F4
:10566000FEE645F0080569E745F0400566E705995F
:1056700009786C2905D105990131059145F020057E
:105680005CE745F0100559E73B1D049300263B6895
:105690008DF888308DF85F604FF0010A08960DF1A3
:1056A00088091EE10BB18DF85F2045F010054CE72D
:1056B00015F0100F07F1040303D03E680493F717A9
:1056C0004EE73E68049315F0400F18BF36B2F6E778
:1056D0000BB18DF85F20073727F0070707F10803A4
:1056E000049397ED007B8DED067B069B1293079B41
:1056F00023F0004313934FF0FF324B4BDDE91201CF
:10570000FBF730FA002840F0E3854FF0FF32464BBC
:10571000DDE91201FBF708FA002840F0D9850022E4
:105720000023DDE90601FBF7F5F910B12D238DF813
:105730005F303E4B3E4A029925F080054729CCBF99
:10574000914699464FF0030A00260896C9E0BAF13F
:10575000FF3F22D0029B23F02003472B04D1BAF154
:10576000000F08BF4FF0010A45F480731493079BA4
:10577000002B15DA069B0E93079B03F100430F9352
:105780002D230C93029B23F02007462F0ED0452F8C
:1057900046D10AF1010602210AE04FF0060AE3E7CA
:1057A0009DED067B00238DED0E7BEAE75646032137
:1057B0001DAB01931AAB0093324619AB9DED0E0B56
:1057C000584600F00DFF472F814602D1EB0740F10C
:1057D0008C8509EB0603462F039311D199F800300D
:1057E000302B09D100220023DDE90E01FBF788F9F7
:1057F00010B9C6F101061996039A199B1A4403922F
:1058000000220023DDE90E01FBF77AF990B930227E
:105810001D9B039999420FD9591C1D911A70F7E7E6
:105820005646B8E7F88E0008FFFFEF7FE88E0008C5
:10583000EC8E0008039B1D931D9B472FA3EB0903D0
:10584000039340F0F880199BDF1C02DB9A4580F23D
:105850001F81029B023B0293199A9DF808108DF854
:105860006C10531E002B1993B6BFC2F101032B22FB
:105870002D22092B8DF86D2040F3FA800DF17B026B
:105880000A2693FBF6F006FB10333033092802F8A2
:10589000013C02F1FF31034600F3E380303301F8AD
:1058A000013C023A0DF16E030DF17B008242194674
:1058B000C0F0D980039A1BABCB1A012A109303EBDB
:1058C000020A03DC15F00103089303D0099B9A44F4
:1058D000002308930C9B13B12D238DF85F30149D8A
:1058E000002656453346B8BF53460C939DF85F30AB
:1058F00013B10C9B01330C9315F0020314931EBFDC
:105900000C9B02330C9315F08403159314D10B9B5D
:105910000C9A9F1A002F0FDDA84B2360102F00F365
:10592000D381219B67601F44209B21970133072B64
:10593000209300F3E08108349DF85F3073B10DF1DE
:105940005F03236001236360219B01332193209B2C
:105950000133072B209300F3D8810834149B6BB1DB
:1059600018AB236002236360219B02332193209BA9
:105970000133072B209300F3D2810834159B802B31
:1059800014D10B9B0C9A9F1A002F0FDD8C4B2360B8
:10599000102F00F3CE81219B67601F44209B21972D
:1059A0000133072B209300F3DD810834A6EB0A06B0
:1059B000002E0FDD824F2760102E00F3DD81209B2B
:1059C0002198666001330644072B2196209300F34B
:1059D000EA810834E90500F1F081219B84E80006A2
:1059E00053442193209B0133072B209340F31B84C6
:1059F0001FAA4146584602F066FC002840F0338456
:105A00002CAC680700F112840A9B0B9A0C998A420D
:105A1000ACBF9B185B180A93219B3BB11FAA414660
:105A2000584602F050FC002840F01D8400232093CB
:105A3000049F2CACE9E4029B652B7FF70DAF029B22
:105A4000662B25D1199B002B1ADDBAF1000F01D16D
:105A5000EE0702D5099A13445344199A08929A46BC
:105A600038E70A460DE712F8011B03F8011B1DE792
:105A7000302213448DF86E208DF86F301CA919E781
:105A8000BAF1000F01D1ED0715D5099B0133E3E70A
:105A9000199A039B9A4206DBE8070ED5099B13442B
:105AA00067220292D9E7039B0999002A0B44F7DC8D
:105AB000C2F10102F3E70123CFE71346F0E70BB190
:105AC0008DF85F2015F0200F07F1040308D00A9924
:105AD0003A68CE1708463146C2E900011F4694E4F1
