:020000040800F2
:1000000000000220A16D00081168000815680008B2
:10001000196800081D680008216800080000000039
:10002000000000000000000000000000256800083B
:1000300029680008000000002D68000831680008E9
:10004000F16D0008F16D0008F16D0008F16D000818
:10005000F16D0008F16D0008F16D0008F16D000808
:10006000F16D0008F16D0008F16D0008F16D0008F8
:10007000F16D0008F16D0008F16D0008F16D0008E8
:100080003568000841680008F16D0008F16D00084E
:100090004D6800085968000865680008F16D00089F
:1000A000F16D0008F16D0008F16D0008F16D0008B8
:1000B000F16D000871680008F16D00087D680008A6
:1000C0008968000895680008F16D0008F16D000866
:1000D000F16D0008F16D0008A1680008F16D0008DD
:1000E000F16D0008F16D0008F16D0008F16D000878
:1000F000F16D0008F16D0008F16D0008F16D000868
:10010000F16D0008F16D0008F16D0008F16D000857
:10011000F16D0008F16D0008AD680008B9680008CD
:10012000F16D0008F16D0008F16D0008F16D000837
:10013000F16D00080000000000000000F16D0008F3
:10014000F16D0008F16D0008F16D0008F16D000817
:10015000F16D0008F16D0008F16D0008F16D000807
:10016000F16D0008F16D0008F16D0008F16D0008F7
:10017000F16D0008F16D0008F16D0008000000004D
:1001800000000000F16D0008000000000000000009
:10019000F16D00080000000000000000F16D000893
:1001A000000000000000000000000000F16D0008E9
:1001B000F16D0008F16D0008F16D0008F16D0008A7
:0401C000F16D0008D5
:1001D00010B5054C237833B9044B13B10448AFF381
:1001E00000800123237010BD7C0600200000000069
:1001F00014AB000808B5034B1BB103490348AFF328
:10020000008008BD000000008006002014AB00083C
:10021000034613F8012B002AFBD1181A0138704746
:1002200001F0FF01102A2BDB10F0070F08D010F8A7
:10023000013B013A8B422DD010F0070F42B3F6D1AB
:10024000F0B441EA012141EA014122F007047FF0C4
:1002500000070023F0E80256083C85EA010586EA1B
:10026000010685FA47F5A3FA87F586FA47F6A5FA57
:1002700087F68EB9EED1F0BC01F0FF0102F0070263
:1002800032B110F8013B013A83EA010313B1F8D10E
:100290000020704701387047002D06BF35460338EF
:1002A000073815F0010F07D1013015F4807F02BF28
:1002B000013015F4C03F0130F0BC0138704700BF79
:1002C00081F0004102E000BF83F0004330B54FEA07
:1002D00041044FEA430594EA050F08BF90EA020F74
:1002E0001FBF54EA000C55EA020C7FEA645C7FEA07
:1002F000655C00F0E2804FEA5454D4EB5555B8BF2A
:100300006D420CDD2C4480EA020281EA030382EA9A
:10031000000083EA010180EA020281EA0303362D2C
:1003200088BF30BD11F0004F4FEA01314FF4801CFF
:100330004CEA113102D0404261EB410113F0004F11
:100340004FEA03334CEA133302D0524263EB4303C8
:1003500094EA050F00F0A780A4F10104D5F1200E66
:100360000DDB02FA0EFC22FA05F2801841F10001C1
:1003700003FA0EF2801843FA05F359410EE0A5F195
:1003800020050EF1200E012A03FA0EFC28BF4CF0C6
:10039000020C43FA05F3C01851EBE37101F000457C
:1003A00007D54FF0000EDCF1000C7EEB00006EEB89
:1003B0000101B1F5801F1BD3B1F5001F0CD3490813
:1003C0005FEA30004FEA3C0C04F101044FEA44526A
:1003D00012F5800F80F09A80BCF1004F08BF5FEAF1
:1003E000500C50F1000041EB045141EA050130BDD1
:1003F0005FEA4C0C404141EB010111F4801FA4F174
:100400000104E9D191F0000F04BF01460020B1FAC8
:1004100081F308BF2033A3F10B03B3F120020CDA00
:100420000C3208DD02F1140CC2F10C0201FA0CF0DE
:1004300021FA02F10CE002F11402D8BFC2F1200C43
:1004400001FA02F120FA0CFCDCBF41EA0C019040F9
:10045000E41AA2BF01EB0451294330BD6FEA040442
:100460001F3C1CDA0C340EDC04F11404C4F120022D
:1004700020FA04F001FA02F340EA030021FA04F33F
:1004800045EA030130BDC4F10C04C4F1200220FA96
:1004900002F001FA04F340EA0300294630BD21FAD4
:1004A00004F0294630BD94F0000F83F4801306BF9A
:1004B00081F480110134013D4EE77FEA645C18BF8E
:1004C0007FEA655C29D094EA050F08BF90EA020F25
:1004D00005D054EA000C04BF1946104630BD91EA1D
:1004E000030F1EBF0021002030BD5FEA545C05D120
:1004F0004000494128BF41F0004130BD14F580045F
:100500003CBF01F5801130BD01F0004545F0FE41D2
:1005100041F470014FF0000030BD7FEA645C1ABF07
:10052000194610467FEA655C1CBF0B46024650EA3E
:10053000013406BF52EA033591EA030F41F400216A
:1005400030BD00BF90F0000F04BF0021704730B5F0
:100550004FF4806404F132044FF000054FF00001C5
:1005600050E700BF90F0000F04BF0021704730B586
:100570004FF4806404F1320410F0004548BF40425B
:100580004FF000013EE700BF42004FEAE2014FEAB0
:1005900031014FEA02701FBF12F07F4393F07F4F8B
:1005A00081F06051704792F0000F14BF93F07F4FBD
:1005B000704730B54FF4607401F0004521F0004100
:1005C00020E700BF50EA010208BF704730B54FF086
:1005D00000050AE050EA010208BF704730B511F08B
:1005E000004502D5404261EB41014FF4806404F1C3
:1005F00032045FEA915C3FF4DCAE4FF003025FEA45
:10060000DC0C18BF03325FEADC0C18BF033202EBCC
:10061000DC02C2F1200300FA03FC20FA02F001FA26
:1006200003FE40EA0E0021FA02F11444C1E600BFC5
:1006300070B54FF0FF0C4CF4E06C1CEA11541DBF78
:100640001CEA135594EA0C0F95EA0C0F00F0DEF843
:100650002C4481EA030621EA4C5123EA4C5350EA28
:10066000013518BF52EA033541F4801143F4801379
:1006700038D0A0FB02CE4FF00005E1FB02E506F00A
:100680000042E0FB03E54FF00006E1FB03569CF05F
:10069000000F18BF4EF0010EA4F1FF04B6F5007F65
:1006A00064F5407404D25FEA4E0E6D4146EB0606D7
:1006B00042EAC62141EA55514FEAC52040EA5E5060
:1006C0004FEACE2EB4F1FD0C88BFBCF5E06F1ED80A
:1006D000BEF1004F08BF5FEA500E50F1000041EB41
:1006E000045170BD06F0004646EA010140EA0200EE
:1006F00081EA0301B4EB5C04C2BFD4EB0C0541EA10
:10070000045170BD41F480114FF0000E013C00F324
:10071000AB8014F1360FDEBF002001F0004170BD48
:10072000C4F10004203C35DA0C341BDC04F1140461
:10073000C4F1200500FA05F320FA04F001FA05F2ED
:1007400040EA020001F0004221F0004110EBD370BA
:1007500021FA04F642EB06015EEA430E08BF20EAE6
:10076000D37070BDC4F10C04C4F1200500FA04F389
:1007700020FA05F001FA04F240EA020001F000411B
:1007800010EBD37041F100015EEA430E08BF20EA8E
:10079000D37070BDC4F1200500FA05F24EEA020ED6
:1007A00020FA04F301FA05F243EA020321FA04F005
:1007B00001F0004121FA04F220EA020000EBD370BC
:1007C0005EEA430E08BF20EAD37070BD94F0000FBC
:1007D0000FD101F00046400041EB010111F4801FF0
:1007E00008BF013CF7D041EA060195F0000F18BFA1
:1007F000704703F00046520043EB030313F4801FDD
:1008000008BF013DF7D043EA0603704794EA0C0F96
:100810000CEA135518BF95EA0C0F0CD050EA4106AC
:1008200018BF52EA4306D1D181EA030101F0004129
:100830004FF0000070BD50EA410606BF1046194651
:1008400052EA430619D094EA0C0F02D150EA01365D
:1008500013D195EA0C0F05D152EA03361CBF10469E
:1008600019460AD181EA030101F0004141F0FE413D
:1008700041F470014FF0000070BD41F0FE4141F4C1
:10088000780170BD70B54FF0FF0C4CF4E06C1CEAC1
:1008900011541DBF1CEA135594EA0C0F95EA0C0F76
:1008A00000F0A7F8A4EB050481EA030E52EA033531
:1008B0004FEA013100F088804FEA03334FF0805552
:1008C00045EA131343EA12634FEA022245EA11157F
:1008D00045EA10654FEA00260EF000419D4208BF30
:1008E000964244F1FD0404F5407402D25B084FEADD
:1008F0003202B61A65EB03055B084FEA32024FF489
:1009000080104FF4002CB6EB020E75EB030E22BFE5
:10091000B61A754640EA0C005B084FEA3202B6EBA5
:10092000020E75EB030E22BFB61A754640EA5C0054
:100930005B084FEA3202B6EB020E75EB030E22BFE4
:10094000B61A754640EA9C005B084FEA3202B6EBE5
:10095000020E75EB030E22BFB61A754640EADC00A4
:1009600055EA060E18D04FEA051545EA16754FEA06
:1009700006164FEAC30343EA52734FEAC2025FEA24
:100980001C1CC0D111F4801F0BD141EA00014FF0B3
:1009900000004FF0004CB6E711F4801F04BF014384
:1009A0000020B4F1FD0C88BFBCF5E06F3FF6AFAEA0
:1009B000B5EB030C04BFB6EB020C5FEA500C50F130
:1009C000000041EB045170BD0EF0004E4EEA1131B3
:1009D00014EB5C04C2BFD4EB0C0541EA045170BDBA
:1009E00041F480114FF0000E013C90E645EA060EFE
:1009F0008DE60CEA135594EA0C0F08BF95EA0C0F2C
:100A00003FF43BAF94EA0C0F0AD150EA01347FF473
:100A100034AF95EA0C0F7FF425AF104619462CE74A
:100A200095EA0C0F06D152EA03353FF4FDAE1046AD
:100A3000194622E750EA410618BF52EA43067FF4FE
:100A4000C5AE50EA41047FF40DAF52EA43057FF48E
:100A5000EBAE12E74FF0FF3C06E000BF4FF0010C99
:100A600002E000BF4FF0010C4DF804CD4FEA410CFD
:100A70007FEA6C5C4FEA430C18BF7FEA6C5C1BD0CA
:100A800001B050EA410C0CBF52EA430C91EA030F4B
:100A900002BF90EA020F0020704710F1000F91EAA8
:100AA000030F58BF994208BF90422CBFD8176FEA76
:100AB000E37040F0010070474FEA410C7FEA6C5C44
:100AC00002D150EA013C07D14FEA430C7FEA6C5C4B
:100AD000D6D152EA033CD3D05DF8040B704700BF77
:100AE0008446104662468C461946634600E000BFC5
:100AF00001B5FFF7B7FF002848BF10F1000F01BD97
:100B00004DF808EDFFF7F4FF0CBF012000205DF861
:100B100008FB00BF4DF808EDFFF7EAFF34BF0120E6
:100B200000205DF808FB00BF4DF808EDFFF7E0FF7F
:100B300094BF012000205DF808FB00BF4DF808EDD0
:100B4000FFF7CEFF94BF012000205DF808FB00BF37
:100B50004DF808EDFFF7C4FF34BF012000205DF819
:100B600008FB00BF4FEA410C7FEA6C5C02D150EAFF
:100B7000013C0AD14FEA430C7FEA6C5C02D152EA95
:100B8000033C02D14FF0000070474FF00100704766
:100B90004FEA410212F5001215D211D56FF47873A5
:100BA000B3EB625212D94FEAC12343F0004343EA48
:100BB000505311F0004F23FA02F018BF4042704723
:100BC0004FF00000704750EA013005D111F00040AD
:100BD00008BF6FF0004070474FF00000704700BF43
:100BE00053B94AB9002908BF00281CBF4FF0FF3194
:100BF0004FF0FF3001F0F6B8ADF1080C6DE904CE0E
:100C000000F006F8DDF804E0DDE9022304B07047E7
:100C10002DE9F0478C460D460446089E002B51D125
:100C20008A4217466DD9B2FA82FEBEF1000F0BD090
:100C3000CEF1200C01FA0EF520FA0CFC02FA0EF7A8
:100C40004CEA050C00FA0EF44FEA174A250CBCFBDF
:100C5000FAF81FFA87F90AFB18CC45EA0C4508FB9D
:100C600009F3AB420AD9ED1908F1FF3280F0238174
:100C7000AB4240F22081A8F102083D44ED1AA4B233
:100C8000B5FBFAF00AFB105544EA054400FB09F9EC
:100C9000A14509D9E41900F1FF3380F00A81A1458B
:100CA00040F2078102383C44A4EB090440EA0840C2
:100CB0000021002E61D024FA0EF40023346073600A
:100CC000BDE8F0878B4207D9002E54D0002186E87A
:100CD00021000846BDE8F087B3FA83F1002940F00F
:100CE0008E80AB4202D3824200F2FA80841A65EB16
:100CF00003050120AC46002E3FD086E81010BDE869
:100D0000F08712B90127B7FBF2F7B7FA87FEBEF1F9
:100D1000000F34D1EB1B3A0C1FFA87FC0121B3FB07
:100D2000F2F8250C02FB183345EA03450CFB08F3E7
:100D3000AB4207D9ED1908F1FF3002D2AB4200F205
:100D4000D1808046ED1AA3B2B5FBF2F002FB10553C
:100D500043EA05440CFB00FCA44507D9E41900F163
:100D6000FF3302D2A44500F2B8801846A4EB0C046D
:100D700040EA08409DE731463046BDE8F087CEF1B5
:100D8000200405FA0EF307FA0EF720FA04F83A0CDD
:100D900025FA04F448EA0308B4FBF2F14FEA1845D7
:100DA00002FB11441FFA87FC45EA044501FB0CF3E2
:100DB000AB4200FA0EF409D9ED1901F1FF3080F0D1
:100DC0008A80AB4240F2878002393D44EB1A1FFA19
:100DD00088F5B3FBF2F002FB103345EA034500FB54
:100DE0000CF3AB4207D9ED1900F1FF386FD2AB42DB
:100DF0006DD902383D44EB1A40EA01418FE7C1F159
:100E0000200722FA07F88B4005FA01F448EA0303A9
:100E100020FA07FE4FEA134CFD404EEA040EB5FBE4
:100E2000FCF94FEA1E440CFB19551FFA83F844EAFB
:100E3000054509FB08F4AC4202FA01F200FA01FA96
:100E400008D9ED1809F1FF3043D2AC4241D9A9F1DC
:100E500002091D442D1B1FFA8EFEB5FBFCF00CFB96
:100E600010554EEA054400FB08F8A04507D9E418E0
:100E700000F1FF3529D2A04527D902381C4440EAA9
:100E80000940A4EB0804A0FB02894C45C6464D4628
:100E900015D312D056B1BAEB0E0364EB050404FA75
:100EA00007F7CB401F43CC40376074600021BDE89A
:100EB000F0871846F8E69046E0E6C245EAD2B8EB7D
:100EC000020E69EB03050138E4E72846D7E7404600
:100ED00091E78146BEE7014678E702383C4445E7A2
:100EE000084608E7A8F102083D442BE703685A00CA
:100EF0004CBF43F0004323F000431844704700BF49
:100F000061B32DE9F84F01F1FF3A90460646D1460C
:100F1000002707EB090404EBD4746410E500711991
:100F20000846FFF7E3FFA245834605F10800304479
:100F300009D0FFF7DBFFC34500F1FF3005D840457E
:100F400009D2671CE5E7C34505D9A74202D004F1E1
:100F5000FF39DEE700210846BDE8F88F08467047F4
:100F6000012807D0022807D0044B00280CBF1846E0
:100F70000020704702487047024870476516000815
:100F8000691600086D16000830B5244B83B004467E
:100F90008D1E7BB301A92846AFF3008020B30199D1
:100FA0002A46FFF7ADFF0146F0B1FFF79FFF4B6800
:100FB000A064012B12D0002B01F1040020DBFFF70D
:100FC00095FF0023E06423650368002B1CDBFFF71B
:100FD0008DFF00232061184603B030BD002323613C
:100FE0000523184603B030BD0023236109231846AA
:100FF00003B030BD0A490B48091AC9100191CFE767
:101000000123E0642365DFE7C3F30360FFF7A8FF74
:101010000028206114BF00230923DCE70000000042
:1010200090B10008C0AF00080368DA0710B50446A5
:1010300006D49B0700F1480009D500F051FC236855
:10104000590709D51A070ED5DB0613D510BD00F0D8
:101050003FFC23685907F5D404F1D00000F048FCA8
:1010600023681A07F0D404F5A87000F049FC23683F
:10107000DB06EBD404F5E870BDE8104000F084BC5A
:10108000036803B103441846704700BF0920704746
:10109000704700BF70B504460D4608E02B6C6361D5
:1010A0002A462369214601209847082808D1296C3F
:1010B0002046FFF769FF06460028EFD009F0DFFC65
:1010C0000728FBD13046296CFFF7E2FF281D00F00E
:1010D000F3FB00BF2DE9F0470C1D054692460FCCEF
:1010E000ADF5727D03AE0FC60FCC0FC60FCC0FC689
:1010F00094E80F0002ACD5F80C80D5F8189086E87B
:101100000F0000232846216C2360FFF73DFFBAF152
:10111000000F074614BF0A2609267FB1A36B46F0CD
:1011200010018DE810022A46636401202B46C04757
:1011300078BB38460DF5727DBDE8F087236C6B6196
:101140004FF4F07221467AA808F070FD2B697AAA54
:10115000294630469847889B82468DE810023146E2
:1011600063642A462B460120C04790B94FF4F072C1
:101170007AA9204608F05AFDBAF1080F06D1216C71
:101180002846FFF701FF09260746C6E7BAF1070F11
:1011900005D0092738460DF5727DBDE8F087384641
:1011A000216CFFF775FF03A800F086FB406C7047C9
:1011B000F0B5CB6B0B640E1D0F4604460FCEF9B095
:1011C00001AD0FC50FCE0FC50FCE0FC596E80F00AE
:1011D0004FF0FF3685E80F00009606E023696A4667
:1011E000214698470828054608D110992046FFF760
:1011F000CBFE0028F2D0092079B0F0BD6846FFF799
:1012000013FF062DF7D139462046FFF743FF00BFF5
:1012100030B4DD6BC160826119461D64002230BCB0
:1012200058E700BF70B5C66843690B6426B1012258
:10123000FFF750FF09F023FC03690A4604460D46F8
:10124000014602209847072807D0082803D12946DD
:101250002046FFF71FFF09F012FC3046296CFFF70C
:1012600017FF281D00F028FBC2681AB1CA6B0A6478
:1012700000222FE79CE700BF704700BF836813B1CF
:10128000014601201847704700B5042907D8DFE858
:1012900001F00309060909000BB90F2A05D902203C
:1012A0005DF804FB01205DF804FB00EB82021846A8
:1012B0005368019A13605DF804FB00BF10B584B059
:1012C000002303AC0A4600941946FFF7DDFF03989C
:1012D00004B010BD00B5042907D8DFE801F0030908
:1012E000060909000BB90F2A05D902205DF804FB95
:1012F00001205DF804FB019900EB8202096851604E
:1013000018465DF804FB00BF10B584B004AC0023A0
:1013100044F8042D0A4600941946FFF7DBFF04B099
:1013200010BD00BFF0B5D36B1364151D07460E4604
:101330000FCDADF50F7D17AC0FC40FCD0FC40FCD82
:101340000FC495E80F004FF0FF3584E80F001695A5
:1013500010E016A8FFF7D8FF314616A8B84716AA1E
:10136000694678B9049B08209847052804460AD0A6
:10137000092807D026996846FFF706FE6A460C2121
:101380000028E6D0092416A8FFF74EFE20460DF5EA
:101390000F7DF0BD2DE9F04F0D46C96C8BB00C1DD3
:1013A000096807919146089400F0030B1E46002B34
:1013B00060D10902032307918DF825608DF8243050
:1013C0002B6DBBF1020F08BFAC6B13F0010340D1D2
:1013D000019300F008030393D4F80080B8F1000FE4
:1013E00039D0022E43D0B4F8008067880434AB6C47
:1013F00027F0010A0F2148469A44FFF75FFF824514
:1014000033D828F001039A4450452CBF0020012016
:101410007F0007F0020708F0010847EA0807012FDC
:101420003ED035D3022F1CD1236823F00042029214
:10143000BBF1000F76D128B1039900297ED0002A94
:1014400000F0A680002B77DB029B013304EB8304C2
:10145000C2E700230193022E3EDDFFF717FE0028AE
:1014600040D009200BB0BDE8F08F0020D0E76768BE
:101470000834BCE7022BA3DC0B0CDAB209048DF8AC
:101480002530022304EB820407918DF8243097E77E
:10149000BBF1000F02D0002840F0BD8004349BE770
:1014A000BBF1000F25D1A8B194E80C00991C4FEABC
:1014B000D272D6D005F158010133069100F0A38015
:1014C000201DFFF7DDFD06AB01462846AFF3008087
:1014D000002877D108347FE707A9484600F0EEFAE4
:1014E0000028BED1019B002B5CD108200BB0BDE8C9
:1014F000F08F0D2148462F6AFFF7E0FE8742E9D1C1
:10150000AB6A9C42E6D12046FFF7F0FC0F21024671
:101510004846FFF7F9FE48462A460021FFF7F4FE49
:1015200007209FE70D2148462F6AFFF7C7FE874235
:1015300058D02368002B87DA043485E7029B3BB33D
:1015400005F15803271DCDF810B0DDF80C80DDF84B
:1015500008A00596A3461C4602E0B245B04616D048
:1015600038460694FFF78CFD06AB0146002228465C
:10157000AFF3008008F1010604370028EDD0029B8C
:10158000059E43455C46DDF810B0D2D100E05C46D4
:1015900048460D21FFF792FE069B2862AC626B6203
:1015A00006205FE70F214846FFF788FE0E2102461E
:1015B0004846FFF7A9FE4846294A0F21FFF7A4FE37
:1015C00007204FE707460D214846FFF777FE022F19
:1015D00028621DD12B46069A43F82C2F6B62AC6211
:1015E00006203FE7AB6A9C42A3D104220027A31840
:1015F0000299A962EF622A636B632368BB421DDB19
:101600000123019320E748460D21FFF757FE28628A
:10161000069B6B62E3E72046FFF768FC043406464E
:10162000AC632846AFF3008000283FF41AAF484669
:1016300032460F21FFF768FE072013E70846013006
:1016400004EB8000FFF752FC0F2102464846FFF7EB
:101650005BFE48462A463946FFF756FE072001E75B
:1016600000000000002395E6012393E6022391E6A3
:10167000F0B50446C5B004290DD8DFE801F05303E6
:101680000C310F00012B4FEA124695B262D172194C
:10169000102A40F29B80022045B0F0BD002BFAD109
:1016A000102AF8D82368D80600F1C68022AE30464A
:1016B000019200F073F9A06B019A0023012505FA4D
:1016C00003F1114203D0016846F8231004300133BE
:1016D000042BF4D1A063304600F056F90020DBE77C
:1016E000032BD8D1150C97B2EB19102BD3D8236844
:1016F0001E0700F1B58022AE304600F023F9ED0060
:10170000A36B4FB1043D711903EBC70053F8042BD1
:1017100041F8042F8342F9D13046A36300F0F0F87A
:101720000020B9E7002BB6D1A56B97B2201D01268A
:1017300006FA03F1394203F1010302D0296801607E
:101740000435102B00F10400F2D112F400503BD10B
:10175000A563A1E7052B9ED17719202F9BD80F2ECB
:1017600066D92F46002D3AD12A460027002AA06BC1
:1017700072DD00EBC202014644A800EBC6008C38C3
:1017800051F8045B40F8045F9142F9D1084697B1E3
:10179000102E324644A938BF102201EBC202A2F536
:1017A000C4727900043A00EB810150F8045B42F8FE
:1017B000045F8842F9D1012B48D00F2EA16333D9A1
:1017C00017B102A800F094F8002065E70F2E3FF64D
:1017D00062AF00272268D10717D4002F60D022689B
:1017E000510745D4012B4DD00F2E06D822A80193C6
:1017F00000F07AF8019B002FB6D002A8019300F008
:101800007BF8019BC6F11002B0E722F00101052B25
:101810002160019320463BD022F0030240F8482B80
:1018200000F05AF8019BD8E722A800F059F8C7E762
:10183000102FCED9103FCDE723F01003236004F51D
:10184000E870019200F0AAF8019A2FE70431A16331
:1018500022A800F03DF8B7E7002F99D10146AAE78A
:1018600023F00803236004F5A87000F06BF842E74A
:10187000204622F0040240F8D02B019300F03CF8FF
:10188000019BAFE722A8019300F026F8019BB9E77E
:1018900041F0020140F8481B00F026F8019B9CE74C
:1018A000012B03D00F2E3FF65FAF9FE722A80193D5
:1018B00000F012F8019B57E700F1340191E838007D
:1018C0009C46A6464CF8045D90E8FF0FE54600BD37
:1018D00090EC210B704700BF80EC210B704700BFDC
:1018E00090EC200B704700BF80EC200B704700BFCE
:1018F000D0EC200B704700BFC0EC200B704700BF3E
:10190000F0EC0201F0EC0211F0EC0221F0EC0231FB
:10191000F0EC0241F0EC0251F0EC0261F0EC0271EB
:10192000F0EC0281F0EC0291F0EC02A1F0EC02B1DB
:10193000F0EC02C1F0EC02D1F0EC02E1F0EC02F1CB
:10194000704700BFE0EC0201E0EC0211E0EC022184
:10195000E0EC0231E0EC0241E0EC0251E0EC02612B
:10196000E0EC0271E0EC0281E0EC0291E0EC02A11B
:10197000E0EC02B1E0EC02C1E0EC02D1E0EC02E10B
:10198000E0EC02F1704700BFB0FC0181B0FC0191B6
:10199000B0FC01A1B0FC01B1704700BFA0FC018107
:1019A000A0FC0191A0FC01A1A0FC01B1704700BF07
:1019B000EC4600B52DE900502DE9FF1F4FF0000364
:1019C0002DE90C0001A9FFF7F3FBDDF840E012B0B0
:1019D000704700BFEC4600B52DE900502DE9FF1F10
:1019E0004FF000032DE90C0001A9FFF71BFCDDF807
:1019F00040E012B0704700BFEC4600B52DE9005042
:101A00002DE9FF1F4FF000032DE90C0001A9FFF79E
:101A10002BFCDDF840E012B0704700BFEC4600B58B
:101A20002DE900502DE9FF1F4FF000032DE90C00B8
:101A300001ABFFF7EDFBDDF840E012B0704700BFEF
:101A4000EC4600B52DE900502DE9FF1F4FF00003D3
:101A50002DE90C0001AAFFF765FCDDF840E012B0AB
:101A6000704700BF027A1AB9437A43B9B020704771
:101A70000368013A02721A020260180E7047426847
:101A8000013B10B4437213680321141D01721A0242
:101A9000446002605DF8044B180E704700B585B0D5
:101AA00003AA0023009219460C22FFF7EDFB0398CE
:101AB00005B05DF804FB00BFF0E700BF2DE9F0437F
:101AC000064685B00F464FF000083846FFF7CAFFBC
:101AD000B028044623D0050627D400230DF10C09B5
:101AE000194685000D22CDF800903046FFF7CCFB5B
:101AF000EDB2039BCDF80090600605F104054CBFE4
:101B00005D1BED18002319460D2230460395FFF7A3
:101B1000E1FB3846FFF7A6FFB0280446DBD1B8F159
:101B2000000F00F0958000201CE000F0F003802BF7
:101B30005DD0902B19D0A02B2CD0B02B3FD0C02B38
:101B40006CD000F0F803D02B0BD100F0070201326B
:101B500042F40022052301213046FFF789FD0028C9
:101B6000B3D0092005B0BDE8F08300F00D030D2BC4
:101B7000F7D003AD002300F00F0219460095304660
:101B8000FFF782FB0023009519460D223046FFF730
:101B9000A1FB9AE7C24302F007034FF47F621A41A8
:101BA000010702F47F624FF0000348BF42F4804215
:101BB00019463046FFF75CFD0028D2D185E7B128F1
:101BC00057D0B22868D0B32800F0958000F0FC030D
:101BD000B42BC6D000F007020132012342F40022E8
:101BE00019463046FFF744FD0028BAD16DE7384664
:101BF000FFF738FF24020443B4F5004FB1D02401AD
:101C00000023A2B219463046FFF732FD0028A8D1C2
:101C100014F4004F18BF4FF0010856E7C6287DD0D6
:101C2000C72800F0868000F0F803C02B00F09480F5
:101C3000C82800F09F80C92893D13846FFF712FFCB
:101C4000020300F00F0002F470220130024381E72A
:101C500003AC43460E22414600943046FFF714FB86
:101C60000094304643460F224146FFF733FB40467F
:101C700078E73846FFF7F6FE00283FF472AF10F021
:101C8000F0037FF46EAF024619463046FFF7F0FCD2
:101C900000287FF466AF18E700230DF10C090D2230
:101CA0001946CDF800903046FFF7EEFA3846FFF7B8
:101CB000D9FE02064FF002040CD5039B00F07F0012
:101CC000A040034438460393FFF7CCFE030604F11B
:101CD0000704F2D4039BCDF8009000F07F02A240ED
:101CE00003F501740023144419460D223046039471
:101CF000FFF7F0FAE9E63846FFF7B4FE010300F01B
:101D00000F0001F47021421C01230A43304619469A
:101D1000FFF7AEFC00287FF424AFD6E63846FFF785
:101D2000A1FE010300F00F0001F47021421C032307
:101D3000EBE73846FFF796FE00283FF412AF10F0AD
:101D4000F0037FF40EAF024604213046FFF790FC0B
:101D500000287FF406AFB8E600F00F02013203233B
:101D600042F4202219463046FFF782FC00287FF417
:101D7000F8AEAAE63846FFF775FE00F0F00200F074
:101D80000F031032013343EA0232E3E610B5C36CAD
:101D900084B05A6803208DF80C00DC798DF80D4072
:101DA00012020833084601A901920293FFF786FE4A
:101DB00004B010BD08B5FFF77FFE806C08BD00BF02
:101DC00008B5FFF779FEC06CC37900EB83000830DB
:101DD00008BD00BF08B508F052FE00BF08B5FFF708
:101DE000F9FF00BF704700BF38B50E4A0E4B12789E
:101DF0001B6805464FF47A70B0FBF2F0B3FBF0F0CD
:101E000000F06AFA08B90F2D01D9012038BD044647
:101E1000024629464FF0FF3000F01AFA034B2046E5
:101E20001D6038BD000000200800002004000020D4
:101E300008B50B4B1A6842F400721A601A6842F433
:101E400080621A601A6842F480721A60032000F0FF
:101E5000EDF90020FFF7C8FF04F0BAFC002008BD30
:101E6000003C0240034A044B11681B780B4413608A
:101E7000704700BF940F002000000020014B18683D
:101E8000704700BF940F002038B50446FFF7F6FFF7
:101E9000631C054602D0044B1B781C44FFF7EEFF81
:101EA000401B8442FAD838BD000000202DE9F041E3
:101EB00090F82040013C012C06D9436A43F480236A
:101EC00043620120BDE8F081056800295AD02C69E1
:101ED000A4075AD00C012E19D6F8B07107F00407E8
:101EE0009760002F5FD1D6F8B0717F0D1760D6F8DC
:101EF000B0C1D6F8B4E1D6F8B471D6F8B4612544CF
:101F0000CCF3400CD5F8B881C2F80CC00EF00F0528
:101F1000C7F30727360C15619761566183F8008077
:101F200002682244D2F8B821120A5A700268224488
:101F3000D2F8B821120C9A7002682244D2F8B82163
:101F4000120EDA7002682244D2F8BC211A710268BB
:101F50002244D2F8BC21120A5A7102682244D2F8F3
:101F6000BC21120C9A7102681444D4F8BC21120EE0
:101F7000DA71026881B9D36843F020030846D36060
:101F8000BDE8F081EC68A607A4D1436A43F40013CE
:101F900043620120BDE8F081136943F0200313611F
:101FA0000020BDE8F081D6F8B071FF0857609EE7C9
:101FB000704700BF704700BF704700BF704700BF49
:101FC000704700BF704700BF704700BF704700BF39
:101FD000704700BF704700BF2DE9F84F03685C6988
:101FE000D3F804809F68D3F80CB0D3F81090D3F8DE
:101FF00018A014F00105064625D017F0010540F0A1
:102000009F804FF480414FF40052F8050DD533689E
:102010004FF480709860BB0500F1CA80780500F12C
:10202000DA803B0540F1EB800D46F8030BD53368B1
:102030004FF48032B9039A6000F1B6807A0340F120
:10204000CC8045F40045270702D51BF0100F71D155
:10205000600703D51BF0080F40F08280A10704D56C
:102060003368DB689A0740F09080630602D519F068
:10207000100F59D1A70603D519F0080F40F0898039
:10208000E00604D533681B69990740F08980A203F4
:1020900002D518F0100F6AD1E30302D518F0080F2B
:1020A0006CD1270405D518F0040F0BD13368042236
:1020B0005A602DB1736A1D4375623046FFF78AFF7F
:1020C000BDE8F88FE00504D51AF0010F18BF45F000
:1020D0000105A10504D51AF0020F18BF45F002054D
:1020E000620504D51AF0040F18BF45F00405230556
:1020F000DCD51AF0700AD9D0BAF1300F00F08D801B
:1021000070D9BAF1500F00F08580BAF1600F00F07D
:102110008780BAF1400F01D145F0400533689A69D4
:1021200022F070029A61C2E73368102245F480659C
:102130001A619FE73368102245F40075DA6087E77B
:1021400001229A60BB0737D47D073DD417F00805FC
:1021500059D04FF4A0414FF440524FF4805554E70A
:1021600033680822DA60304602F0D0FF76E7336841
:1021700010225A603046FFF729FF8DE733680822A6
:102180005A603046FFF724FF8BE7304602F072FFBB
:102190006BE7336808221A613046FFF715FF6FE7D7
:1021A000304602F0BDFF72E73046FFF705FF4AE711
:1021B0003046FFF7FFFE38E7FFF7FAFE00254FF441
:1021C00080414FF4005220E74FF490414FF42052E9
:1021D0004FF4006519E7154627E73B030BD545F497
:1021E000803530E7BAF1100F1DD0BAF1200F95D12C
:1021F00045F0100592E73046FFF7E4FE23E730464E
:10220000FFF7DEFE11E7FFF7D9FE4FF480414FF4F0
:102210000052FAE645F0800580E745F020057DE7AD
:1022200045F480757AE745F0080577E7074AD368F3
:102230004FF6FF010B40000243F0BF6300F4E06083
:1022400043F400330343D360704700BF00ED00E068
:10225000184B70B4DC68C4F30224C4F10706042EE2
:1022600004F1040328BF0426062B17D9033C0125DB
:10227000A540013D2A400123B340013B1940A14044
:10228000002841EA02010CDB00F1604000F56140EA
:102290000901C9B280F8001370BC704700221446CF
:1022A000E9E7054B00F00F0009010344C9B21976B4
:1022B00070BC704700ED00E0FCEC00E0002807DB9C
:1022C00000F01F0101234009024A8B4042F82030F0
:1022D000704700BF00E100E00138B0F1807F0ED20E
:1022E000084B10B4084C5860F02084F823000022FA
:1022F000072110469A6019605DF8044B7047012071
:10230000704700BF10E000E000ED00E0F8B50446C3
:10231000FFF7B4FD002C73D00222236884F8352027
:102320001A68002122F0010284F8341005461A6070
:1023300005E0FFF7A3FD401B05283BD823681A687A
:10234000D107F6D4A7686268E66825696169A06963
:102350003A4332432A430A43E169256A1F68354EEE
:1023600002430A43616A2A433E40042942EA0602C4
:1023700027D01A605A6922F007021143DAB22E4DB3
:102380005961103AA5FB021212092C4823F47F73FD
:10239000815CE16523F00303032A88BF04333F22F5
:1023A0008A4001250021A36508469A60616584F88A
:1023B0003550F8BD032320226265184684F8353075
:1023C000F8BDE56A216BA66A29430A431A605A6977
:1023D00046F0040122F007021143002DCED088B14F
:1023E000B0F5005F18D0022E03D9032EC6D1EA0142
:1023F000C4D5012340226265184684F83530F8BD03
:102400000120F8BD012E03D0F1D3022EB6D1EEE7A4
:10241000B5F1C07FB2D1ECE7032EAFD801A252F8DC
:1024200026F000BFF3230008EF230008F323000881
:10243000112400083F8010F0ABAAAAAA80AB0008C4
:10244000F0B490F83440012C0DD090F83540866DF2
:102450000125AC4280F8345008D0002380F8343095
:102460000220F0BC70470220F0BC704704680227CD
:10247000002580F8357045652568876825F4802536
:10248000402F256063600ABFA260A160E160C16D5A
:1024900018BFE2603F238B40026CB360236843F0B7
:1024A00016032360636943F0800363611AB12368F4
:1024B00043F008032360236843F0010323600020F6
:1024C000CFE700BF90F83530022B03D0802343655F
:1024D000012070470268052380F83530136823F027
:1024E0000103136000207047F0B583B00023876DAF
:1024F0000193C36D3D68624908229A401542044623
:102500000E6803D001680868400776D401229A401B
:10251000154203D021684969080668D404229A400C
:10252000154203D02168096889075AD410229A40BD
:10253000154203D02168086800073FD420229A4042
:10254000154203D021680868C00625D4636D0BB31B
:10255000636DDA071AD50523216884F835300B68D6
:10256000484A23F00103A2FB06020B60920A02E034
:102570000B68DB0704D5019B01339A420193F7D224
:102580000022012384F8342084F83530E36C0BB149
:102590002046984703B0F0BDBA6094F83520052A6C
:1025A0003BD00B6813F4802F0B6854D019035FD510
:1025B000E36B002BCAD020469847C7E7BA600A6889
:1025C00012F4802F0A6822D1D20503D40A6822F0BF
:1025D00008020A60226C002AB0D020469047E36DC2
:1025E000ACE7BA60626D42F0040262659EE7BA60D1
:1025F000626D42F00202626590E7086820F0040014
:102600000860BA60626D42F0010262657EE7110304
:10261000E0D5A26C002AE0D190E70A68206C22F095
:1026200016020A604A6922F080024A6120B30A68F1
:1026300022F008020A603F22216D02FA03F3002013
:102640000122BB6084F8340084F835200029A1D031
:10265000204688479EE713F48073A9D10A680120B9
:1026600022F010020A6084F8343084F835009FE7C5
:10267000636C002B9FD169E7A26C002AD7D1DAE7FF
:1026800008000020B5814E1B90F83500704700BF50
:102690002DE9F04FD1F800C0DFF8FC81DFF8FCE154
:1026A00083B0002503E00135102D00F09380012355
:1026B000AB4003EA0C029342F5D14E6826F0100AB3
:1026C000BAF1020F00F089804FEA45090324D0F8DF
:1026D00000B004FA09F4E44306F003070BEA040B24
:1026E00007FA09F70AF1FF3A47EA0B07BAF1010FB7
:1026F000076040F29880C7688B683C4003FA09F392
:102700002343C360F300CED54FF00009CDF8049009
:10271000D8F8443043F48043C8F84430D8F84440F3
:1027200025F0030303F1804304F4804403F59C3354
:10273000019405F00304019FD3F808A0A4000F271B
:10274000A7402AEA070A4E4FB8421AD007F5806719
:10275000B8427BD04B4FB8427DD04B4FB8427FD070
:102760004A4FB84200F08180494FB84200F0828061
:10277000484FB8420CBF4FF006094FF0070909FA5D
:1027800004F94AEA09079F60DEF80030D443F703F2
:1027900054BF23401343CEF80030DEF80430B703B3
:1027A00054BF23401343CEF80430DEF80830F7025C
:1027B00054BF23401343CEF80830DEF80C30B60285
:1027C00005F1010554BF23401343102DCEF80C3002
:1027D0007FF46DAF03B0BDE8F08F4FEAD50900EB91
:1027E000890905F00707D9F82040BF004FF00F0B0B
:1027F0000BFA07FB24EA0B0A0C69BC4044EA0A0402
:10280000C9F820404FEA45090324D0F800A004FA93
:1028100009F4E44306F0030704EA0A0A07FA09F791
:1028200047EA0A070760876807EA040ACF6807FAD9
:1028300009F747EA0A078760D0F804A0C6F3001733
:102840002AEA0303AF401F43476054E74FF00109F2
:1028500009FA04F995E74FF0020909FA04F990E73B
:102860004FF0030909FA04F98BE74FF0040909FA5C
:1028700004F986E74FF0050909FA04F981E700BF7A
:102880000000024000080240000C0240001002401C
:10289000001402400018024000380240003C014091
:1028A00002B9090481617047436931EA030308BF33
:1028B00009048161704700BF002800F0A980F8B5C5
:1028C00090F83D30044603F0FF02002B00F08B80AF
:1028D0002268242384F83D30136823F00103136039
:1028E00001F08AFA61684B4B99424BD84A4B9842A7
:1028F00077D92268494B5568A3FB00639B0C25F0F0
:102900003F051D435560156A013325F03F052B43F4
:102910001362D56949000138B0FBF1F00130C0F312
:102920000B0025F44F45042838BF042025F0FF058F
:102930002843D0611568E069266A2169E768636900
:1029400025F0C0053043284310609068A56920F445
:10295000034020F0FF00394301439160D1682B43CD
:1029600021F0FF010B43D3601168002341F0010106
:10297000202511601846236484F83D50236384F8B1
:102980003E30F8BD264B98422BD92268234B57681E
:10299000DFF890E0A668A3FB00539D0C27F03F07EB
:1029A0002F434FF49673576003FB05F3AEFB0353BD
:1029B000156A9B0925F03F0501332B431362D56946
:1029C00025F44F4525F0FF0596B9431E01EB410163
:1029D000B3FBF1F30133C3F30B03BBB143F400408A
:1029E000A6E70120F8BD80F83C2003F049F96FE725
:1029F00001EB810303EB8301431EB3FBF1F30133CE
:102A0000C3F30B0313B143F4404091E701208FE778
:102A100001207047A08601007F841E0083DE1B43D7
:102A2000FF083D00D34D62102DE9F043044683B00A
:102A300098460E461746FFF721FA94F83D30202BB2
:102A400003D0022003B0BDE8F083054605E0FFF7A0
:102A500015FA401B192800F2AE8023689A69D24308
:102A600012F00209F3D094F83C20012AE9D01A6848
:102A70000121D00784F83C1002D41A680A431A6076
:102A80001A68A14822F400621A60212284F83D20CD
:102A9000102284F83E2000222264A4F82A80618D4E
:102AA000E062E26A6762082A218500F0B080012AAC
:102AB00000F0AD80824200F0AA80226B122A00F062
:102AC000A6800A9A013240F094805A69D207FCD558
:102AD0002269B2F5804F40F0B48006F0FE061E6118
:102AE0000A9A013204D0BFE05A69510500F194807E
:102AF0005A699007F8D5002201925A6901929A69A1
:102B00000192019A228D002A00F0BF800A9A0132B8
:102B100041D15A69160618D45A695005F9D50022D0
:102B20006FF4806020215861226384F83D1084F89E
:102B30003E20236C84F83C2043F004032364236C80
:102B4000042B00F0CC8001207CE7666A278D30469C
:102B5000791E10F8012B1A61628D6062013A92B2FF
:102B60006285586989B2420721850AD549B17278D0
:102B70001A61628D013A023F023692B2278566627F
:102B800062850A9A013224D15A695007BAD45A6927
:102B90005105C4D4F8E75A691106D6D45A695705C5
:102BA000BDD4FFF76BF90A9B401B83427AD3002BFD
:102BB00078D02368AAE72023C4F8309084F83D3009
:102BC00084F83E90236C84F83C9043F02003236407
:102BD00037E75A69520795D45A6956059FD4FFF7CB
:102BE0004DF90A9B401B83425CD3002B5AD02368CB
:102BF000C7E75A69D7073FF56BAFFFF73FF90A9B65
:102C0000401B834272D3002B70D0236859E71A68A7
:102C100042F480721A6054E7196800226FF48065EC
:102C200041F40071202019605D61226384F83D0049
:102C300084F83E20236C84F83C2043F00403236492
:102C400081E7F21102F0060242F0F0021A610A9ADC
:102C5000013203D034E05A695205DDD45A691107B4
:102C6000F9D5F6B21E613BE75A6992073FF543AFCB
:102C70005A695605D0D4FFF701F90A9B401B8342DD
:102C800034D3002B32D023682AE71968202541F479
:102C900000711960104684F83D5084F83C2084F897
:102CA0003E20CFE600222023226384F83D3084F8C2
:102CB0003E20236C84F83C2043F0200323643EE74D
:102CC0005A691707CDD45A695005A5D4FFF7D6F82D
:102CD0000A9B401B834209D343B12368B7E72268AC
:102CE000136843F4007313600120ABE60022202335
:102CF000226384F83D3084F83E20236C84F83C2025
:102D000043F0200323641EE70000FFFFF0B583B00B
:102D10000024019490F83D40202C02D0022003B002
:102D2000F0BD294C294D2468E408A5FB0454240A6D
:102D300004EB840404EB8404019403E00468A569B3
:102D4000AE0713D5019C013C0194019C002CF5D1E8
:102D50002023046380F83D3080F83E40036C80F807
:102D60003C4043F0200303640120D8E790F83C5036
:102D7000012DD3D025680126ED0780F83C6002D4F0
:102D80002568354325602568114F25F400652560C9
:102D9000102600254FF0210E80F83DE080F83E60BF
:102DA00005644385468DC76241642368426243F4EB
:102DB000807306852360636880F83C5043F4E063C9
:102DC00028466360ABE700BF0800002089B5F8140F
:102DD0000000FFFFF0B583B00024019490F83D405F
:102DE000202C02D0022003B0F0BD2B4C2B4D2468C8
:102DF000E408A5FB0454240A04EB840404EB8404D3
:102E0000019403E00468A569AE0713D5019C013C59
:102E10000194019C002CF5D12023046380F83D30FF
:102E200080F83E40036C80F83C4043F0200303648C
:102E30000120D8E790F83C50012DD3D02568012619
:102E4000ED0780F83C6002D425683543256025688D
:102E5000134F25F400652560102600254FF0220E43
:102E600080F83DE080F83E6005644385468DC7628A
:102E700041642368426243F48063068523602368CB
:102E800043F480732360636880F83C5043F4E0634C
:102E900028466360A7E700BF0800002089B5F81442
:102EA0000000FFFF704700BF704700BF704700BFC2
:102EB000704700BF704700BF704700BF704700BF3A
:102EC000704700BF704700BF836B196893F83D00DF
:102ED00070B50C685E6B9D6B002224F48064F26315
:102EE000EA630C605A850C68326524F001042A6597
:102EF0000C6093F83D40602C1CD0C0B200F028005C
:102F0000282808D0202183F83D10184683F83E2059
:102F1000FFF7D6FF70BD0C6844F001040C600C682C
:102F200044F480640C601A6383F83D001846FFF790
:102F3000C7FF70BD202183F83D10184683F83E205E
:102F40001A64FFF7BFFF70BD70B503680446586888
:102F5000E56A94F83E2094F83D10D2B2102A8CB065
:102F600038D0402A36D0226CC9B2C2B99D695A699C
:102F700012F0020619D086051AD5226C02B19D699D
:102F800094F83D2002F02802282A00F0D5816FF045
:102F900002010022596184F83C200CB070BD5A69CE
:102FA00012F002064FF00005E5D1D50600F186804B
:102FB00001F0F701212900F04B81560600F116813E
:102FC0005207EAD58605E8D5628D92B2002A40F014
:102FD0009C81E2E799695A69D60747D4B5F52A0F6B
:102FE000DBD0B5F12A4FD8D0160740F1E780850530
:102FF00000F1B68111F0040F596800F069810905EC
:10300000CBD4160640F12081450540F11D815107C2
:1030100040F1A5828605C0D5E16A94F83D20212AB9
:10302000BBD1628D92B2002A40F04881082905D0B8
:10303000202903D011F5803F40F02E845A6822F4F5
:10304000E0625A601A680021202042F400721A607F
:10305000216384F83D0094F83E3084F83E10402B04
:10306000204600F01584FFF71DFF96E7850540F127
:10307000A280E26AB2F52A0F00F08081E26AB2F122
:103080002A4F04BF0822E26294F83E20402A00F052
:1030900078812269B2F5804F00F07C81226D002A90
:1030A00000F04281226D012A7FF477AF626CD21169
:1030B00002F0060242F0F1021A616EE785057FF523
:1030C00077AF94F83D505A6822F4E0625A600B964C
:1030D0005A690B921A6842F001021A600B9A1A6838
:1030E00022F480621A605A681005EDB220D505F00E
:1030F000F702222A00F06B81606B0268526892B27C
:103100006285628D92B21AB1226C42F0040222648E
:103110005A6822F400625A60FFF7B6FA012807D015
:10312000606B9B4B0365FFF7CDF9002840F0EE8202
:10313000638D9BB213B323685A6951070AD5626A3B
:103140001B691370628D616A2368013A92B2013182
:10315000628561625A69520609D5626A1B691370F9
:10316000638D626A013B9BB2013263856262638D4B
:103170009BB21BB1236C43F004032364236C002B2C
:1031800040F064812A2D00F0B18194F83D30282B65
:1031900000F04F82236B222B02D0222D7FF4FDAE54
:1031A000002320222363204684F83D2084F83E300B
:1031B000FFF77CFEF1E615073FF51CAF96077FF59C
:1031C00019AF85057FF516AF94F83E20E06A256BB0
:1031D00094F83D102229D2B200F01A8100220A92FE
:1031E0005A690A929B690A930A9BD6E645057FF5C0
:1031F000E7AE51073FF5E6AE94F83D10628D92B20E
:10320000C9B2002A3FF4C9AE626A1B691370638DAC
:10321000626A013B9BB26385638D01329BB262623D
:10322000002B7FF4BAAE2A297FF4B7AE2268536828
:10323000222523F48063282153602046256384F8E7
:103240003D10FFF733FEA8E652077FF5A6AEE1E694
:10325000150628D5460526D5550727D494F83D00F0
:10326000628D92B2C0B2002A3FF497AE656A15F83B
:10327000012B1A61628D6562013A92B26285628D9C
:1032800092B2002A7FF489AE29287FF486AE5A686C
:10329000282522F480625A602046216384F83D503C
:1032A000FFF702FE79E651077FF577AE82057FF5DD
:1032B00074AE628D92B2002A3FF46FAE626A12F869
:1032C000011B1961638D6262013B9BB2638564E6F9
:1032D0000D053FF562AE510622D5460520D55507AE
:1032E00040F11E8182057FF558AEE16A628D92B28F
:1032F000042A00F0AB81628D92B2032A00F08A8129
:10330000628D92B2022A00F0C381626A1B69137057
:10331000638D626A013B9BB20132638562623CE667
:1033200051077FF53AAEDDE7626CD21102F006027A
:1033300042F0F0021A6130E65A6822F480625A6064
:103340002E0685F004014FF00003C1F3800154BF45
:10335000A289228B84F83C302046FFF7A9FD1CE6A9
:10336000626C616BD2B21A61002900F0BA80CA6B3C
:1033700012B35A6842F400625A600EE60122E26219
:1033800082E6226DEAB9626C02F0FE021A6104E67E
:10339000C92E000894F83D20212A626C16BF42F025
:1033A000010202F0FE02D2B21A61626B002A00F042
:1033B0002C81D26B002ADCD1A26BD26B002AD8D12F
:1033C000EBE5626C42F00102D2B21A61E5E5A06B56
:1033D0000268526892B26285628D92B21AB1226C12
:1033E00042F0040222645A6822F400625A60FFF735
:1033F0004BF901283FF49CAEA06BA24B0365FFF78D
:1034000061F800283FF494AEA06B036D98478FE6F7
:10341000216D11B9402A00F00782226D22B921697D
:10342000B1F5404F00F00882628D92B2002A40F060
:10343000C48003925A6903929A690392039A1A68A4
:1034400042F400721A6000232365A6E594F83D203B
:1034500094F83E30102BD2B200F0008102F0280127
:10346000282900F00981236859680D0504D4602AD1
:1034700002D0202284F83D200022226384F83E20DE
:103480005A6812F4006239D05A68606B22F4006204
:103490005A6090F83530012B00F05281794B03656A
:1034A000FFF710F8002840F0898194F83D30226C35
:1034B0005607DBB27FF571AD282B7FF46EAD216826
:1034C000714E4B68002223F4E06320254B602046B8
:1034D000E662226384F83D5084F83E20FFF7EAFC60
:1034E0005BE5A26B002A7FF442AF56E528222363F6
:1034F000204684F83D20FFF7D9FC46E694F83D10BD
:10350000602900F007815A69520605D5626A1B6975
:103510001370636A013363622046FFF7D1FCC4E78E
:1035200094F83D20222A7FF438AD628D92B2032AAE
:1035300040F25081626A1B691370638D626A013BBD
:103540009BB26385638D9BB20132032B62627FF471
:1035500024AD2268536823F4806353601DE594F81A
:103560003D20208D94F83E10E56AD2B2C9B2002801
:1035700040F0C880212A00F06E8140297FF40DAD13
:10358000222A7FF40AAD628D92B2002A00F0928165
:1035900094F83E20402A7FF491AE226D002A40F03C
:1035A000F181E26C012AA26C00F01982C2F30722B9
:1035B0001A61236D01332365EFE4628D92B2012A13
:1035C00000F0DC80628D92B2022A00F07D811A68E0
:1035D00042F480621A605A6815050ED510F5803FD6
:1035E00007D001381F2808D8284A22FA00F0C0075F
:1035F00003D55A6842F480525A60002209925A69EF
:1036000009929B690993099B1DE7A16B00297FF42F
:10361000D0AEC2E45A68042922F480625A603FF4B2
:1036200074AE02293FF471AE1A6822F480621A6007
:103630006BE6154BE362202200232363204684F8C7
:103640003D2084F83E30FFF735FCA6E45A68616AF5
:1036500022F480625A601B690B7059E6222A7FF4BB
:10366000FDAE21680A6822F400620A604A68160505
:103670000B467FF5FEAEFFE600232363236884F844
:103680003D10FDE6C92E00080000FFFF818000808C
:1036900001291A6800F08E80102900F08B8004291F
:1036A00000F00E81022900F00B8142F400721A60D2
:1036B000626A1B691370638D626A2168013B9BB269
:1036C00063850B69511C61625370638D2168626A66
:1036D000013B9BB263854B68013223F44073202089
:1036E00062624B6084F83D0094F83E30402B00F05D
:1036F00092800022122384F83E202046236301F0AA
:103700002FFD4AE4212A7FF438AF3CE7606B036D5C
:1037100098470DE5202184F83D1022645A6951062E
:1037200006D5626A1B691370626A2368013262629D
:103730001A6822F001021A602046FFF7C3FBB4E6C4
:10374000A06BAD4B0365FEF7BDFE00283FF4ADAEA8
:1037500023685A69500606D5626A1B691370626A4B
:103760002368013262621A68A06B22F001022021F4
:103770001A60036D84F83D10984796E610F5803F77
:1037800000F0E180082800F0CE80202800F0CB80F7
:10379000122D00F0C580102840F2E9801A6822F44A
:1037A00080621A60002206925A6906929B6906930B
:1037B000069B48E622F480621A6079E72268606B13
:1037C0001368016D23F001032025136084F83D5038
:1037D00088476AE6E16A02293FF4DFAB012A3FF637
:1037E000DCAB1A68616A22F480621A605A6822F4BB
:1037F000E0625A601B690B70638D626A013B9BB289
:103800002021638584F83D1094F83E300132402B2E
:1038100062627FF46EAF002384F83E30204623635B
:10382000FFF74CFBFFF7B9BB01915A6901929B6905
:103830000193019BFFF7B1BB02925A6902929A6908
:103840000292029A1A6842F480721A60236D013360
:103850002365FFF7A2BB082D05D0202D03D015F559
:10386000803F40F0A0805A6822F4E0625A601968F4
:103870000022202041F400711960226384F83D0089
:1038800094F83E3084F83E20402B20467FF4EBAB8A
:10389000FFF712FBFFF781BB5968112621F4E061A5
:1038A000202559602046266384F83E2084F83D5048
:1038B000FFF7D9BB5A6822F480625A60FFF76DBBEC
:1038C00042F480621A60F3E6102820D91A6822F4C4
:1038D00080621A601A6842F400621A605A6812051F
:1038E0000DD510F5803F06D001381F2807D8434A70
:1038F000C240D60703D55A6842F480525A6000226B
:1039000008925A6908929B690893089B9BE53C4A78
:10391000C240D107DAD51A6842F480621A60DDE746
:1039200001283FF43BAF1A68002122F480621A603C
:1039300007915A6907929A690792079A1A6842F49E
:1039400000721A607FE51A6822F480621A605A6871
:1039500012F4006238D01A68002122F480621A60E2
:1039600004915A6904929B690493049B6BE5244A71
:1039700022FA00F0C0077FF511AF1A6842F48062A6
:103980001A600FE7226D012A3CD0226D022A7FF4D3
:1039900004AB94F83D20222A28D094F83D20212A17
:1039A0007FF4FBAA8AE45A68112622F4E06200251B
:1039B00020215A602046266384F83E5084F83D104A
:1039C000FFF770FAFFF7E9BA05925A6905929A690A
:1039D0000592059A1A6842F400721A6033E5D2B271
:1039E0001A61236D02332365FFF7D7BA1A6842F4D0
:1039F00080721A60FFF7D1BAC92E0008818000805A
:103A000014000100A26CD2B21A61236D0133236548
:103A1000FFF7C3BAF8B503685D695A68EF05044655
:103A2000194673D512F4807070D06FF48072AE05B1
:103A30005A617AD503266FF400726F055A6178D502
:103A400094F83E00628D94F83D10276B202892B2C6
:103A5000C9B200F09F806FF480625A6194F83E20F2
:103A6000102A46F0040600F0B3802A0568D51946EE
:103A70006FF4006346F008064B61236C1E43266416
:103A800094F83D3094F83E20102ADBB272D003F057
:103A90002802282A69D04A68170504D4602B02D06E
:103AA000202384F83D300023236384F83E304B68A4
:103AB00013F4006348D04B68606B23F400634B60E1
:103AC00090F83530012B00F09E807C4B0365FEF7AB
:103AD000F9FC002840F0B58094F83D30226C510785
:103AE000DBB21DD5282B1BD12168754E4B680022F7
:103AF00023F4E06320254B602046E662226384F8CD
:103B00003D5084F83E20FFF7D5F9F8BDA80502D551
:103B100012F4807016D115F4806602D1280533D4D2
:103B2000F8BDD205FCD500268AE76F054FF00106E7
:103B300086D42A0504D500289AD1002EF0D0236817
:103B400019469AE7022676E794F83D20602A44D089
:103B50004B69580605D5636A0A691A70636A0133AE
:103B600063622046FFF7ACF9B6E70023236384F8CD
:103B70003D209CE7222B8AD10B6823F400630B6065
:103B80004B681B058FD48BE702F4807000287FF40C
:103B90006FAFD2E7002A7FF45EAF01F0F702212A6F
:103BA00005D028297FF457AF212F7FF454AF94F824
:103BB0003D20E16A0829D2B24FD020294DD0212AD8
:103BC00065D06FF480625A612B05B6D521684FE746
:103BD0001A6842F400721A6047E7202284F83D20F8
:103BE00023644B695D0606D5636A0A691A70636AC5
:103BF0002168013363620B6823F001030B602046E8
:103C0000FFF760F968E7A06B2C4B0365FEF75AFCE1
:103C100000283FF461AF23685A69560606D5626AE8
:103C20001B691370626A2368013262621A68A06BB2
:103C300022F0010220211A60036D84F83D1098479C
:103C40004AE72268606B1368016D23F001032025A9
:103C5000136084F83D5088473EE7282AAFD1184AC0
:103C6000E2625A686FF4806122F4E0625A6059613E
:103C70001A68002122F4806220271A6020462163FE
:103C800084F83D7084F83E10FFF714F99CE70C4966
:103C9000E16220200021226384F83D0084F83E1078
:103CA0005A686FF4806122F4E0625A6059611A68C0
:103CB0000A401A602046FFF7F7F885E7C92E00088A
:103CC0000000FFFF60B1484A136803F00F038B4206
:103CD00008D2CBB21370136803F00F03994201D0DE
:103CE0000120704703682DE9F0419D0714D55C075A
:103CF00004D53E4CA26842F4E052A2601A0704D5F3
:103D00003A4CA26842F46042A260384C8568A268CE
:103D100022F0F0022A43A260DF0704460D4622D5B6
:103D20004268012A5BD0931E012B304B1B6850D98F
:103D3000990725D52D4EB36823F003031343B360D1
:103D4000FEF79CF841F28837804605E0FEF796F8CA
:103D5000A0EB0800B8423FD8B368626803F00C03D8
:103D6000B3EB820FF2D1204A136803F00F039D4298
:103D700009D2EBB21370136803F00F039D4202D017
:103D80000120BDE8F08123685A0706D51749E0688D
:103D90008A6822F4E05202438A601B0707D5134A5F
:103DA0002169936823F4604343EAC103936000F000
:103DB00043F80E4B0E499B680E4AC3F30313CB5CCA
:103DC00020FA03F300201360FEF70EF80020BDE890
:103DD000F0819801AED4D3E70320BDE8F081034B16
:103DE0001B689E03A6D4CBE7003C0240003802408B
:103DF00088AB000808000020044B054A9B68054971
:103E0000C3F382230868D35CD8407047003802406F
:103E100098AB000808000020044B054A9B68054940
:103E2000C3F342330868D35CD8407047003802407F
:103E300098AB000808000020284908B58B6803F0FB
:103E40000C03082B07D00C2B1DD0254A2548042B2A
:103E500018BF104608BD4A684B6813F4800302F08F
:103E60003F0230D149681E48C1F38811A1FB00010F
:103E7000FCF7B6FE194B5B68C3F3014301335B00EB
:103E8000B0FBF3F008BD4A684B6813F4800302F0FE
:103E90003F020ED149681248C1F38811A1FB00010D
:103EA000FCF79EFE0D4B5B68C3F30273B0FBF3F0AF
:103EB00008BD4B680B48C3F38813A3FB0001002324
:103EC000FCF78EFEEEE74B680648C3F38813A3FBAE
:103ED00000010023FCF784FECCE700BF003802405D
:103EE0000024F40000127A002DE9F0410368DA079B
:103EF00082B0044636D5AA498A6802F00C02042A28
:103F000000F0D6808A6802F00C02082A00F0CC800B
:103F1000A3498A6802F00C020C2A00F058816368F9
:103F2000B3F5803F00F00581B3F5A02F00F06B8161
:103F30009B4D2A6822F480322A602A6822F480226B
:103F40002A60002B40F0FA80FDF798FF064605E056
:103F5000FDF794FF801B642800F20E812B68990303
:103F6000F6D423689A072FD58D4A916811F00C0F6B
:103F700000F0AC80916801F00C01082900F0A280EB
:103F800087498A6802F00C020C2A00F07781E36806
:103F9000002B00F02181834B814D01221A60FDF737
:103FA0006DFF064605E0FDF769FF801B022800F261
:103FB000E3802B689807F6D52B68226923F0F80375
:103FC00043EAC2032B6023681A0715D56369002BE7
:103FD00000F08780744B724D01221A60FDF74EFF8E
:103FE000064605E0FDF74AFF801B022800F2C48068
:103FF0006B6F9B07F6D52368580720D4A369D3B10C
:10400000674DAA6802F00C02082A66D0022B674BA3
:104010004FF000021A6000F00081FDF72FFF2C46E0
:10402000054605E0FDF72AFF401B022800F2A480A8
:1040300023689B01F6D4002002B0BDE8F081584A05
:10404000136C13F0805368D00026594D2B68D905A6
:1040500040F18280A368012B00F0CF80052B00F097
:104060008F804F4D2A6F22F001022A672A6F22F0BB
:1040700004022A67002B40F08C80FDF7FFFE41F21E
:104080008837804605E0FDF7F9FEA0EB0800B8424E
:1040900072D82B6F9807F6D4002EAFD0404A136C1D
:1040A00023F080531364A9E74A6857027FF530AFC5
:1040B0003B4A126895037FF555AF6268002A7FF48A
:1040C00051AF0AE0526857023FF55AAF344A1268BE
:1040D000950716D5E268012A13D0012002B0BDE889
:1040E000F081314A2E4D1360FDF7C8FE064604E00C
:1040F000FDF7C4FE801B02283ED86B6F9F07F7D4E4
:1041000079E7274920690A6822F0F80242EAC002EA
:104110000A601A077FF570AF58E70193136C43F0FC
:1041200080531364136C03F080530193019B0126A9
:104130008BE71B4A136843F480331360FDF79EFE40
:10414000174D064604E0FDF799FE801B642813D83E
:104150002B689803F7D504E72B6843F480732B6032
:10416000FDF78CFE07462B68DA053FF573AFFDF7C8
:1041700085FEC01B0228F6D9032002B0BDE8F081FD
:10418000074B1A6F42F004021A671A6F42F00102DD
:104190001A67FDF773FE024D804641F288370FE043
:1041A0000038024000004742800E4742600047420C
:1041B00000700040FDF762FEA0EB0800B842DBD8BB
:1041C0002B6F9B07F6D5002E3FF418AF66E74A68C1
:1041D00056027FF5A4AE6BE72B4A2C4D1360FDF71A
:1041E0004DFE064604E0FDF749FE801B0228C3D8B9
:1041F0002B689907F7D42368E6E6244A136F43F047
:1042000001031367C5E7214B1A6842F480221A6044
:104210001A6842F480321A6090E7FDF72FFE0646D6
:1042200004E0FDF72BFE801B0228A5D82B6899011E
:10423000F7D4E369D4F820E0676AE66AA26A206BE3
:104240001349124C43EA0E0343EA871343EA066319
:10425000520843EA0073013A43EA024301226B60C9
:104260000A60FDF70BFE054604E0FDF707FE401B64
:10427000022881D823689A01F7D5DCE64A685602FD
:104280003FF585AE22E700BF0000474200380240FC
:1042900060004742002800F09880F8B590F83D3063
:1042A000044603F0FF02002B66D02368484902222F
:1042B00084F83D208B421A6863D0B3F1804F72D0EE
:1042C000A1F57C418B422DD001F580618B4229D034
:1042D00001F580618B4225D001F578418B4221D0D8
:1042E00001F570518B4239D001F580618B4235D098
:1042F00001F580618B4231D0A1F598318B422DD0F0
:1043000001F580618B4229D001F580618B4225D077
:10431000A569E068616822F080022A431A60D862C9
:10432000996215E0A1682669A069E768656822F0CE
:1043300070020A4322F440722649324322F080027E
:1043400002438B421A60DF629D6201D162691A6387
:1043500001225A61002084F83D20F8BD2669A06939
:10436000E568616822F44072324322F08002024321
:104370001A60DD629962EBE780F83C2002F0EEFB08
:1043800093E7A5682069A16922F070022A4322F40C
:104390004072024322F080020A431A60E268DA6245
:1043A00062689A62D2E7A6682069A169E7686568D1
:1043B00022F07002324322F44072024322F0800263
:1043C0000A431A60DF629D62C2E70120704700BFA6
:1043D00000000140000401400368DA6842F0010275
:1043E000DA609A6802F00702062A03D01A6842F0DF
:1043F00001021A6000207047002800F09880F8B58C
:1044000090F83D30044603F0FF02002B66D023688D
:104410004849022284F83D208B421A6863D0B3F1E8
:10442000804F72D0A1F57C418B422DD001F5806187
:104430008B4229D001F580618B4225D001F578416E
:104440008B4221D001F570518B4239D001F580614A
:104450008B4235D001F580618B4231D0A1F5983186
:104460008B422DD001F580618B4229D001F580610E
:104470008B4225D0A569E068616822F080022A435A
:104480001A60D862996215E0A1682669A069E76898
:10449000656822F070020A4322F4407226493243D2
:1044A00022F0800202438B421A60DF629D6201D1DA
:1044B00062691A6301225A61002084F83D20F8BD28
:1044C0002669A069E568616822F44072324322F0EF
:1044D000800202431A60DD629962EBE780F83C20BB
:1044E00002F01CFB93E7A5682069A16922F0700225
:1044F0002A4322F44072024322F080020A431A60E7
:10450000E268DA6262689A62D2E7A6682069A16905
:10451000E768656822F07002324322F44072024379
:1045200022F080020A431A60DF629D62C2E7012026
:10453000704700BF000001400004014090F83C308B
:10454000012B47D0F0B50223012480F83C4080F8CD
:104550003D300C2A36D8DFE802F06C3535350735AA
:104560003535983535353F000368D1F808E01D6AC8
:104570000F68744E25F010051D621A6A5D689C690B
:1045800022F0200224F4E644B34242EA0E1244EA46
:10459000072400F0BB8006F58066B34200F0B680C9
:1045A0004E685D609C619E631A629C690D6944F46B
:1045B00000649C61996921F4806199619A6942EA79
:1045C00005229A610023012280F83D2080F83C30CA
:1045D0001846F0BD022070470368D1F808E01D6A54
:1045E0000F68584E25F480551D621A6A5D68DC69B3
:1045F00022F4005224F4E644B34242EA0E3244EA82
:1046000007246ED006F58066B3426AD04E685D60BE
:10461000DC611E641A62DC690D6944F40064DC61CB
:10462000D96921F48061D961DA6942EA0522DA6147
:10463000C8E70368D1F808E01D6A0F68414E25F00D
:1046400001051D621A6A5D689C6922F0020224F06D
:104650007304B34242EA0E0244EA070465D006F549
:104660008066B34261D04E685D609C615E631A6291
:104670009C690D6944F008049C61996921F004016A
:1046800099619A692A439A619CE70368D1F808E026
:104690001D6A0F682B4E25F480751D621A6A5D68CD
:1046A000DC6922F4007224F07304B34242EA0E2261
:1046B00044EA07041BD006F58066B34217D04E6863
:1046C0005D60DC61DE631A62DC690D6944F0080438
:1046D000DC61D96921F00401D961DA692A43DA6120
:1046E00070E74E6925F4804545EA86158EE7CE6869
:1046F0008F6922F4006242EA06224E6925F4405591
:104700003E4322F4806245EA0615D8E7CE688F69F9
:1047100022F0800242EA06124E6925F440653E43CB
:1047200022F0400245EA86053AE7CE688F6922F01A
:10473000080232434E6925F440753E4322F00402DC
:10474000354390E700000140704700BF704700BF4D
:10475000704700BF704700BF03681A69910710B522
:10476000044602D5DA68920762D41A69500702D566
:10477000DA68510749D41A69120702D5DA681007B6
:1047800031D41A69D20602D5DA68D00618D41A696B
:10479000D10702D5DA68D2076BD41A69100602D5A0
:1047A000DA6811066DD41A69520602D5DA68500625
:1047B00057D41A69910602D5DA68920649D410BD19
:1047C0006FF010021A61DB69082213F4407F227730
:1047D000204661D1FFF7B8FF2046FFF7B9FF00225E
:1047E00023682277D3E76FF008021A61DB6904229D
:1047F00099072277204655D1FFF7A6FF2046FFF7FD
:10480000A7FF002223682277BBE76FF004021A613A
:104810009B69022213F4407F227720463FD1FFF7A5
:1048200093FF2046FFF794FF002223682277A2E738
:104830006FF002021A619B6901229B07027728D15F
:10484000FFF782FF2046FFF783FF002223682277CD
:104850008BE76FF0200220461A61BDE8104000F09F
:1048600047B86FF040021A612046FFF773FF2368D4
:104870009FE76FF001021A61204600F05BFC23689D
:104880008BE76FF080021A61204600F033F823684E
:1048900089E7FFF75BFFD8E7FFF758FF9FE7FFF7D0
:1048A00055FFC1E7FFF752FFABE700BF90F83C2090
:1048B000012A1AD070B40222046880F83D20034611
:1048C0006068A2680E684D6822F0800220F07001D6
:1048D00031432A430126002561602846A26083F8FF
:1048E0003D6083F83C5070BC70470220704700BFA9
:1048F000704700BF704700BF2DE9F0470468226988
:104900008246C068DAF81C10DAF80830DAF810606D
:10491000DAF8145022F4405202432261E268DAF8D5
:104920001800334322F416422B4322F00C020B43AF
:104930001343E360636923F440730343B1F5004F0D
:104940006361AB4B61D09C4200F0018103F5806351
:104950009C4200F0FC80FFF74FFAA64FDAF80430D3
:1049600000EB800000EB80009B00B0FBF3F3A7FBA3
:1049700003235B091D01FFF73FFADAF8043000EB6F
:1049800080009B0000EB8000B0FBF3F6FFF734FAE9
:10499000DAF8042000EB8000930000EB8000B0FB0D
:1049A000F3F3A7FB03234FF064095B0909FB1363CF
:1049B0001B013233A7FB03235B0903F0F006FFF76B
:1049C0001BFADAF8042000EB8000930000EB800073
:1049D000B0FBF3F8FFF710FADAF8043000EB8000D0
:1049E0009B0000EB8000B0FBF3F0A7FB0030400918
:1049F00009FB10831B013233A7FB0323C3F34313CB
:104A000033432B44A360BDE8F0879C425DD003F59F
:104A100080639C4259D0FFF7EFF9764FDAF8043003
:104A200000EB800000EB80005B00B0FBF3F3A7FB22
:104A300003235B091E01FFF7DFF9DAF8043000EB0E
:104A400080005B0000EB8000B0FBF3F5FFF7D4F9CA
:104A5000DAF8042000EB8000530000EB8000B0FB8C
:104A6000F3F3A7FB03235B094FF0640909FB13531E
:104A7000DB003233A7FB03231B0903F4F875FFF7B0
:104A8000BBF9DAF8042000EB800000EB8000530053
:104A9000B0FBF3F8FFF7B0F9DAF8043000EB800070
:104AA00000EB80005B00B0FBF3F3A7FB03235B0983
:104AB00009FB1383DB003233A7FB0323C3F3421349
:104AC00033442B44A360BDE8F087FFF7A5F9494FB5
:104AD000DAF8043000EB800000EB80005B00B0FBF4
:104AE000F3F3A7FB03235B091E01FFF795F9DAF83F
:104AF000043000EB80005B0000EB8000B0FBF3F5BE
:104B0000FFF78AF9DAF8042000EB8000530000EB8D
:104B10008000B0FBF3F3A7FB03234FF064095B09AC
:104B200009FB1353DB003233A7FB03231B0903F4F8
:104B3000F875FFF771F9DAF8042000EB80005300F4
:104B400000EB8000B0FBF3F8FFF766F9A4E7FFF78E
:104B500063F9284FDAF8043000EB800000EB8000A6
:104B60009B00B0FBF3F3A7FB03235B091D01FFF7D9
:104B700053F9DAF8043000EB80009B0000EB800072
:104B8000B0FBF3F6FFF748F9DAF8042000EB8000F9
:104B9000930000EB8000B0FBF3F3A7FB03234FF07F
:104BA00064095B0909FB13631B013233A7FB032371
:104BB0005B0903F0F006FFF72FF9DAF8042000EBA9
:104BC0008000930000EB8000B0FBF3F8FFF724F9BE
:104BD000DAF8043000EB800000EB80009B00B0FBB3
:104BE000F3F3A7FB03235B0909FB138302E700BF71
:104BF000001001401F85EB5160B338B590F8393093
:104C0000044603F0FF0203B32268242384F83930FA
:104C1000D36823F40053D3602046FFF76DFE23686A
:104C20001A6922F490421A615A6922F02A025A61E2
:104C3000DA680025202142F40052DA602846E56354
:104C400084F8391084F83A1038BD80F8382001F023
:104C5000FBFFD9E701207047F8B590F83940202CC8
:104C600001D00220F8BD59B352B390F83840012C5E
:104C7000F7D004460126006B84F8386013460025FF
:104C80002268E3842126E563DFF840E084F8396098
:104C90000C4F0D4EA384216204320565C0F83CE040
:104CA0000764C664FDF7CCFB23686FF040021A600E
:104CB0005A6984F8385042F0800228465A61F8BD9B
:104CC0000120F8BD954D0008794E0008654D00089B
:104CD000F0B590F83A40202C83B002D0022003B007
:104CE000F0BD002935D0002A33D090F83830012BA0
:104CF000F4D004460127406B174E84F83870002525
:104D0000134622270A462168A262A385E56384F838
:104D10003A70C663114F124E05650764C6640431CC
:104D2000FDF78EFB236801951A6801925A6801927B
:104D3000019ADA6884F8385042F48072DA605A696D
:104D400042F001025A615A6942F0400228465A6113
:104D5000C5E70120C3E700BFA54D0008694E000864
:104D6000794E000808B50368806B1B6813F48073E4
:104D70000AD10268C384536923F080035361D36866
:104D800043F04003D36008BD01F0D7FB08BD00BF6E
:104D9000704700BF08B5806BFFF7FAFF08BD00BF82
:104DA000704700BF08B50368806B1B6813F48073FD
:104DB00010D10268C385D36823F48073D36053692C
:104DC00023F0010353615369202123F04003536111
:104DD00080F83A10FFF7E4FF08BD00BF8368B3F521
:104DE000805F2CD0036973B10368826A5B68511CD1
:104DF00003F07F0381621370C38D013B9BB2C385B7
:104E000043B100207047836A0268591C526881626E
:104E10001A70F1E70268D16821F0200110B5D16065
:104E2000D16821F48071D1605169202421F0010101
:104E3000516180F83A40FFF7B3FF002010BD0269CE
:104E4000836A3AB902685268C2F3080223F8022B57
:104E50008362D1E702685268D2B223F8012B8362E1
:104E6000CAE700BF704700BF08B5806BFFF7FAFFC5
:104E700008BD00BF704700BF806B08B50368596963
:104E800090F83920212A1BD0596990F83A20222A1B
:104E900006D0C36B43F01003C363FFF7EBFF08BDFD
:104EA0004A06F6D50022C285DA6822F49072DA60EA
:104EB0005A69202122F001025A6180F83A10E8E78D
:104EC0000906E1D50022C284DA68202122F0C0025E
:104ED000DA6080F83910D7E703681A6870B51607EA
:104EE000DD685969044649D011F0010152D0D60756
:104EF00005D5E80503D5E06B40F00100E0635607F7
:104F00007AD5002900F08480E16B900741F002011E
:104F1000E16376D5E16B41F00401E163110772D4DE
:104F2000E16B002929D0910605D5AA0603D594F88E
:104F30003A20222A7CD05D69E16B0E0702D415F07D
:104F400040057AD0DA6822F49072DA605A6920213A
:104F500022F001025A6184F83A105A6955065ED56A
:104F60005A69606B22F040025A61002857D03B4BCF
:104F70000365FDF7A7FA002855D170BD96060CD53C
:104F8000A9060AD590F83A30222BF6D1BDE8704038
:104F9000FFF724BF15F4907FA9D110060ED4560652
:104FA000EBD56D06E9D5DA68202122F04002DA60FF
:104FB000204684F8391001F0C0FA70BD2906EED5FC
:104FC00094F83920212AD8D1A268B2F5805F226AEC
:104FD00038D0511C216212785A60E28C013A92B2A8
:104FE000E284002AC9D1DA6822F08002DA60DA6845
:104FF00042F04002DA6070BD96070BD5002989D1D6
:105000008EE711078CD5E16B41F00801E16387E77A
:10501000900785D4100783D5002981D0F3E7204677
:10502000FFF728FF70BD606BBDE87040036D184747
:105030002046FFF7D3FE23687DE72046FFF71AFFDF
:10504000E56370BD11882069C1F30801596010B98A
:1050500002322262C1E701322262BEE761500008DB
:1050600008B5836B0022DA851846DA84FFF702FF61
:1050700008BD00BF80B582B000AF78601D4B1E4AEE
:1050800000217868FCF712FF1C4B01221A701C4BA0
:105090001B6803F52A73184600F0F6F9184B1B68D5
:1050A00003F54273184600F053FA154B1B6803F5DD
:1050B000FC73184600F0BAFA114B1B6803F5127323
:1050C000184600F06BFA0F4B1B68142B08DD4FF4E9
:1050D00080710D48FDF7E8FB0A4B00221A6004E0DE
:1050E000084B1B680133074A136000BF0837BD46F1
:1050F00080BD00BF98060020A0060020BC0600204E
:10510000400F0020C40600200008024080B483B095
:1051100000AF786000BF0C37BD465DF8047B704778
:1051200080B483B000AF786000BF0C37BD465DF837
:10513000047B704780B483B000AF78607B681B68E5
:10514000054A934202D1054B01221A7000BF0C3769
:10515000BD465DF8047B704700100040CC0600207F
:1051600080B582B000AF7860074B1B6803F5EA7327
:10517000184600F0F1F8054B1B680133034A136031
:1051800000BF0837BD4680BD400F0020D00600207C
:1051900080B58AB002AF7860396007F10803002259
:1051A0001A605A609A60DA601A740123FB61402326
:1051B0003B723B681B78002B0DD03B685A1C3A6051
:1051C000197807F10802FB6913440A461A70FB6953
:1051D0000133FB61EDE77B681868FB6999B207F161
:1051E0000802C82300930B467821FDF71DFC00BF81
:1051F0002037BD4680BD80B586B002AF78600B46D3
:10520000FB7000233B73FB787B737B68186807F1A6
:105210000C020F23009302237821FDF705FC00BF49
:105220001037BD4680BD80B582B000AF7860396070
:105230002A217868FFF7DFFF79217868FFF7DBFF25
:1052400081217868FFF7D7FF3B68DBB219467868A1
:10525000FFF7D1FF78217868FFF7CDFF2821786824
:10526000FFF7C9FF6420FCF70FFE00BF0837BD46FB
:1052700080BD80B582B000AF7860786800F05FF8DC
:105280000121786800F013F8786800F004F800BF96
:105290000837BD4680BD80B582B000AF786001217F
:1052A0007868FFF7A8FF00BF0837BD4680BD80B50E
:1052B00082B000AF78600B46FB70FB78002B07D004
:1052C0000F217868FFF797FF0A20FCF7DDFD06E065
:1052D0000B217868FFF78FFF0A20FCF7D5FD00BF90
:1052E0000837BD4680BD80B584B000AF7860084601
:1052F00011461A460346FB700B46BB7013467B7083
:1053000008233B73FB789B005BB243F008035AB25F
:10531000BB785B005BB213435AB297F90130134379
:105320005BB2DBB23B733B7B19467868FFF763FFE8
:105330000A20FCF7A9FD00BF1037BD4680BD80B52F
:1053400082B000AF786002217868FFF754FF00BF99
:105350000837BD4680BD000080B582B000AF7860E0
:105360000823184AE8211848FDF734FD154B1B782F
:105370001AB27B681A81134B5B781AB27B685A8128
:10538000104B9B781AB27B689A810E4BDB781AB26D
:105390007B68DA810B4B1B791AB27B681A82094B46
:1053A0005B791AB27B685A82064B9B791AB27B688A
:1053B0009A82044BDB791AB27B68DA8200BF083725
:1053C000BD4680BDD40600201410002080B582B0F8
:1053D00000AF786008230022E8210348FDF796FC1F
:1053E00000BF0837BD4680BD1410002080B483B0D4
:1053F00000AF78607B68B3F90C3018460C37BD46B7
:105400005DF8047B704780B483B000AF78607B6840
:10541000B3F90E3018460C37BD465DF8047B704773
:1054200080B483B000AF78607B68B3F91030184661
:105430000C37BD465DF8047B704780B483B000AF85
:1054400078607B68B3F9123018460C37BD465DF8BA
:10545000047B704780B483B000AF78607B68B3F999
:10546000143018460C37BD465DF8047B704780B495
:1054700083B000AF78607B68B3F9163018460C37FC
:10548000BD465DF8047B704780B483B000AF7860A0
:10549000214B5B6840F64442934220D11F4B204A87
:1054A00012781A701F4B1E4A52781A701E4B1C4AF3
:1054B00092781A701D4B1A4AD2781A701C4B184AEF
:1054C00012791A701B4B164A52791A701A4B144AE9
:1054D00092791A70194B124AD2791A7015E00E4B54
:1054E0005B6840F6484293420FD1154B0C4A127844
:1054F0001A70144B0A4A52781A70134B084A927861
:105500001A70124B064AD2781A7000BF0C37BD468B
:105510005DF8047B704700BFA0060020DC06002079
:1055200098060020DD060020DE060020DF060020B1
:10553000E0060020E1060020E2060020E30600204D
:10554000E4060020E5060020E6060020E90600202B
:1055500080B483B000AF78600D4B5B6840F6814249
:10556000934204D10B4B1A780B4B1A7009E0084B8D
:105570005B6840F68242934203D1064B5A78064B51
:105580005A7000BF0C37BD465DF8047B704700BF02
:10559000A006002098060020F406002080B483B006
:1055A00000AF7860174B5B687A68928842F4A0621B
:1055B00092B293421FD1144B144A12781A70144BB2
:1055C000124A52781A70134B104A92781A70124B82
:1055D0000E4AD2781A70114B0C4A12791A70104B7D
:1055E0000A4A52791A700F4B084A92791A700E4B78
:1055F000064AD2791A7000BF0C37BD465DF8047BAD
:10560000704700BFA0060020F80600209806002082
:10561000F9060020FC060020FD06002000070020FF
:1056200001070020040700200907002080B483B090
:1056300000AF78602B4B5B6840F2444293422ED11E
:105640007B683833284A12781A707B683833013304
:10565000254A52781A707B6838330233224A92788E
:105660001A707B68383303331F4AD2781A707B680C
:105670003C331D4A12791A707B683C3301331A4A55
:1056800052791A707B683C330233174A92791A7048
:105690007B683C330333144AD2791A701BE0114BF8
:1056A0005B68B3F5896F16D17B6840330E4A127878
:1056B0001A707B68403301330B4A52781A707B684A
:1056C00040330233084A92781A707B6840330333C0
:1056D000054AD2781A7000BF0C37BD465DF8047BCE
:1056E000704700BFA00600209806002010B582B0C9
:1056F00000240E4B01941A6B42F400121A631B6BC8
:1057000003F400132246214601931020019BFCF76D
:105710009FFD1020FCF7D2FD224621461120FCF708
:1057200097FD1120FCF7CAFD02B010BD0038024001
:1057300080B582B000AF7860094A7B68C2F8103447
:105740007968074800F095F8054B0022C3F80C244F
:10575000034B0022C3F8142400BF0837BD4680BDA8
:105760001807002090B585B000AF0346FB71FB79A8
:105770001946144800F0CDF8124BD3F80C34002B26
:105780001BD1104800F023F90346FB81FB890D4A29
:10579000C2F814340B4B0122C3F80C24094BD3F884
:1057A0001044084800F037F903461A46054B1344E5
:1057B000FA8919462046FFF74FFA00BF1437BD4655
:1057C00090BD00BF1807002090B585B000AF78608D
:1057D0001A4BD3F810247B689A422BD1174BD3F87D
:1057E00014341946154800F023F9144800F0EFF876
:1057F0000346FB81FB89002B17DDFB890F4AC2F8AA
:1058000014340E4B0122C3F80C240C4BD3F8104473
:105810000A4800F000F903461A46084B1344FA8977
:1058200019462046FFF718FA05E0044B0022C3F89A
:105830000C2400E000BF1437BD4690BD18070020BF
:1058400080B483B000AF78607B68B3F800247B68D5
:10585000D3F808345B6B1B685B689BB2D31A9AB2AF
:105860007B68A3F8022400BF0C37BD465DF8047BBB
:10587000704780B483B000AF786039607B684FF4C4
:105880008062A3F800247B680022A3F802247B68CE
:105890000022A3F804247B680022A3F806247B6876
:1058A0003A68C3F8082400BF0C37BD465DF8047B96
:1058B000704780B584B000AF786039607868FFF7D2
:1058C000BFFF7B68B3F804247B68B3F802349A42C4
:1058D00001D1012319E07B68B3F804340133FB8163
:1058E000FB897A68B2F80024934201DB0023FB8134
:1058F0007B68B3F804341A467B689A5C3B681A707C
:105900007B68FA89A3F80424002318461037BD46A3
:1059100080BD80B485B000AF78600B46FB707B68BB
:10592000B3F802340133FB81FB897A68B2F80024B2
:10593000934201DB0023FB817B68B3F80434FA89CE
:105940009A4209D17B68B3F8063401339AB27B6876
:10595000A3F8062401230BE07B68B3F80234194650
:105960007B68FA785A547B68FA89A3F802240023EA
:1059700018461437BD465DF8047B704780B582B089
:1059800000AF78607868FFF75BFF7B68B3F802349C
:105990001A467B68B3F804349A4208DB7B68B3F894
:1059A00002341A467B68B3F80434D31A0BE07B68E0
:1059B000B3F800341A467B68B3F8023413447A68AB
:1059C000B2F804249B1A18460837BD4680BD80B43F
:1059D00083B000AF78607B68B3F802341A467B6806
:1059E000B3F804349A4208DB7B68B3F802341A46F1
:1059F0007B68B3F80434D31A07E07B68B3F800344B
:105A00001A467B68B3F80434D31A18460C37BD46DF
:105A10005DF8047B704780B483B000AF78607B682A
:105A2000B3F8043418460C37BD465DF8047B704764
:105A300080B483B000AF786039603B68002B19DD1B
:105A40007B68B3F8043401337A68B2F800249342D7
:105A500004DB7B680022A3F8042407E07B68B3F82A
:105A6000043401339AB27B68A3F804243B68013BF9
:105A70003B60E2E700BF0C37BD465DF8047B704732
:105A800080B483B000AF78600B467B807B687A88F7
:105A9000A3F8022400BF0C37BD465DF8047B7047B5
:105AA00080B582B000AF78600A4A7B68C2F80C34D7
:105AB00079680848FFF7DDFE064BD3F80C04054B68
:105AC000B3F800341A460349FFF702F900BF08375C
:105AD000BD4680BD300B002080B582B000AF1348BA
