:020000040800F2
:1000000000000220917B0008497600084B7600082A
:100010004D7600084F760008517600080000000079
:1000200000000000000000000000000053760008FF
:100030005576000800000000577600085976000841
:10004000E17B0008E17B0008E17B0008E17B000820
:10005000E17B0008E17B0008E17B0008E17B000810
:10006000E17B0008E17B0008E17B0008E17B000800
:10007000E17B0008E17B0008E17B0008E17B0008F0
:10008000E17B000861760008E17B0008E17B000865
:10009000717600088176000891760008E17B0008FF
:1000A000E17B0008E17B0008E17B0008E17B0008C0
:1000B000E17B0008A1760008E17B0008B17600082A
:1000C000C1760008D1760008E17B0008E17B0008DA
:1000D000E17B0008E17B0008E1760008E17B000895
:1000E000E17B0008E17B0008E17B0008E17B000880
:1000F000E17B0008E17B0008E17B0008E17B000870
:10010000E17B0008E17B0008E17B0008E17B00085F
:10011000E17B0008E17B0008F17600080177000828
:10012000E17B0008E17B0008E17B0008E17B00083F
:10013000E17B00080000000000000000E17B0008F7
:10014000E17B0008E17B0008E17B0008E17B00081F
:10015000E17B0008E17B0008E17B0008E17B00080F
:10016000E17B0008E17B0008E17B0008E17B0008FF
:10017000E17B0008E17B0008E17B00080000000053
:1001800000000000E17B000800000000000000000B
:10019000E17B00080000000000000000E17B000897
:1001A000000000000000000000000000E17B0008EB
:1001B000E17B0008E17B0008E17B0008E17B0008AF
:0401C000E17B0008D7
:1001D00010B5054C237833B9044B13B10448AFF381
:1001E00000800123237010BDB8090020000000002A
:1001F0003CBB000808B5034B1BB103490348AFF3F0
:10020000008008BD00000000BC0900203CBB0008C5
:10021000034613F8012B002AFBD1181A0138704746
:1002200001F0FF01102A2BDB10F0070F08D010F8A7
:10023000013B013A8B422DD010F0070F42B3F6D1AB
:10024000F0B441EA012141EA014122F007047FF0C4
:1002500000070023F0E80256083C85EA010586EA1B
:10026000010685FA47F5A3FA87F586FA47F6A5FA57
:1002700087F68EB9EED1F0BC01F0FF0102F0070263
:1002800032B110F8013B013A83EA010313B1F8D10E
:100290000020704701387047002D06BF35460338EF
:1002A000073815F0010F07D1013015F4807F02BF28
:1002B000013015F4C03F0130F0BC0138704700BF79
:1002C00081F0004102E000BF83F0004330B54FEA07
:1002D00041044FEA430594EA050F08BF90EA020F74
:1002E0001FBF54EA000C55EA020C7FEA645C7FEA07
:1002F000655C00F0E2804FEA5454D4EB5555B8BF2A
:100300006D420CDD2C4480EA020281EA030382EA9A
:10031000000083EA010180EA020281EA0303362D2C
:1003200088BF30BD11F0004F4FEA01314FF4801CFF
:100330004CEA113102D0404261EB410113F0004F11
:100340004FEA03334CEA133302D0524263EB4303C8
:1003500094EA050F00F0A780A4F10104D5F1200E66
:100360000DDB02FA0EFC22FA05F2801841F10001C1
:1003700003FA0EF2801843FA05F359410EE0A5F195
:1003800020050EF1200E012A03FA0EFC28BF4CF0C6
:10039000020C43FA05F3C01851EBE37101F000457C
:1003A00007D54FF0000EDCF1000C7EEB00006EEB89
:1003B0000101B1F5801F1BD3B1F5001F0CD3490813
:1003C0005FEA30004FEA3C0C04F101044FEA44526A
:1003D00012F5800F80F09A80BCF1004F08BF5FEAF1
:1003E000500C50F1000041EB045141EA050130BDD1
:1003F0005FEA4C0C404141EB010111F4801FA4F174
:100400000104E9D191F0000F04BF01460020B1FAC8
:1004100081F308BF2033A3F10B03B3F120020CDA00
:100420000C3208DD02F1140CC2F10C0201FA0CF0DE
:1004300021FA02F10CE002F11402D8BFC2F1200C43
:1004400001FA02F120FA0CFCDCBF41EA0C019040F9
:10045000E41AA2BF01EB0451294330BD6FEA040442
:100460001F3C1CDA0C340EDC04F11404C4F120022D
:1004700020FA04F001FA02F340EA030021FA04F33F
:1004800045EA030130BDC4F10C04C4F1200220FA96
:1004900002F001FA04F340EA0300294630BD21FAD4
:1004A00004F0294630BD94F0000F83F4801306BF9A
:1004B00081F480110134013D4EE77FEA645C18BF8E
:1004C0007FEA655C29D094EA050F08BF90EA020F25
:1004D00005D054EA000C04BF1946104630BD91EA1D
:1004E000030F1EBF0021002030BD5FEA545C05D120
:1004F0004000494128BF41F0004130BD14F580045F
:100500003CBF01F5801130BD01F0004545F0FE41D2
:1005100041F470014FF0000030BD7FEA645C1ABF07
:10052000194610467FEA655C1CBF0B46024650EA3E
:10053000013406BF52EA033591EA030F41F400216A
:1005400030BD00BF90F0000F04BF0021704730B5F0
:100550004FF4806404F132044FF000054FF00001C5
:1005600050E700BF90F0000F04BF0021704730B586
:100570004FF4806404F1320410F0004548BF40425B
:100580004FF000013EE700BF42004FEAE2014FEAB0
:1005900031014FEA02701FBF12F07F4393F07F4F8B
:1005A00081F06051704732F07F4208BF704793F08E
:1005B0007F4F04BF41F40021704730B54FF46074A1
:1005C00001F0004521F000411CE700BF50EA0102A4
:1005D00008BF704730B54FF000050AE050EA01024D
:1005E00008BF704730B511F0004502D5404261EBBD
:1005F00041014FF4806404F132045FEA915C3FF4FE
:10060000D8AE4FF003025FEADC0C18BF03325FEA9A
:10061000DC0C18BF033202EBDC02C2F1200300FA4B
:1006200003FC20FA02F001FA03FE40EA0E0021FA70
:1006300002F11444BDE600BF70B54FF0FF0C4CF45E
:10064000E06C1CEA11541DBF1CEA135594EA0C0F10
:1006500095EA0C0F00F0DEF82C4481EA030621EA4B
:100660004C5123EA4C5350EA013518BF52EA033586
:1006700041F4801143F4801338D0A0FB02CE4FF038
:100680000005E1FB02E506F00042E0FB03E54FF068
:100690000006E1FB03569CF0000F18BF4EF0010E60
:1006A000A4F1FF04B6F5007F64F5407404D25FEA5C
:1006B0004E0E6D4146EB060642EAC62141EA55510F
:1006C0004FEAC52040EA5E504FEACE2EB4F1FD0C51
:1006D00088BFBCF5E06F1ED8BEF1004F08BF5FEACF
:1006E000500E50F1000041EB045170BD06F0004681
:1006F00046EA010140EA020081EA0301B4EB5C042E
:10070000C2BFD4EB0C0541EA045170BD41F4801125
:100710004FF0000E013C00F3AB8014F1360FDEBF4A
:10072000002001F0004170BDC4F10004203C35DA26
:100730000C341BDC04F11404C4F1200500FA05F3A9
:1007400020FA04F001FA05F240EA020001F000424A
:1007500021F0004110EBD37021FA04F642EB0601C0
:100760005EEA430E08BF20EAD37070BDC4F10C04EA
:10077000C4F1200500FA04F320FA05F001FA04F2AE
:1007800040EA020001F0004110EBD37041F100019A
:100790005EEA430E08BF20EAD37070BDC4F12005A5
:1007A00000FA05F24EEA020E20FA04F301FA05F20D
:1007B00043EA020321FA04F001F0004121FA04F2B5
:1007C00020EA020000EBD3705EEA430E08BF20EA85
:1007D000D37070BD94F0000F0FD101F000464000BF
:1007E00041EB010111F4801F08BF013CF7D041EA41
:1007F000060195F0000F18BF704703F00046520045
:1008000043EB030313F4801F08BF013DF7D043EA15
:100810000603704794EA0C0F0CEA135518BF95EACB
:100820000C0F0CD050EA410618BF52EA4306D1D152
:1008300081EA030101F000414FF0000070BD50EA71
:10084000410606BF1046194652EA430619D094EAFB
:100850000C0F02D150EA013613D195EA0C0F05D1E5
:1008600052EA03361CBF104619460AD181EA030139
:1008700001F0004141F0FE4141F470014FF00000F1
:1008800070BD41F0FE4141F4780170BD70B54FF08C
:10089000FF0C4CF4E06C1CEA11541DBF1CEA13550C
:1008A00094EA0C0F95EA0C0F00F0A7F8A4EB0504EE
:1008B00081EA030E52EA03354FEA013100F08880E5
:1008C0004FEA03334FF0805545EA131343EA1263AE
:1008D0004FEA022245EA111545EA10654FEA002663
:1008E0000EF000419D4208BF964244F1FD0404F51C
:1008F000407402D25B084FEA3202B61A65EB030578
:100900005B084FEA32024FF480104FF4002CB6EB34
:10091000020E75EB030E22BFB61A754640EA0C00B4
:100920005B084FEA3202B6EB020E75EB030E22BFF4
:10093000B61A754640EA5C005B084FEA3202B6EB35
:10094000020E75EB030E22BFB61A754640EA9C00F4
:100950005B084FEA3202B6EB020E75EB030E22BFC4
:10096000B61A754640EADC0055EA060E18D04FEA82
:10097000051545EA16754FEA06164FEAC30343EA22
:1009800052734FEAC2025FEA1C1CC0D111F4801FEF
:100990000BD141EA00014FF000004FF0004CB6E7E8
:1009A00011F4801F04BF01430020B4F1FD0C88BF87
:1009B000BCF5E06F3FF6AFAEB5EB030C04BFB6EB92
:1009C000020C5FEA500C50F1000041EB045170BD85
:1009D0000EF0004E4EEA113114EB5C04C2BFD4EBB2
:1009E0000C0541EA045170BD41F480114FF0000E36
:1009F000013C90E645EA060E8DE60CEA135594EAB2
:100A00000C0F08BF95EA0C0F3FF43BAF94EA0C0FB4
:100A10000AD150EA01347FF434AF95EA0C0F7FF429
:100A200025AF104619462CE795EA0C0F06D152EA7D
:100A300003353FF4FDAE1046194622E750EA410661
:100A400018BF52EA43067FF4C5AE50EA41047FF472
:100A50000DAF52EA43057FF4EBAE12E74FF0FF3CD7
:100A600006E000BF4FF0010C02E000BF4FF0010CA8
:100A70004DF804CD4FEA410C7FEA6C5C4FEA430C21
:100A800018BF7FEA6C5C1BD001B050EA410C0CBF70
:100A900052EA430C91EA030F02BF90EA020F0020D2
:100AA000704710F1000F91EA030F58BF994208BF39
:100AB00090422CBFD8176FEAE37040F001007047F6
:100AC0004FEA410C7FEA6C5C02D150EA013C07D14D
:100AD0004FEA430C7FEA6C5CD6D152EA033CD3D098
:100AE0005DF8040B704700BF8446104662468C4692
:100AF0001946634600E000BF01B5FFF7B7FF0028C5
:100B000048BF10F1000F01BD4DF808EDFFF7F4FFED
:100B10000CBF012000205DF808FB00BF4DF808ED78
:100B2000FFF7EAFF34BF012000205DF808FB00BF9B
:100B30004DF808EDFFF7E0FF94BF012000205DF8BD
:100B400008FB00BF4DF808EDFFF7CEFF94BF012072
:100B500000205DF808FB00BF4DF808EDFFF7C4FF6B
:100B600034BF012000205DF808FB00BF4FEA410CB4
:100B70007FEA6C5C02D150EA013C0AD14FEA430C97
:100B80007FEA6C5C02D152EA033C02D14FF00000D4
:100B900070474FF0010070474FEA410212F5001212
:100BA00015D211D56FF47873B3EB625212D94FEAB4
:100BB000C12343F0004343EA505311F0004F23FA9E
:100BC00002F018BF404270474FF00000704750EAF3
:100BD000013005D111F0004008BF6FF000407047B0
:100BE0004FF00000704700BF53B94AB9002908BF51
:100BF00000281CBF4FF0FF314FF0FF3000F072B9FA
:100C0000ADF1080C6DE904CE00F006F8DDF804E063
:100C1000DDE9022304B070472DE9F047089E044641
:100C20008846002B4BD18A42154667D9B2FA82F228
:100C30004AB1C2F1200701FA02F320FA07F7954002
:100C400047EA030894404FEA154E230CB8FBFEF721
:100C50001FFA85FC0EFB178843EA084307FB0CF1DB
:100C6000994209D9EB1807F1FF3080F01B819942B6
:100C700040F21881023F2B445B1AA4B2B3FBFEF092
:100C80000EFB103344EA034400FB0CFCA44509D9D5
:100C90002C1900F1FF3380F00781A44540F2048154
:100CA00002382C4440EA0740A4EB0C0400271EB194
:100CB000D4400023C6E900433946BDE8F0878B42A3
:100CC00009D9002E00F0EB800027C6E90001384664
:100CD0003946BDE8F087B3FA83F7002F47D18B423E
:100CE00002D3824200F2FA80841A61EB03030120EE
:100CF0009846002EE0D0C6E90048DDE702B9FFDEE5
:100D0000B2FA82F2002A40F08F80491B4FEA154E5A
:100D10001FFA85F80127B1FBFEFC230C0EFB1C110A
:100D200043EA014308FB0CF1994207D9EB180CF197
:100D3000FF3002D2994200F2CD808446591AA3B204
:100D4000B1FBFEF00EFB101443EA044408FB00F86C
:100D5000A04507D92C1900F1FF3302D2A04500F2BB
:100D6000B6801846A4EB080440EA0C409FE7C7F1A0
:100D7000200CBB4022FA0CFE4EEA030E01FA07F4E7
:100D800020FA0CF521FA0CF34FEA1E482543B3FB79
:100D9000F8F92C0C08FB19331FFA8EFA44EA0343C6
:100DA00009FB0AF49C4202FA07F200FA07F10BD998
:100DB0001EEB030309F1FF3080F087809C4240F274
:100DC0008480A9F1020973441B1BADB2B3FBF8F098
:100DD00008FB103345EA034400FB0AFAA24508D990
:100DE0001EEB040400F1FF336BD2A24569D902382F
:100DF000744440EA0940A0FB0289A4EB0A044C4574
:100E0000C2464B4654D351D0002E69D0B1EB0A05EF
:100E100064EB030404FA0CFCFD40FC404CEA0505BD
:100E2000C6E90054002747E7C2F1200320FA03F780
:100E3000954001FA02F021FA03F34FEA154E3843C8
:100E4000010CB3FBFEF71FFA85F80EFB173341EADE
:100E5000034107FB08F38B4204FA02F407D969182F
:100E600007F1FF3C2FD28B422DD9023F2944CB1AE8
:100E700081B2B3FBFEF00EFB103341EA034100FBED
:100E800008F38B4207D9691800F1FF3C17D28B4257
:100E900015D902382944C91A40EA07473BE73746C3
:100EA000304609E70746E7E61846FBE64145ABD280
:100EB000B8EB020A69EB0E0201381346A4E760465C
:100EC000E9E7184695E76746D1E781467CE70238AF
:100ED0002C4447E7ACF1020C2B442FE7384608E7D7
:100EE0003746E9E6704700BF10B504460E4B187848
:100EF0004FF47A73B3FBF0F30C4A1068B0FBF3F0D5
:100F000000F0F8FB68B90F2C01D901200AE000229B
:100F100021464FF0FF3000F0ABFB054B1C6000207A
:100F200000E0012010BD00BF0000002008000020EC
:100F30000400002008B50B4B1A6842F400721A60D6
:100F40001A6842F480621A601A6842F480721A6069
:100F5000032000F07BFB0020FFF7C6FF06F058FBE4
:100F6000002008BD003C0240034A1168034B1B7877
:100F70000B441360704700BF940E00200000002057
:100F8000014B1868704700BF940E002038B5044626
:100F9000FFF7F6FF0546B4F1FF3F02D0044B1B7884
:100FA0001C44FFF7EDFF401BA042FAD338BD00BF41
:100FB00000000020002800F0A18038B5044690F819
:100FC0002030D3B12268136823F002031360FFF7C7
:100FD000D7FF054623685A6812F0020F10D0FFF7BA
:100FE000CFFF401B0A28F5D9636A43F400336362DC
:100FF000052384F82030012038BD04F091FAE1E7A0
:101000001A6842F001021A60FFF7BAFF054623682A
:101010005A6812F0010F0DD1FFF7B2FF401B0A28EA
:10102000F5D9636A43F400336362052384F8203002
:101030000120E1E7227E012A3DD01A6822F08002D9
:101040001A60637E012B3BD02268136823F04003B3
:101050001360A37E012B39D02268136823F020038C
:101060001360E37E012B37D02268136843F010032E
:101070001360237F012B35D02268136823F0080307
:101080001360637F012B33D02268136823F00403BD
:101090001360A368E2681343226913436269134330
:1010A0006268013A21681343CB610020606201232A
:1010B00084F82030A0E71A6842F080021A60C0E786
:1010C0002268136843F040031360C2E72268136884
:1010D00043F020031360C4E72268136823F0100371
:1010E0001360C6E72268136843F008031360C8E77B
:1010F0002268136843F004031360CAE701207047B5
:1011000090F82030013BDBB2012B05D9436A43F450
:10111000802343620120704770B4434BD3F8002210
:1011200042F00102C3F80022D3F8002222F47C52DC
:10113000C3F80022D3F80022486A42EA0022C3F82A
:1011400000224A6902F01F02012000FA02F2D3F8DD
:101150001C42D0430440C3F81C42CB69B3B9324BA4
:10116000D3F80C420440C3F80C42CE688D884C6919
:1011700045EA0645483443F834508E680C884D697A
:1011800044EA0644483503EBC5035C60CB69012B98
:101190001DD08B69002B32D1234CD4F8043203408C
:1011A000C4F804320B698BBB1F4BD3F814422040A8
:1011B000C3F814020B6A012B2FD01B4AD2F800325D
:1011C00023F00103C2F80032002070BC7047164BB8
:1011D000D3F80C421443C3F80C420E688D884C6956
:1011E00045EA0645483443F834508E688C894D6989
:1011F00044EA0644483503EBC5035C60C9E70A4C82
:10120000D4F804321343C4F80432CBE70648D0F8CC
:1012100014321343C0F81432CCE70349D1F81C321E
:101220001A43C1F81C22C8E70064004038B590F8A2
:101230002030DBB2012B05D0436A43F40023436224
:10124000012038BD0446022380F82030026813686C
:1012500023F001031360FFF793FE054623685B68E4
:1012600013F0010F0DD0FFF78BFE401B0A28F5D9B4
:10127000636A43F400336362052384F8203001205D
:10128000DFE700206062DCE730B490F82040013CEA
:10129000E4B2012C06D9436A43F48023436201205F
:1012A00030BC704700296FD10468E46814F0030F64
:1012B00064D0056801F11B0424012C5904F00404D6
:1012C0009460002C6BD1056801F11B0424012C599A
:1012D000640D1460056801F11B0424012D59C5F348
:1012E0004005D560056825446D6805F00F0515615A
:1012F000056825446D68C5F30725956105682C448C
:101300006468240C546104680A011444D4F8B84198
:101310001C7004681444D4F8B841C4F307245C700A
:1013200004681444D4F8B841C4F307449C700468BA
:101330001444D4F8B841240EDC7004681444D4F882
:10134000BC411C7104681444D4F8BC41C4F30724A4
:101350005C7104681444D4F8BC41C4F307449C7124
:1013600004682244D2F8BC21120EDA71F9B902687D
:10137000D36843F02003D360002091E7436A43F42D
:101380000013436201208BE70468246914F0030F03
:101390008FD1436A43F400134362012080E705685C
:1013A00001F11B0424012C59E408546092E70268FF
:1013B000136943F020031361002071E790F8203097
:1013C000013BDBB2012B05D9436A43F4802343621E
:1013D000012070470268536919435161002070472A
:1013E0007047704770477047704770477047704745
:1013F000704770472DE9F84F054603685C695F68E0
:101400009E68D3F80C90D3F81080D3F818A014F08D
:10141000010F5AD016F0010F17D001229A6016F072
:10142000020F08D116F0040F30D116F0080F07D0C4
:101430004FF4805B0BE0FFF7D3FF4FF0000B06E0AB
:10144000FFF7D1FF4FF0000B01E04FF0000B16F457
:10145000807F0BD02B684FF480729A6016F4007F67
:1014600017D116F4806F18D04BF4005B16F4803F50
:101470002DD02B684FF480329A6016F4003F16D1BD
:1014800016F4802F17D04BF4004B20E04FF4006B84
:10149000DDE72846FFF7A5FFE8E716F4006F02D066
:1014A0004BF4804BE2E72846FFF79EFFDEE7284635
:1014B000FFF798FF0BE016F4002F02D04BF4803BAF
:1014C00005E02846FFF791FF01E04FF0000B14F014
:1014D000080F07D019F0100F04D04BF4007B2B68D5
:1014E0001022DA6014F0040F02D019F0080F60D156
:1014F00014F0020F04D02B68DB6813F0030F5FD1E8
:1015000014F0400F07D018F0100F04D04BF4806B8C
:101510002B6810221A6114F0200F02D018F0080F67
:1015200052D114F0100F04D02B681B6913F0030F75
:1015300051D114F4003F02D017F0100F4FD114F422
:10154000803F02D017F0080F50D114F4004F67D03D
:1015500017F0040F61D014F4807F04D01AF0010F4B
:1015600001D04BF0010B14F4007F04D01AF0020FED
:1015700001D04BF0020B14F4806F04D01AF0040F6A
:1015800001D04BF0040B14F4006F46D01AF0700A2F
:1015900043D0BAF1300F48D02FD9BAF1500F47D00D
:1015A000BAF1600F47D0BAF1400F31D14BF0400B88
:1015B0002EE02B680822DA60284603F0CDFA97E780
:1015C000284603F06FFA9BE72B6808221A61284629
:1015D000FFF70CFFA5E7284603F0C8FAA9E72B6838
:1015E00010225A602846FFF702FFA8E72B6808225E
:1015F0005A602846FFF7FCFEA7E7BAF1100F05D0A6
:10160000BAF1200F04D14BF0100B01E04BF0080BA6
:101610002A68936923F0700393612B6804225A604F
:10162000BBF1000F0AD1BDE8F88F4BF0200BEFE7BC
:101630004BF0800BECE74BF4807BE9E76B6A43EA05
:101640000B036B622846FFF7D4FEECE7074AD3682A
:1016500023F4E0631B041B0C000200F4E060184359
:1016600040F0BF6040F40030D060704700ED00E013
:1016700030B4174BDB68C3F30223C3F10704042C17
:1016800028BF04241D1D062D18D9033B4FF0FF353C
:1016900005FA04F421EA0401994005FA03F322EA69
:1016A0000303194300280BDB0901C9B200F16040B4
:1016B00000F5614080F8001330BC70470023E5E777
:1016C00000F00F000901C9B2024B1954F4E700BF42
:1016D00000ED00E014ED00E0002807DB00F01F0241
:1016E000400901239340024A42F82030704700BF6E
:1016F00000E100E00138B0F1807F0AD2064B58606B
:10170000064AF02182F823100020986007221A6010
:1017100070470120704700BF10E000E000ED00E0DE
:1017200030B405682C6824F480242C60046863605D
:101730008368402B05D0036899600368DA6030BC89
:10174000704703689A600368D960F8E70268D3B20B
:10175000103B0B49A1FB03131B090A49C95CC16576
:10176000032B06D822F47F7222F003028265806D7B
:10177000704722F47F7222F0030204328265F6E79A
:10178000ABAAAAAA5CBC0008836A826992B9012B41
:101790000AD01BB1022B01D000207047C36A13F09E
:1017A000807F2CD100207047C36AB3F1C07F28D05E
:1017B00000207047B2F5005F05D0022B29D9032B1A
:1017C00015D000207047032B03D8DFE803F01C047A
:1017D0001C0A00207047C36A13F0807F15D10020D7
:1017E0007047C36AB3F1C07F11D000207047C36A4D
:1017F00013F0807F01D00120704700207047012046
:101800007047012070470120704701207047012078
:10181000704701207047000070B50446FFF7B0FB29
:10182000002C5BD00546002384F83430022384F872
:1018300035302268136823F00103136023681A68A7
:1018400012F0010F0AD0FFF79BFB401B0528F5D9CA
:1018500020236365032084F8350070BD1A68204892
:1018600010406168A2680A43E1680A4321690A439B
:1018700061690A43A1690A43E1690A43216A0A438B
:101880000243616A04291ED01A602668756925F032
:101890000705636A1D43042B07D1A36A1D43E36A4E
:1018A0001BB12046FFF770FF90B975612046FFF726
:1018B0004DFFE26D3F23934083600020606501236C
:1018C00084F83530C9E7E16A206B01430A43DBE75E
:1018D00040236365012084F83500BEE70120BCE7A2
:1018E0003F8010F038B5856D90F83440012C31D030
:1018F000012480F8344090F83540E4B2012C04D043
:10190000002380F83430022038BD0446022084F8D9
:101910003500002060652046FFF702FFE26D3F239F
:101920009340AB602268136843F01603136022688B
:10193000536943F080035361236C23B12268136819
:1019400043F0080313602268136843F00103136037
:101950000020D9E70220D7E790F83530DBB2022B20
:1019600003D08023436501207047052380F835307C
:101970000268136823F00103136000207047000021
:10198000F0B583B0044600230193724B1D68724B7F
:10199000A3FB0535AD0A876D3E68C26D08239340F1
:1019A000334210D003681A6812F0040F0BD01A6883
:1019B00022F004021A60C26D08239340BB60436D9D
:1019C00043F001034365E26D01239340334209D0A4
:1019D0002268526912F0800F04D0BB60636D43F03F
:1019E00002036365E26D04239340334209D0226809
:1019F000126812F0020F04D0BB60636D43F0040361
:101A00006365E26D10239340334224D0226812684C
:101A100012F0080F1FD0BB6023681A6812F4802FE1
:101A20000DD01B6813F4002F04D1236C9BB120460A
:101A3000984710E0A36C73B1204698470BE01A68F2
:101A400012F4807F03D11A6822F008021A60236C16
:101A50000BB120469847E26D20239340334255D086
:101A60002268126812F0100F50D0BB6094F8353025
:101A7000DBB2052B0ED023681A6812F4802F33D006
:101A80001B6813F4002F2AD1636C002B3ED0204634
:101A900098473BE02268136823F01603136022681E
:101AA000536923F080035361236CA3B12268136848
:101AB00023F008031360E26D3F239340BB600023D3
:101AC00084F83430012384F83530236D002B3FD067
:101AD000204698473CE0A36C002BE7D1EBE7E36B93
:101AE000A3B12046984711E01A6812F4807F09D10B
:101AF0001A6822F010021A60002384F8343001239F
:101B000084F83530E36B0BB120469847636DFBB129
:101B1000636D13F0010F17D0052384F83530226868
:101B2000136823F001031360019B01330193AB425F
:101B300004D823681B6813F0010FF5D1002384F843
:101B40003430012384F83530E36C0BB120469847DC
:101B500003B0F0BD08000020B5814E1B90F83500A1
:101B60007047000000230F2B00F2D180F0B482B048
:101B700039E0062200E00022B2403A430234644ECB
:101B800046F82420634A1468EA4302EA04064F68D0
:101B900017F4803F01D045EA04065E4C2660646875
:101BA00002EA04064F6817F4003F01D045EA040634
:101BB000584C6660A46802EA04064F6817F4801F58
:101BC00001D045EA0406534CA660E46822404E6802
:101BD00016F4001F01D045EA04024E4CE2600133C6
:101BE0000F2B00F2918001229A400C6804EA020552
:101BF000AA42F4D14C68022C01D0122C10D1DE087C
:101C0000083650F826C003F00704A7000F24BC4094
:101C10002CEA040C0C69BC4044EA0C0440F8264051
:101C200004685F000326BE40F64306EA040C4C68D5
:101C300004F00304BC4044EA0C0404604C6804F162
:101C4000FF3CBCF1010F03D9112C01D0122C10D193
:101C5000846806EA040CCC68BC4044EA0C04846046
:101C6000446824EA02024C68C4F300149C40144304
:101C70004460C26816408A68BA403243C2604A680B
:101C800012F0805FABD000220192234A546C44F4DE
:101C900080445464526C02F480420192019A9C0880
:101CA000A61C1B4A52F8267003F0030296000F226E
:101CB000B24027EA0207194A90423FF45CAF02F5AE
:101CC0008062904216D002F58062904214D002F5F4
:101CD0008062904212D002F58062904210D002F5EC
:101CE000806290420ED002F5806290423FF441AF94
:101CF000072241E701223FE702223DE703223BE7BB
:101D0000042239E7052237E702B0F0BC704770477C
:101D100000380140003C0140003802400000024011
:101D200012B909048161704781617047436931EAE2
:101D3000030301D08161704709048161704790F805
:101D40003E30DBB2402B0AD00369B3F5804F15D08B
:101D5000036D002B36D0036D012B3DD07047036D12
:101D60002BB9436C026803F0FE0313617047436CA8
:101D7000026843F00103DBB21361704790F83D3015
:101D8000DBB2212B0FD0436C026843F00103DBB2BE
:101D90001361436B6BB1DB6B7BB10268536843F437
:101DA000006353607047436C026803F0FE031361E5
:101DB000EFE7826B002AEED1D0E7836BDB6B002B61
:101DC000EBD1CBE7436CC3F3C813026803F00603FF
:101DD00043F0F00313617047436CC3F3C813026808
:101DE00003F0060343F0F1031361B7E7436C0268A5
:101DF000DBB21361436B3BB1DB6B4BB102685368E1
:101E000043F4006353607047826B002AF4D1FAE711
:101E1000836BDB6B002BF1D1F5E710B48BB090F83E
:101E20003E30DAB2C16A046B90F83D30DBB2222B4F
:101E30000BD00023099303685A6909929B6909939F
:101E4000099B0BB05DF8044B7047036D0BB9402A3A
:101E500017D0036D1BB90369B3F5404F19D0438DFB
:101E60009BB2002B25D1029303685A6902929A69AA
:101E70000292029A1A6842F400721A600023036503
:101E8000DFE7009303685A6900929B690093009B07
:101E9000D7E70023019303685A6901929A69019276
:101EA000019A1A6842F480721A60036D0133036567
:101EB000C7E7438D9BB2012B25D0438D9BB2022BEC
:101EC0007BD00268136843F48063136003685A6828
:101ED00012F4006F0ED011F5803F07D0012905D014
:101EE000082903D0102901D0202903D15A6842F4CF
:101EF00080525A600023089303685A6908929B69CC
:101F00000893089BBAE711F5803F11D0082934D017
:101F1000202932D0122C2ED0042940D002293ED0C4
:101F200010293CD00268136823F4806313603BE0FF
:101F30000268136823F48063136003685A6812F41C
:101F4000006F0CD01A6822F480621A600023039399
:101F500003685A6903929B690393039B8EE70022EF
:101F600004925A6904929A690492049A1A6842F493
:101F700000721A6082E70129CED00268136823F448
:101F8000806313600023069303685A6906929A6976
:101F90000692069A1A6842F400721A606EE70268A6
:101FA000136843F4806313600023059303685A6940
:101FB00005929B690593059B60E704290ED00229D1
:101FC0000CD010290AD00268136823F480631360D0
:101FD0000268136843F40063136004E00268136846
:101FE00043F48063136003685A6812F4006F0ED0E4
:101FF00011F5803F07D0012905D0082903D0102909
:1020000001D0202903D15A6842F480525A6000233B
:10201000079303685A6907929B690793079B2DE70B
:10202000438D9BB253B1426A036812781A61436AC6
:1020300001334362438D013B9BB243857047438D1F
:102040009BB253B103681A69436A1A70436A013339
:102050004362438D013B9BB24385704703685A69D5
:1020600012F4806F11D06FF480625A610023036311
:10207000202280F83D2080F83E30026C42F00402BD
:10208000026480F83C300120704700207047C36A2A
:10209000B3F52A0F04D0C36AB3F12A4F03D07047B7
:1020A0000123C36270470823C362F8E7F8B5064608
:1020B0000C4617461D4622E0FEF762FF069BC01A3B
:1020C000A84200D8DDB900233363202286F83D20E2
:1020D00086F83E30326C42F02002326486F83C30A2
:1020E00001201AE033685B6924EA03039BB2B3FA68
:1020F00083F35B099F420FD1B5F1FF3FDCD1C4F3FD
:102100000743012BEED033689B6924EA03039BB29B
:10211000B3FA83F35B09EDE70020F8BDF8B5044698
:102120000D4616461F463CE01A6842F400721A60DB
:1021300023686FF480625A6100232363202284F8AD
:102140003D2084F83E30226C42F00402226484F880
:102150003C30012033E0FEF713FFC01BB04200D833
:10216000FEB900232363202284F83D2084F83E300A
:10217000226C42F02002226484F83C3001201EE0F0
:1021800023685B6925EA03039BB2003318BF012370
:10219000A3B123685A6912F4806FC5D1B6F1FF3F2D
:1021A000D9D1C5F30743012BEAD023689B6925EAFF
:1021B00003039BB2003318BF0123E9E70020F8BDF9
:1021C000F0B583B004460F4615461E46C36A082B79
:1021D0000DD0012B0BD013F5803F08D0036B122BD1
:1021E0000AD10268136843F48073136004E0226824
:1021F000136843F48073136000962B4600224FF05F
:1022000001112046FFF752FF18BB2369B3F5804F39
:102210000DD1236807F0FE071F6133462A46104997
:102220002046FFF77BFF0346A0B1012312E0FB111C
:10223000226803F0060343F0F003136133462A4695
:1022400008492046FFF76AFF38B92368FFB21F61CB
:10225000E3E70123184603B0F0BD0123FAE700BF0E
:10226000020001000800010070B504460D46164644
:1022700023685B6913F0800F1CD12046FFF7EEFE48
:10228000D0B9B5F1FF3FF3D0FEF77AFE801BA8422C
:1022900001D8002DECD100232363202284F83D20B7
:1022A00084F83E30226C42F02002226484F83C30F4
:1022B000012000E0002070BD0120FCE770B504465D
:1022C0000D46164623685B6913F0040F1CD12046A7
:1022D000FFF7C4FED0B9B5F1FF3FF3D0FEF750FED3
:1022E000801BA84201D8002DECD1002323632022BB
:1022F00084F83D2084F83E30226C42F020022264B3
:1023000084F83C30012000E0002070BD0120FCE793
:10231000002800F0BE80F8B5044690F83D30002B50
:102320006BD0242384F83D302268136823F0010326
:10233000136000F0E7FF6268584B9A4262D8584B2E
:1023400098428CBF00230123002B40F0A480554B02
:10235000A3FB00239B0C21684A6822F03F021A432A
:102360004A6025682A6A22F03F0266684B498E421D
:102370004ED8013313432B622568E96921F44F419C
:1023800021F0FF016368454A93424BD801385B0056
:10239000B0FBF3F30133C3F30B03042B38BF042367
:1023A0000B43EB6121680B6823F0C003E269206AEC
:1023B000024313430B6021688B6823F4034323F02B
:1023C000FF032269E068024313438B602168CB68F6
:1023D00023F0FF036269A06902431343CB602268C4
:1023E000136843F00103136000202064202384F865
:1023F0003D30206384F83E00F8BD80F83C3003F0A7
:10240000D3FA8EE7284B98428CBF002301239BE729
:102410004FF4967101FB03F32449A1FB03139B09BD
:102420000133A7E7A268BAB9461E03EB4307B6FB20
:10243000F7F60136C6F30B06B6FA86F6760936BB12
:10244000C2B9013803EB4303B0FBF3F30133C3F329
:102450000B0242F40043A3E7461E03EB830707EB9E
:102460008707B6FBF7F60136C6F30B06B6FA86F613
:102470007609E4E7013803EB830303EB8303B0FB46
:10248000F3F20132C2F30B0242F4404388E7012326
:1024900086E7012070470120AEE700BFA08601005B
:1024A0007F841E0083DE1B43FF083D00D34D621076
:1024B0002DE9F04184B004460E4690461F46FEF7D3
:1024C0005FFD94F83D30DBB2202B04D0022630466D
:1024D00004B0BDE8F08105460090192301224F4960
:1024E0002046FFF7E3FD002840F0918094F83C304F
:1024F000012B00F08E80012384F83C3023681A6899
:1025000012F0010F03D11A6842F001021A6022682A
:10251000136823F400631360212384F83D301023F3
:1025200084F83E3000232364C4F824806785638DDB
:1025300023853B4BE3622B460A9A31462046FFF740
:102540003FFE0646002866D10023039323685A699C
:1025500003929B690393039B12E0236C042B01D02D
:102560000126B4E72268136843F400731360012660
:10257000ADE72A460A992046FFF7A0FE00282CD195
:10258000238D002B35D02A460A992046FFF76CFE92
:102590000028E2D1626A236812781A61616A4B1CD2
:1025A0006362638D013B9BB26385238D013B9BB2CC
:1025B00023852268506910F0040FDAD0002BD8D0A0
:1025C0004B781361636A01336362638D013B9BB295
:1025D0006385238D013B2385CBE7236C042B01D03E
:1025E000012674E72268136843F400731360012620
:1025F0006DE72268136843F400731360202384F8A6
:102600003D30002384F83E3084F83C305FE70226FA
:102610005DE702265BE7012659E700BF02001000D4
:102620000000FFFF7047704708B590F83D30DAB200
:10263000438D9BB27BB1416A036809781961436A93
:1026400001334362438D013B9BB24385438D9BB273
:102650000BB9292A00D008BD0268536823F48063AF
:10266000536021230363282380F83D30FFF7DBFF0D
:10267000F1E7704708B590F83D30DAB2438D9BB270
:102680007BB103681969436A1970436A0133436275
:10269000438D013B9BB24385438D9BB20BB92A2AE4
:1026A00000D008BD0268536823F48063536022237E
:1026B0000363282380F83D30FFF7DBFFF1E7704725
:1026C00008B590F83D3003F02803282B07D00368A5
:1026D0006FF002025A61002380F83C3008BD0268A6
:1026E000536823F48063536011F0040F0BD0002370
:1026F00011F0800F09D18289002180F83C10194621
:10270000FFF7DDFFEAE70123F2E7028BF4E770470A
:1027100008B590F83D30DBB2C26A082A01D0202A01
:1027200001D1282B06D0212B1ED003686FF48062C4
:102730005A6108BD1A4BC3620268536823F4E06310
:10274000536003686FF480625A610268136823F46F
:102750008063136000230363202280F83D2080F80B
:102760003E30FFF7D4FFE4E70D4BC3622123036340
:10277000202380F83D30002380F83E300268536803
:1027800023F4E063536003686FF480625A61026867
:10279000136823F480631360FFF745FFC9E700BFA8
:1027A0000000FFFF704710B590F83D30DBB290F8A5
:1027B0003E20D2B2C46A018D09B9212B04D0212B4D
:1027C0003BD0402A37D010BD082C04D0202C02D09A
:1027D00014F5803F19D10268536823F4E063536015
:1027E0000268136843F4007313600023036320231B
:1027F00080F83D3090F83E30DBB2402B15D00023FE
:1028000080F83E30FFF70EFFDDE70268536823F4DF
:10281000E063536011230363002380F83E302023DC
:1028200080F83D30FFF7FEFECDE7002380F83E3014
:10283000FFF7B8FFC7E7222BC5D1438D9BB283B109
:1028400090F83E30DBB2402B11D0426A0368127818
:102850001A61436A01334362438D013B9BB2438556
:10286000B1E70268536823F480635360ABE7036DFC
:102870009BB9C36C012B08D0836CC3F30723026898
:102880001361036D013303659DE7836C0268DBB25E
:102890001361036D0233036595E7036D012B18D0B7
:1028A000036D022B8FD190F83D30DBB2222B18D074
:1028B00090F83D30DBB2212B85D1426A0368127853
:1028C0001A61436A01334362438D013B9BB24385E6
:1028D00079E7836C0268DBB21361036D0133036532
:1028E00071E70268136843F4807313606BE708B5FF
:1028F000C26A90F83D30DBB2212B00D008BD438D79
:102900009BB203BB082A04D0202A02D012F5803FD4
:1029100025D10268536823F4E063536002681368AA
:1029200043F40073136000230363202380F83D30D9
:1029300090F83E30DBB2402B21D0002380F83E30AF
:10294000FFF770FEDAE7426A036812781A61436A99
:1029500001334362438D013B9BB24385CEE702685E
:10296000536823F4E063536011230363002380F86A
:102970003E30202380F83D30FFF754FEBEE70023B1
:1029800080F83E30FFF70EFFB8E7704708B590F8C3
:102990003D30DBB2222B00D008BD438D9BB2032B10
:1029A00014D903681A69436A1A70436A013343628F
:1029B000438D013B9BB24385438D9BB2032BEBD1EF
:1029C0000268536823F480635360E5E7C26A022A11
:1029D000E2D0012BE0D80268136823F4806313600F
:1029E0000268536823F4E063536003681A69436A1A
:1029F0001A70436A01334362438D013B9BB24385A6
:102A0000202380F83D3090F83E30DBB2402B07D0D9
:102A1000002380F83E301223036302F041FABBE743
:102A2000002380F83E300363FFF7AFFFB4E708B53B
:102A3000C26A438D9BB2042B13D0438D9BB2032BF0
:102A400020D0438D9BB2022B36D003681A69436AAB
:102A50001A70436A01334362438D013B9BB2438545
:102A60000FE00268536823F48063536003681A69B7
:102A7000436A1A70436A01334362438D013B9BB240
:102A8000438508BD01684B6823F480634B60042ACA
:102A900006D0022A04D00268136823F4806313600E
:102AA00003681A69436A1A70436A01334362438DAB
:102AB000013B9BB24385E4E7012A0BD0102A09D0E1
:102AC000042A36D0022A34D00268136843F4007313
:102AD000136004E00268136823F4806313600368E2
:102AE0001A69436A1A70426A531C4362438D013B60
:102AF0009BB2438503681B695370436A0133436289
:102B0000438D013B9BB243850268536823F44073B5
:102B10005360202380F83D3090F83E30DBB2402BEC
:102B20000DD0002380F83E301223036302F0B8F981
:102B3000A7E70268136843F480631360CFE70023BC
:102B400080F83E300363FFF720FF9AE77047704735
:102B500010B5806B90F83D20416B0023CB63816BF7
:102B6000CB630468216821F4806121604385416B57
:102B70000B65816B0B6501680B6823F001030B602B
:102B800090F83D30DBB2602B0DD0D2B202F02802BB
:102B9000282A12D0202380F83D30002380F83E30D0
:102BA000FFF7D4FF10BD202380F83D30002380F8CC
:102BB0003E300364FFF7CBFFF4E70268136843F08D
:102BC000010313600268136843F4806313600023F9
:102BD0000363282380F83D30E2E7000010B5044687
:102BE00090F83D30DBB290F83E20D2B2102A33D0BC
:102BF00003F02802282A37D02268526812F4006FA6
:102C000004D1602B02D0202384F83D3000232363BD
:102C100084F83E3023685A6812F4006F48D05A682E
:102C200022F400625A60626B92F83530DBB2012BFD
:102C300020D0424B1365606BFEF78EFE002849D012
:102C40002268136823F001031360202384F83D30C9
:102C5000606B036D98473DE0222BC9D101680A687B
:102C600022F400620A60C3E700232363282384F868
:102C70003D30CFE7A36B314A1A65A06BFEF76CFEBF
:102C800040B323685A6912F0400F05D01A69636A8D
:102C90001A70636A013363622268136823F00103C8
:102CA0001360202384F83D30A06B036D984711E03A
:102CB00094F83D20D2B2602A16D05A6912F0400F23
:102CC00005D01A69636A1A70636A01336362204629
:102CD000FFF73CFF94F83D30DBB2226C12F0040F9A
:102CE00001D0282B18D010BD202284F83D200022CE
:102CF00022645A6912F0400F05D01A69636A1A708B
:102D0000636A013363622268136823F0010313606E
:102D10002046FFF71CFFDDE72268536823F4E063D9
:102D20005360074BE36200232363202284F83D2095
:102D300084F83E302046FFF7EAFCD4E7512B000828
:102D40000000FFFF30B583B0044690F83D50EDB26F
:102D50000268536823F4E06353600023019303681F
:102D60005A6901921A6842F001021A60019B0268D6
:102D7000136823F48063136003685A6812F4006FC9
:102D800038D0222D21D02A2D1FD0426B12685268D4
:102D900092B24285428D92B21AB1026C42F00402A4
:102DA00002645A6822F400625A60606BFEF7D6FE35
:102DB00001281FD0636B434A1A65606BFEF7CCFD98
:102DC000C0B1606B036D984714E0A26B1268526843
:102DD00092B26285628D92B21AB1226C42F0040204
:102DE00022645A6822F400625A60A06BFEF7B6FEB5
:102DF000012840D1638D9BB223B323685A6912F036
:102E0000040F09D01A69636A1A70636A0133636236
:102E1000638D013B9BB2638523685A6912F0400FB2
:102E200009D01A69636A1A70636A01336362638D39
:102E3000013B9BB26385638D9BB21BB1236C43F056
:102E400004032364236C13BB2A2D25D094F83D3052
:102E5000DBB2282B29D0236B222B01D0222D19D1B4
:102E600000232363202284F83D2084F83E3020464E
:102E7000FFF7FFFB0EE0A36B124A1A65A06BFEF78B
:102E80006BFD0028B6D0A06B036D9847B2E72046D3
:102E9000FFF7A4FE03B030BD00232363282384F88A
:102EA0003D302046FFF7E5FBD0E7074BE362002308
:102EB0002363202284F83D2084F83E302046FFF72B
:102EC00026FCE7E7512B00080000FFFF70B5044621
:102ED00002685568C66A90F83E30DBB290F83D1043
:102EE000102B14D0C8B2402B11D0236C002B71D002
:102EF0005369002113F0020F6FD015F4007F6CD0DE
:102F0000236C03B191692046FFF7DAFB70BD90692D
:102F1000536913F0010105D1B6F52A0FF6D0B6F1C9
:102F20002A4FF3D011B115F4007F25D113F0080F0B
:102F300002D015F4007F26D113F0020F02D015F451
:102F4000007F24D110F0040F29D0526812F4006FD2
:102F5000DCD113F0800F05D015F4806F02D013F090
:102F6000040F18D013F0040FD0D015F4007FCDD08B
:102F70002046FFF7BCFCC9E72046FFF788F820464B
:102F8000FEF7DDFEC2E72046FEF730FFBEE7204633
:102F9000FEF743FFBAE72046FFF705FCB6E75268A5
:102FA00012F4006FB2D113F0400F05D015F4806F0A
:102FB00002D013F0040F09D013F0040FA6D015F4BB
:102FC000007FA3D02046FFF732FD9FE72046FFF7A2
:102FD000DDFC9BE7916953698CE713F0100F02D079
:102FE00015F4007F17D1212819D0292817D013F004
:102FF000400F05D015F4806F02D013F0040F27D0D6
:1030000013F0040F82D015F4007F3FF47FAF204609
:10301000FFF715F87AE72046FFF794FE76E713F0FE
:10302000800F05D015F4806F02D013F0040F0BD081
:1030300013F0040F3FF46AAF15F4007F3FF466AF5E
:103040002046FEF7EDFF61E72046FFF7EDFA5DE76A
:103050002046FFF70FFB59E7F8B5044603685D69A2
:103060005F6815F4807F07D017F4807F3BD06FF442
:1030700080725A61012600E0002615F4007F08D016
:1030800017F4807F05D046F0020623686FF40072C3
:103090005A6115F4806F18D017F4807F15D094F81A
:1030A0003E30DBB2628D91B294F83D20D2B2206BFB
:1030B000202B1AD023686FF480625A6146F0040610
:1030C00094F83E30DBB2102B1DD015F4006F08D001
:1030D00017F4807F05D046F0080623686FF400627D
:1030E0005A61B6B9F8BD0026C7E70029E2D1212A06
:1030F00005D0292A03D0282ADCD12128DAD120467C
:10310000FFF706FBE1E72268136843F400731360DE
:10311000DBE7236C1E4326642046FFF75FFDE1E7F3
:1031200010B582B000230193194B1A6C42F0805203
:103130001A641B6C03F080530193019B154B012211
:103140001A60FDF71DFF0446134B5B6813F4803FC4
:1031500008D1FDF715FF001BB0F57A7FF4D90320E5
:1031600002B010BD0D4B01221A60FDF709FF0446A5
:10317000094B5B6813F4003F07D1FDF701FF001B0B
:10318000B0F57A7FF4D90320EAE70020E8E700BF32
:103190000038024040000E420070004044000E42E1
:1031A000002800F09D8070B504464F4B1B6803F06B
:1031B0000F038B4209D2CBB24B4A1370136803F052
:1031C0000F038B4201D0012070BD236813F0020F62
:1031D00017D013F0040F04D0444A936843F4E0532B
:1031E0009360236813F0080F04D0404A936843F4B7
:1031F000604393603D4A936823F0F003A068034363
:1032000093600D46236813F0010F32D06368012BE1
:1032100021D09A1E012A25D9344A126812F0020FD1
:1032200060D032498A6822F0030213438B60FDF7B5
:10323000A7FE06462D4B9B6803F00C036268B3EBB8
:10324000820F16D0FDF79CFE801B41F28833984216
:10325000F0D90320B8E7254A126812F4003FE0D104
:103260000120B1E7214A126812F0007FD9D1012074
:10327000AAE71D4B1B6803F00F03AB4209D9EAB262
:10328000194B1A701B6803F00F03AB4201D00120E9
:103290009AE7236813F0040F06D0144A936823F4C6
:1032A000E053E1680B439360236813F0080F07D0E5
:1032B0000E4A936823F46043216943EAC103936093
:1032C00000F040F8094B9B68C3F30313084AD35C32
:1032D000D840084B18600020FDF706FE002073E779
:1032E0000120704701206FE7003C02400038024097
:1032F00064BC000808000020014B1868704700BF3C
:103300000800002008B5FFF7F7FF044B9B68C3F3E4
:103310008223034AD35CD84008BD00BF0038024076
:1033200074BC000808B5FFF7E7FF044B9B68C3F3C4
:103330004233034AD35CD84008BD00BF0038024086
:1033400074BC00082DE9F04B5C4B9B6803F00C0348
:10335000082B07D00C2B5BD0042B00F0AD80584815
:10336000BDE8F08B554B5A6802F03F025B6813F4DE
:10337000800F2AD0514B5B68C3F388131E46002789
:103380005C010025E41A65EB0705A90141EA946197
:10339000A001001B61EB0501CB0043EA5073C400A0
:1033A000A01943EB07014B0243EAD05344022046E5
:1033B00019460023FDF718FC404B5B68C3F301433B
:1033C00001335B00B0FBF3F0CAE73C4B5B68C3F32F
:1033D00088131E4600275C010025E41A65EB0705EB
:1033E000A90141EA9461A001001B61EB0501CB003A
:1033F00043EA5073C400A01943EB07018B0243EA70
:1034000090538402204619460023FDF7EDFBD3E7D5
:103410002A4B5A6802F03F025B6813F4800F28D0F1
:10342000264B5B68C3F388131E4600275C0100250A
:10343000E41A65EB0705A90141EA9461A001001BAC
:1034400061EB0501CB0043EA5073C400A01943EBC4
:1034500007014B0243EAD053440220461946002399
:10346000FDF7C2FB154B5B68C3F30273B0FBF3F0CF
:1034700076E7124B5B68C3F388131E4600275C0196
:103480000025E41A65EB0705A90141EA9461A00152
:10349000001B61EB0501CB0043EA5073C400A01987
:1034A00043EB07018B0243EA9053840220461946FE
:1034B0000023FDF799FBD5E7024851E700380240A9
:1034C0000024F40000127A0070B582B0044603684C
:1034D00013F0010F41D0A64B9B6803F00C03042BA3
:1034E00032D0A34B9B6803F00C03082B27D0A04BD2
:1034F0009B6803F00C030C2B59D06368B3F5803F35
:103500005BD0B3F5A02F5ED0994B1A6822F48032BD
:103510001A601A6822F480221A606368002B5CD05B
:10352000FDF72EFD0546924B1B6813F4003F14D1A6
:10353000FDF726FD401B6428F5D903209DE18C4B47
:103540005B6813F4800FD2D0894B1B6813F4003FE3
:1035500003D06368002B00F08D81236813F0020F05
:1035600067D0834B9B6813F00C0F4AD0804B9B684D
:1035700003F00C03082B3FD07D4B9B6803F00C033A
:103580000C2B48D0E368002B74D07A4B01221A60D0
:10359000FDF7F6FC0546764B1B6813F0020F60D171
:1035A000FDF7EEFC401B0228F5D9032065E1704BC6
:1035B0005B6813F4800FA0D0C6E76D4A136843F42C
:1035C00080331360A9E76A4B1A6842F480221A60BC
:1035D0001A6842F480321A609FE7FDF7D1FC054675
:1035E000634B1B6813F4003FB7D0FDF7C9FC401BC9
:1035F0006428F5D9032040E15D4B5B6813F4800F2C
:10360000BAD15B4B1B6813F0020F0AD0E368012BA1
:1036100007D0012031E1564B5B6813F4800FB1D124
:10362000EFE7534A136823F0F803216943EAC10323
:103630001360236813F0080F40D0636963B34E4BE7
:1036400001221A60FDF79CFC0546494B5B6F13F0A5
:10365000020F33D1FDF794FC401B0228F5D903205B
:103660000BE1434A136823F0F803216943EAC103DD
:103670001360DEE73F4B00221A60FDF781FC054630
:103680003B4B1B6813F0020FD3D0FDF779FC401BB6
:103690000228F5D90320F0E0374B00221A60FDF72D
:1036A0006FFC0546324B5B6F13F0020F06D0FDF73F
:1036B00067FC401B0228F5D90320DEE0236813F0E5
:1036C000040F79D02A4B1B6C13F0805F33D1002399
:1036D0000193274B1A6C42F080521A641B6C03F062
:1036E00080530193019B0125244B1B6813F4807FB9
:1036F00023D0A368012B34D0052B41D01C4B1A6F6B
:1037000022F001021A671A6F22F004021A67A368F6
:10371000002B3FD0FDF734FC0646154B1B6F13F012
:10372000020F48D1FDF72CFC801B41F288339842F0
:10373000F3D90320A1E00025D6E7104A136843F42B
:1037400080731360FDF71CFC06460C4B1B6813F4DA
:10375000807FCED1FDF714FC801B0228F5D9032011
:103760008BE0034A136F43F001031367CFE700BFF9
:103770000038024000004742800E4742007000407F
:10378000404B1A6F42F004021A671A6F42F00102AE
:103790001A67BCE7FDF7F4FB06463A4B1B6F13F0C4
:1037A000020F08D0FDF7ECFB801B41F288339842F2
:1037B000F3D9032061E0E5B9A369002B5CD0314A5D
:1037C000926802F00C02082A59D0022B17D02E4B17
:1037D00000221A60FDF7D4FB04462A4B1B6813F045
:1037E000007F45D0FDF7CCFB001B0228F5D9032054
:1037F00043E0244A136C23F080531364DCE7224B2C
:1038000000221A60FDF7BCFB05461E4B1B6813F037
:10381000007F06D0FDF7B4FB401B0228F5D903203A
:103820002BE0E369226A1343626A43EA8213A26AC5
:103830005208013A43EA0243E26A43EA0263226B16
:1038400043EA02730F4A53600F4B01221A60FDF7DF
:1038500097FB04460B4B1B6813F0007F06D1FDF766
:103860008FFB001B0228F5D9032006E0002004E0AE
:10387000002002E0012000E0002002B070BD012025
:10388000FBE700BF003802406000474230B4036AE3
:1038900023F001030362056A4268846924F073041B
:1038A0000B681C4325F002058B682B43104DA84282
:1038B00003D005F58065A84205D123F00803CD6843
:1038C0002B4323F004030A4DA84203D005F580657D
:1038D000A84205D122F440724D6915438A692A43F2
:1038E000426084614A684263036230BC704700BF33
:1038F0000000014030B4036A23F480730362036A5A
:103900004268C46924F073040D682C4323F40073E7
:103910008D6843EA0523124DA84203D005F5806562
:10392000A84206D123F40063CD6843EA052323F4BB
:1039300080630B4DA84203D005F58065A84207D1EE
:1039400022F440524D6942EA05128D6942EA05129D
:103950004260C4614A68C263036230BC704700BF02
:103960000000014030B4036A23F480530362036A09
:103970004468C26922F4E6420D6842EA052223F453
:1039800000538D6843EA0533094DA84203D005F57D
:103990008065A84204D124F480444D6944EA85142A
:1039A0004460C2614A680264036230BC704700BF71
:1039B000000001400268D36843F00103D36002684D
:1039C000936803F00703062B03D0136843F0010349
:1039D0001360002070470268D36823F00103D360AE
:1039E0000368196A41F21112114208D1196A40F2B2
:1039F0004442114203D11A6822F001021A600020E9
:103A00007047704770477047704710B504460368A9
:103A10001A6912F0020F11D0DA6812F0020F0DD0FD
:103A20006FF002021A610123037703689B6913F0A8
:103A3000030F70D0FFF7E6FF0023237723681A698E
:103A400012F0040F12D0DA6812F0040F0ED06FF0EB
:103A500004021A610223237723689B6913F4407FD1
:103A60005FD02046FFF7CEFF0023237723681A6933
:103A700012F0080F12D0DA6812F0080F0ED06FF0B3
:103A800008021A61042323772368DB6913F0030F0C
:103A90004ED02046FFF7B6FF0023237723681A692C
:103AA00012F0100F12D0DA6812F0100F0ED06FF073
:103AB00010021A61082323772368DB6913F4407F1F
:103AC0003DD02046FFF79EFF0023237723681A6925
:103AD00012F0010F03D0DA6812F0010F36D123681B
:103AE0001A6912F0800F03D0DA6812F0800F34D117
:103AF00023681A6912F0400F03D0DA6812F0400F01
:103B000032D123681A6912F0200F03D0DA6812F05C
:103B1000200F30D110BDFFF774FF2046FFF773FF71
:103B20008AE72046FFF76DFF2046FFF76CFF9BE713
:103B30002046FFF766FF2046FFF765FFACE720460B
:103B4000FFF75FFF2046FFF75EFFBDE76FF0010262
:103B50001A61204601F07EF9C1E76FF080021A6118
:103B6000204600F0D5F9C3E76FF040021A61204605
:103B7000FFF74AFFC5E76FF020021A61204600F008
:103B8000C6F9C7E70368304A904212D0B0F1804FBF
:103B90000FD0A2F57C4290420BD002F58062904299
:103BA00007D002F58062904203D002F5784290423D
:103BB00003D123F070034A681343234A90422AD06A
:103BC000B0F1804F27D0A2F57C42904223D002F57D
:103BD000806290421FD002F5806290421BD002F5B5
:103BE0007842904217D002F57052904213D002F5FD
:103BF000806290420FD002F5806290420BD0A2F515
:103C00009832904207D002F58062904203D002F5CC
:103C10008062904203D123F44073CA68134323F0B7
:103C200080034A69134303608B68C3620B68836235
:103C3000054B984203D003F58063984201D10B698C
:103C4000036301234361704700000140A8B110B530
:103C5000044690F83D305BB1022384F83D30211DCD
:103C60002068FFF78FFF012384F83D30002010BD4E
:103C700080F83C3003F024FEEEE701207047A8B145
:103C800010B5044690F83D305BB1022384F83D3016
:103C9000211D2068FFF776FF012384F83D300020C6
:103CA00010BD80F83C3003F0EBFDEEE701207047DB
:103CB00030B4036A23F010030362036A4468826924
:103CC00022F4E6420D6842EA052223F020038D68C3
:103CD00043EA0513114DA84203D005F58065A842BB
:103CE00006D123F08003CD6843EA051323F0400397
:103CF0000A4DA84203D005F58065A84207D124F4F7
:103D000040644D6944EA85048D6944EA8504446051
:103D100082614A688263036230BC704700000140E0
:103D200038B590F83C30012B66D00D46044601238F
:103D300080F83C30022380F83D300C2A1AD8DFE8A6
:103D400002F00719191920191919341919194700FE
:103D50000068FFF79BFD2268936943F008039361B5
:103D60002268936923F004039361226893692969A7
:103D70000B439361012384F83D30002084F83C001C
:103D800038BD0068FFF794FF2268936943F400632D
:103D900093612268936923F4806393612268936935
:103DA000296943EA01239361E4E70068FFF7A2FD74
:103DB0002268D36943F00803D3612268D36923F0F2
:103DC0000403D3612268D36929690B43D361D1E726
:103DD0000068FFF7C7FD2268D36943F40063D3612D
:103DE0002268D36923F48063D3612268D369296987
:103DF00043EA0123D361BDE70220C1E710B401F01B
:103E00001F01012303FA01F4036A23EA0403036296
:103E1000036A8A40134303625DF8044B7047000055
:103E200010B5044601220068FFF7E8FF23680B4A3B
:103E3000934203D002F58062934203D15A6C42F45C
:103E400000425A642268936803F00703062B03D0EC
:103E5000136843F001031360002010BD000001400F
:103E600010B5044600220068FFF7C8FF2368154A12
:103E7000934217D002F58062934213D02368196AE7
:103E800041F21112114208D1196A40F24442114222
:103E900003D11A6822F001021A60012384F83D3030
:103EA000002010BD196A41F211121142E6D1196ABF
:103EB00040F244421142E1D15A6C22F400425A6469
:103EC000DCE700BF0000014090F83C30012B1CD023
:103ED00070B4012680F83C60022380F83D3002680F
:103EE0005568936825F070050C682C4323F0800515
:103EF0004B682B4354600268936080F83D60002358
:103F000080F83C30184670BC7047022070477047FC
:103F100070470268D36823F0C003D360202380F881
:103F2000393070470268D36823F49073D360026815
:103F3000536923F001035361202380F83A3070471E
:103F400090F83930DBB2212B2AD18368B3F5805F3A
:103F500016D0036A5A1C02621A7803685A60C38C2E
:103F6000013B9BB2C384EBB90268D36823F08003A2
:103F7000D3600268D36843F04003D36000207047E9
:103F8000036A1B880268C3F30803536003691BB903
:103F9000036A02330362E2E7036A01330362DEE786
:103FA00002207047002070472DE9F843044602685C
:103FB000136923F44053C1680B431361836802699A
:103FC000134342691343C2691A430168CB6823F45F
:103FD000164323F00C031343CB600268536923F4A8
:103FE000407381690B435361C369B3F5004F60D0DF
:103FF0000368B84A934200F0148102F5806293424C
:1040000000F00F81FFF77EF900EB800000EB8000ED
:104010006568AD00B0FBF5F5AF4FA7FB05356D0941
:104020002E01FFF76FF900EB800000EB8000656860
:10403000AD00B0FBF5F9FFF765F900EB800000EB90
:1040400080006568AD00B0FBF5F5A7FB05356D098F
:104050004FF0640808FB15952D013235A7FB053597
:104060006D0905F0F0053544FFF74CF900EB8000D1
:1040700000EB80006668B600B0FBF6F6FFF742F989
:1040800000EB800000EB800063689B00B0FBF3F066
:10409000A7FB0030400908FB10684FEA081808F138
:1040A0003208A7FB0837C7F3431723682F449F60E4
:1040B0000DE10368874A93425BD002F58062934228
:1040C00057D0FFF71FF900EB800000EB8000656818
:1040D0006D00B0FBF5F5804FA7FB05356D092E018E
:1040E000FFF710F900EB800000EB800065686D00C1
:1040F000B0FBF5F9FFF706F900EB800000EB80005C
:1041000065686D00B0FBF5F5A7FB05356D094FF04F
:10411000640808FB1595ED003235A7FB05356D09E0
:104120006D0005F4F8753544FFF7ECF800EB8000FE
:1041300000EB800066687600B0FBF6F6FFF7E2F869
:1041400000EB800000EB800063685B00B0FBF3F3E2
:10415000A7FB03235B0908FB13684FEAC80808F1B3
:104160003208A7FB0837C7F3421723682F449F6024
:10417000ADE0FFF7D7F800EB800000EB800065684A
:104180006D00B0FBF5F5544FA7FB05356D092E0109
:10419000FFF7C8F800EB800000EB800065686D0059
:1041A000B0FBF5F9FFF7BEF800EB800000EB8000F4
:1041B00065686D00B0FBF5F5A7FB05356D094FF09F
:1041C000640808FB1595ED003235A7FB05356D0930
:1041D0006D0005F4F8753544FFF7A4F800EB800096
:1041E00000EB800066687600B0FBF6F6FFF79AF801
:1041F00000EB800000EB800063685B00B0FBF3F332
:10420000A7FB03235B0908FB13684FEAC80808F102
:104210003208A7FB0837C7F3421723682F449F6073
:1042200055E0FFF77FF800EB800000EB8000656849
:10423000AD00B0FBF5F5284FA7FB05356D092E0144
:10424000FFF770F800EB800000EB80006568AD00C0
:10425000B0FBF5F9FFF766F800EB800000EB80009B
:104260006568AD00B0FBF5F5A7FB05356D094FF0AE
:10427000640808FB15952D013235A7FB05356D093E
:1042800005F0F0053544FFF74DF800EB800000EB3A
:1042900080006668B600B0FBF6F6FFF743F800EB67
:1042A000800000EB800063689B00B0FBF3F0A7FB8D
:1042B0000030400908FB10684FEA081808F132087E
:1042C000A7FB0837C7F3431723682F449F60BDE857
:1042D000F88300BF001001401F85EB512DE9F0412C
:1042E00005460F4616469846069C2B681B6837EA1B
:1042F00003030CBF01230023B3421DD1B4F1FF3FE0
:10430000F3D02CB1FCF73CFEA0EB0800A042ECD9A6
:104310002A68D36823F4D073D3602A68536923F0E2
:1043200001035361202385F8393085F83A300023A2
:1043300085F83830032000E00020BDE8F08158B354
:1043400010B5044690F839300BB3242384F8393083
:104350002268D36823F40053D3602046FFF724FE7D
:104360002268136923F4904313612268536923F090
:104370002A0353612268D36843F40053D3600020BA
:10438000E063202384F8393084F83A3010BD80F897
:10439000383003F071FBD8E7012070472DE9F04178
:1043A00082B01E4690F83A30DBB2202B5AD1044638
:1043B0000D469046002959D0002A59D090F838303F
:1043C000012B57D0012380F838300023C363222308
:1043D00080F83A30FCF7D4FD0746A4F82C80A4F806
:1043E0002E801DE000963B46002220212046FFF74C
:1043F00075FF002840D1236933B923685B68C3F394
:10440000080325F8023B0BE023685B68DBB225F864
:10441000013B05E023685B6803F07F032B700135E7
:10442000E38D9BB2BBB1E38D013B9BB2E385A368F7
:10443000B3F5805FD6D000963B460022202120466F
:10444000FFF74CFFD0B92369002BE3D123685B68E9
:104450002B700135E4E7202384F83A30002084F8FB
:10446000380000E0022002B0BDE8F0810120FAE748
:104470000120F8E70220F6E70320F4E70320F2E743
:1044800038B590F83940E4B2202C31D1002931D030
:10449000002A31D090F83830012B2FD01346044633
:1044A000012280F8382001628384C3840025C5631B
:1044B000212280F83920026B1148D063226B114809
:1044C0001064226B1048D064226B15652268043298
:1044D000206BFDF707FA23686FF040021A6084F83A
:1044E00038502268536943F080035361284600E046
:1044F000022038BD0120FCE70120FAE70220F8E79E
:104500000D450008594500080346000808B5836BAF
:104510000268126812F4807F0CD10022DA841968D4
:104520004A6922F080024A611A68D36843F0400366
:10453000D36008BD184602F0FFFEFAE708B501682F
:10454000CB6823F04003CB60202380F8393002F0A1
:10455000F3FE002008BD704708B5806BFFF7FBFF36
:1045600008BD704708B590F83A30DBB2222B45D130
:104570008368B3F5805F0ED0036903BB03685A6894
:10458000836A591C81621A70C38D013B9BB2C3853B
:10459000F3B1002033E0826A036943B903685B68C2
:1045A000C3F308031380836A02338362ECE7036872
:1045B0005B68DBB21380836A01338362E4E70368DC
:1045C0005B68826A511C816203F07F031370DBE732
:1045D0000268D36823F02003D3600268D36823F411
:1045E0008073D3600268536923F001035361202371
:1045F00080F83A30FFF7B5FF002000E0022008BD48
:10460000704710B5846B23685A6994F83930DBB26F
:10461000212B10D023685A6902F0400294F83A30F6
:10462000DBB2222B11D0E36B43F01003E36320468F
:10463000FFF7E6FF10BD02F08002002AEAD0002357
:10464000E3842046FFF765FCE4E7002AEBD0002373
:10465000E3852046FFF766FCE5E7000010B5044659
:1046600002681368D168526913F00F0005D113F086
:10467000200F02D011F0200F53D1002867D012F084
:10468000010202D111F4907F61D013F0010F06D026
:1046900011F4807F03D0E06B40F00100E06313F081
:1046A000040F04D01AB1E06B40F00200E06313F095
:1046B000020F04D01AB1E06B40F00400E06313F085
:1046C000080F04D01AB1E26B42F00802E263E26B19
:1046D000002A48D013F0200F02D011F0200F24D16F
:1046E00023685B6903F04003E26B12F0080F00D10E
:1046F0003BB32046FFF716FC23685A6912F0400FBF
:104700001BD05A6922F040025A61636B8BB11A4A7E
:104710001A65606BFDF720F928B3606B036D98474D
:1047200021E02046FFF71EFF1DE02046FFF71AFF9D
:10473000D6E72046FFF764FF15E02046FFF760FF4D
:1047400011E02046FFF75CFF0023E3630BE013F06A
:10475000800F02D011F0800F06D113F0400F02D06D
:1047600011F0400F04D110BD2046FFF7E9FBFAE736
:104770002046FFF7E3FEF6E77D47000808B5806BAB
:104780000023C385C384FFF73BFF08BD80B582B01B
:1047900000AF78600B46FB707B68FA781A707B6814
:1047A00000225A70786800F0D9F82C48FFF713F906
:1047B0002A4B1B6800225A627B681B7819467B686B
:1047C0005B7818467A680B469B000B4499000B44B3
:1047D00003440433DB0013445B684FF47A7202FB3A
:1047E00003F21E4B1B68DA627B681B7819467B68F4
:1047F0005B7818467A680B469B000B4499000B4483
:1048000003440433DB0013445B684FF47A7202FB09
:1048100003F31A46114BDA607B681B7819467B68F4
:104820005B7818467A680B469B000B4499000B4452
:104830000344043332F933301946786800F078F8CD
:104840007B685B780133DAB27B685A700348FFF704
:10485000B1F800BF0837BD4680BD00BFE80F00209B
:1048600080B582B000AF78607B685A787B681B782F
:1048700019467B680B449B789A424BD27B681B7825
:1048800019467B685B7818467A680B469B000B4498
:1048900099000B440344043332F9333019467868E5
:1048A00000F06AF87B681B7819467B685B781846CD
:1048B0007A680B469B000B4499000B440344043375
:1048C000DB0013445B684FF47A7202FB03F2174B70
:1048D0001B68DA627B681B7819467B685B78184630
:1048E0007A680B469B000B4499000B440344043345
:1048F000DB0013445B684FF47A7202FB03F31A4641
:104900000A4BDA607B685B780133DAB27B685A70F5
:10491000002306E0786800F021F80448FFF75BF810
:10492000012318460837BD4680BD00BFE80F0020B0
:1049300080B582B000AF78600B467B80B7F902305B
:104940001946786800F018F800210348FFF768FA64
:1049500000BF0837BD4680BD680F002080B582B01B
:1049600000AF786000210348FFF77AFA00BF0837EC
:10497000BD4680BD680F002080B483B000AF786072
:104980000B467B80204B1B6800225A62B7F902302D
:1049900007EE903AB8EEE77ADFED1C6AC6EE877A4A
:1049A000FCEEE77A17EE903A9AB2174B1B68DA6280
:1049B000B7F9023007EE903AB8EEE77ADFED136A06
:1049C000C6EE877AFCEEE77A17EE903A9BB21A466B
:1049D0000D4BDA60B7F9023007EE903AF8EEE77A5D
:1049E00037EEA77ADFED096AC6EE877AFCEEE77A42
:1049F00017EE903A9AB2044B1B685A6300BF0C370B
:104A0000BD465DF8047B7047680F002000247449A0
:104A100080B58AB000AF00233B6000237B60002399
:104A2000BB600023FB6000233B6100237B6101230B
:104A3000FB610023BB6101233B623B4619461548DD
:104A4000FCF75EFB0346002B14BF01230023DBB2FF
:104A5000002B02D0104803F0F7F80E48FCF7E6FBF5
:104A600002210C48FCF7AAFC0C4B1B6803F5587399
:104A700000220021184600F0FCFA084B1B6803F5E1
:104A800058730749184600F01DFA00BF2837BD4685
:104A900080BD00BF980E002058BB0008580E0020B3
:104AA00070BB000880B582B000AF7860244B254A07
:104AB00000217868FCF7E8FB234B01221A70234B96
:104AC0001B6803F52273184600F0A4FB1F4B1B68FC
:104AD00003F53A73184600F001FC1C4B1B6803F504
:104AE000E273184600F09CFC184B1B6803F5017339
:104AF000184600F04DFC154B1B6803F5197318465A
:104B000000F062FB114B1B6803F5B85310331846D5
:104B100000F00AFC0E4B1B68142B08DD4FF480716B
:104B20000C48FDF703F90A4B00221A6004E0084B19
:104B30001B680133064A136000BF0837BD4680BDBD
:104B4000D4090020DC090020F8090020580E0020BC
:104B5000FC0900200008024080B483B000AF7860F8
:104B600000BF0C37BD465DF8047B704780B483B04E
:104B700000AF786000BF0C37BD465DF8047B70471E
:104B800080B582B000AF78603F4B1B689B6903F033
:104B900070027B68DA603C4B1B689B6903F0020380
:104BA000002B14BF01230023DBB2002B68D0374B4E
:104BB0001B6803F55873184600F007FA334B1B685F
:104BC00003F5587300220021184600F052FA2F4BCB
:104BD0001B6803F558732E49184600F073F92B4BE8
:104BE0001B6803F5587300220121184600F041FAB2
:104BF0007B68DB68013B042B39D801A252F823F013
:104C0000154C0008274C0008394C00084B4C000894
:104C10005D4C00081D4B1B6803F558731D49184671
:104C200000F050F92CE0194B1B6803F558731A4932
:104C3000184600F047F923E0144B1B6803F558733E
:104C40001649184600F03EF91AE0104B1B6803F5B0
:104C500058731349184600F035F911E00B4B1B68E7
:104C600003F558730F49184600F02CF908E0074B7C
:104C70001B6803F558730C49184600F023F9FFE749
:104C800000BF0837BD4680BD980E0020580E00209A
:104C900084BB000894BB0008A0BB0008ACBB0008A4
:104CA000B8BB0008CCBB0008E0BB000880B588B0EA
:104CB00000AFF860B9603B601346FB71644B93F83A
:104CC0002030FB77624B1B689B68BB61FB7F012B2D
:104CD00003D0FB7F022B40F0A880BB6903F0806308
:104CE000002B0AD1BB6903F00063002B05D1BB691F
:104CF00003F08053002B00F08980BB691B0E03F08A
:104D000003037B617B69022B0ED9514B5B6A43F431
:104D100000034F4A5362FB6801225A72F868FFF79A
:104D20002FFF4FF0FF338EE0FB681B69002B0CD187
:104D3000BB685A05FB685B69454909681A437B698A
:104D400018331B010B441A600EE0BB68DA00FB68E5
:104D50001B691A43FB685B693D4909681A437B6913
:104D600018331B010B441A60394B1968FA797B69B7
:104D700018331B010B4404331A603B6807331B785C
:104D80001A063B6806331B781B041A433B6805333D
:104D90001B781B0213433A680432127810462C4ADF
:104DA000116843EA00027B691B010B4403F5C673DB
:104DB0001A603B6803331B781A063B6802331B7882
:104DC0001B041A433B6801331B781B0213433A68E8
:104DD000127810461E4A116843EA00027B691B01E3
:104DE0000B4403F5C4731A60194B1A687B691833B6
:104DF0001B0113441B68164A116843F001027B69CA
:104E000018331B010B441A6000231CE0104B5B6A33
:104E100043F400130E4A5362FB6801225A72F86889
:104E2000FFF7AEFE4FF0FF330DE0094B5B6A43F432
:104E30008023074A5362FB6801225A72F868FFF721
:104E40009FFE6FF0010318462037BD4680BD00BFAE
:104E5000980E002080B582B000AF78607B681B6838
:104E60000B4A934203D10B4B01221A700BE07B6873
:104E70001B68094A934206D1084B1B6803F5597316
:104E80001846FFF7EDFC00BF0837BD4680BD00BFE8
:104E900000100040000A002000140040580E0020BE
:104EA00080B582B000AF7860054B1B6803F51973BD
:104EB000184600F089F900BF0837BD4680BD00BF25
:104EC000580E002080B58AB002AF7860396007F1D3
:104ED000080300221A605A609A60DA601A7401238B
:104EE000FB6140233B723B681B78002B0DD03B6875
:104EF0005A1C3A60197807F10802FB6913440A4604
:104F00001A70FB690133FB61EDE77B681868FB6988
:104F100099B207F10802C82300930B467821FDF7E8
:104F2000C7FA00BF2037BD4680BD80B586B002AF4E
:104F300078600B46FB7000233B73FB787B737B68C8
:104F4000186807F10C020F23009302237821FDF764
:104F5000AFFA00BF1037BD4680BD80B582B000AF4C
:104F6000786039602A217868FFF7DFFF7921786857
:104F7000FFF7DBFF81217868FFF7D7FF3B68DBB2E3
:104F800019467868FFF7D1FF78217868FFF7CDFFE1
:104F900028217868FFF7C9FF6420FBF7F7FF00BFFF
:104FA0000837BD4680BD80B582B000AF78607868B4
:104FB00000F08BF80121786800F013F8786800F0B1
:104FC00004F800BF0837BD4680BD80B582B000AF91
:104FD000786001217868FFF7A8FF00BF0837BD4659
:104FE00080BD80B582B000AF78600B46FB70FB7867
:104FF000002B07D00F217868FFF797FF0A20FBF7F7
:10500000C5FF06E00B217868FFF78FFF0A20FBF74A
:10501000BDFF00BF0837BD4680BD80B584B000AF7E
:105020007860084611461A460346FB700B46BB7073
:1050300013467B7008233B73FB789B005BB243F005
:1050400008035AB2BB785B005BB213435AB297F9BC
:10505000013013435BB2DBB23B733B7B194678688C
:10506000FFF763FF0A20FBF791FF00BF1037BD4633
:1050700080BD80B584B000AFF860B9607A60BB686D
:10508000002B0BD17B68132B08DC7B68DBB2803BE9
:10509000DBB21946F868FFF748FF12E0BB68012B46
:1050A0000BD17B68132B08DC7B68DBB2603BDBB287
:1050B0001946F868FFF739FF03E08021F868FFF729
:1050C00034FF00BF1037BD4680BD80B582B000AF51
:1050D000786002217868FFF728FF00BF0837BD46D7
:1050E00080BD000080B586B000AFF860B96013469F
:1050F00087ED000AFB713B461B783B757B787B751F
:10510000BB78BB75FB78FB75FB685868BB681B01F7
:10511000FA6812881343194607F11403FA79FFF766
:10512000C5FD0346002B14BF01230023DBB2002B77
:1051300002D04FF0FF3312E0FB68DB68142B08DD70
:105140004FF400710848FCF7F1FDFB680022DA60BB
:1051500004E0FB68DB685A1CFB68DA600023184631
:105160001837BD4680BD00BF0008024080B584B03E
:1051700000AF78600023FB739FED0F0A00224421EB
:105180007868FFF7AFFFFB7B002B0DD17B681B8896
:1051900019460A4802F058FD094B1B681B09442BAD
:1051A000F1D10123FB73EEE7064802F04DFD00BF8D
:1051B0001037BD4680BD00BF00000000F0BB0008F6
:1051C000DC0900200CBC000880B485B000AF78601A
:1051D0000E4B5B68752B12D10023FB60FB68072B1D
:1051E0000DDC0B4AFB6813441B7819B27B68FA6824
:1051F000043223F81210FB680133FB60EEE700BFB6
:105200001437BD465DF8047B704700BFDC09002001
:10521000D409002080B483B000AF7860214B5B6874
:1052200043F21012934220D11F4B204A12781A7079
:105230001F4B1E4A52781A701E4B1C4A92781A70E5
:105240001D4B1A4AD2781A701C4B184A12791A70E0
:105250001B4B164A52791A701A4B144A92791A70DB
:10526000194B124AD2791A7015E00E4B5B6843F263
:10527000201293420FD1154B0C4A12781A70144B1E
:105280000A4A52781A70134B084A92781A70124BD5
:10529000064AD2781A7000BF0C37BD465DF8047B11
:1052A000704700BFDC090020040A0020D409002058
:1052B000050A0020060A0020070A0020080A00202C
:1052C000090A00200A0A00200B0A00200C0A00200C
:1052D0000D0A00200E0A0020110A002080B483B0BD
:1052E00000AF78600D4B5B6843F20122934204D11A
:1052F0000B4B1A780B4B1A7009E0084B5B6843F2B2
:105300000222934203D1064B5A78064B5A7000BFD3
:105310000C37BD465DF8047B704700BFDC090020F8
:10532000D40900201C0A002080B483B000AF78604C
:10533000154B5B684AF2101293421FD1134B1B7836
:105340009AB27B689A81114B5B789AB27B68DA815A
:105350007B6810330D4A92781A707B6810330133E2
:105360000A4AD2781A707B681233084A12791A7086
:105370007B6812330133054A52791A7000BF0C372B
:10538000BD465DF8047B7047DC090020D40900208D
:1053900080B483B000AF7860174B5B687A689288FE
:1053A00042F4A05292B293421FD1144B144A127885
:1053B0001A70144B124A52781A70134B104A927892
:1053C0001A70124B0E4AD2781A70114B0C4A12798D
:1053D0001A70104B0A4A52791A700F4B084A927988
:1053E0001A700E4B064AD2791A7000BF0C37BD46B0
:1053F0005DF8047B704700BFDC090020200A002014
:10540000D4090020210A0020240A0020250A0020B7
:10541000280A0020290A00202C0A0020310A002036
:1054200080B483B000AF78602B4B5B6841F2101200
:1054300093422ED17B682833284A12781A707B68F1
:1054400028330133254A52781A707B682833023397
:10545000224A92781A707B68283303331F4AD27825
:105460001A707B682C331D4A12791A707B682C33B2
:1054700001331A4A52791A707B682C330233174A67
:1054800092791A707B682C330333144AD2791A70DC
:105490001BE0114B5B68B3F5895F16D17B68303335
:1054A0000E4A12781A707B68303301330B4A5278F7
:1054B0001A707B6830330233084A92781A707B681E
:1054C00030330333054AD2781A7000BF0C37BD461B
:1054D0005DF8047B704700BFDC090020D409002080
:1054E00008B50D480D4B036005234360002383601E
:1054F000C3604FF4C0220261436103760122427609
:105500008376C27603774277FBF754FD00B908BD76
:1055100002F054F8FBE700BF980E00200064004042
:1055200010B588B000230393049305930693079363
:105530000268214B9A4201D008B010BD00240194AA
:1055400003F5EA331A6C42F000721A641A6C02F026
:1055500000720192019A02941A6B42F001021A63DE
:105560001B6B03F001030293029B4FF4C0530393A0
:1055700002230493032306930923079303A90F48E7
:10558000FCF7F0FA224621461420FCF771F81420AB
:10559000FCF7A2F8224621461520FCF769F81520F1
:1055A000FCF79AF8224621461620FCF761F81620EF
:1055B000FCF792F8C0E700BF006400400000024022
:1055C00000B583B000210191094B1A6B42F400121F
:1055D0001A631B6B03F400130193019B0A4611200D
:1055E000FCF746F81120FCF777F803B05DF804FBF0
:1055F0000038024080B582B000AF7860094A7B680D
:10560000C2F810347968074800F07CF8054B002296
:10561000C3F80C24034B0022C3F8142400BF08373E
:10562000BD4680BD400A002090B585B000AF03465E
:10563000FB71FB791946144800F084F8124BD3F83B
:105640000C34002B1BD1104800F0B1F80346FB814D
:10565000FB890D4AC2F814340B4B0122C3F80C2409
:10566000094BD3F81044084800F0C4F803461A4622
:10567000054B1344FA8919462046FEF701FF00BF87
:105680001437BD4690BD00BF400A002090B585B0DC
:1056900000AF78601A4BD3F810347A689A422BD155
:1056A000174BD3F814341946154800F0B0F81448D5
:1056B00000F07DF80346FB81FB89002B17D0FB89A6
:1056C0000F4AC2F814340E4B0122C3F80C240C4BC1
:1056D000D3F810440A4800F08DF803461A46084BE8
:1056E0001344FA8919462046FEF7CAFE05E0044B2A
:1056F0000022C3F80C2400E000BF1437BD4690BD63
:10570000400A002080B483B000AF786039607B68C5
:105710004FF48062A3F800247B680022A3F80224DF
:105720007B680022A3F804247B680022A3F80624E7
:105730007B683A68C3F8082400BF0C37BD465DF8A3
:10574000047B704780B485B000AF78600B46FB7077
:105750007B68B3F802340133FB817B68B3F8003413
:10576000FA899A4201D30023FB817B68B3F80434A1
:10577000FA899A4209D17B68B3F8063401339AB2A8
:105780007B68A3F8062401230BE07B68B3F802349E
:1057900019467B68FA785A547B68FA89A3F8022480
:1057A000002318461437BD465DF8047B704780B46B
:1057B00083B000AF78607B68B3F802247B68B3F8ED
:1057C00004349A4208D37B68B3F802341A467B68E3
:1057D000B3F80434D31A07E07B68B3F800341A46F0
:1057E0007B68B3F80434D31A18460C37BD465DF80D
:1057F000047B704780B483B000AF78607B68B3F8F7
:10580000043418460C37BD465DF8047B704780B4FD
:1058100083B000AF786039603B68002B19DD7B688E
:10582000B3F8043401337A68B2F80024934204DBFD
:105830007B680022A3F8042407E07B68B3F80434F3
:1058400001339AB27B68A3F804243B68013B3B60B8
:10585000E2E700BF0C37BD465DF8047B70470000EF
:10586000F0B58BB00024059406940794089409942D
:1058700001942B4B1A6B42F004021A631A6B02F06C
:1058800004020192019A02941A6B42F080021A6398
:105890001A6B02F080020292029A03941A6B42F091
:1058A00001021A631A6B02F001020392039A049434
:1058B0001A6B42F002021A631B6B03F0020304939B
:1058C000049B184F22464FF4D0713846FCF728FA53
:1058D000154D22464FF440712846FCF721FA4FF44B
:1058E00000530593114B0693079405A92846FCF72E
:1058F00039F94FF4D073059301260696079408945E
:1059000005A93846FCF72EF94FF440730593069627
:105910000794089405A92846FCF724F90BB0F0BDBC
:105920000038024000000240000802400000211040
:1059300008B50B480B4B03600B4B4360002383609F
:10594000C3604FF48042026143618361C3610362BB
:10595000FCF7DEFC00B908BD01F030FEFBE700BF3C
:10596000C00E002000540040A086010008B50B487E
:105970000B4B03600B4B436000238360C3604FF409
:105980008042026143618361C3610362FCF7C0FC32
:1059900000B908BD01F012FEFBE700BF140F0020A4
:1059A00000580040801A06002DE9F0438BB0002318
:1059B000059306930793089309930368434A934218
:1059C00005D0434A934238D00BB0BDE8F0830024A1
:1059D0000094404D2B6B43F002032B632B6B03F0C1
:1059E00002030093009B4FF4407305931223069328
:1059F00001230793032308930423099305A9364839
:105A0000FCF7B0F801942B6C43F400132B642B6C5F
:105A100003F400130193019B224621461F20FBF74C
:105A200027FE1F20FBF758FE224621462020FBF7C9
:105A30001FFE2020FBF750FEC6E700250295254CEF
:105A4000236B43F002032363236B03F002030293EF
:105A5000029B0395236B43F004032363236B03F042
:105A600004030393039B4FF4806305934FF01209E3
:105A7000CDF818904FF00108CDF81C800327089747
:105A80000426099605A91448FCF76CF84FF48053D6
:105A90000593CDF81890CDF81C800897099605A9B4
:105AA0000E48FCF75FF80495236C43F480032364ED
:105AB000236C03F480030493049B2A462946212087
:105AC000FBF7D6FD2120FBF707FE7DE700540040E1
:105AD0000058004000380240000402400008024024
