:020000040800F2
:100000000000022085410008013D0008053D000870
:10001000093D00080D3D0008113D000800000000EA
:10002000000000000000000000000000153D000876
:10003000193D0008000000001D3D0008213D00089A
:10004000D5410008D5410008D5410008D541000838
:10005000D5410008D5410008D5410008D541000828
:10006000D5410008D5410008D5410008D541000818
:10007000D5410008D5410008D5410008D541000808
:10008000253D0008313D0008D5410008D541000854
:100090003D3D0008493D0008553D0008D541000898
:1000A000D5410008D5410008D5410008D5410008D8
:1000B000D5410008D5410008D5410008D5410008C8
:1000C000D5410008D5410008D5410008D5410008B8
:1000D000D5410008D5410008D5410008D5410008A8
:1000E000D5410008D5410008D5410008D541000898
:1000F000D5410008D5410008D5410008D541000888
:10010000D5410008D5410008D5410008D541000877
:10011000D5410008D5410008613D00086D3D00084B
:10012000D5410008D5410008D5410008D541000857
:10013000D54100080000000000000000D541000883
:10014000D5410008D5410008D5410008D541000837
:10015000D5410008D5410008D5410008D541000827
:10016000D5410008D5410008D5410008D541000817
:10017000D5410008D5410008D54100080000000025
:1001800000000000D5410008000000000000000051
:10019000D54100080000000000000000D541000823
:1001A000000000000000000000000000D541000831
:1001B000D5410008D5410008D5410008D5410008C7
:0401C000D54100081D
:1001C40010B5054C237833B9044B13B10448AFF38D
:1001D40000800123237010BD0001002000000000F6
:1001E400E842000808B5034B1BB103490348AFF3C9
:1001F400008008BD0000000004010020E84200085F
:1002040053B94AB9002908BF00281CBF4FF0FF3179
:100214004FF0FF3001F0F6B8ADF1080C6DE904CEF3
:1002240000F006F8DDF804E0DDE9022304B07047CD
:100234002DE9F0478C460D460446089E002B51D10B
:100244008A4217466DD9B2FA82FEBEF1000F0BD076
:10025400CEF1200C01FA0EF520FA0CFC02FA0EF78E
:100264004CEA050C00FA0EF44FEA174A250CBCFBC5
:10027400FAF81FFA87F90AFB18CC45EA0C4508FB83
:1002840009F3AB420AD9ED1908F1FF3280F023815A
:10029400AB4240F22081A8F102083D44ED1AA4B219
:1002A400B5FBFAF00AFB105544EA054400FB09F9D2
:1002B400A14509D9E41900F1FF3380F00A81A14571
:1002C40040F2078102383C44A4EB090440EA0840A8
:1002D4000021002E61D024FA0EF4002334607360F0
:1002E400BDE8F0878B4207D9002E54D0002186E860
:1002F40021000846BDE8F087B3FA83F1002940F0F5
:100304008E80AB4202D3824200F2FA80841A65EBFB
:1003140003050120AC46002E3FD086E81010BDE84E
:10032400F08712B90127B7FBF2F7B7FA87FEBEF1DF
:10033400000F34D1EB1B3A0C1FFA87FC0121B3FBED
:10034400F2F8250C02FB183345EA03450CFB08F3CD
:10035400AB4207D9ED1908F1FF3002D2AB4200F2EB
:10036400D1808046ED1AA3B2B5FBF2F002FB105522
:1003740043EA05440CFB00FCA44507D9E41900F149
:10038400FF3302D2A44500F2B8801846A4EB0C0453
:1003940040EA08409DE731463046BDE8F087CEF19B
:1003A400200405FA0EF307FA0EF720FA04F83A0CC3
:1003B40025FA04F448EA0308B4FBF2F14FEA1845BD
:1003C40002FB11441FFA87FC45EA044501FB0CF3C8
:1003D400AB4200FA0EF409D9ED1901F1FF3080F0B7
:1003E4008A80AB4240F2878002393D44EB1A1FFAFF
:1003F40088F5B3FBF2F002FB103345EA034500FB3A
:100404000CF3AB4207D9ED1900F1FF386FD2AB42C0
:100414006DD902383D44EB1A40EA01418FE7C1F13E
:10042400200722FA07F88B4005FA01F448EA03038F
:1004340020FA07FE4FEA134CFD404EEA040EB5FBCA
:10044400FCF94FEA1E440CFB19551FFA83F844EAE1
:10045400054509FB08F4AC4202FA01F200FA01FA7C
:1004640008D9ED1809F1FF3043D2AC4241D9A9F1C2
:1004740002091D442D1B1FFA8EFEB5FBFCF00CFB7C
:1004840010554EEA054400FB08F8A04507D9E418C6
:1004940000F1FF3529D2A04527D902381C4440EA8F
:1004A4000940A4EB0804A0FB02894C45C6464D460E
:1004B40015D312D056B1BAEB0E0364EB050404FA5B
:1004C40007F7CB401F43CC40376074600021BDE880
:1004D400F0871846F8E69046E0E6C245EAD2B8EB63
:1004E400020E69EB03050138E4E72846D7E74046E6
:1004F40091E78146BEE7014678E702383C4445E788
:10050400084608E7A8F102083D442BE703685A00AF
:100514004CBF43F0004323F000431844704700BF2E
:1005240061B32DE9F84F01F1FF3A90460646D146F2
:10053400002707EB090404EBD4746410E500711977
:100544000846FFF7E3FFA245834605F1080030445F
:1005540009D0FFF7DBFFC34500F1FF3005D8404564
:1005640009D2671CE5E7C34505D9A74202D004F1C7
:10057400FF39DEE700210846BDE8F88F08467047DA
:10058400012807D0022807D0044B00280CBF1846C6
:10059400002070470248704702487047890C0008E1
:1005A4008D0C0008910C000830B5244B83B0044630
:1005B4008D1E7BB301A92846AFF3008020B30199B7
:1005C4002A46FFF7ADFF0146F0B1FFF79FFF4B68E6
:1005D400A064012B12D0002B01F1040020DBFFF7F3
:1005E40095FF0023E06423650368002B1CDBFFF701
:1005F4008DFF00232061184603B030BD0023236122
:100604000523184603B030BD00232361092318468F
:1006140003B030BD0A490B48091AC9100191CFE74C
:100624000123E0642365DFE7C3F30360FFF7A8FF5A
:100634000028206114BF00230923DCE70000000028
:10064400B8450008604400080368DA0710B504469A
:1006540006D49B0700F1480009D500F051FC23683B
:10066400590709D51A070ED5DB0613D510BD00F0BE
:100674003FFC23685907F5D404F1D00000F048FC8E
:1006840023681A07F0D404F5A87000F049FC236825
:10069400DB06EBD404F5E870BDE8104000F084BC40
:1006A400036803B103441846704700BF092070472C
:1006B400704700BF70B504460D4608E02B6C6361BB
:1006C4002A462369214601209847082808D1296C25
:1006D4002046FFF769FF06460028EFD003F0B7FD78
:1006E4000728FBD13046296CFFF7E2FF281D00F0F4
:1006F400F3FB00BF2DE9F0470C1D054692460FCCD5
:10070400ADF5727D03AE0FC60FCC0FC60FCC0FC66E
:1007140094E80F0002ACD5F80C80D5F8189086E860
:100724000F0000232846216C2360FFF73DFFBAF138
:10073400000F074614BF0A2609267FB1A36B46F0B3
:1007440010018DE810022A46636401202B46C0473D
:1007540078BB38460DF5727DBDE8F087236C6B617C
:100764004FF4F07221467AA803F066FD2B697AAA49
:10077400294630469847889B82468DE810023146C8
:1007840063642A462B460120C04790B94FF4F072A7
:100794007AA9204603F050FDBAF1080F06D1216C66
:1007A4002846FFF701FF09260746C6E7BAF1070FF7
:1007B40005D0092738460DF5727DBDE8F087384627
:1007C400216CFFF775FF03A800F086FB406C7047AF
:1007D400F0B5CB6B0B640E1D0F4604460FCEF9B07B
:1007E40001AD0FC50FCE0FC50FCE0FC596E80F0094
:1007F4004FF0FF3685E80F00009606E023696A464D
:10080400214698470828054608D110992046FFF745
:10081400CBFE0028F2D0092079B0F0BD6846FFF77E
:1008240013FF062DF7D139462046FFF743FF00BFDB
:1008340030B4DD6BC160826119461D64002230BC96
:1008440058E700BF70B5C66843690B6426B101223E
:10085400FFF750FF03F0FBFC03690A4604460D460C
:10086400014602209847072807D0082803D12946C3
:100874002046FFF71FFF03F0EAFC3046296CFFF720
:1008840017FF281D00F028FBC2681AB1CA6B0A645E
:1008940000222FE79CE700BF704700BF836813B1B5
:1008A400014601201847704700B5042907D8DFE83E
:1008B40001F00309060909000BB90F2A05D9022022
:1008C4005DF804FB01205DF804FB00EB820218468E
:1008D4005368019A13605DF804FB00BF10B584B03F
:1008E400002303AC0A4600941946FFF7DDFF039882
:1008F40004B010BD00B5042907D8DFE801F00309EE
:10090400060909000BB90F2A05D902205DF804FB7A
:1009140001205DF804FB019900EB82020968516033
:1009240018465DF804FB00BF10B584B004AC002386
:1009340044F8042D0A4600941946FFF7DBFF04B07F
:1009440010BD00BFF0B5D36B1364151D07460E46EA
:100954000FCDADF50F7D17AC0FC40FCD0FC40FCD68
:100964000FC495E80F004FF0FF3584E80F0016958B
:1009740010E016A8FFF7D8FF314616A8B84716AA04
:10098400694678B9049B08209847052804460AD08C
:10099400092807D026996846FFF706FE6A460C2107
:1009A4000028E6D0092416A8FFF74EFE20460DF5D0
:1009B4000F7DF0BD2DE9F04F0D46C96C8BB00C1DB9
:1009C400096807919146089400F0030B1E46002B1A
:1009D40060D10902032307918DF825608DF8243036
:1009E4002B6DBBF1020F08BFAC6B13F0010340D1B8
:1009F400019300F008030393D4F80080B8F1000FCA
:100A040039D0022E43D0B4F8008067880434AB6C2C
:100A140027F0010A0F2148469A44FFF75FFF8245F9
:100A240033D828F001039A4450452CBF00200120FC
:100A34007F0007F0020708F0010847EA0807012FC2
:100A44003ED035D3022F1CD1236823F000420292FA
:100A5400BBF1000F76D128B1039900297ED0002A7A
:100A640000F0A680002B77DB029B013304EB8304A8
:100A7400C2E700230193022E3EDDFFF717FE002894
:100A840040D009200BB0BDE8F08F0020D0E76768A4
:100A94000834BCE7022BA3DC0B0CDAB209048DF892
:100AA4002530022304EB820407918DF8243097E764
:100AB400BBF1000F02D0002840F0BD8004349BE756
:100AC400BBF1000F25D1A8B194E80C00991C4FEAA2
:100AD400D272D6D005F158010133069100F0A380FB
:100AE400201DFFF7DDFD06AB01462846AFF300806D
:100AF400002877D108347FE707A9484600F0EEFACA
:100B04000028BED1019B002B5CD108200BB0BDE8AE
:100B1400F08F0D2148462F6AFFF7E0FE8742E9D1A6
:100B2400AB6A9C42E6D12046FFF7F0FC0F21024657
:100B34004846FFF7F9FE48462A460021FFF7F4FE2F
:100B440007209FE70D2148462F6AFFF7C7FE87421B
:100B540058D02368002B87DA043485E7029B3BB323
:100B640005F15803271DCDF810B0DDF80C80DDF831
:100B740008A00596A3461C4602E0B245B04616D02E
:100B840038460694FFF78CFD06AB01460022284642
:100B9400AFF3008008F1010604370028EDD0029B72
:100BA400059E43455C46DDF810B0D2D100E05C46BA
:100BB40048460D21FFF792FE069B2862AC626B62E9
:100BC40006205FE70F214846FFF788FE0E21024604
:100BD4004846FFF7A9FE4846294A0F21FFF7A4FE1D
:100BE40007204FE707460D214846FFF777FE022FFF
:100BF40028621DD12B46069A43F82C2F6B62AC62F7
:100C040006203FE7AB6A9C42A3D104220027A31825
:100C14000299A962EF622A636B632368BB421DDBFE
:100C24000123019320E748460D21FFF757FE286270
:100C3400069B6B62E3E72046FFF768FC0434064634
:100C4400AC632846AFF3008000283FF41AAF48464F
:100C540032460F21FFF768FE072013E708460130EC
:100C640004EB8000FFF752FC0F2102464846FFF7D1
:100C74005BFE48462A463946FFF756FE072001E741
:100C840000000000002395E6012393E6022391E689
:100C9400F0B50446C5B004290DD8DFE801F05303CC
:100CA4000C310F00012B4FEA124695B262D1721932
:100CB400102A40F29B80022045B0F0BD002BFAD1EF
:100CC400102AF8D82368D80600F1C68022AE304630
:100CD400019200F073F9A06B019A0023012505FA33
:100CE40003F1114203D0016846F8231004300133A4
:100CF400042BF4D1A063304600F056F90020DBE762
:100D0400032BD8D1150C97B2EB19102BD3D8236829
:100D14001E0700F1B58022AE304600F023F9ED0045
:100D2400A36B4FB1043D711903EBC70053F8042BB7
:100D340041F8042F8342F9D13046A36300F0F0F860
:100D44000020B9E7002BB6D1A56B97B2201D012670
:100D540006FA03F1394203F1010302D02968016064
:100D64000435102B00F10400F2D112F400503BD1F1
:100D7400A563A1E7052B9ED17719202F9BD80F2EB1
:100D840066D92F46002D3AD12A460027002AA06BA7
:100D940072DD00EBC202014644A800EBC6008C38A9
:100DA40051F8045B40F8045F9142F9D1084697B1C9
:100DB400102E324644A938BF102201EBC202A2F51C
:100DC400C4727900043A00EB810150F8045B42F8E4
:100DD400045F8842F9D1012B48D00F2EA16333D987
:100DE40017B102A800F094F8002065E70F2E3FF633
:100DF40062AF00272268D10717D4002F60D0226881
:100E0400510745D4012B4DD00F2E06D822A80193AB
:100E140000F07AF8019B002FB6D002A8019300F0ED
:100E24007BF8019BC6F11002B0E722F00101052B0B
:100E34002160019320463BD022F0030240F8482B66
:100E440000F05AF8019BD8E722A800F059F8C7E748
:100E5400102FCED9103FCDE723F01003236004F503
:100E6400E870019200F0AAF8019A2FE70431A16317
:100E740022A800F03DF8B7E7002F99D10146AAE770
:100E840023F00803236004F5A87000F06BF842E730
:100E9400204622F0040240F8D02B019300F03CF8E5
:100EA400019BAFE722A8019300F026F8019BB9E764
:100EB40041F0020140F8481B00F026F8019B9CE732
:100EC400012B03D00F2E3FF65FAF9FE722A80193BB
:100ED40000F012F8019B57E700F1340191E8380063
:100EE4009C46A6464CF8045D90E8FF0FE54600BD1D
:100EF40090EC210B704700BF80EC210B704700BFC2
:100F040090EC200B704700BF80EC200B704700BFB3
:100F1400D0EC200B704700BFC0EC200B704700BF23
:100F2400F0EC0201F0EC0211F0EC0221F0EC0231E1
:100F3400F0EC0241F0EC0251F0EC0261F0EC0271D1
:100F4400F0EC0281F0EC0291F0EC02A1F0EC02B1C1
:100F5400F0EC02C1F0EC02D1F0EC02E1F0EC02F1B1
:100F6400704700BFE0EC0201E0EC0211E0EC02216A
:100F7400E0EC0231E0EC0241E0EC0251E0EC026111
:100F8400E0EC0271E0EC0281E0EC0291E0EC02A101
:100F9400E0EC02B1E0EC02C1E0EC02D1E0EC02E1F1
:100FA400E0EC02F1704700BFB0FC0181B0FC01919C
:100FB400B0FC01A1B0FC01B1704700BFA0FC0181ED
:100FC400A0FC0191A0FC01A1A0FC01B1704700BFED
:100FD400EC4600B52DE900502DE9FF1F4FF000034A
:100FE4002DE90C0001A9FFF7F3FBDDF840E012B096
:100FF400704700BFEC4600B52DE900502DE9FF1FF6
:101004004FF000032DE90C0001A9FFF71BFCDDF8EC
:1010140040E012B0704700BFEC4600B52DE9005027
:101024002DE9FF1F4FF000032DE90C0001A9FFF784
:101034002BFCDDF840E012B0704700BFEC4600B571
:101044002DE900502DE9FF1F4FF000032DE90C009E
:1010540001ABFFF7EDFBDDF840E012B0704700BFD5
:10106400EC4600B52DE900502DE9FF1F4FF00003B9
:101074002DE90C0001AAFFF765FCDDF840E012B091
:10108400704700BF027A1AB9437A43B9B020704757
:101094000368013A02721A020260180E704742682D
:1010A400013B10B4437213680321141D01721A0228
:1010B400446002605DF8044B180E704700B585B0BB
:1010C40003AA0023009219460C22FFF7EDFB0398B4
:1010D40005B05DF804FB00BFF0E700BF2DE9F04365
:1010E400064685B00F464FF000083846FFF7CAFFA2
:1010F400B028044623D0050627D400230DF10C099B
:10110400194685000D22CDF800903046FFF7CCFB40
:10111400EDB2039BCDF80090600605F104054CBFC9
:101124005D1BED18002319460D2230460395FFF789
:10113400E1FB3846FFF7A6FFB0280446DBD1B8F13F
:10114400000F00F0958000201CE000F0F003802BDD
:101154005DD0902B19D0A02B2CD0B02B3FD0C02B1E
:101164006CD000F0F803D02B0BD100F00702013251
:1011740042F40022052301213046FFF789FD0028AF
:10118400B3D0092005B0BDE8F08300F00D030D2BAA
:10119400F7D003AD002300F00F0219460095304646
:1011A400FFF782FB0023009519460D223046FFF716
:1011B400A1FB9AE7C24302F007034FF47F621A418E
:1011C400010702F47F624FF0000348BF42F48042FB
:1011D40019463046FFF75CFD0028D2D185E7B128D7
:1011E40057D0B22868D0B32800F0958000F0FC03F3
:1011F400B42BC6D000F007020132012342F40022CE
:1012040019463046FFF744FD0028BAD16DE7384649
:10121400FFF738FF24020443B4F5004FB1D0240192
:101224000023A2B219463046FFF732FD0028A8D1A8
:1012340014F4004F18BF4FF0010856E7C6287DD0BC
:10124400C72800F0868000F0F803C02B00F09480DB
:10125400C82800F09F80C92893D13846FFF712FFB1
:10126400020300F00F0002F470220130024381E710
:1012740003AC43460E22414600943046FFF714FB6C
:101284000094304643460F224146FFF733FB404665
:1012940078E73846FFF7F6FE00283FF472AF10F007
:1012A400F0037FF46EAF024619463046FFF7F0FCB8
:1012B40000287FF466AF18E700230DF10C090D2216
:1012C4001946CDF800903046FFF7EEFA3846FFF79E
:1012D400D9FE02064FF002040CD5039B00F07F00F8
:1012E400A040034438460393FFF7CCFE030604F101
:1012F4000704F2D4039BCDF8009000F07F02A240D3
:1013040003F501740023144419460D223046039456
:10131400FFF7F0FAE9E63846FFF7B4FE010300F000
:101324000F0001F47021421C01230A433046194680
:10133400FFF7AEFC00287FF424AFD6E63846FFF76B
:10134400A1FE010300F00F0001F47021421C0323ED
:10135400EBE73846FFF796FE00283FF412AF10F093
:10136400F0037FF40EAF024604213046FFF790FCF1
:1013740000287FF406AFB8E600F00F020132032321
:1013840042F4202219463046FFF782FC00287FF4FD
:10139400F8AEAAE63846FFF775FE00F0F00200F05A
:1013A4000F031032013343EA0232E3E610B5C36C93
:1013B40084B05A6803208DF80C00DC798DF80D4058
:1013C40012020833084601A901920293FFF786FE30
:1013D40004B010BD08B5FFF77FFE806C08BD00BFE8
:1013E40008B5FFF779FEC06CC37900EB83000830C1
:1013F40008BD00BF08B502F02AFF00BF08B5FFF71B
:10140400F9FF00BF704700BF38B50E4A0E4B127883
:101414001B6805464FF47A70B0FBF2F0B3FBF0F0B2
:1014240000F06EFA08B90F2D01D9012038BD044629
:10143400024629464FF0FF3000F01EFA034B2046C7
:101444001D6038BD000000200800002004000020BA
:1014540008B50B4B1A6842F400721A601A6842F419
:1014640080621A601A6842F480721A60032000F0E5
:10147400F1F90020FFF7C8FF02F020FC002008BDAE
:10148400003C0240034A044B11681B780B44136070
:10149400704700BF5001002000000020014B186875
:1014A400704700BF5001002038B50446FFF7F6FF2F
:1014B400631C054602D0044B1B781C44FFF7EEFF67
:1014C400401B8442FAD838BD000000202DE9F041C9
:1014D40090F82040013C012C06D9436A43F4802350
:1014E40043620120BDE8F081056800295AD02C69C7
:1014F400A4075AD00C012E19D6F8B07107F00407CE
:101504009760002F5FD1D6F8B0717F0D1760D6F8C1
:10151400B0C1D6F8B4E1D6F8B471D6F8B4612544B4
:10152400CCF3400CD5F8B881C2F80CC00EF00F050E
:10153400C7F30727360C15619761566183F800805D
:1015440002682244D2F8B821120A5A70026822446E
:10155400D2F8B821120C9A7002682244D2F8B82149
:10156400120EDA7002682244D2F8BC211A710268A1
:101574002244D2F8BC21120A5A7102682244D2F8D9
:10158400BC21120C9A7102681444D4F8BC21120EC6
:10159400DA71026881B9D36843F020030846D36046
:1015A400BDE8F081EC68A607A4D1436A43F40013B4
:1015B40043620120BDE8F081136943F02003136105
:1015C4000020BDE8F081D6F8B071FF0857609EE7AF
:1015D400704700BF704700BF704700BF704700BF2F
:1015E400704700BF704700BF704700BF704700BF1F
:1015F400704700BF704700BF704700BF704700BF0F
:101604002DE9F84F03685C69D3F804809F68D3F828
:101614000CB0D3F81090D3F818A014F001050646C6
:1016240025D017F0010540F09F804FF480414FF41E
:101634000052F8050DD533684FF480709860BB05EF
:1016440000F1CA80780500F1DA803B0540F1EB80B7
:101654000D46F8030BD533684FF48032B9039A6012
:1016640000F1B6807A0340F1CC8045F400452707A9
:1016740002D51BF0100F71D1600703D51BF0080FC2
:1016840040F08280A10704D53368DB689A0740F0F4
:101694009080630602D519F0100F59D1A70603D51F
:1016A40019F0080F40F08980E00604D533681B69FF
:1016B400990740F08980A20302D518F0100F6AD16F
:1016C400E30302D518F0080F6CD1270405D518F0F0
:1016D400040F0BD1336804225A602DB1736A1D4381
:1016E40075623046FFF78AFFBDE8F88FE00504D540
:1016F4001AF0010F18BF45F00105A10504D51AF031
:10170400020F18BF45F00205620504D51AF0040F54
:1017140018BF45F004052305DCD51AF0700AD9D0AA
:10172400BAF1300F00F08D8070D9BAF1500F00F08B
:101734008580BAF1600F00F08780BAF1400F01D1C3
:1017440045F0400533689A6922F070029A61C2E755
:101754003368102245F480651A619FE733681022CC
:1017640045F40075DA6087E701229A60BB0737D435
:101774007D073DD417F0080559D04FF4A0414FF42C
:1017840040524FF4805554E733680822DA603046FB
:10179400FFF72AFF76E7336810225A603046FFF7D6
:1017A40029FF8DE7336808225A603046FFF724FF8B
:1017B4008BE7304601F0BEFB6BE7336808221A6101
:1017C4003046FFF715FF6FE73046FFF70FFF72E76C
:1017D4003046FFF701FF4AE73046FFF7FBFE38E7E4
:1017E400FFF7F6FE00254FF480414FF4005220E746
:1017F4004FF490414FF420524FF4006519E7154619
:1018040027E73B030BD545F4803530E7BAF1100FD9
:101814001DD0BAF1200F95D145F0100592E730465E
:10182400FFF7E0FE23E73046FFF7DAFE11E7FFF7A4
:10183400D5FE4FF480414FF40052FAE645F080059E
:1018440080E745F020057DE745F480757AE745F0AB
:10185400080577E7074AD3684FF6FF010B400002FB
:1018640043F0BF6300F4E06043F400330343D36008
:10187400704700BF00ED00E0184B70B4DC68C4F39F
:101884000224C4F10706042E04F1040328BF04262D
:10189400062B17D9033C0125A540013D2A4001230D
:1018A400B340013B1940A140002841EA02010CDB8E
:1018B40000F1604000F561400901C9B280F80013ED
:1018C40070BC704700221446E9E7054B00F00F0096
:1018D40009010344C9B2197670BC704700ED00E0F9
:1018E400FCEC00E0002807DB00F01F0101234009A5
:1018F400024A8B4042F82030704700BF00E100E00C
:101904000138B0F1807F0ED2084B10B4084C5860F7
:10191400F02084F823000022072110469A60196001
:101924005DF8044B70470120704700BF10E000E0F1
:1019340000ED00E0F8B50446FFF7B0FD002C73D0CD
:101944000222236884F835201A68002122F001025B
:1019540084F8341005461A6005E0FFF79FFD401B2C
:1019640005283BD823681A68D107F6D4A7686268AB
:10197400E66825696169A0693A4332432A430A4308
:10198400E169256A1F68354E02430A43616A2A43A6
:101994003E40042942EA060227D01A605A6922F01E
:1019A40007021143DAB22E4D5961103AA5FB021217
:1019B40012092C4823F47F73815CE16523F003034F
:1019C400032A88BF04333F228A4001250021A365EE
:1019D40008469A60616584F83550F8BD03232022D7
:1019E4006265184684F83530F8BDE56A216BA66A4D
:1019F40029430A431A605A6946F0040122F0070297
:101A04001143002DCED088B1B0F5005F18D0022E5E
:101A140003D9032EC6D1EA01C4D50123402262654D
:101A2400184684F83530F8BD0120F8BD012E03D0E6
:101A3400F1D3022EB6D1EEE7B5F1C07FB2D1ECE717
:101A4400032EAFD801A252F826F000BF1F1A0008D7
:101A54001B1A00081F1A00083D1A00083F8010F0E6
:101A6400ABAAAAAA20430008F0B583B00023876D6F
:101A74000193C36D3D68624908229A4015420446A9
:101A84000E6803D001680868400776D401229A40A2
:101A9400154203D021684969080668D404229A4093
:101AA400154203D02168096889075AD410229A4044
:101AB400154203D02168086800073FD420229A40C9
:101AC400154203D021680868C00625D4636D0BB3A2
:101AD400636DDA071AD50523216884F835300B685D
:101AE400484A23F00103A2FB06020B60920A02E0BB
:101AF4000B68DB0704D5019B01339A420193F7D2AB
:101B04000022012384F8342084F83530E36C0BB1CF
:101B14002046984703B0F0BDBA6094F83520052AF2
:101B24003BD00B6813F4802F0B6854D019035FD596
:101B3400E36B002BCAD020469847C7E7BA600A680F
:101B440012F4802F0A6822D1D20503D40A6822F045
:101B540008020A60226C002AB0D020469047E36D48
:101B6400ACE7BA60626D42F0040262659EE7BA6057
:101B7400626D42F00202626590E7086820F004009A
:101B84000860BA60626D42F0010262657EE711038B
:101B9400E0D5A26C002AE0D190E70A68206C22F01C
:101BA40016020A604A6922F080024A6120B30A6878
:101BB40022F008020A603F22216D02FA03F300209A
:101BC4000122BB6084F8340084F835200029A1D0B8
:101BD400204688479EE713F48073A9D10A68012040
:101BE40022F010020A6084F8343084F835009FE74C
:101BF400636C002B9FD169E7A26C002AD7D1DAE786
:101C040008000020B5814E1B2DE9F04FD1F800C02B
:101C1400DFF8FC81DFF8FCE183B0002503E0013547
:101C2400102D00F093800123AB4003EA0C02934291
:101C3400F5D14E6826F0100ABAF1020F00F089803F
:101C44004FEA45090324D0F800B004FA09F4E44348
:101C540006F003070BEA040B07FA09F70AF1FF3A47
:101C640047EA0B07BAF1010F076040F29880C76892
:101C74008B683C4003FA09F32343C360F300CED5D9
:101C84004FF00009CDF80490D8F8443043F4804371
:101C9400C8F84430D8F8444025F0030303F18043E6
:101CA40004F4804403F59C33019405F00304019F7C
:101CB400D3F808A0A4000F27A7402AEA070A4E4F2A
:101CC400B8421AD007F58067B8427BD04B4FB84270
:101CD4007DD04B4FB8427FD04A4FB84200F081804C
:101CE400494FB84200F08280484FB8420CBF4FF0D1
:101CF40006094FF0070909FA04F94AEA09079F603F
:101D0400DEF80030D443F70354BF23401343CEF826
:101D14000030DEF80430B70354BF23401343CEF839
:101D24000430DEF80830F70254BF23401343CEF8E2
:101D34000830DEF80C30B60205F1010554BF23402B
:101D44001343102DCEF80C307FF46DAF03B0BDE813
:101D5400F08F4FEAD50900EB890905F00707D9F898
:101D64002040BF004FF00F0B0BFA07FB24EA0B0ACD
:101D74000C69BC4044EA0A04C9F820404FEA45090A
:101D84000324D0F800A004FA09F4E44306F003079E
:101D940004EA0A0A07FA09F747EA0A0707608768A4
:101DA40007EA040ACF6807FA09F747EA0A078760CF
:101DB400D0F804A0C6F300172AEA0303AF401F4378
:101DC400476054E74FF0010909FA04F995E74FF029
:101DD400020909FA04F990E74FF0030909FA04F932
:101DE4008BE74FF0040909FA04F986E74FF0050977
:101DF40009FA04F981E700BF00000240000802402C
:101E0400000C02400010024000140240001802407E
:101E140000380240003C014002B909048161704766
:101E2400436931EA030308BF09048161704700BFB5
:101E3400002800F0A980F8B590F83D30044603F07E
:101E4400FF02002B00F08B802268242384F83D30AD
:101E5400136823F00103136000F03CF961684B4BF5
:101E640099424BD84A4B984277D92268494B5568D6
:101E7400A3FB00639B0C25F03F051D435560156AC9
:101E8400013325F03F052B431362D569490001381E
:101E9400B0FBF1F00130C0F30B0025F44F450428EA
:101EA40038BF042025F0FF052843D0611568E06998
:101EB400266A2169E768636925F0C0053043284331
:101EC40010609068A56920F4034020F0FF003943B6
:101ED40001439160D1682B4321F0FF010B43D36090
:101EE4001168002341F00101202511601846236484
:101EF40084F83D50236384F83E30F8BD264B984265
:101F04002BD92268234B5768DFF890E0A668A3FB1F
:101F140000539D0C27F03F072F434FF496735760EF
:101F240003FB05F3AEFB0353156A9B0925F03F053C
:101F340001332B431362D56925F44F4525F0FF0582
:101F440096B9431E01EB4101B3FBF1F30133C3F333
:101F54000B03BBB143F40040A6E70120F8BD80F8B1
:101F64003C2001F0D9F86FE701EB810303EB830117
:101F7400431EB3FBF1F30133C3F30B0313B143F477
:101F8400404091E701208FE701207047A0860100BF
:101F94007F841E0083DE1B43FF083D00D34D621087
:101FA40060B1484A136803F00F038B4208D2CBB2E6
:101FB4001370136803F00F03994201D00120704796
:101FC40003682DE9F0419D0714D55C0704D53E4C08
:101FD400A26842F4E052A2601A0704D53A4CA268FF
:101FE40042F46042A260384C8568A26822F0F00294
:101FF4002A43A260DF0704460D4622D54268012A1F
:102004005BD0931E012B304B1B6850D9990725D503
:102014002D4EB36823F003031343B360FFF73EFA76
:1020240041F28837804605E0FFF738FAA0EB080054
:10203400B8423FD8B368626803F00C03B3EB820F75
:10204400F2D1204A136803F00F039D4209D2EBB288
:102054001370136803F00F039D4202D00120BDE802
:10206400F08123685A0706D51749E0688A6822F484
:10207400E05202438A601B0707D5134A216993681B
:1020840023F4604343EAC103936000F043F80E4B2A
:102094000E499B680E4AC3F30313CB5C20FA03F387
:1020A40000201360FFF7B0F90020BDE8F08198012B
:1020B400AED4D3E70320BDE8F081034B1B689E0335
:1020C400A6D4CBE7003C0240003802402843000875
:1020D40008000020044B054A9B680549C3F382238A
:1020E4000868D35CD8407047003802403843000881
:1020F40008000020044B054A9B680549C3F342339A
:102104000868D35CD8407047003802403843000860
:1021140008000020284908B58B6803F00C03082B3D
:1021240007D00C2B1DD0254A2548042B18BF104678
:1021340008BD4A684B6813F4800302F03F0230D1B3
:1021440049681E48C1F38811A1FB0001FEF758F845
:10215400194B5B68C3F3014301335B00B0FBF3F03D
:1021640008BD4A684B6813F4800302F03F020ED1A5
:1021740049681248C1F38811A1FB0001FEF740F839
:102184000D4B5B68C3F30273B0FBF3F008BD4B68FF
:102194000B48C3F38813A3FB00010023FEF730F8B8
:1021A400EEE74B680648C3F38813A3FB0001002342
:1021B400FEF726F8CCE700BF003802400024F40004
:1021C40000127A002DE9F0410368DA0782B0044670
:1021D40036D5AA498A6802F00C02042A00F0D68097
:1021E4008A6802F00C02082A00F0CC80A3498A68AD
:1021F40002F00C020C2A00F058816368B3F5803FAA
:1022040000F00581B3F5A02F00F06B819B4D2A6887
:1022140022F480322A602A6822F480222A60002B69
:1022240040F0FA80FFF73AF9064605E0FFF736F981
:10223400801B642800F20E812B689903F6D423686E
:102244009A072FD58D4A916811F00C0F00F0AC80DD
:10225400916801F00C01082900F0A28087498A687E
:1022640002F00C020C2A00F07781E368002B00F0E6
:102274002181834B814D01221A60FFF70FF9064635
:1022840005E0FFF70BF9801B022800F2E3802B68BE
:102294009807F6D52B68226923F0F80343EAC203B2
:1022A4002B6023681A0715D56369002B00F087801B
:1022B400744B724D01221A60FFF7F0F8064605E0F0
:1022C400FFF7ECF8801B022800F2C4806B6F9B07B9
:1022D400F6D52368580720D4A369D3B1674DAA68FB
:1022E40002F00C02082A66D0022B674B4FF0000262
:1022F4001A6000F00081FFF7D1F82C46054605E08E
:10230400FFF7CCF8401B022800F2A48023689B014D
:10231400F6D4002002B0BDE8F081584A136C13F0E3
:10232400805368D00026594D2B68D90540F182802E
:10233400A368012B00F0CF80052B00F08F804F4D58
:102344002A6F22F001022A672A6F22F004022A6708
:10235400002B40F08C80FFF7A1F841F288378046CB
:1023640005E0FFF79BF8A0EB0800B84272D82B6F8A
:102374009807F6D4002EAFD0404A136C23F0805354
:102384001364A9E74A6857027FF530AF3B4A1268E5
:1023940095037FF555AF6268002A7FF451AF0AE0D8
:1023A400526857023FF55AAF344A1268950716D55A
:1023B400E268012A13D0012002B0BDE8F081314A5D
:1023C4002E4D1360FFF76AF8064604E0FFF766F83F
:1023D400801B02283ED86B6F9F07F7D479E7274903
:1023E40020690A6822F0F80242EAC0020A601A0769
:1023F4007FF570AF58E70193136C43F08053136477
:10240400136C03F080530193019B01268BE71B4A55
:10241400136843F480331360FFF740F8174D064602
:1024240004E0FFF73BF8801B642813D82B6898035B
:10243400F7D504E72B6843F480732B60FFF72EF87D
:1024440007462B68DA053FF573AFFFF727F8C01B83
:102454000228F6D9032002B0BDE8F081074B1A6FB9
:1024640042F004021A671A6F42F001021A67FFF77A
:1024740015F8024D804641F288370FE000380240DB
:1024840000004742800E474260004742007000400F
:10249400FFF704F8A0EB0800B842DBD82B6F9B07CA
:1024A400F6D5002E3FF418AF66E74A6856027FF56A
:1024B400A4AE6BE72B4A2C4D1360FEF7EFFF0646E4
:1024C40004E0FEF7EBFF801B0228C3D82B689907B2
:1024D400F7D42368E6E6244A136F43F00103136735
:1024E400C5E7214B1A6842F480221A601A6842F444
:1024F40080321A6090E7FEF7D1FF064604E0FEF74B
:10250400CDFF801B0228A5D82B689901F7D4E36975
:10251400D4F820E0676AE66AA26A206B1349124C79
:1025240043EA0E0343EA871343EA0663520843EA85
:102534000073013A43EA024301226B600A60FEF72A
:10254400ADFF054604E0FEF7A9FF401B022881D831
:1025540023689A01F7D5DCE64A6856023FF585AE52
:1025640022E700BF000047420038024060004742B3
:10257400002800F09880F8B590F83D30044603F048
:10258400FF02002B66D023684849022284F83D20CC
:102594008B421A6863D0B3F1804F72D0A1F57C41AD
:1025A4008B422DD001F580618B4229D001F58061E9
:1025B4008B4225D001F578418B4221D001F5705131
:1025C4008B4239D001F580618B4235D001F58061B1
:1025D4008B4231D0A1F598318B422DD001F5806129
:1025E4008B4229D001F580618B4225D0A569E06832
:1025F400616822F080022A431A60D862996215E069
:10260400A1682669A069E768656822F070020A4338
:1026140022F440722649324322F0800202438B4264
:102624001A60DF629D6201D162691A6301225A61F4
:10263400002084F83D20F8BD2669A069E56861683A
:1026440022F44072324322F0800202431A60DD62B7
:102654009962EBE780F83C2001F07EFC93E7A568E3
:102664002069A16922F070022A4322F440720243D5
:1026740022F080020A431A60E268DA6262689A62AF
:10268400D2E7A6682069A169E768656822F070024C
:10269400324322F44072024322F080020A431A6059
:1026A400DF629D62C2E70120704700BF0000014065
:1026B400000401400368DA6842F00102DA609A68B3
:1026C40002F00702062A03D01A6842F001021A60D7
:1026D40000207047002800F09880F8B590F83D304D
:1026E400044603F0FF02002B66D023684849022207
:1026F40084F83D208B421A6863D0B3F1804F72D0C6
:10270400A1F57C418B422DD001F580618B4229D00B
:1027140001F580618B4225D001F578418B4221D0AF
:1027240001F570518B4239D001F580618B4235D06F
:1027340001F580618B4231D0A1F598318B422DD0C7
:1027440001F580618B4229D001F580618B4225D04F
:10275400A569E068616822F080022A431A60D862A1
:10276400996215E0A1682669A069E768656822F0A6
:1027740070020A4322F440722649324322F0800256
:1027840002438B421A60DF629D6201D162691A635F
:1027940001225A61002084F83D20F8BD2669A06911
:1027A400E568616822F44072324322F080020243F9
:1027B4001A60DD629962EBE780F83C2001F0B6FB19
:1027C40093E7A5682069A16922F070022A4322F4E4
:1027D4004072024322F080020A431A60E268DA621D
:1027E40062689A62D2E7A6682069A169E7686568A9
:1027F40022F07002324322F44072024322F080023B
:102804000A431A60DF629D62C2E70120704700BF7D
:10281400000001400004014090F83C30012B47D0F7
:10282400F0B50223012480F83C4080F83D300C2AA6
:1028340036D8DFE802F06C3535350735353598354F
:1028440035353F000368D1F808E01D6A0F68744EFF
:1028540025F010051D621A6A5D689C6922F0200249
:1028640024F4E644B34242EA0E1244EA072400F098
:10287400BB8006F58066B34200F0B6804E685D60AA
:102884009C619E631A629C690D6944F400649C61B6
:10289400996921F4806199619A6942EA05229A61F1
:1028A4000023012280F83D2080F83C301846F0BD1A
:1028B400022070470368D1F808E01D6A0F68584E7B
:1028C40025F480551D621A6A5D68DC6922F40052A1
:1028D40024F4E644B34242EA0E3244EA07246ED0BA
:1028E40006F58066B3426AD04E685D60DC611E64A2
:1028F4001A62DC690D6944F40064DC61D96921F46D
:102904008061D961DA6942EA0522DA61C8E70368BD
:10291400D1F808E01D6A0F68414E25F001051D62DB
:102924001A6A5D689C6922F0020224F07304B342BF
:1029340042EA0E0244EA070465D006F58066B34213
:1029440061D04E685D609C615E631A629C690D692A
:1029540044F008049C61996921F0040199619A6921
:102964002A439A619CE70368D1F808E01D6A0F685E
:102974002B4E25F480751D621A6A5D68DC6922F4A9
:10298400007224F07304B34242EA0E2244EA0704BC
:102994001BD006F58066B34217D04E685D60DC61DB
:1029A400DE631A62DC690D6944F00804DC61D969EC
:1029B40021F00401D961DA692A43DA6170E74E69CA
:1029C40025F4804545EA86158EE7CE688F6922F4A2
:1029D400006242EA06224E6925F440553E4322F441
:1029E400806245EA0615D8E7CE688F6922F0800236
:1029F40042EA06124E6925F440653E4322F0400245
:102A040045EA86053AE7CE688F6922F00802324328
:102A14004E6925F440753E4322F00402354390E7A5
:102A240000000140704700BF704700BF704700BFFF
:102A3400704700BF03681A69910710B5044602D5B0
:102A4400DA68920762D41A69500702D5DA68510726
:102A540049D41A69120702D5DA68100731D41A6901
:102A6400D20602D5DA68D00618D41A69D10702D57D
:102A7400DA68D2076BD41A69100602D5DA6811062F
:102A84006DD41A69520602D5DA68500657D41A6909
:102A9400910602D5DA68920649D410BD6FF010028F
:102AA4001A61DB69082213F4407F2277204661D142
:102AB400FFF7B8FF2046FFF7B9FF0022236822770B
:102AC400D3E76FF008021A61DB69042299072277C1
:102AD400204655D1FFF7A6FF2046FFF7A7FF0022A7
:102AE40023682277BBE76FF004021A619B69022214
:102AF40013F4407F227720463FD1FFF793FF20460F
:102B0400FFF794FF002223682277A2E76FF0020206
:102B14001A619B6901229B07027728D1FFF782FF84
:102B24002046FFF783FF0022236822778BE76FF0AC
:102B3400200220461A61BDE8104000F047B86FF04B
:102B440040021A612046FFF773FF23689FE76FF086
:102B540001021A61204600F00BFA23688BE76FF03C
:102B640080021A61204600F033F8236889E7FFF7F2
:102B74005BFFD8E7FFF758FF9FE7FFF755FFC1E773
:102B8400FFF752FFABE700BF90F83C20012A1AD0B0
:102B940070B40222046880F83D2003466068A2688D
:102BA4000E684D6822F0800220F0700131432A4300
:102BB4000126002561602846A26083F83D6083F801
:102BC4003C5070BC70470220704700BF704700BF84
:102BD400704700BF2DE9F047046822698246C06847
:102BE400DAF81C10DAF80830DAF81060DAF8145061
:102BF40022F4405202432261E268DAF818003343B7
:102C040022F416422B4322F00C020B431343E360DD
:102C1400636923F440730343B1F5004F6361AB4B25
:102C240061D09C4200F0018103F580639C4200F076
:102C3400FC80FFF74FFAA64FDAF8043000EB80006F
:102C440000EB80009B00B0FBF3F3A7FB03235B09BD
:102C54001D01FFF73FFADAF8043000EB80009B0017
:102C640000EB8000B0FBF3F6FFF734FADAF8042047
:102C740000EB8000930000EB8000B0FBF3F3A7FBB4
:102C840003234FF064095B0909FB13631B0132330F
:102C9400A7FB03235B0903F0F006FFF71BFADAF83E
:102CA400042000EB8000930000EB8000B0FBF3F8FD
:102CB400FFF710FADAF8043000EB80009B0000EB19
:102CC4008000B0FBF3F0A7FB0030400909FB108340
:102CD4001B013233A7FB0323C3F3431333432B44B6
:102CE400A360BDE8F0879C425DD003F580639C42FD
:102CF40059D0FFF7EFF9764FDAF8043000EB800093
:102D040000EB80005B00B0FBF3F3A7FB03235B093C
:102D14001E01FFF7DFF9DAF8043000EB80005B00F6
:102D240000EB8000B0FBF3F5FFF7D4F9DAF80420E8
:102D340000EB8000530000EB8000B0FBF3F3A7FB33
:102D440003235B094FF0640909FB1353DB0032339F
:102D5400A7FB03231B0903F4F875FFF7BBF9DAF8A3
:102D6400042000EB800000EB80005300B0FBF3F87C
:102D7400FFF7B0F9DAF8043000EB800000EB8000D4
:102D84005B00B0FBF3F3A7FB03235B0909FB13838D
:102D9400DB003233A7FB0323C3F3421333442B4436
:102DA400A360BDE8F087FFF7A5F9494FDAF80430CE
:102DB40000EB800000EB80005B00B0FBF3F3A7FBAB
:102DC40003235B091E01FFF795F9DAF8043000EBE1
:102DD40080005B0000EB8000B0FBF3F5FFF78AF99D
:102DE400DAF8042000EB8000530000EB8000B0FB15
:102DF400F3F3A7FB03234FF064095B0909FB1353A7
:102E0400DB003233A7FB03231B0903F4F875FFF738
:102E140071F9DAF8042000EB8000530000EB800025
:102E2400B0FBF3F8FFF766F9A4E7FFF763F9284F5F
:102E3400DAF8043000EB800000EB80009B00B0FB6C
:102E4400F3F3A7FB03235B091D01FFF753F9DAF83A
:102E5400043000EB80009B0000EB8000B0FBF3F635
:102E6400FFF748F9DAF8042000EB8000930000EB48
:102E74008000B0FBF3F3A7FB03234FF064095B0965
:102E840009FB13631B013233A7FB03235B0903F024
:102E9400F006FFF72FF9DAF8042000EB8000930026
:102EA40000EB8000B0FBF3F8FFF724F9DAF8043004
:102EB40000EB800000EB80009B00B0FBF3F3A7FB6A
:102EC40003235B0909FB138302E700BF00100140E1
:102ED4001F85EB5160B338B590F83930044603F0E0
:102EE400FF0203B32268242384F83930D36823F41F
:102EF4000053D3602046FFF76DFE23681A6922F45D
:102F040090421A615A6922F02A025A61DA6800254D
:102F1400202142F40052DA602846E56384F839102F
:102F240084F83A1038BD80F8382001F087F8D9E7E2
:102F34000120704780B582B000AF7860084B094A21
:102F440000217868FEF7C2FA074B01221A7020218B
:102F54000648FEF765FF00BF0837BD4680BD00BFC9
:102F64001C01002024010020400100200000024038
:102F740080B483B000AF78607B681B68054A9342D5
:102F840002D1054B01221A7000BF0C37BD465DF813
:102F9400047B7047001000404401002010B582B04B
:102FA40000240E4B01941A6B42F400121A631B6B3B
:102FB40003F400132246214601931020019BFEF7DF
:102FC4005BFC1020FEF78EFC224621461120FEF702
:102FD40053FC1120FEF786FC02B010BD00380240FD
:102FE4002DE9F0418AB00024364B019406940594EF
:102FF4000794089409941A6B334EDFF8D880334F42
:1030040042F004021A631A6B02F004020192019A5C
:1030140002941A6B42F080021A631A6B02F0800267
:103024000292029A03941A6B42F001021A631A6B19
:1030340002F001020392039A04941A6B42F0020212
:103044001A631B6B03F0020304932246304640F2DA
:103054000331049BFEF7E0FE224640464FF48071A4
:10306400FEF7DAFE22463846F021FEF7D5FE4FF48D
:10307400005205A93046164B059201250693079484
:10308400FEF7C2FD304605A940F2033305930794C9
:1030940008940695FEF7B8FD404605A94FF48073E1
:1030A4000593069507940894FEF7AEFDF02305A951
:1030B40038460695079408940593FEF7A5FD0AB0D3
:1030C400BDE8F081003802400008024000040240DC
:1030D40000002110000002400C4B0D4A10B54FF4C3
:1030E40080410C4C1A60184600225C6019619A6099
:1030F400DA605A619A61DA611A62FEF799FE00B9E0
:1031040010BDBDE8104000F0CFBD00BF7C01002021
:1031140000580040A08601002DE9F0430268274BC7
:1031240089B000249A420494039405940694079465
:1031340002D009B0BDE8F083214D00942B6B2148E7
:1031440043F002032B632B6B03F002030093009BF9
:1031540001942B6B43F004032B632B6B03F00403E8
:1031640001934FF012094FF480634FF001080327D5
:10317400042603A9019A0393CDF81090CDF8148086
:1031840006970796FEF740FD4FF4805303A90E48B7
:103194000393CDF81090CDF8148006970796FEF7A8
:1031A40033FD02942B6C43F480032B642B6C03F4E7
:1031B40080030293029B09B0BDE8F08300580040ED
:1031C40000380240000402400008024080B485B088
:1031D40000AFF860B9607A60FB68183300221A60A7
:1031E4005A60FB68002283F82020FB68002283F8E1
:1031F4002120FB68002283F82220FB6800225A6207
:10320400FB68BA689A62FB687A68DA62FB681846F7
:103214001437BD465DF8047B704780B485B000AFB9
:10322400F860B9601346FB71FB68BA681A60FB79F1
:103234009AB2FB689A80FB6800229A60FB684FF0A0
:103244000002DA60FB6818461437BD465DF8047B5B
:10325400704780B485B000AFF860B9601346FB8056
:10326400FB68BA681A60FB68043300221A605A606B
:10327400FB68FA889A81FB6818461437BD465DF8E6
:10328400047B704780B485B000AFF860B960134622
:10329400FB71FB68BA681A60FB68FA791A71FB68FB
:1032A40018461437BD465DF8047B704780B485B07A
:1032B40000AFF860B9601346FB80FB68BA681A6017
:1032C400FB68043300221A605A60FB68FA889A810A
:1032D400FB6818461437BD465DF8047B7047000050
:1032E40080B485B000AFF860B9607A60FB68BA68F2
:1032F4001A60FB687A685A60FB681A4A9A60FB682D
:103304004FF40062DA60FB68174A1A61FB68164AD8
:103314005A61FB684FF000029A61FB684FF00002AB
:10332400DA61FB68002283F83020FB68002283F80E
:103334003120FB684FF000025A63FB684FF0000233
:103344009A63FB684FF00002DA63FB6800221A6498
:10335400FB6800225A64FB6818461437BD465DF8C2
:10336400047B70479EEF273DB81E853E80B485B030
:1033740000AFF860B9607A60FB68BA681A60FB68ED
:103384007A685A60FB6818461437BD465DF8047BBA
:10339400704780B485B000AFF860B9607A603B6074
:1033A400FB68BA681A60FB687A685A60FB683A6816
:1033B4009A60FB6818461437BD465DF8047B704775
:1033C40080B483B000AF786039607B683A681A6073
:1033D4007B68043300221A60C3F803207B687022E0
:1033E400DA607B6800221A617B6800221A757B68A8
:1033F40018460C37BD465DF8047B704780B582B033
:1034040000AF78607B68002204211846FFF7DEFED7
:103414007B683033022204211846FFF7D7FE7B680D
:103424006033002200211846FFF7D0FE7B689033FA
:10343400796801221846FFF725FF7B68983379687D
:1034440002221846FFF71EFF7B68A0337968032227
:103454001846FFF717FF7B68A833796804221846DB
:10346400FFF710FF7B68B033796805221846FFF731
:1034740009FF7B68B833796806221846FFF702FF14
:103484007B68C033796807221846FFF7FBFE7B6828
:10349400C833796808221846FFF7F4FE7B6803F105
:1034A400D0007B68603301221946FFF7D2FE7B68A7
:1034B40003F1E0007B68603302221946FFF7C9FE7E
:1034C4007B6803F1F0007B68603303221946FFF741
:1034D400C0FE7B6803F580707B6860330422194664
:1034E400FFF7B7FE7B6803F588707B6860330522BD
:1034F4001946FFF7AEFE7B6803F590707B68603376
:1035040006221946FFF7A5FE7B6803F598707B68D1
:10351400603307221946FFF79CFE7B6803F5A07011
:103524007B68603308221946FFF793FE7B6803F536
:10353400A873796801221846FFF7B8FE7B6803F583
:10354400B073796802221846FFF7B0FE7B6803F572
:10355400B873796803221846FFF7A8FE7B6803F561
:10356400C073796804221846FFF7A0FE7B6803F550
:10357400C873796805221846FFF798FE7B6803F53F
:10358400D073796806221846FFF790FE7B6803F52E
:10359400D873796807221846FFF788FE7B6803F51D
:1035A400E073796808221846FFF780FE7B6803F50C
:1035B400E8727B68303319461046FFF701FF7B68D9
:1035C40003F5F47079687B6830331A46FFF788FE98
:1035D4007B6803F50C707B68303301221946FFF7D2
:1035E4001CFE7B6803F510707B6830330222194699
:1035F400FFF713FE7B6803F514707B6830330322F6
:103604001946FFF70AFE7B6803F518707B683033B0
:1036140004221946FFF701FE7B6803F51C707B68E2
:10362400303301221946FFF7A1FE7B6803F51E70B3
:103634007B68303302221946FFF798FE7B6803F556
:1036440020707B68303303221946FFF78FFE7B68B6
:1036540003F522707B68303304221946FFF786FE97
:103664007B6803F524707B68303305221946FFF725
:103674007DFE7B6803F526707B683033062219468D
:10368400FFF774FE7B6803F5287079680123002234
:10369400FFF77FFE7B6803F52B7079680123012215
:1036A400FFF777FE7B6803F52E7079680123022209
:1036B400FFF76FFE7B6803F53170796801230322FD
:1036C400FFF767FE7B6803F53470796801230422F1
:1036D400FFF75FFE7B6803F53770796801230522E5
:1036E400FFF757FE7B6818460837BD4680BD80B497
:1036F40083B000AF786039607B684FF000021A60D5
:103704007B6800229A807B680022DA807B684FF015
:1037140000029A607B683A68DA607B6818460C3766
:10372400BD465DF8047B704780B52DED028B82B0F9
:1037340000AF786087ED000A97ED007ADFED316A1B
:10374400C7EE267A7B68C3ED007A7B6893ED027A34
:103754007B68D3ED007AB4EE677AF1EE10FA40D0CC
:103764007B68DB8801339AB27B68DA807B6800224D
:103774009A807B689B881A464FF6FE739A42E4DC73
:103784007B68DB8807EE903AB8EE677A7B689B88A3
:1037940007EE903AF8EE677AF7EE006A77EEA67ACB
:1037A40027EE278AFEF796FC07EE900AB8EE677AB2
:1037B400C8EE077A7B68C3ED027A7B6893ED027AE0
:1037C4007B68D3ED007AB4EE677AF1EE10FA06D096
:1037D4007B689B8801339AB27B689A80C9E700BFF3
:1037E400B3E77B68DB687A68D288013A5A607B6801
:1037F400DB687A689288DA6000BF0837BD46BDECA2
:10380400028B80BD00007A4480B582B000AF78603E
:103814007B68DB681846FEF7ABFE7B68DB681846FE
:10382400FEF748FF00BF0837BD4680BD80B483B0B3
:1038340000AF0346FB7100BF0C37BD465DF8047B47
:103844007047000080B582B000AF0346FB71FB797E
:10385400002B05D0012201210648FEF7DDFA04E021
:10386400002201210348FEF7D7FA00BF0837BD46FE
:1038740080BD00BF0008024080B582B000AF03469F
:10388400FB71FB79002B05D0012202210648FEF7CB
:10389400C3FA04E0002202210348FEF7BDFA00BF88
:1038A4000837BD4680BD00BF0008024080B584B023
:1038B40000AF78607B6803F0F003FB60FB689BB2A9
:1038C400012219460948FEF7A7FAFB68DB4303F017
:1038D400F003FB60FB689BB2002219460348FEF725
:1038E4009BFA00BF1037BD4680BD00BF00040240F4
:1038F40080B582B000AF03460A46FB711346BB7124
:10390400FB791846FFF7B8FFBB791846FFF7CEFFDF
:103914000120FFF797FF0120FDF7C6FD0020FFF708
:1039240091FF0220FDF7C0FD00BF0837BD4680BDF2
:1039340080B582B000AF03460A46FB711346BB71E3
:10394400FB791846FFF798FFBB791846FFF7AEFFDF
:103954000120FFF777FF0120FDF7A6FD0020FFF708
:1039640071FFBB791B01BB71BB791846FFF79EFF42
:103974000120FFF767FF0120FDF796FD0020FFF708
:1039840061FF00BF0837BD4680BD80B500AF01218F
:103994000020FFF7CDFF00BF80BD80B584B000AF2D
:1039A4000346FB710B46BB7113467B710823FB7303
:1039B400FB79002B03D0FB7B43F00403FB73BB793F
:1039C400002B03D0FB7B43F00203FB737B79002BBA
:1039D40003D0FB7B43F00103FB73FB7B1946002000
:1039E400FFF7A6FF00BF1037BD4680BD80B500AF0E
:1039F4000020FFF71BFF1E20FDF756FD302100209D
:103A0400FFF776FF0520FDF74FFD30210020FFF77B
:103A14006FFF0520FDF748FD30210020FFF768FF08
:103A24000520FDF741FD20210020FFF761FF05205F
:103A3400FDF73AFD20210020FFF75AFF0520FDF78E
:103A440033FD20210020FFF753FF0520FDF72CFD57
:103A5400002200210020FFF7A0FF0520FDF724FD30
:103A6400FFF793FF0520FDF71FFD06210020FFF758
:103A74005FFF2820FDF718FD002200210120FFF739
:103A84008CFF0520FDF710FD00BF80BD80B582B01E
:103A940000AF0346FB71FB7919460120FFF748FF8D
:103AA40000BF0837BD4680BD80B582B000AF7860E6
:103AB4007B681B78002B08D07B681B781846FFF7BF
:103AC400E5FF7B6801337B60F2E700BF0837BD4642
:103AD40080BD80B584B000AF03460A46FB7113462F
:103AE400BB71BB7903F00103DBB29B01DAB2FB7952
:103AF4001344DBB25BB263F07F035BB2FB73FB7B0B
:103B040019460020FFF714FF0A20FDF7CDFC00BF83
:103B14001037BD4680BD000080B5ADF5407D00AFD7
:103B2400FDF796FC0023C7F8FC3200F047F8FFF7D6
:103B340057FAFFF733FA00F049FA00F063FA00F09D
:103B4400ADF900F0CFF900F04DF9FFF7C5FAFFF732
:103B54004DFF04210120FFF7BCFF1448FFF7A4FF29
:103B640007F114031846FFF749FC114A07F114033F
:103B740013603B1D0F491846FFF7B9FD3B1DB1EE1D
:103B8400040A1846FFF7D0FD3B1D1846FFF73CFE1C
:103B9400094B1B78002BFBD0D7F8FC320133C7F854
:103BA400FC32054B00221A70F2E700BF0043000804
:103BB4004C010020D00100204401002080B594B0C5
:103BC40000AF07F11C0334220021184600F02CFB3F
:103BD40007F1080300221A605A609A60DA601A61D9
:103BE40000237B602E4A2E4B1B6C43F080531364DE
:103BF4002B4B1B6C03F080537B607B6800233B6082
:103C0400284A284B1B6843F440431360254B1B6828
:103C140003F440433B603B680123FB614FF4803372
:103C24003B6202237B634FF48003BB630423FB6387
:103C3400A0233B6402237B640223BB640223FB6452
:103C440007F11C031846FEF7BDFA0346002B14BF08
:103C540001230023DBB2002B01D000F025F80F2351
:103C6400BB600223FB6000233B614FF4A0537B61E4
:103C74004FF48053BB6107F1080305211846FEF792
:103C84008FF90346002B14BF01230023DBB2002B62
:103C940001D000F009F800BF5037BD4680BD00BF19
:103CA400003802400070004080B500AF0248FFF7C2
:103CB400FBFE00BF80BD00BF0843000800B583B011
:103CC4000D4B002100915A6C42F480425A645A6CA4
:103CD40002F480420092009A01911A6C42F08052E0
:103CE4001A641B6C03F0805301930720019BFDF7BA
:103CF400B1FD03B05DF804FB00380240704700BF1B
:103D0400FEE700BFFEE700BFFEE700BFFEE700BF1F
:103D1400704700BF704700BF704700BFFDF7B2BBDC
:103D24000148FDF7A1BE00BF900200200148FDF745
:103D34009BBE00BFF00200200148FDF761BC00BF3C
:103D4400540100200148FDF75BBC00BF5401002072
:103D54000148FDF755BC00BF540100200148FEF79F
:103D640069BE00BFD00100200148FEF763BE00BF5A
:103D7400500200200120704708B500F02BFA1623EA
:103D840003604FF0FF3008BD08B500F023FA162396
:103D94000360FEE71049114BD1F8882042F4700209
:103DA40010B4C1F888201A680D4C002042F00102BA
:103DB4001A6098601A6822F0847222F480321A60C1
:103DC4005C601A684FF0006422F480221A60D860A4
:103DD4008C605DF8044B704700ED00E00038024051
:103DE4001030002430B52B4C91B000234FF08042AA
:103DF400204684E80C0002930993A360E3602361E6
:103E0400A36103930A930B930C930D930E930F9357
:103E1400FEF760FC20BB002302A91E480293039313
:103E2400FEF7B2FEC8B90023602509A91A4619484D
:103E34000A930B930D930995FEF7EEFC08B1FFF777
:103E440033FF22680023B2F1804F05930493069355
:103E54000793089307D011B030BDFFF725FFE2E7C1
:103E6400FFF722FFD7E702F50E320193136B0A48DE
:103E740043F001031363136B03F001030193022264
:103E8400012304A9019C049308930592FDF7BCFE49
:103E940011B030BD100200200000024000B50F4AEE
:103EA4000F4B136083B0002310465360009393605C
:103EB400D36093610193FEF75BFB60B9002369460D
:103EC400064800930193FEF75FFE08B1FFF7ECFE8E
:103ED40003B05DF804FBFFF7E7FEEFE7D001002035
:103EE4000010004000B50F4A0F4B136083B000234D
:103EF4001046536000939360D36093610193FEF77F
:103F040037FB60B900236946064800930193FEF726
:103F14003BFE08B1FFF7C8FE03B05DF804FBFFF7F2
:103F2400C3FEEFE750020020001400400368B3F121
:103F3400804F00D0704782B003F50E330022019207
:103F44001A6C42F001021A641B6C03F00103019322
:103F5400019B02B0704700BF00B50368184A934242
:103F640083B019D0174A934202D003B05DF804FB22
:103F74000022154B0192196C41F0200119641B6C4D
:103F840003F02003019311463720019BFDF774FCD5
:103F94003720FDF7A7FCE8E700220B4B0092196CD1
:103FA40041F0100119641B6C03F0100300931146D7
:103FB4003620009BFDF760FC3620FDF793FCD4E728
:103FC4000010004000140040003802400B4B0C4A23
:103FD40010B50C211A604FF4E134002218465C60DD
:103FE40059619A60DA601A619A61DA61FEF772FFC8
:103FF40000B910BDBDE81040FFF756BE50030020C5
:10400400001001400B4B0C4A10B50C211A604FF400
:10401400E134002218465C6059619A60DA601A61E2
:104024009A61DA61FEF756FF00B910BDBDE8104091
:10403400FFF73ABE9003002000440040F0B5036847
:10404400474A8BB00024934206940594079408943D
:10405400099459D0434A934201D00BB0F0BD424B6E
:1040640003941A6C414E42F400321A641A6C02F43E
:1040740000320392039A04941A6B42F001021A6309
:104084001B6B03F0010304930C22022305A90127EF
:10409400059206930322072305463548079708929D
:1040A4000993DDF810E0334FFDF7AEFD4FF00061EA
:1040B40040224FF480633046F4607461B461F4616B
:1040C4003462746237607160B2603361FDF732FC50
:1040D400002841D1284C2E630023284FB5634FF0AC
:1040E40000614FF480622046276061602261A36012
:1040F400E3606361A361E36123626362FDF71AFC19
:1041040038BB6C63A563A8E7174B01945A6C184835
:1041140042F010025A645A6C02F010020192019AA1
:1041240002941A6B42F001021A631B6B03F0010341
:1041340002934FF4C066022501240322072305A934
:10414400029F05960695079408920993FDF75CFD76
:1041540083E7FFF7A9FDD4E7FFF7A6FDBAE700BFA1
:10416400001001400044004000380240F0020020EA
:1041740000000240A06002409002002088600240DB
:10418400DFF834D0002103E00C4B5B58435004317A
:104194000B480C4B42189A42F6D30B4A02E0002318
:1041A40042F8043B094B9A42F9D3FFF7F3FD00F0C0
:1041B40017F8FFF7B1FC704700000220C045000863
:1041C400000000200001002000010020D403002092
:1041D400FEE70000014B1868704700BF0C00002088
:1041E40070B50D4E0D4CA41BA4100025A54209D199
:1041F4000B4E0C4C00F076F8A41BA4100025A5422D
:1042040005D170BD56F8253098470135EEE756F8CC
:10421400253098470135F2E7B8450008B84500084D
:10422400B8450008BC45000802440346934200D147
:10423400704703F8011BF9E710B5431E0A44914285
:1042440000D110BD11F8014B03F8014FF7E708B591
:10425400062000F02BF80120FFF796FD1F2938B542
:1042640004460D4604D9162303604FF0FF3038BDD1
:10427400426C12B152F821304BB9204600F030F8AC
:104284002A4601462046BDE8384000F017B8012B05
:104294000AD0591C03D116230360012038BD002421
:1042A40042F8254028469847002038BD024B014675
:1042B4001868FFF7D3BF00BF0C00002038B5074CC7
:1042C40000230546084611462360FFF755FD431CAD
:1042D40002D1236803B12B6038BD00BFD003002096
:1042E400FFF748BDF8B500BFF8BC08BC9E46704750
:0C42F400F8B500BFF8BC08BC9E4670473F
:1043000043414E204F4B00004E6F7720696E206571
:1043100072726F722068616E646C657200000000DA
:104320000006101600061016000000000000000035
:10433000010203040607080900000000010203044B
:10434000000000000000000000000000000000006D
:10435000000000000000000000000000000000005D
:10436000000000000000000000000000000000004D
:10437000000000000000000000000000000000003D
:10438000000000000000000000000000000000002D
:10439000000000000000000000000000000000001D
:1043A00001970181B0B008840000000001970181ED
:1043B000088480C90000000001970181B0B0088422
:1043C0000000000001970181B0B0088400000000E7
:1043D00001970181B0B008840000000003970181BB
:1043E000B0B008840000000001970181B0B00884DB
:1043F0000000000001970181B0B0088400000000B7
:1044000003970181B0B0088400000000019701818A
:10441000B0B008840000000001970181B0B00884AA
:104420000000000003970181B0B008840000000084
:10443000B2970181B008843F00000000139701810A
:10444000B0B008840000000008B10181B0B0008461
:104450000000000008B10181B0B00084000000003D
:10446000D4BDFF7F0100000044C1FF7FB0A90280DE
:10447000DCC1FF7FB0B0A8802CC2FF7F010000002C
:1044800038C2FF7FB0B0AA8070C2FF7FAE71B28029
:1044900040C3FF7F010000003CC3FF7FAB3F38807B
:1044A00094C3FF7F01000000A0C3FF7FB0B0AA80CB
:1044B000DCC3FF7F0100000090C4FF7FAB0EB28021
:1044C000F8C4FF7FB0AF0A80C0C7FF7F01000000C3
:1044D000C4C7FF7FAB3F048004CAFF7F0100000018
:1044E000E0CBFF7F00840480F4CBFF7F010000005D
:1044F000F0CBFF7FB0AD0480B8CEFF7FB0A80380C3
:10450000D8CEFF7F44FFFF7FDCCEFF7F48FFFF7FD9
:10451000E8CEFF7F0100000020EAFF7F84FEFF7FDE
:1045200054EAFF7F0100000004F2FF7F80FEFF7F5E
:10453000DCF2FF7F84FEFF7FF8F2FF7F01000000C6
:1045400008F3FF7F80FEFF7F34F3FF7F84FEFF7F51
:1045500060F3FF7F88FEFF7F9CF3FF7F8CFEFF7F71
:10456000D4F3FF7F90FEFF7F26F4FF7F08849780BF
:104570002EF4FF7F8CFEFF7F78F4FF7F0884978006
:1045800010F5FF7F88FEFF7F24F5FF7F8CFEFF7F05
:1045900046F5FF7F90FEFF7F84F5FF7F94FEFF7F4F
:1045A00020F6FF7F98FEFF7F04F7FF7F0884978047
:0845B00010F7FF7F010000007D
:0445B800E90100080D
:0445BC00C50100082D
:1045C00001000000100000000024F4001000002092
:1045D00000000000604300088043000840430008DA
:1045E00000000000000000000000000000000000CB
:1045F00000000000000000000000000000000000BB
:1046000000000000000000000000000000000000AA
:10461000000000000000000000000000000000009A
:10462000000000000000000000000000000000008A
:10463000000000000000000000000000000000007A
:10464000000000000000000000000000000000006A
:10465000000000000000000000000000000000005A
:10466000000000000000000000000000000000004A
:10467000000000000000000000000000000000003A
:10468000000000000000000000000000000000002A
:10469000000000000000000000000000000000001A
:1046A000000000000000000000000000000000000A
:1046B00000000000000000000000000000000000FA
:040000050800418529
:00000001FF
