:020000040800F2
:100000000000022049540008015000080550000873
:10001000095000080D5000081150000800000000B1
:100020000000000000000000000000001550000863
:1000300019500008000000001D5000082150000861
:1000400099540008995400089954000899540008DC
:1000500099540008995400089954000899540008CC
:1000600099540008995400089954000899540008BC
:1000700099540008995400089954000899540008AC
:100080002550000831500008995400089954000880
:100090003D50000849500008555000089954000888
:1000A000995400089954000899540008995400087C
:1000B00099540008615000089954000899540008A8
:1000C000995400089954000899540008995400085C
:1000D000995400089954000899540008995400084C
:1000E000995400089954000899540008995400083C
:1000F000995400089954000899540008995400082C
:10010000995400089954000899540008995400081B
:1001100099540008995400086D500008795000085F
:1001200099540008995400089954000899540008FB
:1001300099540008000000000000000099540008D5
:1001400099540008995400089954000899540008DB
:1001500099540008995400089954000899540008CB
:1001600099540008995400089954000899540008BB
:1001700099540008995400089954000800000000A0
:10018000000000009954000800000000000000007A
:100190009954000800000000000000009954000875
:1001A000000000000000000000000000995400085A
:1001B000995400089954000899540008995400086B
:0401C0009954000846
:1001D00010B5054C237833B9044B13B10448AFF381
:1001E00000800123237010BD7C0600200000000069
:1001F0001490000808B5034B1BB103490348AFF343
:10020000008008BD00000000800600201490000857
:1002100001F0FF01102A2BDB10F0070F08D010F8B7
:10022000013B013A8B422DD010F0070F42B3F6D1BB
:10023000F0B441EA012141EA014122F007047FF0D4
:1002400000070023F0E80256083C85EA010586EA2B
:10025000010685FA47F5A3FA87F586FA47F6A5FA67
:1002600087F68EB9EED1F0BC01F0FF0102F0070273
:1002700032B110F8013B013A83EA010313B1F8D11E
:100280000020704701387047002D06BF35460338FF
:10029000073815F0010F07D1013015F4807F02BF38
:1002A000013015F4C03F0130F0BC0138704700BF89
:1002B000034613F8012B002AFBD1181A01387047A6
:1002C00081F0004102E000BF83F0004330B54FEA07
:1002D00041044FEA430594EA050F08BF90EA020F74
:1002E0001FBF54EA000C55EA020C7FEA645C7FEA07
:1002F000655C00F0E2804FEA5454D4EB5555B8BF2A
:100300006D420CDD2C4480EA020281EA030382EA9A
:10031000000083EA010180EA020281EA0303362D2C
:1003200088BF30BD11F0004F4FEA01314FF4801CFF
:100330004CEA113102D0404261EB410113F0004F11
:100340004FEA03334CEA133302D0524263EB4303C8
:1003500094EA050F00F0A780A4F10104D5F1200E66
:100360000DDB02FA0EFC22FA05F2801841F10001C1
:1003700003FA0EF2801843FA05F359410EE0A5F195
:1003800020050EF1200E012A03FA0EFC28BF4CF0C6
:10039000020C43FA05F3C01851EBE37101F000457C
:1003A00007D54FF0000EDCF1000C7EEB00006EEB89
:1003B0000101B1F5801F1BD3B1F5001F0CD3490813
:1003C0005FEA30004FEA3C0C04F101044FEA44526A
:1003D00012F5800F80F09A80BCF1004F08BF5FEAF1
:1003E000500C50F1000041EB045141EA050130BDD1
:1003F0005FEA4C0C404141EB010111F4801FA4F174
:100400000104E9D191F0000F04BF01460020B1FAC8
:1004100081F308BF2033A3F10B03B3F120020CDA00
:100420000C3208DD02F1140CC2F10C0201FA0CF0DE
:1004300021FA02F10CE002F11402D8BFC2F1200C43
:1004400001FA02F120FA0CFCDCBF41EA0C019040F9
:10045000E41AA2BF01EB0451294330BD6FEA040442
:100460001F3C1CDA0C340EDC04F11404C4F120022D
:1004700020FA04F001FA02F340EA030021FA04F33F
:1004800045EA030130BDC4F10C04C4F1200220FA96
:1004900002F001FA04F340EA0300294630BD21FAD4
:1004A00004F0294630BD94F0000F83F4801306BF9A
:1004B00081F480110134013D4EE77FEA645C18BF8E
:1004C0007FEA655C29D094EA050F08BF90EA020F25
:1004D00005D054EA000C04BF1946104630BD91EA1D
:1004E000030F1EBF0021002030BD5FEA545C05D120
:1004F0004000494128BF41F0004130BD14F580045F
:100500003CBF01F5801130BD01F0004545F0FE41D2
:1005100041F470014FF0000030BD7FEA645C1ABF07
:10052000194610467FEA655C1CBF0B46024650EA3E
:10053000013406BF52EA033591EA030F41F400216A
:1005400030BD00BF90F0000F04BF0021704730B5F0
:100550004FF4806404F132044FF000054FF00001C5
:1005600050E700BF90F0000F04BF0021704730B586
:100570004FF4806404F1320410F0004548BF40425B
:100580004FF000013EE700BF42004FEAE2014FEAB0
:1005900031014FEA02701FBF12F07F4393F07F4F8B
:1005A00081F06051704792F0000F14BF93F07F4FBD
:1005B000704730B54FF4607401F0004521F0004100
:1005C00020E700BF50EA010208BF704730B54FF086
:1005D00000050AE050EA010208BF704730B511F08B
:1005E000004502D5404261EB41014FF4806404F1C3
:1005F00032045FEA915C3FF4DCAE4FF003025FEA45
:10060000DC0C18BF03325FEADC0C18BF033202EBCC
:10061000DC02C2F1200300FA03FC20FA02F001FA26
:1006200003FE40EA0E0021FA02F11444C1E600BFC5
:1006300070B54FF0FF0C4CF4E06C1CEA11541DBF78
:100640001CEA135594EA0C0F95EA0C0F00F0DEF843
:100650002C4481EA030621EA4C5123EA4C5350EA28
:10066000013518BF52EA033541F4801143F4801379
:1006700038D0A0FB02CE4FF00005E1FB02E506F00A
:100680000042E0FB03E54FF00006E1FB03569CF05F
:10069000000F18BF4EF0010EA4F1FF04B6F5007F65
:1006A00064F5407404D25FEA4E0E6D4146EB0606D7
:1006B00042EAC62141EA55514FEAC52040EA5E5060
:1006C0004FEACE2EB4F1FD0C88BFBCF5E06F1ED80A
:1006D000BEF1004F08BF5FEA500E50F1000041EB41
:1006E000045170BD06F0004646EA010140EA0200EE
:1006F00081EA0301B4EB5C04C2BFD4EB0C0541EA10
:10070000045170BD41F480114FF0000E013C00F324
:10071000AB8014F1360FDEBF002001F0004170BD48
:10072000C4F10004203C35DA0C341BDC04F1140461
:10073000C4F1200500FA05F320FA04F001FA05F2ED
:1007400040EA020001F0004221F0004110EBD370BA
:1007500021FA04F642EB06015EEA430E08BF20EAE6
:10076000D37070BDC4F10C04C4F1200500FA04F389
:1007700020FA05F001FA04F240EA020001F000411B
:1007800010EBD37041F100015EEA430E08BF20EA8E
:10079000D37070BDC4F1200500FA05F24EEA020ED6
:1007A00020FA04F301FA05F243EA020321FA04F005
:1007B00001F0004121FA04F220EA020000EBD370BC
:1007C0005EEA430E08BF20EAD37070BD94F0000FBC
:1007D0000FD101F00046400041EB010111F4801FF0
:1007E00008BF013CF7D041EA060195F0000F18BFA1
:1007F000704703F00046520043EB030313F4801FDD
:1008000008BF013DF7D043EA0603704794EA0C0F96
:100810000CEA135518BF95EA0C0F0CD050EA4106AC
:1008200018BF52EA4306D1D181EA030101F0004129
:100830004FF0000070BD50EA410606BF1046194651
:1008400052EA430619D094EA0C0F02D150EA01365D
:1008500013D195EA0C0F05D152EA03361CBF10469E
:1008600019460AD181EA030101F0004141F0FE413D
:1008700041F470014FF0000070BD41F0FE4141F4C1
:10088000780170BD70B54FF0FF0C4CF4E06C1CEAC1
:1008900011541DBF1CEA135594EA0C0F95EA0C0F76
:1008A00000F0A7F8A4EB050481EA030E52EA033531
:1008B0004FEA013100F088804FEA03334FF0805552
:1008C00045EA131343EA12634FEA022245EA11157F
:1008D00045EA10654FEA00260EF000419D4208BF30
:1008E000964244F1FD0404F5407402D25B084FEADD
:1008F0003202B61A65EB03055B084FEA32024FF489
:1009000080104FF4002CB6EB020E75EB030E22BFE5
:10091000B61A754640EA0C005B084FEA3202B6EBA5
:10092000020E75EB030E22BFB61A754640EA5C0054
:100930005B084FEA3202B6EB020E75EB030E22BFE4
:10094000B61A754640EA9C005B084FEA3202B6EBE5
:10095000020E75EB030E22BFB61A754640EADC00A4
:1009600055EA060E18D04FEA051545EA16754FEA06
:1009700006164FEAC30343EA52734FEAC2025FEA24
:100980001C1CC0D111F4801F0BD141EA00014FF0B3
:1009900000004FF0004CB6E711F4801F04BF014384
:1009A0000020B4F1FD0C88BFBCF5E06F3FF6AFAEA0
:1009B000B5EB030C04BFB6EB020C5FEA500C50F130
:1009C000000041EB045170BD0EF0004E4EEA1131B3
:1009D00014EB5C04C2BFD4EB0C0541EA045170BDBA
:1009E00041F480114FF0000E013C90E645EA060EFE
:1009F0008DE60CEA135594EA0C0F08BF95EA0C0F2C
:100A00003FF43BAF94EA0C0F0AD150EA01347FF473
:100A100034AF95EA0C0F7FF425AF104619462CE74A
:100A200095EA0C0F06D152EA03353FF4FDAE1046AD
:100A3000194622E750EA410618BF52EA43067FF4FE
:100A4000C5AE50EA41047FF40DAF52EA43057FF48E
:100A5000EBAE12E74FF0FF3C06E000BF4FF0010C99
:100A600002E000BF4FF0010C4DF804CD4FEA410CFD
:100A70007FEA6C5C4FEA430C18BF7FEA6C5C1BD0CA
:100A800001B050EA410C0CBF52EA430C91EA030F4B
:100A900002BF90EA020F0020704710F1000F91EAA8
:100AA000030F58BF994208BF90422CBFD8176FEA76
:100AB000E37040F0010070474FEA410C7FEA6C5C44
:100AC00002D150EA013C07D14FEA430C7FEA6C5C4B
:100AD000D6D152EA033CD3D05DF8040B704700BF77
:100AE0008446104662468C461946634600E000BFC5
:100AF00001B5FFF7B7FF002848BF10F1000F01BD97
:100B00004DF808EDFFF7F4FF0CBF012000205DF861
:100B100008FB00BF4DF808EDFFF7EAFF34BF0120E6
:100B200000205DF808FB00BF4DF808EDFFF7E0FF7F
:100B300094BF012000205DF808FB00BF4DF808EDD0
:100B4000FFF7CEFF94BF012000205DF808FB00BF37
:100B50004DF808EDFFF7C4FF34BF012000205DF819
:100B600008FB00BF4FEA410C7FEA6C5C02D150EAFF
:100B7000013C0AD14FEA430C7FEA6C5C02D152EA95
:100B8000033C02D14FF0000070474FF00100704766
:100B90004FEA410212F5001215D211D56FF47873A5
:100BA000B3EB625212D94FEAC12343F0004343EA48
:100BB000505311F0004F23FA02F018BF4042704723
:100BC0004FF00000704750EA013005D111F00040AD
:100BD00008BF6FF0004070474FF00000704700BF43
:100BE00053B94AB9002908BF00281CBF4FF0FF3194
:100BF0004FF0FF3001F0F6B8ADF1080C6DE904CE0E
:100C000000F006F8DDF804E0DDE9022304B07047E7
:100C10002DE9F0478C460D460446089E002B51D125
:100C20008A4217466DD9B2FA82FEBEF1000F0BD090
:100C3000CEF1200C01FA0EF520FA0CFC02FA0EF7A8
:100C40004CEA050C00FA0EF44FEA174A250CBCFBDF
:100C5000FAF81FFA87F90AFB18CC45EA0C4508FB9D
:100C600009F3AB420AD9ED1908F1FF3280F0238174
:100C7000AB4240F22081A8F102083D44ED1AA4B233
:100C8000B5FBFAF00AFB105544EA054400FB09F9EC
:100C9000A14509D9E41900F1FF3380F00A81A1458B
:100CA00040F2078102383C44A4EB090440EA0840C2
:100CB0000021002E61D024FA0EF40023346073600A
:100CC000BDE8F0878B4207D9002E54D0002186E87A
:100CD00021000846BDE8F087B3FA83F1002940F00F
:100CE0008E80AB4202D3824200F2FA80841A65EB16
:100CF00003050120AC46002E3FD086E81010BDE869
:100D0000F08712B90127B7FBF2F7B7FA87FEBEF1F9
:100D1000000F34D1EB1B3A0C1FFA87FC0121B3FB07
:100D2000F2F8250C02FB183345EA03450CFB08F3E7
:100D3000AB4207D9ED1908F1FF3002D2AB4200F205
:100D4000D1808046ED1AA3B2B5FBF2F002FB10553C
:100D500043EA05440CFB00FCA44507D9E41900F163
:100D6000FF3302D2A44500F2B8801846A4EB0C046D
:100D700040EA08409DE731463046BDE8F087CEF1B5
:100D8000200405FA0EF307FA0EF720FA04F83A0CDD
:100D900025FA04F448EA0308B4FBF2F14FEA1845D7
:100DA00002FB11441FFA87FC45EA044501FB0CF3E2
:100DB000AB4200FA0EF409D9ED1901F1FF3080F0D1
:100DC0008A80AB4240F2878002393D44EB1A1FFA19
:100DD00088F5B3FBF2F002FB103345EA034500FB54
:100DE0000CF3AB4207D9ED1900F1FF386FD2AB42DB
:100DF0006DD902383D44EB1A40EA01418FE7C1F159
:100E0000200722FA07F88B4005FA01F448EA0303A9
:100E100020FA07FE4FEA134CFD404EEA040EB5FBE4
:100E2000FCF94FEA1E440CFB19551FFA83F844EAFB
:100E3000054509FB08F4AC4202FA01F200FA01FA96
:100E400008D9ED1809F1FF3043D2AC4241D9A9F1DC
:100E500002091D442D1B1FFA8EFEB5FBFCF00CFB96
:100E600010554EEA054400FB08F8A04507D9E418E0
:100E700000F1FF3529D2A04527D902381C4440EAA9
:100E80000940A4EB0804A0FB02894C45C6464D4628
:100E900015D312D056B1BAEB0E0364EB050404FA75
:100EA00007F7CB401F43CC40376074600021BDE89A
:100EB000F0871846F8E69046E0E6C245EAD2B8EB7D
:100EC000020E69EB03050138E4E72846D7E7404600
:100ED00091E78146BEE7014678E702383C4445E7A2
:100EE000084608E7A8F102083D442BE703685A00CA
:100EF0004CBF43F0004323F000431844704700BF49
:100F000061B32DE9F84F01F1FF3A90460646D1460C
:100F1000002707EB090404EBD4746410E500711991
:100F20000846FFF7E3FFA245834605F10800304479
:100F300009D0FFF7DBFFC34500F1FF3005D840457E
:100F400009D2671CE5E7C34505D9A74202D004F1E1
:100F5000FF39DEE700210846BDE8F88F08467047F4
:100F6000012807D0022807D0044B00280CBF1846E0
:100F70000020704702487047024870476516000815
:100F8000691600086D16000830B5244B83B004467E
:100F90008D1E7BB301A92846AFF3008020B30199D1
:100FA0002A46FFF7ADFF0146F0B1FFF79FFF4B6800
:100FB000A064012B12D0002B01F1040020DBFFF70D
:100FC00095FF0023E06423650368002B1CDBFFF71B
:100FD0008DFF00232061184603B030BD002323613C
:100FE0000523184603B030BD0023236109231846AA
:100FF00003B030BD0A490B48091AC9100191CFE767
:101000000123E0642365DFE7C3F30360FFF7A8FF74
:101010000028206114BF00230923DCE70000000042
:10102000DC9500085C9400080368DA0710B50446F4
:1010300006D49B0700F1480009D500F051FC236855
:10104000590709D51A070ED5DB0613D510BD00F0D8
:101050003FFC23685907F5D404F1D00000F048FCA8
:1010600023681A07F0D404F5A87000F049FC23683F
:10107000DB06EBD404F5E870BDE8104000F084BC5A
:10108000036803B103441846704700BF0920704746
:10109000704700BF70B504460D4608E02B6C6361D5
:1010A0002A462369214601209847082808D1296C3F
:1010B0002046FFF769FF06460028EFD007F05FFFE4
:1010C0000728FBD13046296CFFF7E2FF281D00F00E
:1010D000F3FB00BF2DE9F0470C1D054692460FCCEF
:1010E000ADF5727D03AE0FC60FCC0FC60FCC0FC689
:1010F00094E80F0002ACD5F80C80D5F8189086E87B
:101100000F0000232846216C2360FFF73DFFBAF152
:10111000000F074614BF0A2609267FB1A36B46F0CD
:1011200010018DE810022A46636401202B46C04757
:1011300078BB38460DF5727DBDE8F087236C6B6196
:101140004FF4F07221467AA806F0A2FE2B697AAA23
:10115000294630469847889B82468DE810023146E2
:1011600063642A462B460120C04790B94FF4F072C1
:101170007AA9204606F08CFEBAF1080F06D1216C40
:101180002846FFF701FF09260746C6E7BAF1070F11
:1011900005D0092738460DF5727DBDE8F087384641
:1011A000216CFFF775FF03A800F086FB406C7047C9
:1011B000F0B5CB6B0B640E1D0F4604460FCEF9B095
:1011C00001AD0FC50FCE0FC50FCE0FC596E80F00AE
:1011D0004FF0FF3685E80F00009606E023696A4667
:1011E000214698470828054608D110992046FFF760
:1011F000CBFE0028F2D0092079B0F0BD6846FFF799
:1012000013FF062DF7D139462046FFF743FF00BFF5
:1012100030B4DD6BC160826119461D64002230BCB0
:1012200058E700BF70B5C66843690B6426B1012258
:10123000FFF750FF07F0A3FE03690A4604460D4678
:10124000014602209847072807D0082803D12946DD
:101250002046FFF71FFF07F092FE3046296CFFF78C
:1012600017FF281D00F028FBC2681AB1CA6B0A6478
:1012700000222FE79CE700BF704700BF836813B1CF
:10128000014601201847704700B5042907D8DFE858
:1012900001F00309060909000BB90F2A05D902203C
:1012A0005DF804FB01205DF804FB00EB82021846A8
:1012B0005368019A13605DF804FB00BF10B584B059
:1012C000002303AC0A4600941946FFF7DDFF03989C
:1012D00004B010BD00B5042907D8DFE801F0030908
:1012E000060909000BB90F2A05D902205DF804FB95
:1012F00001205DF804FB019900EB8202096851604E
:1013000018465DF804FB00BF10B584B004AC0023A0
:1013100044F8042D0A4600941946FFF7DBFF04B099
:1013200010BD00BFF0B5D36B1364151D07460E4604
:101330000FCDADF50F7D17AC0FC40FCD0FC40FCD82
:101340000FC495E80F004FF0FF3584E80F001695A5
:1013500010E016A8FFF7D8FF314616A8B84716AA1E
:10136000694678B9049B08209847052804460AD0A6
:10137000092807D026996846FFF706FE6A460C2121
:101380000028E6D0092416A8FFF74EFE20460DF5EA
:101390000F7DF0BD2DE9F04F0D46C96C8BB00C1DD3
:1013A000096807919146089400F0030B1E46002B34
:1013B00060D10902032307918DF825608DF8243050
:1013C0002B6DBBF1020F08BFAC6B13F0010340D1D2
:1013D000019300F008030393D4F80080B8F1000FE4
:1013E00039D0022E43D0B4F8008067880434AB6C47
:1013F00027F0010A0F2148469A44FFF75FFF824514
:1014000033D828F001039A4450452CBF0020012016
:101410007F0007F0020708F0010847EA0807012FDC
:101420003ED035D3022F1CD1236823F00042029214
:10143000BBF1000F76D128B1039900297ED0002A94
:1014400000F0A680002B77DB029B013304EB8304C2
:10145000C2E700230193022E3EDDFFF717FE0028AE
:1014600040D009200BB0BDE8F08F0020D0E76768BE
:101470000834BCE7022BA3DC0B0CDAB209048DF8AC
:101480002530022304EB820407918DF8243097E77E
:10149000BBF1000F02D0002840F0BD8004349BE770
:1014A000BBF1000F25D1A8B194E80C00991C4FEABC
:1014B000D272D6D005F158010133069100F0A38015
:1014C000201DFFF7DDFD06AB01462846AFF3008087
:1014D000002877D108347FE707A9484600F0EEFAE4
:1014E0000028BED1019B002B5CD108200BB0BDE8C9
:1014F000F08F0D2148462F6AFFF7E0FE8742E9D1C1
:10150000AB6A9C42E6D12046FFF7F0FC0F21024671
:101510004846FFF7F9FE48462A460021FFF7F4FE49
:1015200007209FE70D2148462F6AFFF7C7FE874235
:1015300058D02368002B87DA043485E7029B3BB33D
:1015400005F15803271DCDF810B0DDF80C80DDF84B
:1015500008A00596A3461C4602E0B245B04616D048
:1015600038460694FFF78CFD06AB0146002228465C
:10157000AFF3008008F1010604370028EDD0029B8C
:10158000059E43455C46DDF810B0D2D100E05C46D4
:1015900048460D21FFF792FE069B2862AC626B6203
:1015A00006205FE70F214846FFF788FE0E2102461E
:1015B0004846FFF7A9FE4846294A0F21FFF7A4FE37
:1015C00007204FE707460D214846FFF777FE022F19
:1015D00028621DD12B46069A43F82C2F6B62AC6211
:1015E00006203FE7AB6A9C42A3D104220027A31840
:1015F0000299A962EF622A636B632368BB421DDB19
:101600000123019320E748460D21FFF757FE28628A
:10161000069B6B62E3E72046FFF768FC043406464E
:10162000AC632846AFF3008000283FF41AAF484669
:1016300032460F21FFF768FE072013E70846013006
:1016400004EB8000FFF752FC0F2102464846FFF7EB
:101650005BFE48462A463946FFF756FE072001E75B
:1016600000000000002395E6012393E6022391E6A3
:10167000F0B50446C5B004290DD8DFE801F05303E6
:101680000C310F00012B4FEA124695B262D172194C
:10169000102A40F29B80022045B0F0BD002BFAD109
:1016A000102AF8D82368D80600F1C68022AE30464A
:1016B000019200F073F9A06B019A0023012505FA4D
:1016C00003F1114203D0016846F8231004300133BE
:1016D000042BF4D1A063304600F056F90020DBE77C
:1016E000032BD8D1150C97B2EB19102BD3D8236844
:1016F0001E0700F1B58022AE304600F023F9ED0060
:10170000A36B4FB1043D711903EBC70053F8042BD1
:1017100041F8042F8342F9D13046A36300F0F0F87A
:101720000020B9E7002BB6D1A56B97B2201D01268A
:1017300006FA03F1394203F1010302D0296801607E
:101740000435102B00F10400F2D112F400503BD10B
:10175000A563A1E7052B9ED17719202F9BD80F2ECB
:1017600066D92F46002D3AD12A460027002AA06BC1
:1017700072DD00EBC202014644A800EBC6008C38C3
:1017800051F8045B40F8045F9142F9D1084697B1E3
:10179000102E324644A938BF102201EBC202A2F536
:1017A000C4727900043A00EB810150F8045B42F8FE
:1017B000045F8842F9D1012B48D00F2EA16333D9A1
:1017C00017B102A800F094F8002065E70F2E3FF64D
:1017D00062AF00272268D10717D4002F60D022689B
:1017E000510745D4012B4DD00F2E06D822A80193C6
:1017F00000F07AF8019B002FB6D002A8019300F008
:101800007BF8019BC6F11002B0E722F00101052B25
:101810002160019320463BD022F0030240F8482B80
:1018200000F05AF8019BD8E722A800F059F8C7E762
:10183000102FCED9103FCDE723F01003236004F51D
:10184000E870019200F0AAF8019A2FE70431A16331
:1018500022A800F03DF8B7E7002F99D10146AAE78A
:1018600023F00803236004F5A87000F06BF842E74A
:10187000204622F0040240F8D02B019300F03CF8FF
:10188000019BAFE722A8019300F026F8019BB9E77E
:1018900041F0020140F8481B00F026F8019B9CE74C
:1018A000012B03D00F2E3FF65FAF9FE722A80193D5
:1018B00000F012F8019B57E700F1340191E838007D
:1018C0009C46A6464CF8045D90E8FF0FE54600BD37
:1018D00090EC210B704700BF80EC210B704700BFDC
:1018E00090EC200B704700BF80EC200B704700BFCE
:1018F000D0EC200B704700BFC0EC200B704700BF3E
:10190000F0EC0201F0EC0211F0EC0221F0EC0231FB
:10191000F0EC0241F0EC0251F0EC0261F0EC0271EB
:10192000F0EC0281F0EC0291F0EC02A1F0EC02B1DB
:10193000F0EC02C1F0EC02D1F0EC02E1F0EC02F1CB
:10194000704700BFE0EC0201E0EC0211E0EC022184
:10195000E0EC0231E0EC0241E0EC0251E0EC02612B
:10196000E0EC0271E0EC0281E0EC0291E0EC02A11B
:10197000E0EC02B1E0EC02C1E0EC02D1E0EC02E10B
:10198000E0EC02F1704700BFB0FC0181B0FC0191B6
:10199000B0FC01A1B0FC01B1704700BFA0FC018107
:1019A000A0FC0191A0FC01A1A0FC01B1704700BF07
:1019B000EC4600B52DE900502DE9FF1F4FF0000364
:1019C0002DE90C0001A9FFF7F3FBDDF840E012B0B0
:1019D000704700BFEC4600B52DE900502DE9FF1F10
:1019E0004FF000032DE90C0001A9FFF71BFCDDF807
:1019F00040E012B0704700BFEC4600B52DE9005042
:101A00002DE9FF1F4FF000032DE90C0001A9FFF79E
:101A10002BFCDDF840E012B0704700BFEC4600B58B
:101A20002DE900502DE9FF1F4FF000032DE90C00B8
:101A300001ABFFF7EDFBDDF840E012B0704700BFEF
:101A4000EC4600B52DE900502DE9FF1F4FF00003D3
:101A50002DE90C0001AAFFF765FCDDF840E012B0AB
:101A6000704700BF027A1AB9437A43B9B020704771
:101A70000368013A02721A020260180E7047426847
:101A8000013B10B4437213680321141D01721A0242
:101A9000446002605DF8044B180E704700B585B0D5
:101AA00003AA0023009219460C22FFF7EDFB0398CE
:101AB00005B05DF804FB00BFF0E700BF2DE9F0437F
:101AC000064685B00F464FF000083846FFF7CAFFBC
:101AD000B028044623D0050627D400230DF10C09B5
:101AE000194685000D22CDF800903046FFF7CCFB5B
:101AF000EDB2039BCDF80090600605F104054CBFE4
:101B00005D1BED18002319460D2230460395FFF7A3
:101B1000E1FB3846FFF7A6FFB0280446DBD1B8F159
:101B2000000F00F0958000201CE000F0F003802BF7
:101B30005DD0902B19D0A02B2CD0B02B3FD0C02B38
:101B40006CD000F0F803D02B0BD100F0070201326B
:101B500042F40022052301213046FFF789FD0028C9
:101B6000B3D0092005B0BDE8F08300F00D030D2BC4
:101B7000F7D003AD002300F00F0219460095304660
:101B8000FFF782FB0023009519460D223046FFF730
:101B9000A1FB9AE7C24302F007034FF47F621A41A8
:101BA000010702F47F624FF0000348BF42F4804215
:101BB00019463046FFF75CFD0028D2D185E7B128F1
:101BC00057D0B22868D0B32800F0958000F0FC030D
:101BD000B42BC6D000F007020132012342F40022E8
:101BE00019463046FFF744FD0028BAD16DE7384664
:101BF000FFF738FF24020443B4F5004FB1D02401AD
:101C00000023A2B219463046FFF732FD0028A8D1C2
:101C100014F4004F18BF4FF0010856E7C6287DD0D6
:101C2000C72800F0868000F0F803C02B00F09480F5
:101C3000C82800F09F80C92893D13846FFF712FFCB
:101C4000020300F00F0002F470220130024381E72A
:101C500003AC43460E22414600943046FFF714FB86
:101C60000094304643460F224146FFF733FB40467F
:101C700078E73846FFF7F6FE00283FF472AF10F021
:101C8000F0037FF46EAF024619463046FFF7F0FCD2
:101C900000287FF466AF18E700230DF10C090D2230
:101CA0001946CDF800903046FFF7EEFA3846FFF7B8
:101CB000D9FE02064FF002040CD5039B00F07F0012
:101CC000A040034438460393FFF7CCFE030604F11B
:101CD0000704F2D4039BCDF8009000F07F02A240ED
:101CE00003F501740023144419460D223046039471
:101CF000FFF7F0FAE9E63846FFF7B4FE010300F01B
:101D00000F0001F47021421C01230A43304619469A
:101D1000FFF7AEFC00287FF424AFD6E63846FFF785
:101D2000A1FE010300F00F0001F47021421C032307
:101D3000EBE73846FFF796FE00283FF412AF10F0AD
:101D4000F0037FF40EAF024604213046FFF790FC0B
:101D500000287FF406AFB8E600F00F02013203233B
:101D600042F4202219463046FFF782FC00287FF417
:101D7000F8AEAAE63846FFF775FE00F0F00200F074
:101D80000F031032013343EA0232E3E610B5C36CAD
:101D900084B05A6803208DF80C00DC798DF80D4072
:101DA00012020833084601A901920293FFF786FE4A
:101DB00004B010BD08B5FFF77FFE806C08BD00BF02
:101DC00008B5FFF779FEC06CC37900EB83000830DB
:101DD00008BD00BF08B507F0D2F800BF08B5FFF78F
:101DE000F9FF00BF704700BF38B50E4A0E4B12789E
:101DF0001B6805464FF47A70B0FBF2F0B3FBF0F0CD
:101E000000F0B6FB08B90F2D01D9012038BD0446FA
:101E1000024629464FF0FF3000F066FB034B204698
:101E20001D6038BD000000200800002004000020D4
:101E300008B50B4B1A6842F400721A601A6842F433
:101E400080621A601A6842F480721A60032000F0FF
:101E500039FB0020FFF7C8FF03F0B2F8002008BDEF
:101E6000003C0240034A044B11681B780B4413608A
:101E7000704700BF5C07002000000020014B18687D
:101E8000704700BF5C07002038B50446FFF7F6FF37
:101E9000631C054602D0044B1B781C44FFF7EEFF81
:101EA000401B8442FAD838BD0000002000287CD0B6
:101EB00090F8203070B50446002B73D02268136868
:101EC00023F002031360FFF7D9FF054604E0FFF794
:101ED000D5FF401B0A285CD823685A689107F6D4BE
:101EE0001A6842F001021A60FFF7C8FF054604E0D5
:101EF000FFF7C4FF401B0A284BD823685A68D20753
:101F0000F6D5227E012A1A680CBF42F0800222F028
:101F100080021A60627E012A1A680CBF42F04002F9
:101F200022F040021A60A27E012A1A680CBF42F019
:101F3000200222F020021A60E27E012A1A680CBFF9
:101F400022F0100242F010021A60227F012A1A6861
:101F50000CBF42F0080222F008021A60627F012AD8
:101F60001A680CBF42F0040222F004021A60A26850
:101F7000E66825696069616832432A430243013992
:101F80000A4301250021DA610846616284F8205085
:101F900070BD636A052243F400336362012084F854
:101FA000202070BD02F004FA88E70120704700BFCE
:101FB00090F82030013B012B05D9436A43F480237C
:101FC0004362012070473C4BD3F8002242F00102EB
:101FD000F0B4C3F80022D3F8002222F47C52C3F8F4
:101FE0000022D3F80022486A42EA0022C3F8002205
:101FF0004A69D3F81C52012402F01F0004FA00F0D1
:10200000C4432540C3F81C52CD69002D3AD0012DA0
:1020100015D1D3F80C520543C3F80C52D2000F6807
:102020008D888E688B8902F1804202F5C84245EAAC
:10203000074543EA0643C2F84052C2F844328B696E
:102040001D4A9BBBD2F804322340C2F804320B690C
:102050002BBB194BD3F814221440C3F814420B6A5B
:10206000012B05D1144BD3F81C221043C3F81C02DA
:10207000114AD2F8003223F001030020C2F80032E6
:10208000F0BC7047D3F80C522540C3F80C52D20074
:1020900002F18042CF688D888E680B88C5E7064ABA
:1020A000D2F814320343C2F81432D8E7D2F804321B
:1020B0000343C2F80432CAE70064004038B590F820
:1020C0002030012B05D0436A43F4002343620120F2
:1020D00038BD0268022380F82030136823F0010322
:1020E00013600446FFF7CAFE054604E0FFF7C6FE8C
:1020F000401B0A2807D823685B6813F00103F5D159
:102100006362184638BD636A052243F40033636294
:10211000012084F8202038BD2DE9F04190F82040BE
:10212000013C012C06D9436A43F480234362012019
:10213000BDE8F081056800295AD02C69A4075AD05F
:102140000C012E19D6F8B07107F004079760002F24
:102150005FD1D6F8B0717F0D1760D6F8B0C1D6F850
:10216000B4E1D6F8B471D6F8B4612544CCF3400C90
:10217000D5F8B881C2F80CC00EF00F05C7F30727D9
:10218000360C15619761566183F80080026822441D
:10219000D2F8B821120A5A7002682244D2F8B82143
:1021A000120C9A7002682244D2F8B821120EDA702A
:1021B00002682244D2F8BC211A7102682244D2F883
:1021C000BC21120A5A7102682244D2F8BC21120CB6
:1021D0009A7102681444D4F8BC21120EDA710268B4
:1021E00081B9D36843F020030846D360BDE8F0818D
:1021F000EC68A607A4D1436A43F4001343620120AC
:10220000BDE8F081136943F0200313610020BDE8AD
:10221000F081D6F8B071FF0857609EE790F8203043
:10222000013B012B05D9436A43F48023436201201B
:10223000704702685369194351610020704700BF1D
:10224000704700BF704700BF704700BF704700BFB6
:10225000704700BF704700BF704700BF704700BFA6
:10226000704700BF704700BF704700BF704700BF96
:102270002DE9F84F03685C69D3F804809F68D3F8B0
:102280000CB0D3F81090D3F818A014F0010506464E
:1022900025D017F0010540F09F804FF480414FF4A6
:1022A0000052F8050DD533684FF480709860BB0577
:1022B00000F1CA80780500F1DA803B0540F1EB803F
:1022C0000D46F8030BD533684FF48032B9039A609A
:1022D00000F1B6807A0340F1CC8045F40045270731
:1022E00002D51BF0100F71D1600703D51BF0080F4A
:1022F00040F08280A10704D53368DB689A0740F07C
:102300009080630602D519F0100F59D1A70603D5A6
:1023100019F0080F40F08980E00604D533681B6986
:10232000990740F08980A20302D518F0100F6AD1F6
:10233000E30302D518F0080F6CD1270405D518F077
:10234000040F0BD1336804225A602DB1736A1D4308
:1023500075623046FFF78AFFBDE8F88FE00504D5C7
:102360001AF0010F18BF45F00105A10504D51AF0B8
:10237000020F18BF45F00205620504D51AF0040FDC
:1023800018BF45F004052305DCD51AF0700AD9D032
:10239000BAF1300F00F08D8070D9BAF1500F00F013
:1023A0008580BAF1600F00F08780BAF1400F01D14B
:1023B00045F0400533689A6922F070029A61C2E7DD
:1023C0003368102245F480651A619FE73368102254
:1023D00045F40075DA6087E701229A60BB0737D4BD
:1023E0007D073DD417F0080559D04FF4A0414FF4B4
:1023F00040524FF4805554E733680822DA60304683
:10240000FFF72AFF76E7336810225A603046FFF75D
:1024100029FF8DE7336808225A603046FFF724FF12
:102420008BE7304601F050FB6BE7336808221A61F6
:102430003046FFF715FF6FE73046FFF70FFF72E7F3
:102440003046FFF701FF4AE73046FFF7FBFE38E76B
:10245000FFF7F6FE00254FF480414FF4005220E7CD
:102460004FF490414FF420524FF4006519E71546A0
:1024700027E73B030BD545F4803530E7BAF1100F61
:102480001DD0BAF1200F95D145F0100592E73046E6
:10249000FFF7E0FE23E73046FFF7DAFE11E7FFF72C
:1024A000D5FE4FF480414FF40052FAE645F0800526
:1024B00080E745F020057DE745F480757AE745F033
:1024C000080577E7074AD3684FF6FF010B40000283
:1024D00043F0BF6300F4E06043F400330343D36090
:1024E000704700BF00ED00E0184B70B4DC68C4F327
:1024F0000224C4F10706042E04F1040328BF0426B5
:10250000062B17D9033C0125A540013D2A40012394
:10251000B340013B1940A140002841EA02010CDB15
:1025200000F1604000F561400901C9B280F8001374
:1025300070BC704700221446E9E7054B00F00F001D
:1025400009010344C9B2197670BC704700ED00E080
:10255000FCEC00E0002807DB00F01F01012340092C
:10256000024A8B4042F82030704700BF00E100E093
:102570000138B0F1807F0ED2084B10B4084C58607F
:10258000F02084F823000022072110469A60196089
:102590005DF8044B70470120704700BF10E000E079
:1025A00000ED00E0F8B50446FFF768FC002C73D09E
:1025B0000222236884F835201A68002122F00102E3
:1025C00084F8341005461A6005E0FFF757FC401BFD
:1025D00005283BD823681A68D107F6D4A768626833
:1025E000E66825696169A0693A4332432A430A4390
:1025F000E169256A1F68354E02430A43616A2A432E
:102600003E40042942EA060227D01A605A6922F0A5
:1026100007021143DAB22E4D5961103AA5FB02129E
:1026200012092C4823F47F73815CE16523F00303D6
:10263000032A88BF04333F228A4001250021A36575
:1026400008469A60616584F83550F8BD032320225E
:102650006265184684F83530F8BDE56A216BA66AD4
:1026600029430A431A605A6946F0040122F007021E
:102670001143002DCED088B1B0F5005F18D0022EE6
:1026800003D9032EC6D1EA01C4D5012340226265D5
:10269000184684F83530F8BD0120F8BD012E03D06E
:1026A000F1D3022EB6D1EEE7B5F1C07FB2D1ECE79F
:1026B000032EAFD801A252F826F000BF8B260008E7
:1026C000872600088B260008A92600083F8010F006
:1026D000ABAAAAAA70900008F0B583B00023876D5A
:1026E0000193C36D3D68624908229A401542044631
:1026F0000E6803D001680868400776D401229A402A
:10270000154203D021684969080668D404229A401A
:10271000154203D02168096889075AD410229A40CB
:10272000154203D02168086800073FD420229A4050
:10273000154203D021680868C00625D4636D0BB329
:10274000636DDA071AD50523216884F835300B68E4
:10275000484A23F00103A2FB06020B60920A02E042
:102760000B68DB0704D5019B01339A420193F7D232
:102770000022012384F8342084F83530E36C0BB157
:102780002046984703B0F0BDBA6094F83520052A7A
:102790003BD00B6813F4802F0B6854D019035FD51E
:1027A000E36B002BCAD020469847C7E7BA600A6897
:1027B00012F4802F0A6822D1D20503D40A6822F0CD
:1027C00008020A60226C002AB0D020469047E36DD0
:1027D000ACE7BA60626D42F0040262659EE7BA60DF
:1027E000626D42F00202626590E7086820F0040022
:1027F0000860BA60626D42F0010262657EE7110313
:10280000E0D5A26C002AE0D190E70A68206C22F0A3
:1028100016020A604A6922F080024A6120B30A68FF
:1028200022F008020A603F22216D02FA03F3002021
:102830000122BB6084F8340084F835200029A1D03F
:10284000204688479EE713F48073A9D10A680120C7
:1028500022F010020A6084F8343084F835009FE7D3
:10286000636C002B9FD169E7A26C002AD7D1DAE70D
:1028700008000020B5814E1B2DE9F04FD1F800C0B3
:10288000DFF8FC81DFF8FCE183B0002503E00135CF
:10289000102D00F093800123AB4003EA0C02934219
:1028A000F5D14E6826F0100ABAF1020F00F08980C7
:1028B0004FEA45090324D0F800B004FA09F4E443D0
:1028C00006F003070BEA040B07FA09F70AF1FF3ACF
:1028D00047EA0B07BAF1010F076040F29880C7681A
:1028E0008B683C4003FA09F32343C360F300CED561
:1028F0004FF00009CDF80490D8F8443043F48043F9
:10290000C8F84430D8F8444025F0030303F180436D
:1029100004F4804403F59C33019405F00304019F03
:10292000D3F808A0A4000F27A7402AEA070A4E4FB1
:10293000B8421AD007F58067B8427BD04B4FB842F7
:102940007DD04B4FB8427FD04A4FB84200F08180D3
:10295000494FB84200F08280484FB8420CBF4FF058
:1029600006094FF0070909FA04F94AEA09079F60C6
:10297000DEF80030D443F70354BF23401343CEF8AE
:102980000030DEF80430B70354BF23401343CEF8C1
:102990000430DEF80830F70254BF23401343CEF86A
:1029A0000830DEF80C30B60205F1010554BF2340B3
:1029B0001343102DCEF80C307FF46DAF03B0BDE89B
:1029C000F08F4FEAD50900EB890905F00707D9F820
:1029D0002040BF004FF00F0B0BFA07FB24EA0B0A55
:1029E0000C69BC4044EA0A04C9F820404FEA450992
:1029F0000324D0F800A004FA09F4E44306F0030726
:102A000004EA0A0A07FA09F747EA0A07076087682B
:102A100007EA040ACF6807FA09F747EA0A07876056
:102A2000D0F804A0C6F300172AEA0303AF401F43FF
:102A3000476054E74FF0010909FA04F995E74FF0B0
:102A4000020909FA04F990E74FF0030909FA04F9B9
:102A50008BE74FF0040909FA04F986E74FF00509FE
:102A600009FA04F981E700BF0000024000080240B3
:102A7000000C024000100240001402400018024006
:102A800000380240003C014002B9090481617047EE
:102A9000436931EA030308BF09048161704700BF3D
:102AA000002800F0A980F8B590F83D30044603F006
:102AB000FF02002B00F08B802268242384F83D3035
:102AC000136823F00103136000F03CF961684B4B7D
:102AD00099424BD84A4B984277D92268494B55685E
:102AE000A3FB00639B0C25F03F051D435560156A51
:102AF000013325F03F052B431362D56949000138A6
:102B0000B0FBF1F00130C0F30B0025F44F45042871
:102B100038BF042025F0FF052843D0611568E0691F
:102B2000266A2169E768636925F0C00530432843B8
:102B300010609068A56920F4034020F0FF0039433D
:102B400001439160D1682B4321F0FF010B43D36017
:102B50001168002341F0010120251160184623640B
:102B600084F83D50236384F83E30F8BD264B9842EC
:102B70002BD92268234B5768DFF890E0A668A3FBA7
:102B800000539D0C27F03F072F434FF49673576077
:102B900003FB05F3AEFB0353156A9B0925F03F05C4
:102BA00001332B431362D56925F44F4525F0FF050A
:102BB00096B9431E01EB4101B3FBF1F30133C3F3BB
:102BC0000B03BBB143F40040A6E70120F8BD80F839
:102BD0003C2001F00FFD6FE701EB810303EB830164
:102BE000431EB3FBF1F30133C3F30B0313B143F4FF
:102BF000404091E701208FE701207047A086010047
:102C00007F841E0083DE1B43FF083D00D34D62100E
:102C100060B1484A136803F00F038B4208D2CBB26D
:102C20001370136803F00F03994201D0012070471D
:102C300003682DE9F0419D0714D55C0704D53E4C8F
:102C4000A26842F4E052A2601A0704D53A4CA26886
:102C500042F46042A260384C8568A26822F0F0021B
:102C60002A43A260DF0704460D4622D54268012AA6
:102C70005BD0931E012B304B1B6850D9990725D58B
:102C80002D4EB36823F003031343B360FFF7F6F848
:102C900041F28837804605E0FFF7F0F8A0EB080026
:102CA000B8423FD8B368626803F00C03B3EB820FFD
:102CB000F2D1204A136803F00F039D4209D2EBB210
:102CC0001370136803F00F039D4202D00120BDE88A
:102CD000F08123685A0706D51749E0688A6822F40C
:102CE000E05202438A601B0707D5134A21699368A3
:102CF00023F4604343EAC103936000F043F80E4BB2
:102D00000E499B680E4AC3F30313CB5C20FA03F30E
:102D100000201360FFF768F80020BDE8F0819801FB
:102D2000AED4D3E70320BDE8F081034B1B689E03BC
:102D3000A6D4CBE7003C024000380240789000085F
:102D400008000020044B054A9B680549C3F3822311
:102D50000868D35CD840704700380240889000086B
:102D600008000020044B054A9B680549C3F3423321
:102D70000868D35CD840704700380240889000084B
:102D800008000020284908B58B6803F00C03082BC5
:102D900007D00C2B1DD0254A2548042B18BF104600
:102DA00008BD4A684B6813F4800302F03F0230D13B
:102DB00049681E48C1F38811A1FB0001FDF710FF0F
:102DC000194B5B68C3F3014301335B00B0FBF3F0C5
:102DD00008BD4A684B6813F4800302F03F020ED12D
:102DE00049681248C1F38811A1FB0001FDF7F8FE04
:102DF0000D4B5B68C3F30273B0FBF3F008BD4B6887
:102E00000B48C3F38813A3FB00010023FDF7E8FE82
:102E1000EEE74B680648C3F38813A3FB00010023C9
:102E2000FDF7DEFECCE700BF003802400024F400CE
:102E300000127A002DE9F0410368DA0782B00446F7
:102E400036D5AA498A6802F00C02042A00F0D6801E
:102E50008A6802F00C02082A00F0CC80A3498A6834
:102E600002F00C020C2A00F058816368B3F5803F31
:102E700000F00581B3F5A02F00F06B819B4D2A680F
:102E800022F480322A602A6822F480222A60002BF1
:102E900040F0FA80FEF7F2FF064605E0FEF7EEFF8F
:102EA000801B642800F20E812B689903F6D42368F6
:102EB0009A072FD58D4A916811F00C0F00F0AC8065
:102EC000916801F00C01082900F0A28087498A6806
:102ED00002F00C020C2A00F07781E368002B00F06E
:102EE0002181834B814D01221A60FEF7C7FF064600
:102EF00005E0FEF7C3FF801B022800F2E3802B6889
:102F00009807F6D52B68226923F0F80343EAC20339
:102F10002B6023681A0715D56369002B00F08780A2
:102F2000744B724D01221A60FEF7A8FF064605E0B9
:102F3000FEF7A4FF801B022800F2C4806B6F9B0782
:102F4000F6D52368580720D4A369D3B1674DAA6882
:102F500002F00C02082A66D0022B674B4FF00002E9
:102F60001A6000F00081FEF789FF2C46054605E057
:102F7000FEF784FF401B022800F2A48023689B0117
:102F8000F6D4002002B0BDE8F081584A136C13F06B
:102F9000805368D00026594D2B68D90540F18280B6
:102FA000A368012B00F0CF80052B00F08F804F4DE0
:102FB0002A6F22F001022A672A6F22F004022A6790
:102FC000002B40F08C80FEF759FF41F28837804695
:102FD00005E0FEF753FFA0EB0800B84272D82B6F54
:102FE0009807F6D4002EAFD0404A136C23F08053DC
:102FF0001364A9E74A6857027FF530AF3B4A12686D
:1030000095037FF555AF6268002A7FF451AF0AE05F
:10301000526857023FF55AAF344A1268950716D5E1
:10302000E268012A13D0012002B0BDE8F081314AE4
:103030002E4D1360FEF722FF064604E0FEF71EFF4A
:10304000801B02283ED86B6F9F07F7D479E727498A
:1030500020690A6822F0F80242EAC0020A601A07F0
:103060007FF570AF58E70193136C43F080531364FE
:10307000136C03F080530193019B01268BE71B4ADD
:10308000136843F480331360FEF7F8FE174D0646CD
:1030900004E0FEF7F3FE801B642813D82B68980326
:1030A000F7D504E72B6843F480732B60FEF7E6FE48
:1030B00007462B68DA053FF573AFFEF7DFFEC01B4E
:1030C0000228F6D9032002B0BDE8F081074B1A6F41
:1030D00042F004021A671A6F42F001021A67FEF703
:1030E000CDFE024D804641F288370FE000380240A5
:1030F00000004742800E4742600047420070004097
:10310000FEF7BCFEA0EB0800B842DBD82B6F9B0794
:10311000F6D5002E3FF418AF66E74A6856027FF5F1
:10312000A4AE6BE72B4A2C4D1360FEF7A7FE0646B4
:1031300004E0FEF7A3FE801B0228C3D82B68990782
:10314000F7D42368E6E6244A136F43F001031367BC
:10315000C5E7214B1A6842F480221A601A6842F4CB
:1031600080321A6090E7FEF789FE064604E0FEF71B
:1031700085FE801B0228A5D82B689901F7D4E36946
:10318000D4F820E0676AE66AA26A206B1349124C01
:1031900043EA0E0343EA871343EA0663520843EA0D
:1031A0000073013A43EA024301226B600A60FEF7B2
:1031B00065FE054604E0FEF761FE401B022881D84B
:1031C00023689A01F7D5DCE64A6856023FF585AEDA
:1031D00022E700BF0000474200380240600047423B
:1031E000002800F09880F8B590F83D30044603F0D0
:1031F000FF02002B66D023684849022284F83D2054
:103200008B421A6863D0B3F1804F72D0A1F57C4134
:103210008B422DD001F580618B4229D001F5806170
:103220008B4225D001F578418B4221D001F57051B8
:103230008B4239D001F580618B4235D001F5806138
:103240008B4231D0A1F598318B422DD001F58061B0
:103250008B4229D001F580618B4225D0A569E068B9
:10326000616822F080022A431A60D862996215E0F0
:10327000A1682669A069E768656822F070020A43C0
:1032800022F440722649324322F0800202438B42EC
:103290001A60DF629D6201D162691A6301225A617C
:1032A000002084F83D20F8BD2669A069E5686168C2
:1032B00022F44072324322F0800202431A60DD623F
:1032C0009962EBE780F83C2001F0AAFF93E7A5683C
:1032D0002069A16922F070022A4322F4407202435D
:1032E00022F080020A431A60E268DA6262689A6237
:1032F000D2E7A6682069A169E768656822F07002D4
:10330000324322F44072024322F080020A431A60E0
:10331000DF629D62C2E70120704700BF00000140EC
:10332000000401400368DA6842F00102DA609A683A
:1033300002F00702062A03D01A6842F001021A605E
:1033400000207047704700BF704700BF704700BF44
:10335000704700BF03681A69910710B5044602D58B
:10336000DA68920762D41A69500702D5DA68510701
:1033700049D41A69120702D5DA68100731D41A69DC
:10338000D20602D5DA68D00618D41A69D10702D558
:10339000DA68D2076BD41A69100602D5DA6811060A
:1033A0006DD41A69520602D5DA68500657D41A69E4
:1033B000910602D5DA68920649D410BD6FF010026A
:1033C0001A61DB69082213F4407F2277204661D11D
:1033D000FFF7B8FF2046FFF7B9FF002223682277E6
:1033E000D3E76FF008021A61DB690422990722779C
:1033F000204655D1FFF7A6FF2046FFF7A7FF002282
:1034000023682277BBE76FF004021A619B690222EE
:1034100013F4407F227720463FD1FFF793FF2046E9
:10342000FFF794FF002223682277A2E76FF00202E1
:103430001A619B6901229B07027728D1FFF782FF5F
:103440002046FFF783FF0022236822778BE76FF087
:10345000200220461A61BDE8104000F047B86FF026
:1034600040021A612046FFF773FF23689FE76FF061
:1034700001021A61204600F05DFC23688BE76FF0C3
:1034800080021A61204600F033F8236889E7FFF7CD
:103490005BFFD8E7FFF758FF9FE7FFF755FFC1E74E
:1034A000FFF752FFABE700BF90F83C20012A1AD08B
:1034B00070B40222046880F83D2003466068A26868
:1034C0000E684D6822F0800220F0700131432A43DB
:1034D0000126002561602846A26083F83D6083F8DC
:1034E0003C5070BC70470220704700BF704700BF5F
:1034F000704700BF2DE9F047046822698246C06822
:10350000DAF81C10DAF80830DAF81060DAF814503B
:1035100022F4405202432261E268DAF81800334391
:1035200022F416422B4322F00C020B431343E360B8
:10353000636923F440730343B1F5004F6361AB4B00
:1035400061D09C4200F0018103F580639C4200F051
:10355000FC80FFF7F7FBA64FDAF8043000EB8000A1
:1035600000EB80009B00B0FBF3F3A7FB03235B0998
:103570001D01FFF7E7FBDAF8043000EB80009B0049
:1035800000EB8000B0FBF3F6FFF7DCFBDAF8042079
:1035900000EB8000930000EB8000B0FBF3F3A7FB8F
:1035A00003234FF064095B0909FB13631B013233EA
:1035B000A7FB03235B0903F0F006FFF7C3FBDAF870
:1035C000042000EB8000930000EB8000B0FBF3F8D8
:1035D000FFF7B8FBDAF8043000EB80009B0000EB4B
:1035E0008000B0FBF3F0A7FB0030400909FB10831B
:1035F0001B013233A7FB0323C3F3431333432B4491
:10360000A360BDE8F0879C425DD003F580639C42D7
:1036100059D0FFF797FB764FDAF8043000EB8000C3
:1036200000EB80005B00B0FBF3F3A7FB03235B0917
:103630001E01FFF787FBDAF8043000EB80005B0027
:1036400000EB8000B0FBF3F5FFF77CFBDAF8042019
:1036500000EB8000530000EB8000B0FBF3F3A7FB0E
:1036600003235B094FF0640909FB1353DB0032337A
:10367000A7FB03231B0903F4F875FFF763FBDAF8D4
:10368000042000EB800000EB80005300B0FBF3F857
:10369000FFF758FBDAF8043000EB800000EB800005
:1036A0005B00B0FBF3F3A7FB03235B0909FB138368
:1036B000DB003233A7FB0323C3F3421333442B4411
:1036C000A360BDE8F087FFF74DFB494FDAF80430FF
:1036D00000EB800000EB80005B00B0FBF3F3A7FB86
:1036E00003235B091E01FFF73DFBDAF8043000EB12
:1036F00080005B0000EB8000B0FBF3F5FFF732FBCE
:10370000DAF8042000EB8000530000EB8000B0FBEF
:10371000F3F3A7FB03234FF064095B0909FB135381
:10372000DB003233A7FB03231B0903F4F875FFF713
:1037300019FBDAF8042000EB8000530000EB800056
:10374000B0FBF3F8FFF70EFBA4E7FFF70BFB284FE6
:10375000DAF8043000EB800000EB80009B00B0FB47
:10376000F3F3A7FB03235B091D01FFF7FBFADAF86C
:10377000043000EB80009B0000EB8000B0FBF3F610
:10378000FFF7F0FADAF8042000EB8000930000EB7A
:103790008000B0FBF3F3A7FB03234FF064095B0940
:1037A00009FB13631B013233A7FB03235B0903F0FF
:1037B000F006FFF7D7FADAF8042000EB8000930058
:1037C00000EB8000B0FBF3F8FFF7CCFADAF8043036
:1037D00000EB800000EB80009B00B0FBF3F3A7FB45
:1037E00003235B0909FB138302E700BF00100140BC
:1037F0001F85EB5160B338B590F83930044603F0BB
:10380000FF0203B32268242384F83930D36823F4F9
:103810000053D3602046FFF76DFE23681A6922F437
:1038200090421A615A6922F02A025A61DA68002528
:10383000202142F40052DA602846E56384F839100A
:1038400084F83A1038BD80F8382001F05BFDD9E7E4
:1038500001207047F0B50E4690F83910202983B04A
:1038600002D0022003B0F0BD5EB352B31F4690F801
:103870003830012B0446F4D0002001212123E063DD
:1038800084F8381084F839300192FEF7F7FA019A7B
:10389000A28405462068E284E38C9BB2002B35D0DD
:1038A000E28CA168013A92B2B1F5805FE28415D052
:1038B000791C37D102681206FCD533784360013693
:1038C000EAE70120CEE703681B060CD4002F33D0B3
:1038D000FEF7D4FA401B874220682DD3791CF2D121
:1038E00002681206FCD533882269C3F308034360DB
:1038F000002AE4D10236CFE703685B060BD4DFB1C0
:10390000FEF7BCFA401B8742206815D3791CF3D11F
:1039100003685A06FCD52023002084F8393084F847
:1039200038009FE703681B06C7D42FB1FEF7A6FA3D
:10393000401B87422068BBD2C36823F4D073C360A6
:103940004369202223F001030021436184F83920D8
:10395000032084F8381084F83A2083E7F0B50E4647
:1039600090F83A10202983B002D0022003B0F0BDB5
:10397000002E2FD0002A2DD01F4690F83830012B72
:103980000446F2D0002001212223E06384F838109D
:1039900084F83A300192FEF771FA019AA285054641
:1039A000E285E08D80B2002854D0E28DA368013A10
:1039B00092B2B3F5805FE28517D0791C206822D1DE
:1039C00002689206FCD52369002B38D14368337016
:1039D0000136E6E70120C9E703689B060BD4E7B18F
:1039E000FEF74CFA401B874216D3791C2068F3D1AE
:1039F00002689206FCD523693BBB4368C3F3080306
:103A000026F8023BCDE703689B06DCD42FB1FEF716
:103A100035FA401B8742D0D22068C36823F4D073A4
:103A2000C3604369202223F001030021436184F82D
:103A30003920032084F8381084F83A2096E7436848
:103A400003F07F0333700136ABE74368DBB226F83F
:103A5000013BA6E7202384F8380084F83A3085E754
:103A600080B58AB000AF00233B6000237B60002359
:103A7000BB600023FB6000233B6100237B610123CB
:103A8000FB610023BB6101233B623B4619460C48A6
:103A9000FEF78EFA0346002B14BF01230023DBB28E
:103AA000002B02D0074801F02BFD0548FEF706FB6E
:103AB00002210348FEF7B2FB00BF2837BD4680BD98
:103AC000600700203090000880B582B000AF7860B9
:103AD000204B214A00217868FEF71EFB1F4B012274
:103AE0001A701F4B1B6803F50F73184600F00CFB90
:103AF0001B4B1B6803F52173184600F069FB184B3C
:103B00001B6803F5CA73184600F0A4FA144B1B682F
:103B100003F5D873184600F0C9FB114B1B6803F579
:103B2000FE73184600F07AFB0E4B1B68142B08DD61
:103B30004FF480710C48FEF7ABFF0A4B00221A606D
:103B400004E0084B1B680133064A136000BF0837C6
:103B5000BD4680BD98060020A0060020BC060020BF
:103B600008070020C00600200008024080B483B08F
:103B700000AF7860064B1B689B691B0903F00702C6
:103B80007B68DA6000BF0C37BD465DF8047B704788
:103B90006007002080B588B000AFF860B9603B6076
:103BA0001346FB71624B93F82030FB77604B1B6828
:103BB0009B68BB61FB7F012B03D0FB7F022B40F096
:103BC000A480BB6903F08063002B0AD1BB6903F0BA
:103BD0000063002B05D1BB6903F08053002B00F07C
:103BE0008580BB691B0E03F003037B617B69022B9D
:103BF0000ED94F4B5B6A43F400034D4A5362FB6896
:103C000001225A72F868FFF7B1FF4FF0FF338AE0E4
:103C1000FB681B69002B0CD1454B1968BB685A0522
:103C2000FB685B691A437B6918331B010B441A60FC
:103C30000EE03F4B1968BB68DA00FB681B691A434A
:103C4000FB685B691A437B6918331B010B441A60DC
:103C5000374B1968FA797B6918331B010B4404331D
:103C60001A60334B19683B6807331B781A063B68A8
:103C700006331B781B041A433B6805331B781B0271
:103C800013433A68043212781A437B691B010B44D0
:103C900003F5C6731A60264B19683B6803331B781B
:103CA0001A063B6802331B781B041A433B68013336
:103CB0001B781B0213433A6812781A437B691B0175
:103CC0000B4403F5C4731A60194B1968184B1A6832
:103CD0007B6918331B0113441B6843F001027B69A5
:103CE00018331B010B441A6000231CE0104B5B6A65
:103CF00043F400130E4A5362FB6801225A72F868BB
:103D0000FFF734FF4FF0FF330DE0094B5B6A43F4DC
:103D10008023074A5362FB6801225A72F868FFF752
:103D200025FF4FF0FF3318462037BD4680BD00BF4A
:103D30006007002080B483B000AF78607B681B68A8
:103D4000054A934202D1054B01221A7000BF0C377D
:103D5000BD465DF8047B704700100040C40600209B
:103D600080B483B000AF78600B46FB7000BF0C37A7
:103D7000BD465DF8047B704780B582B000AF7860C7
:103D80000B46FB70FB78002B05D001220121064871
:103D9000FEF77AFE04E0002201210348FEF774FEDC
:103DA00000BF0837BD4680BD0008024080B582B024
:103DB00000AF78600B46FB70FB78002B05D001222A
:103DC00002210648FEF760FE04E0002202210348BB
:103DD000FEF75AFE00BF0837BD4680BD000802400E
:103DE00080B584B000AF786039603B6803F0F003C1
:103DF000FB60FB689BB2012219460948FEF744FEAE
:103E0000FB68DB4303F0F003FB60FB689BB200221E
:103E100019460348FEF738FE00BF1037BD4680BD87
:103E20000004024080B582B000AF78600B46FB70A2
:103E30001346BB70FB7819467868FFF7B7FFBB786D
:103E400019467868FFF7CCFF01217868FFF794FFE7
:103E50000120FEF719F800217868FFF78DFF022096
:103E6000FEF712F800BF0837BD4680BD80B582B0AE
:103E700000AF78600B46FB701346BB70FB781946A9
:103E80007868FFF793FFBB7819467868FFF7A8FFBB
:103E900001217868FFF770FF0120FDF7F5FF002191
:103EA0007868FFF769FFBB781B01BB70BB781946C8
:103EB0007868FFF795FF01217868FFF75DFF012023
:103EC000FDF7E2FF00217868FFF756FF00BF0837D3
:103ED000BD4680BD80B582B000AF78600122002170
:103EE0007868FFF7C3FF00BF0837BD4680BD80B5C7
:103EF00082B000AF78600B46FB7001220021786829
:103F0000FFF7B4FF00BF0837BD4680BD80B584B061
:103F100000AF7860084611461A460346FB700B4610
:103F2000BB7013467B700823FB73FB78002B03D018
:103F3000FB7B43F00403FB73BB78002B03D0FB7BBC
:103F400043F00203FB737B78002B03D0FB7B43F031
:103F50000103FB73FB7B1A4600217868FFF786FF9D
:103F600000BF1037BD4680BD80B582B000AF78601D
:103F700000217868FFF7F4FE1E20FDF785FF302250
:103F800000217868FFF74EFF0520FDF77DFF302206
:103F900000217868FFF746FF0520FDF775FF302206
:103FA00000217868FFF73EFF0520FDF76DFF202216
:103FB00000217868FFF736FF0520FDF765FF202216
:103FC00000217868FFF72EFF0520FDF75DFF202216
:103FD00000217868FFF726FF0520FDF755FF002335
:103FE000002200217868FFF791FF0520FDF74CFFC4
:103FF0007868FFF76FFF0520FDF746FF06220021D6
:104000007868FFF733FF2820FDF73EFF00230022EA
:1040100001217868FFF77AFF0520FDF735FF00BF23
:104020000837BD4680BD80B582B000AF786039608A
:104030003B681B78002B09D03B681B7819467868D1
:10404000FFF755FF3B6801333B60F1E700BF0837DE
:10405000BD4680BD80B485B000AF78600E4B5B6814
:10406000752B12D10023FB60FB68052B0DDC0B4A7E
:10407000FB68134419787A68FB68134408330A46CE
:104080001A70FB680133FB60EEE700BF1437BD46D2
:104090005DF8047B704700BFA00600209806002052
:1040A00080B582B000AF78607B681868002300227A
:1040B0004FF44461FFF76EFD0346002B14BF01234C
:1040C0000023DBB2002B05D04FF480610C48FEF7D3
:1040D000DFFC11E07B685B680F2B08DD4FF400719B
:1040E0000848FEF7D5FC7B6800225A6004E07B6834
:1040F0005B685A1C7B685A6000BF0837BD4680BDAC
:10410000000002400008024080B483B000AF786035
:10411000214B5B6840F64442934220D11F4B204A1A
:1041200012781A701F4B1E4A52781A701E4B1C4A86
:1041300092781A701D4B1A4AD2781A701C4B184A82
:1041400012791A701B4B164A52791A701A4B144A7C
:1041500092791A70194B124AD2791A7015E00E4BE7
:104160005B6840F6484293420FD1154B0C4A1278D7
:104170001A70144B0A4A52781A70134B084A9278F4
:104180001A70124B064AD2781A7000BF0C37BD461F
:104190005DF8047B704700BFA0060020CC0600201D
:1041A00098060020CD060020CE060020CF06002075
:1041B000D0060020D1060020D2060020D306002021
:1041C000D4060020D5060020D6060020D9060020FF
:1041D00080B483B000AF78600D4B5B6840F68142DD
:1041E000934204D10B4B1A780B4B1A7009E0084B21
:1041F0005B6840F68242934203D1064B5A78064BE5
:104200005A7000BF0C37BD465DF8047B704700BF95
:10421000A006002098060020E406002080B483B0A9
:1042200000AF7860174B5B687A68928842F4A062AE
:1042300092B293421FD1144B144A12781A70144B45
:10424000124A52781A70134B104A92781A70124B15
:104250000E4AD2781A70114B0C4A12791A70104B10
:104260000A4A52791A700F4B084A92791A700E4B0B
:10427000064AD2791A7000BF0C37BD465DF8047B40
:10428000704700BFA0060020E80600209806002026
:10429000E9060020EC060020ED060020F0060020D4
:1042A000F1060020F4060020F906002080B483B057
:1042B00000AF78602B4B5B6840F2444293422ED1B2
:1042C0007B683833284A12781A707B683833013398
:1042D000254A52781A707B6838330233224A927822
:1042E0001A707B68383303331F4AD2781A707B68A0
:1042F0003C331D4A12791A707B683C3301331A4AE9
:1043000052791A707B683C330233174A92791A70DB
:104310007B683C330333144AD2791A701BE0114B8B
:104320005B68B3F5896F16D17B6840330E4A12780B
:104330001A707B68403301330B4A52781A707B68DD
:1043400040330233084A92781A707B684033033353
:10435000054AD2781A7000BF0C37BD465DF8047B61
:10436000704700BFA00600209806002038B50E4B0D
:104370000E4A1A600121002208254FF40034184625
:104380005D601C619A60DA605A611A769A76DA7614
:104390001A7759765977FDF789FD00B938BDBDE820
:1043A000384000F0BFBD00BF60070020006400403F
:1043B000F0B50268244B89B000249A420494039417
:1043C00005940694079401D009B0F0BD03F5EA33D3
:1043D00001941A6C1D4842F000721A641A6C02F0C3
:1043E00000720192019A02941A6B42F001021A6360
:1043F0001B6B03F00103029303A9092303224FF46B
:10440000C056022507930692029F03960495FEF775
:1044100033FA224621461420FEF766F81420FEF7F0
:1044200099F8224621461520FEF75EF81520FEF782
:1044300091F8224621461620FEF756F81620FEF780
:1044400089F809B0F0BD00BF0064004000000240E0
:1044500010B582B000240E4B01941A6B42F4001286
:104460001A631B6B03F400132246214601931020AC
:10447000019BFEF739F81020FEF76CF82246214622
:104480001120FEF731F81120FEF764F802B010BDDC
:10449000003802402DE9F0418AB00024404B0194DD
:1044A000069405940794089409941A6BDFF8008128
:1044B0003C4F3D4E42F004021A631A6B02F00402B4
:1044C0000192019A02941A6B42F080021A631A6BED
:1044D00002F080020292029A03941A6B42F00102E7
:1044E0001A631A6B02F001020392039A04941A6B86
:1044F00042F002021A631B6B03F00203049322468C
:10450000404640F20331049BFEF7BEFA224638468D
:104510004FF4D071FEF7B8FA22463046F021FEF78C
:10452000B3FA4FF4005205A94046204B05920125ED
:1045300006930794FEF7A0F9404605A940F203331D
:104540000593079408940695FEF796F905A9384651
:1045500020230593069507950894FEF78DF93846B4
:1045600005A94FF4C0730593069507940894FEF7C8
:1045700083F905A93046702305930695079408949E
:10458000FEF77AF98022022305A9304606950894A1
:1045900005920793FEF770F90AB0BDE8F08100BFFD
:1045A00000380240000002400004024000002110D8
:1045B000000802400C4B0D4A10B54FF480410C4CE2
:1045C0001A60184600225C6019619A60DA605A61CC
:1045D0009A61DA611A62FEF763FA00B910BDBDE8AC
:1045E000104000F09FBC00BF88070020005800402A
:1045F000A08601002DE9F0430268274B89B0002412
:104600009A420494039405940694079402D009B046
:10461000BDE8F083214D00942B6B214843F0020349
:104620002B632B6B03F002030093009B01942B6B15
:1046300043F004032B632B6B03F0040301934FF04F
:1046400012094FF480634FF001080327042603A9E1
:10465000019A0393CDF81090CDF814800697079631
:10466000FEF70AF94FF4805303A90E480393CDF8DF
:104670001090CDF8148006970796FEF7FDF8029487
:104680002B6C43F480032B642B6C03F480030293A4
:10469000029B09B0BDE8F08300580040003802409A
:1046A000000402400008024080B485B000AFF8600A
:1046B000B9607A60FB681A46002313605360FB6898
:1046C00000221A72FB6800225A72FB6800229A725A
:1046D000FB680022DA60FB68BA681A61FB687A68D6
:1046E0005A61FB6800229A61FB6818461437BD4680
:1046F0005DF8047B704780B485B000AFF860B960A6
:104700007A60FB70FB68BA681A60FB789AB2FB6843
:104710009A80FB687A689A60FB684FF00002DA6062
:10472000FB6818461437BD465DF8047B704780B4BB
:1047300085B000AFF860B9601346FB80FB68BA68CB
:104740001A60FB68043300221A605A60FB68FA881A
:104750009A81FB6818461437BD465DF8047B7047A4
:1047600080B485B000AFF860B9601346FB71FB6898
:10477000BA681A60FB68FA791A71FB681846143730
:10478000BD465DF8047B704780B485B000AFF8602B
:10479000B9601346FB80FB68BA681A60FB68043393
:1047A00000221A605A60FB68FA889A81FB681846F2
:1047B0001437BD465DF8047B7047000080B485B0B7
:1047C00000AFF860B9607A60FB68BA681A60FB688D
:1047D0007A685A60FB6800229A60FB681A4ADA60BD
:1047E000FB684FF400621A61FB68184A5A61FB6863
:1047F000164A9A61FB684FF00002DA61FB684FF0DD
:1048000000021A62FB68002283F83420FB68002251
:1048100083F83520FB684FF000029A63FB684FF085
:104820000002DA63FB684FF000021A64FB680022A2
:104830005A64FB6800229A64FB6818461437BD4628
:104840005DF8047B704700BF9EEF273DB81E853E94
:1048500080B485B000AFF860B9607A60FB68BA6870
:104860001A60FB6800225A60FB687A689A60FB68ED
:1048700018461437BD465DF8047B704780B485B098
:1048800000AFF860B9607A603B60FB68BA681A6094
:10489000FB687A685A60FB683A689A60FB68002295
:1048A000DA60FB6818461437BD465DF8047B704734
:1048B00080B483B000AF786039607B683A681A6072
:1048C0007B6800225A607B68083300221A60C3F8B4
:1048D00003207B6870221A617B6800225A617B6822
:1048E00000221A767B6818460C37BD465DF8047BBB
:1048F000704780B483B000AF786039607B683A68F5
:104900001A607B6818460C37BD465DF8047B70471B
:1049100080B582B000AF7860002220210348FEF706
:10492000B3F800BF0837BD4680BD00BF000002409D
:1049300080B582B000AF78607B6800220421184601
:10494000FFF7B2FE7B681C33022204211846FFF7F2
:10495000ABFE7B683833002200211846FFF7A4FE27
:104960007B685433796801221846FFF7F9FE7B68AB
:104970005C33796802221846FFF7F2FE7B686433E5
:10498000796803221846FFF7EBFE7B686C33796881
:1049900004221846FFF7E4FE7B6874337968052229
:1049A0001846FFF7DDFE7B687C33796806221846DF
:1049B000FFF7D6FE7B688433796807221846FFF735
:1049C000CFFE7B688C33796808221846FFF7C8FE53
:1049D0007B689433796801221846FFF7A8FE7B684C
:1049E000A433796802221846FFF7A1FE7B68B4332E
:1049F000796803221846FFF79AFE7B68C43379680A
:104A000004221846FFF793FE7B68D43379680522A9
:104A10001846FFF78CFE7B68E43379680622184657
:104A2000FFF785FE7B68F433796807221846FFF7A5
:104A30007EFE7B6803F58273796808221846FFF7CB
:104A400076FE7B6803F58A73796801221846FFF7C2
:104A50009BFE7B6803F59273796802221846FFF784
:104A600093FE7B6803F59A73796803221846FFF773
:104A70008BFE7B6803F5A273796804221846FFF762
:104A800083FE7B6803F5AA73796805221846FFF751
:104A90007BFE7B6803F5B273796806221846FFF740
:104AA00073FE7B6803F5BA73796807221846FFF72F
:104AB0006BFE7B6803F5C273796808221846FFF71E
:104AC00063FE7B6803F5CA727B681C331946104687
:104AD000FFF7EEFE7B6803F5D87079687B681C33BE
:104AE0001A46FFF76BFE7B6803F5FE707B6803F1E7
:104AF0001C0101230122FFF7FEFD7B6803F5037013
:104B00007B6803F11C0101230222FFF7F4FD7B689F
:104B100003F507707B6803F11C0101230322FFF7F3
:104B2000EAFD7B6803F50B707B6803F11C01012330
:104B30000422FFF7E0FD7B6803F50F707B681C33F0
:104B400000221946FFF784FE7B6803F512707B682C
:104B50001C3301221946FFF77BFE7B6803F51570B5
:104B60007B681C3302221946FFF772FE7B6803F54F
:104B700018707B681C3303221946FFF769FE7B68B7
:104B800003F51B707B681C3304221946FFF760FE97
:104B90007B6803F51E707B681C3305221946FFF7FE
:104BA00057FE7B6803F52170796801230022FFF727
:104BB00065FE7B6803F52570796801230122FFF704
:104BC0005DFE7B6803F52970796801230222FFF7F7
:104BD00055FE7B6803F52D70796801230322FFF7EA
:104BE0004DFE7B6803F53170796801230422FFF7DD
:104BF00045FE7B6803F53570796801230522FFF7D0
:104C00003DFE7B6803F53A7305491846FFF771FED0
:104C10007868FFF77DFE7B6818460837BD4680BD83
:104C2000DC07002080B483B000AF786039607B6817
:104C30004FF000021A607B6800229A807B68002295
:104C4000DA807B684FF000029A607B683A68DA602D
:104C50007B6818460C37BD465DF8047B7047000042
:104C600080B52DED028B82B000AF786087ED000A31
:104C700097ED007ADFED316AC7EE267A7B68C3EDE7
:104C8000007A7B6893ED027A7B68D3ED007AB4EE0C
:104C9000677AF1EE10FA40D07B68DB8801339AB274
:104CA0007B68DA807B6800229A807B689B881A4642
:104CB0004FF6FE739A42E4DC7B68DB8807EE903A9D
:104CC000B8EE677A7B689B8807EE903AF8EE677AD1
:104CD000F7EE006A77EEA67A27EE278AFEF732F81B
:104CE00007EE900AB8EE677AC8EE077A7B68C3EDE4
:104CF000027A7B6893ED027A7B68D3ED007AB4EE9A
:104D0000677AF1EE10FA06D07B689B8801339AB27D
:104D10007B689A80C9E700BFB3E77B68DB687A6885
:104D2000D288013A5A607B68DB687A689288DA60D8
:104D300000BF0837BD46BDEC028B80BD00007A4441
:104D400080B582B000AF78607B68DB681846FEF7FC
:104D500047FA7B68DB681846FEF7E4FA00BF0837BD
:104D6000BD4680BD80B5ADF5427D00AFFDF760F872
:104D70000023C7F8043300F05FF8FFF78BFBFFF761
:104D800067FBFFF7F3FA00F085FA00F09FFA00F0F6
:104D9000FFF900F021FAFFF70DFC07F114031846A4
:104DA000FFF7C6FD1E4A07F11403136007F1140351
:104DB00003F539731846FFF7D7F807F1140303F525
:104DC000397318491846FFF72EF93B1D1649184646
:104DD000FFF728FF3B1DB1EE040A1846FFF740FF1E
:104DE0003B1D1846FFF7ACFFFEF73AFE4FF00003FD
:104DF000C7F800330D4B1B78002BFBD007F11403D1
:104E000003F50F731846FFF74BF9094B1B8819463A
:104E1000084800F075FB054B00221A70EAE700BF56
:104E200008070020489000081C080020C406002045
:104E3000CC0600205090000880B594B000AF07F178
:104E40001C0334220021184600F052FB07F108032E
:104E500000221A605A609A60DA601A6100237B604F
:104E60002E4A2E4B1B6C43F0805313642B4B1B6C50
:104E700003F080537B607B6800233B60284A284B0B
:104E80001B6843F440431360254B1B6803F4404305
:104E90003B603B680123FB614FF480333B6202239C
:104EA0007B634FF48003BB630423FB63A0233B6459
:104EB00002237B640223BB640223FB6407F11C030F
:104EC0001846FDF7B7FF0346002B14BF012300234C
:104ED000DBB2002B01D000F025F80F23BB600223CA
:104EE000FB6000233B614FF4A0537B614FF4805380
:104EF000BB6107F1080305211846FDF789FE03464B
:104F0000002B14BF01230023DBB2002B01D000F0E3
:104F100009F800BF5037BD4680BD00BF00380240D1
:104F20000070004080B500AF044B1B6803F5397377
:104F300003491846FFF777F800BF80BD0807002037
:104F40005890000800B583B002A94FF6FF7341F8EE
:104F5000040D01220348FEF77DFC019803B05DF8C3
:104F600004FB00BF9C09002000B585B004A9002304
:104F700001F8093D01224FF6FF731048FEF7EEFCE1
:104F80009DF807200D2A0CD004A94FF6FF7341F8B5
:104F9000042D0A480122FEF75DFC039805B05DF878
:104FA00004FB04A94FF6FF7341F8082D03480122C2
:104FB000FEF750FC0A228DF80720E5E79C09002047
:104FC00000B583B00D4B002100915A6C42F4804231
:104FD0005A645A6C02F480420092009A01911A6C51
:104FE00042F080521A641B6C03F080530193072037
:104FF000019BFDF767FA03B05DF804FB003802403F
:10500000704700BFFEE700BFFEE700BFFEE700BF3E
:10501000FEE700BF704700BF704700BF704700BF8A
:10502000FCF720BF0148FDF757BB00BF9C080020DC
:105030000148FDF751BB00BFFC0800200148FDF707
:1050400017B900BF600700200148FDF711B900BF84
:10505000600700200148FDF70BB900BF6007002082
:105060000148FEF777B900BFDC0700200148FEF7D2
:1050700071B900BF1C0800200148FEF76BB900BFE2
:105080005C0800200120704708B500F007FA1623DD
:1050900003604FF0FF3008BD08B500F0FFF916239C
:1050A0000360FEE770B5161E12DD0D46002402E017
:1050B0009E420BD01C46FFF757FFC0B20A2804F1EE
:1050C000010305F8010BF3D1184670BDA01C70BD9B
:1050D000012070BD70B5161E07DD0C468D1914F841
:1050E000010BFFF72FFFAC42F9D1304670BD00BF76
:1050F0000A4A08B5136873B118446946884202D851
:105100001060184608BD00F0C9F90C2303604FF089
:10511000FF33184608BD024B1360EDE7240700205B
:10512000EC0900204FF0FF30704700BF4FF40053F0
:105130004B600020704700BF01207047002070477F
:105140001049114BD1F8882042F4700210B4C1F814
:1051500088201A680D4C002042F001021A60986005
:105160001A6822F0847222F480321A605C601A6835
:105170004FF0006422F480221A60D8608C605DF8E1
:10518000044B704700ED00E000380240103000246E
:1051900000B50F4A0F4B136083B0002310465360D5
:1051A00000939360D36093610193FEF719F860B99F
:1051B00000236946064800930193FEF775F908B18C
:1051C000FFF7B0FE03B05DF804FBFFF7ABFEEFE7BF
:1051D0001C0800200010004000B50F4A0F4B136060
:1051E00083B000231046536000939360D3609361B3
:1051F0000193FDF7F5FF60B9002369460648009367
:105200000193FEF751F908B1FFF78CFE03B05DF88A
:1052100004FBFFF787FEEFE75C0800200014004066
:1052200000B50368184A934283B019D0174A9342D5
:1052300002D003B05DF804FB0022154B0192196CFB
:1052400041F0200119641B6C03F020030193114607
:105250003720019BFDF748F93720FDF77BF9E8E798
:1052600000220B4B0092196C41F0100119641B6C69
:1052700003F01003009311463620009BFDF734F92C
:105280003620FDF767F9D4E7001000400014004015
:10529000003802400B4B0C4A10B50C211A604FF439
:1052A000E134002218465C6059619A60DA601A6144
:1052B0009A61DA61FEF79EFA00B910BDBDE81040B0
:1052C000FFF730BE5C090020001001400B4B0C4A78
:1052D00010B50C211A604FF4E134002218465C60CE
:1052E00059619A60DA601A619A61DA61FEF782FAAE
:1052F00000B910BDBDE81040FFF714BE9C090020A6
:1053000000440040F0B50368474A8BB00024934244
:105310000694059407940894099459D0434A9342FB
:1053200001D00BB0F0BD424B03941A6C414E42F4D5
:1053300000321A641A6C02F400320392039A049445
:105340001A6B42F001021A631B6B03F00103049312
:105350000C22022305A901270592069303220723A5
:1053600005463548079708920993DDF810E0334F5A
:10537000FDF782FA4FF0006140224FF4806330461F
:10538000F4607461B461F4613462746237607160B6
:10539000B2603361FDF706F9002841D1284C2E6335
:1053A0000023284FB5634FF000614FF48062204620
:1053B000276061602261A360E3606361A361E361D0
:1053C00023626362FDF7EEF838BB6C63A563A8E760
:1053D000174B01945A6C184842F010025A645A6CE8
:1053E00002F010020192019A02941A6B42F001023B
:1053F0001A631B6B03F0010302934FF4C06602258E
:1054000001240322072305A9029F05960695079408
:1054100008920993FDF730FA83E7FFF783FDD4E79D
:10542000FFF780FDBAE700BF0010014000440040D4
:1054300000380240FC08002000000240A06002404A
:105440009C08002088600240DFF834D0002103E08F
:105450000C4B5B58435004310B480C4B42189A429A
:10546000F6D30B4A02E0002342F8043B094B9A4270
:10547000F9D3FFF765FE00F017F8FFF773FC7047EC
:1054800000000220E4950008000000207C060020B7
:105490007C060020EC090020FEE70000014B1868A4
:1054A000704700BF0C00002070B50D4E0D4CA41BC2
:1054B000A4100025A54209D10B4E0C4C03F0AAFD07
:1054C000A41BA4100025A54205D170BD56F82530B7
:1054D00098470135EEE756F8253098470135F2E751
:1054E000DC950008DC950008DC950008E0950008D4
:1054F00002440346934200D1704703F8011BF9E7C9
:105500000FB40A4B13B51C6824B1A36913B9204624
:1055100002F07AF805AB049AA1680193204600F0E6
:1055200007F802B0BDE8104004B070470C0000203E
:105530002DE9F04FBDB0884615461C461F468346F0
:1055400002F012FA03680D931846FAF7B1FE0990BB
:10555000BBF1000F05D0DBF8183013B9584602F044
:1055600053F8994B984537D1DBF80480D8F864306C
:10557000D80707D4B8F80C30990503D4D8F85800E8
:1055800002F002FAB8F90C309A0409D443F400533B
:10559000A8F80C30D8F8643023F40053C8F864300D
:1055A000B8F80C301E0702D5D8F8103003BB4146BE
:1055B000584601F039F8D8B1D8F86430DD0707D47F
:1055C000B8F80C309C0503D4D8F8580002F0DDF987
:1055D0004FF0FF330A9326E07C4B984502D1DBF86D
:1055E0000880C3E77A4B984508BFDBF80C80BDE71D
:1055F000B8F80C3003F01A020A2A18D1B8F90E20B4
:10560000002A14DBD8F86420D00705D4990503D408
:10561000D8F8580002F0B9F923462A4641465846C0
:1056200000F0C2FF0A900A983DB0BDE8F08F9FEDF0
:10563000647B8DED067B00232CAC1F94219320937B
:1056400005950393119310930A93059D2B4613F828
:10565000012B12B1252A40F08380059BEE1A0DD054
:1056600084E84800219B33442193209B0133072B7E
:10567000209377DC08340A9B33440A932B78002B61
:1056800000F039870023691C8DF85F301A464FF00F
:10569000FF3A0B931D460A204E1C0978059602918D
:1056A00002992039582900F21D84DFE811F0B30077
:1056B0001B041B04B8001B041B041B041B041B0459
:1056C0001B04BB0065001B04C400C7001B04E400EE
:1056D000E700E700E700E700E700E700E700E70092
:1056E000E7001B041B041B041B041B041B041B04FA
:1056F0001B041B041B041B0131011B0431011B048F
:105700001B041B041B04FA001B041B0446031B049C
:105710001B041B041B041B04AD031B041B0493008C
:105720001B041B041B041B041B041B041B041B0481
:105730001B041B040D016B00310131013101FD001F
:105740006B001B041B0400011B04280348037C039B
:1057500007011B048D031B04AF031B041B04C703B9
:105760001D4673E71FAA4146584602F0CCFE0028AA
:1057700040F099862CAC7EE701232B2205998BE71C
:105780000F46FBE70BB18DF85F20AA0640F1B08011
:10579000073727F0070707F10803D7E900670493E5
:1057A000002E77F1000306DA76424FF02D0367EB07
:1057B00047078DF85F300123D0E200BFAFF30080D0
:1057C0000000000000000000189100083891000857
:1057D000F89000080BB18DF85F20A24B1193A90639
:1057E00040F13183073727F0070707F10803D7E9AE
:1057F00000670493EB070BD556EA070308D0302364
:105800008DF860309DF808308DF8613045F0020564
:105810000223A0E2002AB1D101232022AEE745F005
:105820000105ABE73E680B96002E07F10401A7DAED
:1058300076420B960F4645F004059FE705994E1CEE
:10584000097802912A2910D04FF0000A0596029992
:10585000303909293FF624AF00FB0A1A05990E4694
:1058600016F8011B02910596F1E73968059641EAA1
:10587000E17A043782E745F080057FE700210B914C
:1058800002990B9E303900FB06110B9105990E46CB
:1058900016F8011B02910299059630390929EFD9B2
:1058A000FEE645F0080569E745F0400566E705991D
:1058B00009786C2905D105990131059145F020053C
:1058C0005CE745F0100559E73B1D049300263B6853
:1058D0008DF888308DF85F604FF0010A08960DF161
:1058E00088091EE10BB18DF85F2045F010054CE7EB
:1058F00015F0100F07F1040303D03E680493F71767
:105900004EE73E68049315F0400F18BF36B2F6E735
:105910000BB18DF85F20073727F0070707F1080361
:10592000049397ED007B8DED067B069B1293079BFE
:1059300023F0004313934FF0FF324B4BDDE912018C
:10594000FBF710F9002840F0E3854FF0FF32464B9B
:10595000DDE91201FBF7E8F8002840F0D9850022C4
:105960000023DDE90601FBF7D5F810B12D238DF8F2
:105970005F303E4B3E4A029925F080054729CCBF57
:10598000914699464FF0030A00260896C9E0BAF1FD
:10599000FF3F22D0029B23F02003472B04D1BAF112
:1059A000000F08BF4FF0010A45F480731493079B62
:1059B000002B15DA069B0E93079B03F100430F9310
:1059C0002D230C93029B23F02007462F0ED0452F4A
:1059D00046D10AF1010602210AE04FF0060AE3E788
:1059E0009DED067B00238DED0E7BEAE756460321F5
:1059F0001DAB01931AAB0093324619AB9DED0E0B14
:105A0000584600F00DFF472F814602D1EB0740F1C9
:105A10008C8509EB0603462F039311D199F80030CA
:105A2000302B09D100220023DDE90E01FBF768F8D5
:105A300010B9C6F101061996039A199B1A440392EC
:105A400000220023DDE90E01FBF75AF890B930225D
:105A50001D9B039999420FD9591C1D911A70F7E7A4
:105A60005646B8E7A4900008FFFFEF7F9490000827
:105A700098900008039B1D931D9B472FA3EB0903E0
:105A8000039340F0F880199BDF1C02DB9A4580F2FB
:105A90001F81029B023B0293199A9DF808108DF812
:105AA0006C10531E002B1993B6BFC2F101032B22B9
:105AB0002D22092B8DF86D2040F3FA800DF17B0229
:105AC0000A2693FBF6F006FB10333033092802F860
:105AD000013C02F1FF31034600F3E380303301F86B
