:020000040800F2
:1000000000000220C58600085D8100085F810008AD
:10001000618100086381000865810008000000001C
:1000200000000000000000000000000067810008E0
:1000300069810008000000006B8100086D810008E4
:100040001587000815870008158700081587000820
:100050001587000815870008158700081587000810
:100060001587000815870008158700081587000800
:1000700015870008158700081587000815870008F0
:100080001587000875810008158700081587000886
:100090008581000895810008A58100081587000862
:1000A00015870008158700081587000815870008C0
:1000B00015870008B581000815870008C58100086C
:1000C000D5810008E581000815870008158700081C
:1000D0001587000815870008F581000815870008B6
:1000E0001587000815870008158700081587000880
:1000F0001587000815870008158700081587000870
:10010000158700081587000815870008158700085F
:100110001587000815870008058200081582000869
:10012000158700081587000815870008158700083F
:100130001587000800000000000000001587000877
:10014000158700081587000815870008158700081F
:10015000158700081587000815870008158700080F
:1001600015870008158700081587000815870008FF
:100170001587000815870008158700080000000093
:1001800000000000158700080000000000000000CB
:100190001587000800000000000000001587000817
:1001A00000000000000000000000000015870008AB
:1001B00015870008158700081587000815870008AF
:0401C0001587000897
:1001D00010B5054C237833B9044B13B10448AFF381
:1001E00000800123237010BD7C0600200000000069
:1001F0003CC4000808B5034B1BB103490348AFF3E7
:10020000008008BD00000000800600203CC40008FB
:10021000034613F8012B002AFBD1181A0138704746
:1002200001F0FF01102A2BDB10F0070F08D010F8A7
:10023000013B013A8B422DD010F0070F42B3F6D1AB
:10024000F0B441EA012141EA014122F007047FF0C4
:1002500000070023F0E80256083C85EA010586EA1B
:10026000010685FA47F5A3FA87F586FA47F6A5FA57
:1002700087F68EB9EED1F0BC01F0FF0102F0070263
:1002800032B110F8013B013A83EA010313B1F8D10E
:100290000020704701387047002D06BF35460338EF
:1002A000073815F0010F07D1013015F4807F02BF28
:1002B000013015F4C03F0130F0BC0138704700BF79
:1002C00081F0004102E000BF83F0004330B54FEA07
:1002D00041044FEA430594EA050F08BF90EA020F74
:1002E0001FBF54EA000C55EA020C7FEA645C7FEA07
:1002F000655C00F0E2804FEA5454D4EB5555B8BF2A
:100300006D420CDD2C4480EA020281EA030382EA9A
:10031000000083EA010180EA020281EA0303362D2C
:1003200088BF30BD11F0004F4FEA01314FF4801CFF
:100330004CEA113102D0404261EB410113F0004F11
:100340004FEA03334CEA133302D0524263EB4303C8
:1003500094EA050F00F0A780A4F10104D5F1200E66
:100360000DDB02FA0EFC22FA05F2801841F10001C1
:1003700003FA0EF2801843FA05F359410EE0A5F195
:1003800020050EF1200E012A03FA0EFC28BF4CF0C6
:10039000020C43FA05F3C01851EBE37101F000457C
:1003A00007D54FF0000EDCF1000C7EEB00006EEB89
:1003B0000101B1F5801F1BD3B1F5001F0CD3490813
:1003C0005FEA30004FEA3C0C04F101044FEA44526A
:1003D00012F5800F80F09A80BCF1004F08BF5FEAF1
:1003E000500C50F1000041EB045141EA050130BDD1
:1003F0005FEA4C0C404141EB010111F4801FA4F174
:100400000104E9D191F0000F04BF01460020B1FAC8
:1004100081F308BF2033A3F10B03B3F120020CDA00
:100420000C3208DD02F1140CC2F10C0201FA0CF0DE
:1004300021FA02F10CE002F11402D8BFC2F1200C43
:1004400001FA02F120FA0CFCDCBF41EA0C019040F9
:10045000E41AA2BF01EB0451294330BD6FEA040442
:100460001F3C1CDA0C340EDC04F11404C4F120022D
:1004700020FA04F001FA02F340EA030021FA04F33F
:1004800045EA030130BDC4F10C04C4F1200220FA96
:1004900002F001FA04F340EA0300294630BD21FAD4
:1004A00004F0294630BD94F0000F83F4801306BF9A
:1004B00081F480110134013D4EE77FEA645C18BF8E
:1004C0007FEA655C29D094EA050F08BF90EA020F25
:1004D00005D054EA000C04BF1946104630BD91EA1D
:1004E000030F1EBF0021002030BD5FEA545C05D120
:1004F0004000494128BF41F0004130BD14F580045F
:100500003CBF01F5801130BD01F0004545F0FE41D2
:1005100041F470014FF0000030BD7FEA645C1ABF07
:10052000194610467FEA655C1CBF0B46024650EA3E
:10053000013406BF52EA033591EA030F41F400216A
:1005400030BD00BF90F0000F04BF0021704730B5F0
:100550004FF4806404F132044FF000054FF00001C5
:1005600050E700BF90F0000F04BF0021704730B586
:100570004FF4806404F1320410F0004548BF40425B
:100580004FF000013EE700BF42004FEAE2014FEAB0
:1005900031014FEA02701FBF12F07F4393F07F4F8B
:1005A00081F06051704792F0000F14BF93F07F4FBD
:1005B000704730B54FF4607401F0004521F0004100
:1005C00020E700BF50EA010208BF704730B54FF086
:1005D00000050AE050EA010208BF704730B511F08B
:1005E000004502D5404261EB41014FF4806404F1C3
:1005F00032045FEA915C3FF4DCAE4FF003025FEA45
:10060000DC0C18BF03325FEADC0C18BF033202EBCC
:10061000DC02C2F1200300FA03FC20FA02F001FA26
:1006200003FE40EA0E0021FA02F11444C1E600BFC5
:1006300070B54FF0FF0C4CF4E06C1CEA11541DBF78
:100640001CEA135594EA0C0F95EA0C0F00F0DEF843
:100650002C4481EA030621EA4C5123EA4C5350EA28
:10066000013518BF52EA033541F4801143F4801379
:1006700038D0A0FB02CE4FF00005E1FB02E506F00A
:100680000042E0FB03E54FF00006E1FB03569CF05F
:10069000000F18BF4EF0010EA4F1FF04B6F5007F65
:1006A00064F5407404D25FEA4E0E6D4146EB0606D7
:1006B00042EAC62141EA55514FEAC52040EA5E5060
:1006C0004FEACE2EB4F1FD0C88BFBCF5E06F1ED80A
:1006D000BEF1004F08BF5FEA500E50F1000041EB41
:1006E000045170BD06F0004646EA010140EA0200EE
:1006F00081EA0301B4EB5C04C2BFD4EB0C0541EA10
:10070000045170BD41F480114FF0000E013C00F324
:10071000AB8014F1360FDEBF002001F0004170BD48
:10072000C4F10004203C35DA0C341BDC04F1140461
:10073000C4F1200500FA05F320FA04F001FA05F2ED
:1007400040EA020001F0004221F0004110EBD370BA
:1007500021FA04F642EB06015EEA430E08BF20EAE6
:10076000D37070BDC4F10C04C4F1200500FA04F389
:1007700020FA05F001FA04F240EA020001F000411B
:1007800010EBD37041F100015EEA430E08BF20EA8E
:10079000D37070BDC4F1200500FA05F24EEA020ED6
:1007A00020FA04F301FA05F243EA020321FA04F005
:1007B00001F0004121FA04F220EA020000EBD370BC
:1007C0005EEA430E08BF20EAD37070BD94F0000FBC
:1007D0000FD101F00046400041EB010111F4801FF0
:1007E00008BF013CF7D041EA060195F0000F18BFA1
:1007F000704703F00046520043EB030313F4801FDD
:1008000008BF013DF7D043EA0603704794EA0C0F96
:100810000CEA135518BF95EA0C0F0CD050EA4106AC
:1008200018BF52EA4306D1D181EA030101F0004129
:100830004FF0000070BD50EA410606BF1046194651
:1008400052EA430619D094EA0C0F02D150EA01365D
:1008500013D195EA0C0F05D152EA03361CBF10469E
:1008600019460AD181EA030101F0004141F0FE413D
:1008700041F470014FF0000070BD41F0FE4141F4C1
:10088000780170BD70B54FF0FF0C4CF4E06C1CEAC1
:1008900011541DBF1CEA135594EA0C0F95EA0C0F76
:1008A00000F0A7F8A4EB050481EA030E52EA033531
:1008B0004FEA013100F088804FEA03334FF0805552
:1008C00045EA131343EA12634FEA022245EA11157F
:1008D00045EA10654FEA00260EF000419D4208BF30
:1008E000964244F1FD0404F5407402D25B084FEADD
:1008F0003202B61A65EB03055B084FEA32024FF489
:1009000080104FF4002CB6EB020E75EB030E22BFE5
:10091000B61A754640EA0C005B084FEA3202B6EBA5
:10092000020E75EB030E22BFB61A754640EA5C0054
:100930005B084FEA3202B6EB020E75EB030E22BFE4
:10094000B61A754640EA9C005B084FEA3202B6EBE5
:10095000020E75EB030E22BFB61A754640EADC00A4
:1009600055EA060E18D04FEA051545EA16754FEA06
:1009700006164FEAC30343EA52734FEAC2025FEA24
:100980001C1CC0D111F4801F0BD141EA00014FF0B3
:1009900000004FF0004CB6E711F4801F04BF014384
:1009A0000020B4F1FD0C88BFBCF5E06F3FF6AFAEA0
:1009B000B5EB030C04BFB6EB020C5FEA500C50F130
:1009C000000041EB045170BD0EF0004E4EEA1131B3
:1009D00014EB5C04C2BFD4EB0C0541EA045170BDBA
:1009E00041F480114FF0000E013C90E645EA060EFE
:1009F0008DE60CEA135594EA0C0F08BF95EA0C0F2C
:100A00003FF43BAF94EA0C0F0AD150EA01347FF473
:100A100034AF95EA0C0F7FF425AF104619462CE74A
:100A200095EA0C0F06D152EA03353FF4FDAE1046AD
:100A3000194622E750EA410618BF52EA43067FF4FE
:100A4000C5AE50EA41047FF40DAF52EA43057FF48E
:100A5000EBAE12E74FF0FF3C06E000BF4FF0010C99
:100A600002E000BF4FF0010C4DF804CD4FEA410CFD
:100A70007FEA6C5C4FEA430C18BF7FEA6C5C1BD0CA
:100A800001B050EA410C0CBF52EA430C91EA030F4B
:100A900002BF90EA020F0020704710F1000F91EAA8
:100AA000030F58BF994208BF90422CBFD8176FEA76
:100AB000E37040F0010070474FEA410C7FEA6C5C44
:100AC00002D150EA013C07D14FEA430C7FEA6C5C4B
:100AD000D6D152EA033CD3D05DF8040B704700BF77
:100AE0008446104662468C461946634600E000BFC5
:100AF00001B5FFF7B7FF002848BF10F1000F01BD97
:100B00004DF808EDFFF7F4FF0CBF012000205DF861
:100B100008FB00BF4DF808EDFFF7EAFF34BF0120E6
:100B200000205DF808FB00BF4DF808EDFFF7E0FF7F
:100B300094BF012000205DF808FB00BF4DF808EDD0
:100B4000FFF7CEFF94BF012000205DF808FB00BF37
:100B50004DF808EDFFF7C4FF34BF012000205DF819
:100B600008FB00BF4FEA410C7FEA6C5C02D150EAFF
:100B7000013C0AD14FEA430C7FEA6C5C02D152EA95
:100B8000033C02D14FF0000070474FF00100704766
:100B90004FEA410212F5001215D211D56FF47873A5
:100BA000B3EB625212D94FEAC12343F0004343EA48
:100BB000505311F0004F23FA02F018BF4042704723
:100BC0004FF00000704750EA013005D111F00040AD
:100BD00008BF6FF0004070474FF00000704700BF43
:100BE00053B94AB9002908BF00281CBF4FF0FF3194
:100BF0004FF0FF3001F0F6B8ADF1080C6DE904CE0E
:100C000000F006F8DDF804E0DDE9022304B07047E7
:100C10002DE9F0478C460D460446089E002B51D125
:100C20008A4217466DD9B2FA82FEBEF1000F0BD090
:100C3000CEF1200C01FA0EF520FA0CFC02FA0EF7A8
:100C40004CEA050C00FA0EF44FEA174A250CBCFBDF
:100C5000FAF81FFA87F90AFB18CC45EA0C4508FB9D
:100C600009F3AB420AD9ED1908F1FF3280F0238174
:100C7000AB4240F22081A8F102083D44ED1AA4B233
:100C8000B5FBFAF00AFB105544EA054400FB09F9EC
:100C9000A14509D9E41900F1FF3380F00A81A1458B
:100CA00040F2078102383C44A4EB090440EA0840C2
:100CB0000021002E61D024FA0EF40023346073600A
:100CC000BDE8F0878B4207D9002E54D0002186E87A
:100CD00021000846BDE8F087B3FA83F1002940F00F
:100CE0008E80AB4202D3824200F2FA80841A65EB16
:100CF00003050120AC46002E3FD086E81010BDE869
:100D0000F08712B90127B7FBF2F7B7FA87FEBEF1F9
:100D1000000F34D1EB1B3A0C1FFA87FC0121B3FB07
:100D2000F2F8250C02FB183345EA03450CFB08F3E7
:100D3000AB4207D9ED1908F1FF3002D2AB4200F205
:100D4000D1808046ED1AA3B2B5FBF2F002FB10553C
:100D500043EA05440CFB00FCA44507D9E41900F163
:100D6000FF3302D2A44500F2B8801846A4EB0C046D
:100D700040EA08409DE731463046BDE8F087CEF1B5
:100D8000200405FA0EF307FA0EF720FA04F83A0CDD
:100D900025FA04F448EA0308B4FBF2F14FEA1845D7
:100DA00002FB11441FFA87FC45EA044501FB0CF3E2
:100DB000AB4200FA0EF409D9ED1901F1FF3080F0D1
:100DC0008A80AB4240F2878002393D44EB1A1FFA19
:100DD00088F5B3FBF2F002FB103345EA034500FB54
:100DE0000CF3AB4207D9ED1900F1FF386FD2AB42DB
:100DF0006DD902383D44EB1A40EA01418FE7C1F159
:100E0000200722FA07F88B4005FA01F448EA0303A9
:100E100020FA07FE4FEA134CFD404EEA040EB5FBE4
:100E2000FCF94FEA1E440CFB19551FFA83F844EAFB
:100E3000054509FB08F4AC4202FA01F200FA01FA96
:100E400008D9ED1809F1FF3043D2AC4241D9A9F1DC
:100E500002091D442D1B1FFA8EFEB5FBFCF00CFB96
:100E600010554EEA054400FB08F8A04507D9E418E0
:100E700000F1FF3529D2A04527D902381C4440EAA9
:100E80000940A4EB0804A0FB02894C45C6464D4628
:100E900015D312D056B1BAEB0E0364EB050404FA75
:100EA00007F7CB401F43CC40376074600021BDE89A
:100EB000F0871846F8E69046E0E6C245EAD2B8EB7D
:100EC000020E69EB03050138E4E72846D7E7404600
:100ED00091E78146BEE7014678E702383C4445E7A2
:100EE000084608E7A8F102083D442BE703685A00CA
:100EF0004CBF43F0004323F000431844704700BF49
:100F000061B32DE9F84F01F1FF3A90460646D1460C
:100F1000002707EB090404EBD4746410E500711991
:100F20000846FFF7E3FFA245834605F10800304479
:100F300009D0FFF7DBFFC34500F1FF3005D840457E
:100F400009D2671CE5E7C34505D9A74202D004F1E1
:100F5000FF39DEE700210846BDE8F88F08467047F4
:100F6000012807D0022807D0044B00280CBF1846E0
:100F70000020704702487047024870476516000815
:100F8000691600086D16000830B5244B83B004467E
:100F90008D1E7BB301A92846AFF3008020B30199D1
:100FA0002A46FFF7ADFF0146F0B1FFF79FFF4B6800
:100FB000A064012B12D0002B01F1040020DBFFF70D
:100FC00095FF0023E06423650368002B1CDBFFF71B
:100FD0008DFF00232061184603B030BD002323613C
:100FE0000523184603B030BD0023236109231846AA
:100FF00003B030BD0A490B48091AC9100191CFE767
:101000000123E0642365DFE7C3F30360FFF7A8FF74
:101010000028206114BF00230923DCE70000000042
:101020007CCB000894C900080368DA0710B50446B1
:1010300006D49B0700F1480009D500F051FC236855
:10104000590709D51A070ED5DB0613D510BD00F0D8
:101050003FFC23685907F5D404F1D00000F048FCA8
:1010600023681A07F0D404F5A87000F049FC23683F
:10107000DB06EBD404F5E870BDE8104000F084BC5A
:10108000036803B103441846704700BF0920704746
:10109000704700BF70B504460D4608E02B6C6361D5
:1010A0002A462369214601209847082808D1296C3F
:1010B0002046FFF769FF06460028EFD00BF073F9D2
:1010C0000728FBD13046296CFFF7E2FF281D00F00E
:1010D000F3FB00BF2DE9F0470C1D054692460FCCEF
:1010E000ADF5727D03AE0FC60FCC0FC60FCC0FC689
:1010F00094E80F0002ACD5F80C80D5F8189086E87B
:101100000F0000232846216C2360FFF73DFFBAF152
:10111000000F074614BF0A2609267FB1A36B46F0CD
:1011200010018DE810022A46636401202B46C04757
:1011300078BB38460DF5727DBDE8F087236C6B6196
:101140004FF4F07221467AA80AF004FA2B697AAAC1
:10115000294630469847889B82468DE810023146E2
:1011600063642A462B460120C04790B94FF4F072C1
:101170007AA920460AF0EEF9BAF1080F06D1216CDF
:101180002846FFF701FF09260746C6E7BAF1070F11
:1011900005D0092738460DF5727DBDE8F087384641
:1011A000216CFFF775FF03A800F086FB406C7047C9
:1011B000F0B5CB6B0B640E1D0F4604460FCEF9B095
:1011C00001AD0FC50FCE0FC50FCE0FC596E80F00AE
:1011D0004FF0FF3685E80F00009606E023696A4667
:1011E000214698470828054608D110992046FFF760
:1011F000CBFE0028F2D0092079B0F0BD6846FFF799
:1012000013FF062DF7D139462046FFF743FF00BFF5
:1012100030B4DD6BC160826119461D64002230BCB0
:1012200058E700BF70B5C66843690B6426B1012258
:10123000FFF750FF0BF0B7F803690A4604460D4666
:10124000014602209847072807D0082803D12946DD
:101250002046FFF71FFF0BF0A6F83046296CFFF77A
:1012600017FF281D00F028FBC2681AB1CA6B0A6478
:1012700000222FE79CE700BF704700BF836813B1CF
:10128000014601201847704700B5042907D8DFE858
:1012900001F00309060909000BB90F2A05D902203C
:1012A0005DF804FB01205DF804FB00EB82021846A8
:1012B0005368019A13605DF804FB00BF10B584B059
:1012C000002303AC0A4600941946FFF7DDFF03989C
:1012D00004B010BD00B5042907D8DFE801F0030908
:1012E000060909000BB90F2A05D902205DF804FB95
:1012F00001205DF804FB019900EB8202096851604E
:1013000018465DF804FB00BF10B584B004AC0023A0
:1013100044F8042D0A4600941946FFF7DBFF04B099
:1013200010BD00BFF0B5D36B1364151D07460E4604
:101330000FCDADF50F7D17AC0FC40FCD0FC40FCD82
:101340000FC495E80F004FF0FF3584E80F001695A5
:1013500010E016A8FFF7D8FF314616A8B84716AA1E
:10136000694678B9049B08209847052804460AD0A6
:10137000092807D026996846FFF706FE6A460C2121
:101380000028E6D0092416A8FFF74EFE20460DF5EA
:101390000F7DF0BD2DE9F04F0D46C96C8BB00C1DD3
:1013A000096807919146089400F0030B1E46002B34
:1013B00060D10902032307918DF825608DF8243050
:1013C0002B6DBBF1020F08BFAC6B13F0010340D1D2
:1013D000019300F008030393D4F80080B8F1000FE4
:1013E00039D0022E43D0B4F8008067880434AB6C47
:1013F00027F0010A0F2148469A44FFF75FFF824514
:1014000033D828F001039A4450452CBF0020012016
:101410007F0007F0020708F0010847EA0807012FDC
:101420003ED035D3022F1CD1236823F00042029214
:10143000BBF1000F76D128B1039900297ED0002A94
:1014400000F0A680002B77DB029B013304EB8304C2
:10145000C2E700230193022E3EDDFFF717FE0028AE
:1014600040D009200BB0BDE8F08F0020D0E76768BE
:101470000834BCE7022BA3DC0B0CDAB209048DF8AC
:101480002530022304EB820407918DF8243097E77E
:10149000BBF1000F02D0002840F0BD8004349BE770
:1014A000BBF1000F25D1A8B194E80C00991C4FEABC
:1014B000D272D6D005F158010133069100F0A38015
:1014C000201DFFF7DDFD06AB01462846AFF3008087
:1014D000002877D108347FE707A9484600F0EEFAE4
:1014E0000028BED1019B002B5CD108200BB0BDE8C9
:1014F000F08F0D2148462F6AFFF7E0FE8742E9D1C1
:10150000AB6A9C42E6D12046FFF7F0FC0F21024671
:101510004846FFF7F9FE48462A460021FFF7F4FE49
:1015200007209FE70D2148462F6AFFF7C7FE874235
:1015300058D02368002B87DA043485E7029B3BB33D
:1015400005F15803271DCDF810B0DDF80C80DDF84B
:1015500008A00596A3461C4602E0B245B04616D048
:1015600038460694FFF78CFD06AB0146002228465C
:10157000AFF3008008F1010604370028EDD0029B8C
:10158000059E43455C46DDF810B0D2D100E05C46D4
:1015900048460D21FFF792FE069B2862AC626B6203
:1015A00006205FE70F214846FFF788FE0E2102461E
:1015B0004846FFF7A9FE4846294A0F21FFF7A4FE37
:1015C00007204FE707460D214846FFF777FE022F19
:1015D00028621DD12B46069A43F82C2F6B62AC6211
:1015E00006203FE7AB6A9C42A3D104220027A31840
:1015F0000299A962EF622A636B632368BB421DDB19
:101600000123019320E748460D21FFF757FE28628A
:10161000069B6B62E3E72046FFF768FC043406464E
:10162000AC632846AFF3008000283FF41AAF484669
:1016300032460F21FFF768FE072013E70846013006
:1016400004EB8000FFF752FC0F2102464846FFF7EB
:101650005BFE48462A463946FFF756FE072001E75B
:1016600000000000002395E6012393E6022391E6A3
:10167000F0B50446C5B004290DD8DFE801F05303E6
:101680000C310F00012B4FEA124695B262D172194C
:10169000102A40F29B80022045B0F0BD002BFAD109
:1016A000102AF8D82368D80600F1C68022AE30464A
:1016B000019200F073F9A06B019A0023012505FA4D
:1016C00003F1114203D0016846F8231004300133BE
:1016D000042BF4D1A063304600F056F90020DBE77C
:1016E000032BD8D1150C97B2EB19102BD3D8236844
:1016F0001E0700F1B58022AE304600F023F9ED0060
:10170000A36B4FB1043D711903EBC70053F8042BD1
:1017100041F8042F8342F9D13046A36300F0F0F87A
:101720000020B9E7002BB6D1A56B97B2201D01268A
:1017300006FA03F1394203F1010302D0296801607E
:101740000435102B00F10400F2D112F400503BD10B
:10175000A563A1E7052B9ED17719202F9BD80F2ECB
:1017600066D92F46002D3AD12A460027002AA06BC1
:1017700072DD00EBC202014644A800EBC6008C38C3
:1017800051F8045B40F8045F9142F9D1084697B1E3
:10179000102E324644A938BF102201EBC202A2F536
:1017A000C4727900043A00EB810150F8045B42F8FE
:1017B000045F8842F9D1012B48D00F2EA16333D9A1
:1017C00017B102A800F094F8002065E70F2E3FF64D
:1017D00062AF00272268D10717D4002F60D022689B
:1017E000510745D4012B4DD00F2E06D822A80193C6
:1017F00000F07AF8019B002FB6D002A8019300F008
:101800007BF8019BC6F11002B0E722F00101052B25
:101810002160019320463BD022F0030240F8482B80
:1018200000F05AF8019BD8E722A800F059F8C7E762
:10183000102FCED9103FCDE723F01003236004F51D
:10184000E870019200F0AAF8019A2FE70431A16331
:1018500022A800F03DF8B7E7002F99D10146AAE78A
:1018600023F00803236004F5A87000F06BF842E74A
:10187000204622F0040240F8D02B019300F03CF8FF
:10188000019BAFE722A8019300F026F8019BB9E77E
:1018900041F0020140F8481B00F026F8019B9CE74C
:1018A000012B03D00F2E3FF65FAF9FE722A80193D5
:1018B00000F012F8019B57E700F1340191E838007D
:1018C0009C46A6464CF8045D90E8FF0FE54600BD37
:1018D00090EC210B704700BF80EC210B704700BFDC
:1018E00090EC200B704700BF80EC200B704700BFCE
:1018F000D0EC200B704700BFC0EC200B704700BF3E
:10190000F0EC0201F0EC0211F0EC0221F0EC0231FB
:10191000F0EC0241F0EC0251F0EC0261F0EC0271EB
:10192000F0EC0281F0EC0291F0EC02A1F0EC02B1DB
:10193000F0EC02C1F0EC02D1F0EC02E1F0EC02F1CB
:10194000704700BFE0EC0201E0EC0211E0EC022184
:10195000E0EC0231E0EC0241E0EC0251E0EC02612B
:10196000E0EC0271E0EC0281E0EC0291E0EC02A11B
:10197000E0EC02B1E0EC02C1E0EC02D1E0EC02E10B
:10198000E0EC02F1704700BFB0FC0181B0FC0191B6
:10199000B0FC01A1B0FC01B1704700BFA0FC018107
:1019A000A0FC0191A0FC01A1A0FC01B1704700BF07
:1019B000EC4600B52DE900502DE9FF1F4FF0000364
:1019C0002DE90C0001A9FFF7F3FBDDF840E012B0B0
:1019D000704700BFEC4600B52DE900502DE9FF1F10
:1019E0004FF000032DE90C0001A9FFF71BFCDDF807
:1019F00040E012B0704700BFEC4600B52DE9005042
:101A00002DE9FF1F4FF000032DE90C0001A9FFF79E
:101A10002BFCDDF840E012B0704700BFEC4600B58B
:101A20002DE900502DE9FF1F4FF000032DE90C00B8
:101A300001ABFFF7EDFBDDF840E012B0704700BFEF
:101A4000EC4600B52DE900502DE9FF1F4FF00003D3
:101A50002DE90C0001AAFFF765FCDDF840E012B0AB
:101A6000704700BF027A1AB9437A43B9B020704771
:101A70000368013A02721A020260180E7047426847
:101A8000013B10B4437213680321141D01721A0242
:101A9000446002605DF8044B180E704700B585B0D5
:101AA00003AA0023009219460C22FFF7EDFB0398CE
:101AB00005B05DF804FB00BFF0E700BF2DE9F0437F
:101AC000064685B00F464FF000083846FFF7CAFFBC
:101AD000B028044623D0050627D400230DF10C09B5
:101AE000194685000D22CDF800903046FFF7CCFB5B
:101AF000EDB2039BCDF80090600605F104054CBFE4
:101B00005D1BED18002319460D2230460395FFF7A3
:101B1000E1FB3846FFF7A6FFB0280446DBD1B8F159
:101B2000000F00F0958000201CE000F0F003802BF7
:101B30005DD0902B19D0A02B2CD0B02B3FD0C02B38
:101B40006CD000F0F803D02B0BD100F0070201326B
:101B500042F40022052301213046FFF789FD0028C9
:101B6000B3D0092005B0BDE8F08300F00D030D2BC4
:101B7000F7D003AD002300F00F0219460095304660
:101B8000FFF782FB0023009519460D223046FFF730
:101B9000A1FB9AE7C24302F007034FF47F621A41A8
:101BA000010702F47F624FF0000348BF42F4804215
:101BB00019463046FFF75CFD0028D2D185E7B128F1
:101BC00057D0B22868D0B32800F0958000F0FC030D
:101BD000B42BC6D000F007020132012342F40022E8
:101BE00019463046FFF744FD0028BAD16DE7384664
:101BF000FFF738FF24020443B4F5004FB1D02401AD
:101C00000023A2B219463046FFF732FD0028A8D1C2
:101C100014F4004F18BF4FF0010856E7C6287DD0D6
:101C2000C72800F0868000F0F803C02B00F09480F5
:101C3000C82800F09F80C92893D13846FFF712FFCB
:101C4000020300F00F0002F470220130024381E72A
:101C500003AC43460E22414600943046FFF714FB86
:101C60000094304643460F224146FFF733FB40467F
:101C700078E73846FFF7F6FE00283FF472AF10F021
:101C8000F0037FF46EAF024619463046FFF7F0FCD2
:101C900000287FF466AF18E700230DF10C090D2230
:101CA0001946CDF800903046FFF7EEFA3846FFF7B8
:101CB000D9FE02064FF002040CD5039B00F07F0012
:101CC000A040034438460393FFF7CCFE030604F11B
:101CD0000704F2D4039BCDF8009000F07F02A240ED
:101CE00003F501740023144419460D223046039471
:101CF000FFF7F0FAE9E63846FFF7B4FE010300F01B
:101D00000F0001F47021421C01230A43304619469A
:101D1000FFF7AEFC00287FF424AFD6E63846FFF785
:101D2000A1FE010300F00F0001F47021421C032307
:101D3000EBE73846FFF796FE00283FF412AF10F0AD
:101D4000F0037FF40EAF024604213046FFF790FC0B
:101D500000287FF406AFB8E600F00F02013203233B
:101D600042F4202219463046FFF782FC00287FF417
:101D7000F8AEAAE63846FFF775FE00F0F00200F074
:101D80000F031032013343EA0232E3E610B5C36CAD
:101D900084B05A6803208DF80C00DC798DF80D4072
:101DA00012020833084601A901920293FFF786FE4A
:101DB00004B010BD08B5FFF77FFE806C08BD00BF02
:101DC00008B5FFF779FEC06CC37900EB83000830DB
:101DD00008BD00BF08B50AF0E6FA00BF08B5FFF776
:101DE000F9FF00BF704700BF10B504460E4B1878CE
:101DF0004FF47A73B3FBF0F30C4A1068B0FBF3F0C6
:101E000000F0F6FB68B90F2C01D9012010BD0022AB
:101E100021464FF0FF3000F0ABFB054B1C6000206B
:101E200010BD012010BD00BF0000002008000020F0
:101E30000400002008B50B4B1A6842F400721A60C7
:101E40001A6842F480621A601A6842F480721A605A
:101E5000032000F07BFB0020FFF7C6FF06F062F9CD
:101E6000002008BD003C0240034A1168034B1B7868
:101E70000B441360704700BF600B0020000000207F
:101E8000014B1868704700BF600B002038B504464E
:101E9000FFF7F6FF0546B4F1FF3F02D0044B1B7875
:101EA0001C44FFF7EDFF401B8442FAD838BD00BF49
:101EB00000000020002800F0A18038B5044690F80A
:101EC0002030D3B12268136823F002031360FFF7B8
:101ED000D7FF054623685A6812F0020F10D0FFF7AB
:101EE000CFFF401B0A28F5D9636A43F400336362CD
:101EF000052384F82030012038BD04F0B3F8E1E771
:101F00001A6842F001021A60FFF7BAFF054623681B
:101F10005A6812F0010F0DD1FFF7B2FF401B0A28DB
:101F2000F5D9636A43F400336362052384F82030F3
:101F3000012038BD227E012A3DD01A6822F080029D
:101F40001A60637E012B3BD02268136823F04003A4
:101F50001360A37E012B39D02268136823F020037D
:101F60001360E37E012B37D02268136843F010031F
:101F70001360237F012B35D02268136823F00803F8
:101F80001360637F012B33D02268136823F00403AE
:101F900013602168A368E2681343226913436269EE
:101FA00013436268013A1343CB610020606201234E
:101FB00084F8203038BD1A6842F080021A60C0E709
:101FC0002268136843F040031360C2E72268136875
:101FD00043F020031360C4E72268136823F0100362
:101FE0001360C6E72268136843F008031360C8E76C
:101FF0002268136843F004031360CAE701207047A6
:1020000090F82030013BDBB2012B05D9436A43F441
:10201000802343620120704770B4434BD3F8002201
:1020200042F00102C3F80022D3F8002222F47C52CD
:10203000C3F80022D3F80022486A42EA0022C3F81B
:1020400000224A6902F01F02012000FA02F2D3F8CE
:102050001C42D0430440C3F81C42CB69B3B9324B95
:10206000D3F80C420440C3F80C424C69CE688D880A
:1020700045EA0645483443F834504D698E680C886B
:1020800044EA0644483503EBC5035C60CB69012B89
:102090001DD08B69002B32D1234CD4F8043203407D
:1020A000C4F804320B698BBB1F4BD3F81442204099
:1020B000C3F814020B6A012B2FD01B4AD2F800324E
:1020C00023F00103C2F80032002070BC7047164BA9
:1020D000D3F80C421443C3F80C424C690E688D8847
:1020E00045EA0645483443F834504D698E688C897A
:1020F00044EA0644483503EBC5035C60C9E70A4C73
:10210000D4F804321343C4F80432CBE70648D0F8BD
:1021100014321343C0F81432CCE7034BD3F81C122B
:102120000A43C3F81C22C8E70064004038B590F8A1
:102130002030DBB2012B05D0436A43F40023436215
:10214000012038BD0446022380F82030026813685D
:1021500023F001031360FFF793FE054623685B68D5
:1021600013F0010F0DD0FFF78BFE401B0A28F5D9A5
:10217000636A43F400336362052384F8203001204E
:1021800038BD0020606238BD30B490F82040013C7A
:10219000E4B2012C06D9436A43F480234362012050
:1021A00030BC704700296FD10468E46814F0030F55
:1021B00064D0056801F11B0424012C5904F00404C7
:1021C0009460002C6BD1056801F11B0424012C598B
:1021D000640D1460056801F11B0424012D59C5F339
:1021E0004005D560056825446D6805F00F0515614B
:1021F000056825446D68C5F30725956105682C447D
:102200006468240C546104680A011444D4F8B84189
:102210001C7004681444D4F8B841C4F307245C70FB
:1022200004681444D4F8B841C4F307449C700468AB
:102230001444D4F8B841240EDC7004681444D4F873
:10224000BC411C7104681444D4F8BC41C4F3072495
:102250005C7104681444D4F8BC41C4F307449C7115
:1022600004682244D2F8BC21120EDA71F9B902686E
:10227000D36843F02003D360002091E7436A43F41E
:102280000013436201208BE70468246914F0030FF4
:102290008FD1436A43F400134362012080E705684D
:1022A00001F11B0424012C59E408546092E70268F0
:1022B000136943F020031361002071E790F8203088
:1022C000013BDBB2012B05D9436A43F4802343620F
:1022D000012070470268536919435161002070471B
:1022E0007047704770477047704770477047704736
:1022F000704770472DE9F84F054603685C695F68D1
:102300009E68D3F80C90D3F81080D3F818A014F07E
:10231000010F5AD016F0010F17D001229A6016F063
:10232000020F08D116F0040F30D116F0080F07D0B5
:102330004FF4805B0BE0FFF7D3FF4FF0000B06E09C
:10234000FFF7D1FF4FF0000B01E04FF0000B16F448
:10235000807F0BD02B684FF480729A6016F4007F58
:1023600017D116F4806F18D04BF4005B16F4803F41
:102370002DD02B684FF480329A6016F4003F16D1AE
:1023800016F4802F17D04BF4004B20E04FF4006B75
:10239000DDE72846FFF7A5FFE8E716F4006F02D057
:1023A0004BF4804BE2E72846FFF79EFFDEE7284626
:1023B000FFF798FF0BE016F4002F02D04BF4803BA0
:1023C00005E02846FFF791FF01E04FF0000B14F005
:1023D000080F07D019F0100F04D04BF4007B2B68C6
:1023E0001022DA6014F0040F02D019F0080F60D147
:1023F00014F0020F04D02B68DB6813F0030F5FD1D9
:1024000014F0400F07D018F0100F04D04BF4806B7D
:102410002B6810221A6114F0200F02D018F0080F58
:1024200052D114F0100F04D02B681B6913F0030F66
:1024300051D114F4003F02D017F0100F4FD114F413
:10244000803F02D017F0080F50D114F4004F67D02E
:1024500017F0040F61D014F4807F04D01AF0010F3C
:1024600001D04BF0010B14F4007F04D01AF0020FDE
:1024700001D04BF0020B14F4806F04D01AF0040F5B
:1024800001D04BF0040B14F4006F46D01AF0700A20
:1024900043D0BAF1300F48D02FD9BAF1500F47D0FE
:1024A000BAF1600F47D0BAF1400F31D14BF0400B79
:1024B0002EE02B680822DA60284603F0CBFA97E773
:1024C000284603F06DFA9BE72B6808221A6128461C
:1024D000FFF70CFFA5E7284603F0C6FAA9E72B682B
:1024E00010225A602846FFF702FFA8E72B6808224F
:1024F0005A602846FFF7FCFEA7E7BAF1100F05D097
:10250000BAF1200F04D14BF0100B01E04BF0080B97
:102510002A68936923F0700393612B6804225A6040
:10252000BBF1000F0AD1BDE8F88F4BF0200BEFE7AD
:102530004BF0800BECE74BF4807BE9E76B6A4BEAEE
:1025400003036B622846FFF7D4FEECE7074AD36823
:1025500023F4E0631B041B0C000200F4E06018434A
:1025600040F0BF6040F40030D060704700ED00E004
:1025700030B4164BDB68C3F30223C3F10704042C09
:1025800028BF04241D1D062D17D9033B012505FA7C
:1025900004F4013C2140994005FA03F3013B134048
:1025A000194300280BDB0901C9B200F1604000F5B6
:1025B000614080F8001330BC70470023E6E700F06C
:1025C0000F000901C9B2024B1954F4E700ED00E015
:1025D00014ED00E0002808DB420900F01F00012391
:1025E00003FA00F0014B43F82200704700E100E0DD
:1025F0000138B0F1807F0AD2064B5860F021064ABC
:1026000082F823100020986007221A60704701208A
:10261000704700BF10E000E000ED00E030B4056856
:102620002C6824F480242C60046863608368402B49
:1026300005D0036899600368DA6030BC70470368AE
:102640009A600368D960F8E70268D3B2103B0B497F
:10265000A1FB03131B090A49C95CC165032B06D8FA
:1026600022F47F7222F003028265806D704722F4AB
:102670007F7222F0030204328265F6E7ABAAAAAAAF
:1026800030C50008836A826992B9012B0AD01BB158
:10269000022B01D000207047C36A13F0807F2CD139
:1026A00000207047C36AB3F1C07F28D00020704774
:1026B000B2F5005F05D0022B29D9032B15D00020DD
:1026C0007047032B03D8DFE803F01C041C0A00202A
:1026D0007047C36A13F0807F15D100207047C36A2A
:1026E000B3F1C07F11D000207047C36A13F0807F20
:1026F00001D0012070470020704701207047012061
:102700007047012070470120704701207047012069
:102710007047000070B50446FFF7B2FB002C5DD097
:102720000546002384F83430022384F835302268CB
:10273000136823F00103136023681A6812F0010F75
:102740000AD0FFF79DFB401B0528F5D920236365C0
:10275000032084F8350070BD1A6821491140626871
:10276000A0680243E06802432069024360690243B3
:10277000A0690243E0690243206A02430A43616A96
:10278000042916D01A602668756925F00705636A62
:102790001D43042B12D075612046FFF755FFE26DF3
:1027A0003F239340836000206065012384F8353027
:1027B00070BDE16A206B01430A43E3E7A36A1D434E
:1027C000E36A002BE7D02046FFF75CFF0028E2D049
:1027D00040236365012084F8350070BD012070BD81
:1027E0003F8010F038B5856D90F83440012C31D021
:1027F000012480F8344090F83540E4B2012C04D034
:10280000002380F83430022038BD0446022084F8CA
:102810003500002060652046FFF700FFE26D3F2392
:102820009340AB602268136843F01603136022687C
:10283000536943F080035361236C23B1226813680A
:1028400043F0080313602268136843F00103136028
:10285000002038BD022038BD90F83530DBB2022BA5
:1028600003D08023436501207047052380F835306D
:102870000268136823F00103136000207047000012
:10288000F0B583B0044600230193724B1D68724B70
:10289000A3FB0535AD0A876D3E68C26D08239340E2
:1028A0001E4210D003681A6812F0040F0BD01A6889
:1028B00022F004021A60C26D08239340BB60436D8E
:1028C00043F001034365E26D012393401E4209D0AA
:1028D0002268526912F0800F04D0BB60636D43F030
:1028E00002036365E26D042393401E4209D022680F
:1028F000126812F0020F04D0BB60636D43F0040352
:102900006365E26D102393401E4224D02268126852
:1029100012F0080F1FD0BB6023681A6812F4802FD2
:102920000DD01B6813F4002F04D1236C9BB12046FB
:10293000984710E0A36C73B1204698470BE01A68E3
:1029400012F4807F03D11A6822F008021A60236C07
:102950000BB120469847E26D202393401E4255D08C
:102960002268126812F0100F50D0BB6094F8353016
:10297000DBB2052B0ED023681A6812F4802F33D0F7
:102980001B6813F4002F2AD1636C002B3ED0204625
:1029900098473BE02268136823F01603136022680F
:1029A000536923F080035361236CA3B12268136839
:1029B00023F008031360E26D3F239340BB600023C4
:1029C00084F83430012384F83530236D002B3FD058
:1029D000204698473CE0A36C002BE7D1EBE7E36B84
:1029E000A3B12046984711E01A6812F4807F09D1FC
:1029F0001A6822F010021A60002384F83430012390
:102A000084F83530E36B0BB120469847636DFBB11A
:102A1000636D13F0010F17D0052384F83530226859
:102A2000136823F001031360019B013301939D425E
:102A300004D323681B6813F0010FF5D1002384F839
:102A40003430012384F83530E36C0BB120469847CD
:102A500003B0F0BD08000020B5814E1B90F8350092
:102A600070470000F0B583B0002498E04FEAD40E20
:102A70000EF1080E50F82E2004F00706B6000F27BE
:102A8000B74022EA07020F6907FA06F6324340F818
:102A90002E2094E086681640CF6807FA0EF73E4372
:102AA0008660466826EA03034E68C6F30016A64011
:102AB00033434360C3681A408B6803FA0EF31A432A
:102AC000C2604B6813F0805F68D000230193514BC4
:102AD0005A6C42F480425A645B6C03F48043019365
:102AE000019BA3089E1C4C4A52F8262004F00306C2
:102AF0004FEA860E0F2606FA0EF622EA0602474F26
:102B0000B84279D0464EB04278D006F58066B042E1
:102B100076D006F58066B04274D006F58066B04285
:102B200072D006F58066B04270D006F58066B0427D
:102B300060D0072606FA0EF632430233364E46F8C8
:102B40002320384B1A68EB4302EA03064F6817F458
:102B5000803F01D045EA0206324A1660526803EA15
:102B600002064F6817F4003F01D045EA02062D4ADD
:102B70005660926803EA02064F6817F4801F01D07E
:102B800045EA0206274A9660D26813404E6816F45A
:102B9000001F01D045EA0203224AD36001340F2C02
:102BA00036D80123A3400A6803EA0205AB42F5D1F7
:102BB0004A68022A3FF45AAF122A3FF457AF066818
:102BC0004FEA440E032202FA0EF2D24316404F6837
:102BD00007F0030707FA0EF73E4306604E68771EBC
:102BE000012F7FF657AF112E3FF454AF122E7FF412
:102BF00061AF4FE706269DE700269BE7012699E790
:102C0000022697E7032695E7042693E7052691E732
:102C100003B0F0BD0038024000380140000002401F
:102C200000040240003C014012B909048161704770
:102C300081617047436931EA030301D081617047C4
:102C400009048161704790F83E30DBB2402B0AD016
:102C50000369B3F5804F15D0036D002B36D0036D9B
:102C6000012B3DD07047036D2BB90268436C03F014
:102C7000FE03136170470268436C43F00103DBB24B
:102C80001361704790F83D30DBB2212B0FD0026802
:102C9000436C43F00103DBB21361436B6BB1DB6B3D
:102CA0007BB10268536843F4006353607047026865
:102CB000436C03F0FE031361EFE7826B002AEED151
:102CC000D0E7836BDB6B002BEBD1CBE70268436C67
:102CD000C3F3C81303F0060343F0F0031361704716
:102CE0000268436CC3F3C81303F0060343F0F10317
:102CF0001361B7E70268436CDBB21361436B3BB10E
:102D0000DB6B4BB10268536843F400635360704758
:102D1000826B002AF4D1FAE7836BDB6B002BF1D1D5
:102D2000F5E710B48BB090F83E30DAB2C16A046BAC
:102D300090F83D30DBB2222B0BD0002309930368BF
:102D40005A6909929B690993099B0BB05DF8044B82
:102D50007047036D0BB9402A17D0036D1BB9036987
:102D6000B3F5404F19D0438D9BB2002B25D1029370
:102D700003685A6902929A690292029A1A6842F4A6
:102D800000721A6000230365DFE7009303685A6945
:102D900000929B690093009BD7E70023019303688F
:102DA0005A6901929A690192019A1A6842F48072F2
:102DB0001A60036D01330365C7E7438D9BB2012B96
:102DC00025D0438D9BB2022B7BD00268136843F45D
:102DD0008063136003685A6812F4006F0ED011F517
:102DE000803F07D0012905D0082903D0102901D040
:102DF000202903D15A6842F480525A600023089374
:102E000003685A6908929B690893089BBAE711F511
:102E1000803F11D0082934D0202932D0122C2ED056
:102E2000042940D002293ED010293CD00268136802
:102E300023F4806313603BE00268136823F480632B
:102E4000136003685A6812F4006F0CD01A6822F4F9
:102E500080621A600023039303685A6903929B6996
:102E60000393039B8EE7002204925A6904929A69A5
:102E70000492049A1A6842F400721A6082E70129E7
:102E8000CED00268136823F4806313600023069396
:102E900003685A6906929A690692069A1A6842F479
:102EA00000721A606EE70268136843F4806313606F
:102EB0000023059303685A6905929B690593059B56
:102EC00060E704290ED002290CD010290AD002682C
:102ED000136823F4806313600268136843F400638B
:102EE000136004E00268136843F4806313600368AE
:102EF0005A6812F4006F0ED011F5803F07D00129F7
:102F000005D0082903D0102901D0202903D15A68FF
:102F100042F480525A600023079303685A6907926B
:102F20009B690793079B2DE7438D9BB25BB10368B9
:102F3000426A12781A61436A01334362438D9BB23D
:102F4000013B9BB243857047438D9BB25BB1436AA3
:102F5000026812691A70436A01334362438D9BB25F
:102F6000013B9BB24385704703685A6912F4806F36
:102F700011D06FF480625A6100230363202280F82D
:102F80003D2080F83E30026C42F00402026480F87A
:102F90003C300120704700207047C36AB3F52A0F08
:102FA00004D0C36AB3F12A4F03D070470123C36230
:102FB00070470823C362F8E7F8B506460C46174683
:102FC0001D4622E0FEF75CFF069BC01A854200D337
:102FD000DDB900233363202286F83D2086F83E3099
:102FE000326C42F02002326486F83C300120F8BD99
:102FF00033685B6924EA03039BB2B3FA83F35B098A
:10300000BB420FD1B5F1FF3FDCD1C4F30743012B25
:10301000EED033689B6924EA03039BB2B3FA83F3CF
:103020005B09EDE70020F8BDF8B504460D461646ED
:103030001F463CE01A6842F400721A6023686FF47D
:1030400080625A6100232363202284F83D2084F8A3
:103050003E30226C42F00402226484F83C300120AD
:10306000F8BDFEF70DFFC01B864200D3FEB900235A
:103070002363202284F83D2084F83E30226C42F005
:103080002002226484F83C300120F8BD23685B698B
:1030900025EA03039BB2003318BF0123A3B12368C1
:1030A0005A6912F4806FC5D1B6F1FF3FD9D1C5F38B
:1030B0000743012BEAD023689B6925EA03039BB2EF
:1030C000003318BF0123E9E70020F8BDF0B583B055
:1030D00004460F4615461E46C36A082B0DD0012B29
:1030E0000BD013F5803F08D0036B122B0AD1026876
:1030F000136843F48073136004E02268136843F498
:103100008073136000962B4600224FF00111204679
:10311000FFF752FF18BB2369B3F5804F11D0226827
:10312000FB1103F0060343F0F003136133462A4614
:103130000E492046FFF778FFA8B92368FFB21F6148
:1031400003E0236807F0FE071F6133462A4608495B
:103150002046FFF769FF034610B1012300E0012379
:10316000184603B0F0BD0123FAE700BF08000100D4
:103170000200010070B504460D46164623685B69DF
:1031800013F0800F1CD12046FFF7EEFED0B9B5F149
:10319000FF3FF3D0FEF774FE801B854201D3002D64
:1031A000ECD100232363202284F83D2084F83E30B4
:1031B000226C42F02002226484F83C30012070BD71
:1031C000002070BD012070BD70B504460D46164646
:1031D00023685B6913F0040F1CD12046FFF7C4FE7F
:1031E000D0B9B5F1FF3FF3D0FEF74AFE801B854210
:1031F00001D3002DECD100232363202284F83D204D
:1032000084F83E30226C42F02002226484F83C3084
:10321000012070BD002070BD012070BD002800F0AD
:10322000BE80F8B5044690F83D30002B6BD02423C7
:1032300084F83D302268136823F00103136000F026
:10324000BFFF6268584B9A4262D8584B98428CBF75
:1032500000230123002B40F0A480554BA3FB002347
:103260009A0C21684B6823F03F0313434B60256899
:10327000296A21F03F0166684B4B9E424ED8531C91
:103280000B432B622268D16921F44F4121F0FF01E9
:103290006368454DAB424BD801385B00B0FBF3F39C
:1032A0000133C3F30B03042B38BF04230B43D36157
:1032B00021680B6823F0C003E269206A02431343CC
:1032C0000B6021688B6823F4034323F0FF0322691A
:1032D000E068024313438B602168CB6823F0FF034F
:1032E0006269A06902431343CB602268136843F00C
:1032F0000103136000202064202384F83D30206304
:1033000084F83E00F8BD80F83C3003F0EFF88EE71B
:10331000284B98428CBF002301239BE74FF4967300
:1033200003FB02F3244AA2FB03239B090133A7E713
:10333000A668BEB9451E03EB4307B5FBF7F501359B
:10334000C5F30B05B5FA85F56D0935BBC6B901386E
:1033500003EB4303B0FBF3F30133C3F30B0343F479
:103360000043A3E7451E03EB830707EB8707B5FB85
:10337000F7F50135C5F30B05B5FA85F56D09E4E7F9
:10338000013803EB830303EB8303B0FBF3F3013357
:10339000C3F30B0343F4404388E7012386E701208E
:1033A00070470120F8BD00BFA08601007F841E0089
:1033B00083DE1B43FF083D00D34D62102DE9F04131
:1033C00084B004460D4690461F46FEF759FD94F81A
:1033D0003D30DBB2202B04D00225284604B0BDE8E6
:1033E000F08106460090192301224F492046FFF73D
:1033F000E3FD08B10225F0E794F83C30012B00F022
:103400008E80012384F83C3023681A6812F0010F83
:1034100003D11A6842F001021A602268136823F48B
:1034200000631360212384F83D30102384F83E307C
:1034300000232364C4F824806785638D23853B4B78
:10344000E36233460A9A29462046FFF73FFE0546C7
:10345000002866D10023039323685A6903929B696D
:103460000393039B12E0236C042B01D00125B4E7E6
:103470002268136843F4007313600125ADE73246F8
:103480000A992046FFF7A0FE00282ED1238D002B9D
:1034900037D032460A992046FFF76CFE0028E2D169
:1034A0002368626A12781A61616A4B1C6362638DD9
:1034B0009BB2013B9BB26385238D013B9BB223856D
:1034C0002268506910F0040FD9D0002BD7D04B7868
:1034D0001361636A01336362638D9BB2013B9BB2EC
:1034E0006385238D013B2385C9E7236C042B01D021
:1034F000012572E72268136843F400731360012505
:103500006BE72268136843F400731360202384F888
:103510003D30002384F83E3084F83C305DE70225DE
:103520005BE7012559E700BF020010000000FFFF24
:103530007047704708B590F83D30DAB2438D9BB2C2
:1035400083B10368416A09781961436A01334362B0
:10355000438D9BB2013B9BB24385438D9BB20BB91C
:10356000292A00D008BD0268536823F480635360A1
:1035700021230363282380F83D30FFF7DAFFF1E7CA
:10358000704708B590F83D30DAB2438D9BB283B1F5
:10359000436A016809691970436A01334362438DC4
:1035A0009BB2013B9BB24385438D9BB20BB92A2A48
:1035B00000D008BD0268536823F48063536022235F
:1035C0000363282380F83D30FFF7DAFFF1E7704707
:1035D00008B590F83D3003F02803282B07D0036886
:1035E0006FF002025A61002380F83C3008BD026887
:1035F000536823F48063536011F0040F0BD0002351
:1036000011F0800F09D18289002180F83C10194601
:10361000FFF7DDFF08BD0123F2E7028BF4E77047F7
:1036200008B590F83D30DBB2C26A082A08D0202ADB
:1036300006D0212B20D003686FF480625A6108BD48
:10364000282BF6D11A4BC3620268536823F4E06357
:10365000536003686FF480625A610268136823F450
:103660008063136000230363202280F83D2080F8EC
:103670003E30FFF7D4FF08BD0D4BC3622123036327
:10368000202380F83D30002380F83E3002685368E4
:1036900023F4E063536003686FF480625A61026848
:1036A000136823F480631360FFF743FF08BD00BF76
:1036B0000000FFFF704710B590F83D30DBB290F886
:1036C0003E20D2B2C46A018D09B9212B04D0212B2E
:1036D0003BD0402A37D010BD082C04D0202C02D07B
:1036E00014F5803F19D10268536823F4E0635360F6
:1036F0000268136843F400731360002303632023FC
:1037000080F83D3090F83E30DBB2402B15D00023DE
:1037100080F83E30FFF70CFF10BD0268536823F4B9
:10372000E063536011230363002380F83E302023BD
:1037300080F83D30FFF7FCFE10BD002380F83E30DE
:10374000FFF7B8FF10BD222BC5D1438D9BB28BB1C3
:1037500090F83E30DBB2402B12D00368426A1278F8
:103760001A61436A01334362438D9BB2013B9BB2B2
:103770004385B0E70268536823F48063536010BD4B
:10378000036D9BB9C36C012B08D00268836CC3F333
:1037900007231361036D0133036510BD0268836C59
:1037A000DBB21361036D0233036510BD036D012BA2
:1037B00019D0036D022B8ED190F83D30DBB2222B55
:1037C00019D090F83D30DBB2212B84D10368426AD6
:1037D00012781A61436A01334362438D9BB2013B05
:1037E0009BB2438510BD0268836CDBB21361036D2D
:1037F0000133036510BD0268136843F480731360DE
:1038000010BD08B5C26A90F83D30DBB2212B00D064
:1038100008BD438D9BB203BB082A04D0202A02D0E6
:1038200012F5803F26D10268536823F4E0635360A9
:103830000268136843F400731360002303632023BA
:1038400080F83D3090F83E30DBB2402B22D0002390
:1038500080F83E30FFF76CFEDAE70368426A1278C0
:103860001A61436A01334362438D9BB2013B9BB2B1
:10387000438508BD0268536823F4E0635360112355
:103880000363002380F83E30202380F83D30FFF7AB
:103890004FFE08BD002380F83E30FFF70BFF08BD48
:1038A000704708B590F83D30DBB2222B00D008BD40
:1038B000438D9BB2032B15D9436A026812691A70B3
:1038C000436A01334362438D9BB2013B9BB2438504
:1038D000438D9BB2032BEAD10268536823F48063C3
:1038E000536008BDC26A022AE1D0012BDFD802680A
:1038F000136823F4806313600268536823F4E06361
:103900005360436A026812691A70436A0133436262
:10391000438D9BB2013B9BB24385202380F83D3011
:1039200090F83E30DBB2402B07D0002380F83E30C9
:103930001223036302F0C8F8B9E7002380F83E3091
:103940000363FFF7ADFF08BD08B5C26A438D9BB2A4
:10395000042B14D0438D9BB2032B22D0438D9BB2FA
:10396000022B39D0436A026812691A70436A013324
:103970004362438D9BB2013B9BB2438508BD026805
:10398000536823F480635360436A026812691A70B3
:10399000436A01334362438D9BB2013B9BB2438533
:1039A00008BD01684B6823F480634B60042A06D08D
:1039B000022A04D00268136823F480631360436A08
:1039C000026812691A70436A01334362438D9BB2E5
:1039D000013B9BB2438508BD012A0BD0102A09D0B8
:1039E000042A38D0022A36D00268136843F40073E0
:1039F000136004E00268136823F480631360436A71
:103A0000026812691A70426A531C4362438D9BB26A
:103A1000013B9BB2438503681B695370436A0133C2
:103A20004362438D9BB2013B9BB24385026853685E
:103A300023F440735360202380F83D3090F83E30EB
:103A4000DBB2402B0DD0002380F83E3012230363FD
:103A500002F03AF808BD0268136843F4806313600B
:103A6000CDE7002380F83E300363FFF719FF08BD60
:103A70007047704710B5806B90F83D20416B002374
:103A8000CB63816BCB630468216821F48061216082
:103A90004385416B0B65816B0B6501680B6823F0F7
:103AA00001030B6090F83D30DBB2602B0DD0D2B239
:103AB00002F02802282A12D0202380F83D3000236B
:103AC00080F83E30FFF7D4FF10BD202380F83D3052
:103AD000002380F83E300364FFF7CBFF10BD02687F
:103AE000136843F0010313600268136843F48063B2
:103AF000136000230363282380F83D30E2E70000D1
:103B000010B5044690F83D30DBB290F83E20D2B2BA
:103B1000102A33D003F02802282A37D022685268AE
:103B200012F4006F04D1602B02D0202384F83D30C2
:103B30000023236384F83E3023685A6812F4006F30
:103B400048D05A6822F400625A60626B92F83530AD
:103B5000DBB2012B20D0424B1365606BFEF77CFE7D
:103B6000002849D02268136823F001031360202342
:103B700084F83D30606B036D98473DE0222BC9D13E
:103B800001680A6822F400620A60C3E70023236325
:103B9000282384F83D30CFE7A36B314A1A65A06B28
:103BA000FEF75AFE40B323685A6912F0400F05D061
:103BB000626A1B691370636A013363622268136867
:103BC00023F001031360202384F83D30A06B036DC4
:103BD000984711E094F83D20D2B2602A16D05A6975
:103BE00012F0400F05D0626A1B691370636A0133DB
:103BF00063622046FFF73CFF94F83D30DBB2226C55
:103C000012F0040F01D0282B18D010BD202284F808
:103C10003D20002222645A6912F0400F05D0626AEA
:103C20001B691370636A013363622268136823F0AF
:103C3000010313602046FFF71CFFDDE7226853688D
:103C400023F4E0635360074BE362002323632022E5
:103C500084F83D2084F83E302046FFF7E0FCD4E7AE
:103C6000753A00080000FFFF30B583B0044690F8B5
:103C70003D50EDB20268536823F4E06353600023C3
:103C8000019303685A6901921A6842F001021A60AE
:103C9000019B0268136823F48063136003685A6809
:103CA00012F4006F20D0222D59D02A2D57D0426B0C
:103CB0001268526892B24285428D92B21AB1026C79
:103CC00042F0040202645A6822F400625A60606B97
:103CD000FEF7C4FE012807D0636B464A1A65606B85
:103CE000FEF7BAFD00285BD1638D9BB233B3236826
:103CF0005A6912F0040F0AD0626A1B691370636A72
:103D000001336362638D9BB2013B9BB26385236881
:103D10005A6912F0400F0AD0626A1B691370636A15
:103D200001336362638D9BB2013B9BB26385638DFC
:103D30009BB21BB1236C43F004032364236C002B60
:103D400032D12A2D34D094F83D30DBB2282B38D034
:103D5000236B222B42D0222D40D003B030BDA26B6A
:103D60001268526892B26285628D92B21AB1226C68
:103D700042F0040222645A6822F400625A60A06B86
:103D8000FEF76CFE0128AFD0A36B1A4A1A65A06B30
:103D9000FEF762FD0028A7D0A06B036D9847A3E74C
:103DA000606B036D98479FE72046FFF7A9FED4E7B5
:103DB00000232363282384F83D302046FFF7E0FBEF
:103DC000C1E70D4BE36200232363202284F83D20EA
:103DD00084F83E302046FFF722FCBEE70023236331
:103DE000202284F83D2084F83E302046FFF7C8FBAF
:103DF000B3E700BF753A00080000FFFF70B5044646
:103E000002685568C66A90F83E30DBB290F83D1003
:103E1000102B14D0C8B2402B11D0236C002B79D0BA
:103E20005369002113F0020F77D015F4007F74D08E
:103E3000236C03B191692046FFF7CAFB70BD9069FE
:103E4000536913F0010109D1B6F52A0F32D0B6F14A
:103E50002A4F2DD00026002E40F08F8011B115F48E
:103E6000007F29D113F0080F02D015F4007F2AD16A
:103E700013F0020F02D015F4007F28D110F0040FC8
:103E80002DD0526812F4006F77D113F0800F05D057
:103E900015F4806F02D013F0040F1CD013F0040F40
:103EA0006BD015F4007F68D02046FFF7AAFC70BDE8
:103EB0000126D0E70126CEE72046FFF76EF8204620
:103EC000FEF7C1FE70BD2046FEF714FF70BD204610
:103ED000FEF727FF70BD2046FFF7EDFB70BD52686F
:103EE00012F4006F49D113F0400F05D015F4806F24
:103EF00002D013F0040F09D013F0040F3DD015F4D5
:103F0000007F3AD02046FFF71FFD70BD2046FFF727
:103F1000C8FC70BD9169536984E713F0100F02D09B
:103F200015F4007F16D1212818D0292816D013F0B7
:103F3000400F05D015F4806F02D013F0040F25D088
:103F400013F0040F19D015F4007F16D02046FEF7A9
:103F5000FBFF12E02046FFF787FE70BD13F0800FD5
:103F600005D015F4806F02D013F0040F06D013F0C3
:103F7000040F02D015F4007F04D170BD2046FFF776
:103F8000D9FA70BD2046FEF7CFFF70BD2046FFF77F
:103F9000F8FA70BDF8B5044603685D695F6815F40A
:103FA000807F07D017F4807F3BD06FF480725A6116
:103FB000012600E0002615F4007F08D017F4807F6A
:103FC00005D046F0020623686FF400725A6115F4BA
:103FD000806F18D017F4807F15D094F83E30DBB294
:103FE000628D91B294F83D20D2B2206B202B1AD072
:103FF00023686FF480625A6146F0040694F83E30FC
:10400000DBB2102B1DD015F4006F08D017F4807FA1
:1040100005D046F0080623686FF400625A61B6B90D
:10402000F8BD0026C7E70029E2D1212A05D0292AB8
:1040300003D0282ADCD12128DAD12046FFF7F0FA74
:10404000E1E72268136843F400731360DBE7236C35
:104050001E4326642046FFF753FDE1E7002800F0E9
:104060009D8070B504464F4B1B6803F00F038B42D5
:1040700009D2CBB24B4A1370136803F00F03994275
:1040800001D0012070BD236813F0020F17D013F088
:10409000040F04D0444A936843F4E05393602368C8
:1040A00013F0080F04D0404A936843F460439360D0
:1040B0003D4A936823F0F003A068034393600D46E4
:1040C000236813F0010F32D06368012B21D09A1EB0
:1040D000012A25D9344A126812F0020F60D0324901
:1040E0008A6822F0030213438B60FDF7C9FE06467F
:1040F0002D4B9B6803F00C036268B3EB820F16D064
:10410000FDF7BEFE801B41F288339842F0D90320B0
:1041100070BD254A126812F4003FE0D1012070BD45
:10412000214A126812F0007FD9D1012070BD1D4BC9
:104130001B6803F00F039D4209D2EAB2194B1A70B3
:104140001B6803F00F039D4201D0012070BD23685E
:1041500013F0040F06D0144A936823F4E053E16887
:104160000B439360236813F0080F07D00E4A93683F
:1041700023F46043216943EAC103936000F040F8EF
:10418000094B9B68C3F30313084AD35CD840084B20
:1041900018600020FDF728FE002070BD0120704748
:1041A000012070BD003C02400038024038C50008C4
:1041B00008000020014B1868704700BF080000206D
:1041C00008B5FFF7F7FF044B9B68C3F38223034A4C
:1041D000D35CD84008BD00BF0038024048C5000885
:1041E00008B5FFF7E7FF044B9B68C3F34233034A6C
:1041F000D35CD84008BD00BF0038024048C5000865
:10420000F8B55C4B9B6803F00C03082B06D00C2B15
:104210005AD0042B00F0AC805748F8BD554B5A6873
:1042200002F03F025B6813F4800F2AD0514B5B68A9
:10423000C3F388131E4600275C010025E41A65EBD2
:104240000705A90141EA9461A001001B61EB05018A
:10425000CB0043EA5073C400A01943EB07014B02A3
:1042600043EAD0534402204619460023FCF7B8FC29
:10427000404B5B68C3F3014301335B00B0FBF3F0D9
:10428000F8BD3C4B5B68C3F388131E4600275C01F6
:104290000025E41A65EB0705A90141EA9461A00134
:1042A000001B61EB0501CB0043EA5073C400A01969
:1042B00043EB07018B0243EA9053840220461946E0
:1042C0000023FCF78DFCD3E72A4B5A6802F03F022B
:1042D0005B6813F4800F28D0264B5B68C3F3881308
:1042E0001E4600275C010025E41A65EB0705A901BD
:1042F00041EA9461A001001B61EB0501CB0043EA98
:104300005073C400A01943EB07014B0243EAD0539A
:104310004402204619460023FCF762FC154B5B68FB
:10432000C3F30273B0FBF3F0F8BD124B5B68C3F349
:1043300088131E4600275C010025E41A65EB07057B
:10434000A90141EA9461A001001B61EB0501CB00CA
:1043500043EA5073C400A01943EB07018B0243EA00
:1043600090538402204619460023FCF739FCD5E718
:104370000248F8BD003802400024F40000127A0020
:1043800070B582B00446036813F0010F41D0A64B0C
:104390009B6803F00C03042B32D0A34B9B6803F003
:1043A0000C03082B27D0A04B9B6803F00C030C2BAD
:1043B00059D06368B3F5803F5BD0B3F5A02F5ED0D2
:1043C000994B1A6822F480321A601A6822F480220B
:1043D0001A606368002B5CD0FDF752FD0546924BD6
:1043E0001B6813F4003F14D1FDF74AFD401B6428FD
:1043F000F5D903209DE18C4B5B6813F4800FD2D07C
:10440000894B1B6813F4003F03D06368002B00F056
:104410008D81236813F0020F67D0834B9B6813F0E4
:104420000C0F4AD0804B9B6803F00C03082B3FD045
:104430007D4B9B6803F00C030C2B48D0E368002BEA
:1044400074D00122794B1A60FDF71AFD0546764BB0
:104450001B6813F0020F60D1FDF712FD401B02280C
:10446000F5D9032065E1704B5B6813F4800FA0D091
:10447000C6E76D4A136843F480331360A9E76A4BBB
:104480001A6842F480221A601A6842F480321A6074
:104490009FE7FDF7F5FC0546634B1B6813F4003FEF
:1044A000B7D0FDF7EDFC401B6428F5D9032040E1AF
:1044B0005D4B5B6813F4800FBAD15B4B1B6813F044
:1044C000020F0AD0E368012B07D0012031E1564BDF
:1044D0005B6813F4800FB1D1EFE7534A136823F000
:1044E000F803216943EAC1031360236813F0080F3E
:1044F00040D0636963B301224D4B1A60FDF7C0FCE5
:104500000546494B5B6F13F0020F33D1FDF7B8FC42
:10451000401B0228F5D903200BE1434A136823F01E
:10452000F803216943EAC1031360DEE700223F4B31
:104530001A60FDF7A5FC05463B4B1B6813F0020F04
:10454000D3D0FDF79DFC401B0228F5D90320F0E0F5
:104550000022374B1A60FDF793FC0546324B5B6F28
:1045600013F0020F06D0FDF78BFC401B0228F5D993
:104570000320DEE0236813F0040F79D02A4B1B6C74
:1045800013F0805F33D100230193274B1A6C42F064
:1045900080521A641B6C03F080530193019B012528
:1045A000244B1B6813F4807F23D0A368012B34D0E5
:1045B000052B41D01C4B1A6F22F001021A671A6FAB
:1045C00022F004021A67A368002B3FD0FDF758FCC5
:1045D0000646154B1B6F13F0020F48D1FDF750FC38
:1045E000801B41F288339842F3D90320A1E00025D3
:1045F000D6E7104A136843F480731360FDF740FC5C
:1046000006460C4B1B6813F4807FCED1FDF738FCB7
:10461000801B0228F5D903208BE0034A136F43F077
:1046200001031367CFE700BF003802400000474294
:10463000800E474200700040404B1A6F42F0040267
:104640001A671A6F42F001021A67BCE7FDF718FCFF
:1046500006463A4B1B6F13F0020F08D0FDF710FC13
:10466000801B41F288339842F3D9032061E0E5B919
:10467000A369002B5CD0314A926802F00C02082A30
:1046800059D0022B17D000222D4B1A60FDF7F8FBF2
:1046900004462A4B1B6813F0007F45D0FDF7F0FB62
:1046A000001B0228F5D9032043E0244A136C23F0B1
:1046B00080531364DCE70022214B1A60FDF7E0FB16
:1046C00005461E4B1B6813F0007F06D0FDF7D8FB94
:1046D000401B0228F5D903202BE0E369226A13432B
:1046E000626A43EA8213A26A5208013A43EA024329
:1046F000E26A43EA0263226B43EA02730F4A5360A1
:1047000001220F4B1A60FDF7BBFB04460B4B1B68E5
:1047100013F0007F06D1FDF7B3FB001B0228F5D98B
:10472000032006E0002004E0002002E0012000E079
:10473000002002B070BD0120FBE700BF003802403E
:104740006000474230B4036A23F001030362036A46
:104750004468826922F073020D682A4323F0020341
:104760008D682B43114DA84211D005F58065A842F4
:104770000DD00E4DA84211D005F58065A8420DD090
:10478000446082614A684263036230BC704723F030
:104790000803CD682B4323F00403EAE724F44074B4
:1047A0004D692C438D692C43EAE700BF00000140AE
:1047B00030B4036A23F480730362036A4468C269F5
:1047C00022F073020D682A4323F400738D6843EAD4
:1047D0000523134DA84211D005F58065A8420DD0E0
:1047E0000F4DA84212D005F58065A8420ED0446056
:1047F000C2614A68C263036230BC704723F400633D
:10480000CD6843EA052323F48063E9E724F44054A8
:104810004D6944EA05148D6944EA0514E7E700BFD1
:104820000000014030B4036A23F480530362036A3A
:104830004468C26922F4E6420D6842EA052223F484
:1048400000538D6843EA0533094DA8420AD005F5A7
:104850008065A84206D04460C2614A68026403626F
:1048600030BC704724F480444D6944EA8514F2E773
:10487000000001400268D36843F00103D36002687E
:10488000936803F00703062B03D0136843F001037A
:104890001360002070470268D36823F00103D360DF
:1048A0000368196A41F21112114208D1196A40F2E3
:1048B0004442114203D11A6822F001021A6000201A
:1048C0007047704770477047704710B504460368DB
:1048D0001A6912F0020F11D0DA6812F0020F0DD02F
:1048E0006FF002021A610123037703689B6913F0DA
:1048F000030F70D0FFF7E6FF0023237723681A69C0
:1049000012F0040F12D0DA6812F0040F0ED06FF01C
:1049100004021A610223237723689B6913F4407F02
:104920005FD02046FFF7CEFF0023237723681A6964
:1049300012F0080F12D0DA6812F0080F0ED06FF0E4
:1049400008021A61042323772368DB6913F0030F3D
:104950004ED02046FFF7B6FF0023237723681A695D
:1049600012F0100F12D0DA6812F0100F0ED06FF0A4
:1049700010021A61082323772368DB6913F4407F50
:104980003DD02046FFF79EFF0023237723681A6956
:1049900012F0010F03D0DA6812F0010F36D123684C
:1049A0001A6912F0800F03D0DA6812F0800F34D148
:1049B00023681A6912F0400F03D0DA6812F0400F32
:1049C00032D123681A6912F0200F03D0DA6812F08E
:1049D000200F30D110BDFFF774FF2046FFF773FFA3
:1049E0008AE72046FFF76DFF2046FFF76CFF9BE745
:1049F0002046FFF766FF2046FFF765FFACE720463D
:104A0000FFF75FFF2046FFF75EFFBDE76FF0010293
:104A10001A61204601F032F8C1E76FF080021A6196
:104A2000204600F0E3F9C3E76FF040021A61204628
:104A3000FFF74AFFC5E76FF020021A61204600F039
:104A4000D4F9C7E70368314A904212D0B0F1804FE1
:104A50000FD0A2F57C4290420BD002F580629042CA
:104A600007D002F58062904203D002F5784290426E
:104A700003D123F070034A681343244A90422AD09A
:104A8000B0F1804F27D0A2F57C42904223D002F5AE
:104A9000806290421FD002F5806290421BD002F5E6
:104AA0007842904217D002F57052904213D002F52E
:104AB000806290420FD002F5806290420BD0A2F546
:104AC0009832904207D002F58062904203D002F5FE
:104AD0008062904203D123F44073CA68134323F0E9
:104AE00080034A69134303608B68C3620B68836267
:104AF000064B984206D003F58063984202D001230A
:104B0000436170470B690363F9E700BF0000014090
:104B1000A8B110B5044690F83D305BB1022384F88B
:104B20003D30211D2068FFF78DFF012384F83D30C3
:104B3000002010BD80F83C3003F05CFCEEE7012063
:104B40007047A8B110B5044690F83D305BB1022320
:104B500084F83D30211D2068FFF774FF012384F89D
:104B60003D30002010BD80F83C3003F023FCEEE720
:104B70000120704730B4036A23F010030362036A14
:104B80004468826922F4E6420D6842EA052223F075
:104B900020038D6843EA0513124DA84211D005F594
:104BA0008065A8420DD00F4DA84212D005F5806552
:104BB000A8420ED0446082614A688263036230BCBE
:104BC000704723F08003CD6843EA051323F04003C8
:104BD000E9E724F440644D6944EA85048D6944EAB8
:104BE0008504E7E70000014038B590F83C30012B20
:104BF00066D00D460446012380F83C30022380F83D
:104C00003D300C2A1AD8DFE802F0071919192019CB
:104C100019193419191947000068FFF793FD226824
:104C2000936943F0080393612268936923F00403B6
:104C300093612268936929690B439361012384F886
:104C40003D30002084F83C0038BD0068FFF792FF3B
:104C50002268936943F4006393612268936923F4A3
:104C60008063936122689369296943EA0123936110
:104C7000E4E70068FFF79CFD2268D36943F008036E
:104C8000D3612268D36923F00403D3612268D36916
:104C900029690B43D361D1E70068FFF7C3FD2268A0
:104CA000D36943F40063D3612268D36923F480633A
:104CB000D3612268D369296943EA0123D361BDE73F
:104CC000022038BD10B401F01F01012303FA01F4E2
:104CD000036A23EA04030362036A8A4013430362FC
:104CE0005DF8044B7047000010B5044601220068CF
:104CF000FFF7E8FF23680E4A934217D002F580625F
:104D0000934211D000221AB15A6C42F400425A6404
:104D10002268936803F00703062B03D0136843F05F
:104D200001031360002010BD0122ECE70122EAE735
:104D30000000014010B5044600220068FFF7C2FFE2
:104D40002368174A934229D002F58062934223D008
:104D500000226AB1196A41F21112114208D1196A8E
:104D600040F24442114203D15A6C22F400425A6488
:104D70002368196A41F21112114208D1196A40F2EE
:104D80004442114203D11A6822F001021A60012341
:104D900084F83D30002010BD0122DAE70122D8E777
:104DA0000000014090F83C30012B1CD070B401256C
:104DB00080F83C50022380F83D3004686268A368A4
:104DC00022F070020E68324323F0800349680B43DF
:104DD00062600268936080F83D50002380F83C30A8
:104DE000184670BC704702207047704770470268D1
:104DF000D36823F0C003D360202380F83930704794
:104E00000268D36823F49073D3600268536923F077
:104E100001035361202380F83A30704790F839300D
:104E2000DBB2212B01D0022070478368B3F5805F8D
:104E300017D00268036A591C01621B785360C38C47
:104E40009BB2013B9BB2C384DBB90268D36823F0F9
:104E50008003D3600268D36843F04003D36000202E
:104E60007047036A02681B88C3F308035360036931
:104E70001BB9036A02330362E1E7036A0133036289
:104E8000DDE70020704700002DE9F0470446026886
:104E9000136923F44053C1680B43136183680269AB
:104EA000134342691343C26913430168CA6822F479
:104EB000164222F00C021343CB600268536923F4BC
:104EC000407381690B435361C369B3F5004F62D0EE
:104ED000D0F80080BB4B984500F01B8103F5806340
:104EE000984500F01681FFF76BF900EB800000EBAE
:104EF00080006568AD00B0FBF5F5B34FA7FB053545
:104F00006D092E01FFF75CF900EB800000EB8000DB
:104F10006568AD00B0FBF5FAFFF752F900EB8000D1
:104F200000EB80006568AD00B0FBF5F5A7FB05352B
:104F30006D094FF0640909FB15A52D013235A7FB5A
:104F400005356D0905F0F0053544FFF739F900EB3B
:104F5000800000EB80006668B600B0FBF6F6FFF755
:104F60002FF900EB800000EB800063689B00B0FB32
:104F7000F3F0A7FB0030400909FB10694FEA09195B
:104F800009F13209A7FB0937C7F343172F44C8F8C3
:104F90000870BDE8F087D0F8008003F1804303F586
:104FA000104398455CD003F58063984558D0FFF7CF
:104FB00007F900EB800000EB800065686D00B0FB36
:104FC000F5F5814FA7FB05356D092E01FFF7F8F8C0
:104FD00000EB800000EB800065686D00B0FBF5FA27
:104FE000FFF7EEF800EB800000EB800065686D00D5
:104FF000B0FBF5F5A7FB05356D094FF0640909FB1A
:1050000015A5ED003235A7FB05356D096D0005F4DA
:10501000F8753544FFF7D4F800EB800000EB800012
:1050200066687600B0FBF6F6FFF7CAF800EB800082
:1050300000EB800063685B00B0FBF3F3A7FB032386
:105040005B0909FB13694FEAC90909F13209A7FB9A
:105050000937C7F342172F44C8F80870BDE8F08736
:10506000FFF7BEF800EB800000EB800065686D0084
:10507000B0FBF5F5544FA7FB05356D092E01FFF781
:10508000AFF800EB800000EB800065686D00B0FBBE
:10509000F5FAFFF7A5F800EB800000EB80006568EB
:1050A0006D00B0FBF5F5A7FB05356D094FF0640900
:1050B00009FB15A5ED003235A7FB05356D096D001F
:1050C00005F4F8753544FFF78BF800EB800000EB32
:1050D000800066687600B0FBF6F6FFF781F800EB1B
:1050E000800000EB800063685B00B0FBF3F3A7FB7C
:1050F00003235B0909FB13694FEAC90909F1320966
:10510000A7FB0937C7F342172F44C8F80870BDE85A
:10511000F087FFF765F800EB800000EB8000656822
:10512000AD00B0FBF5F5284FA7FB05356D092E0145
:10513000FFF756F800EB800000EB80006568AD00DB
:10514000B0FBF5FAFFF74CF800EB800000EB8000B5
:105150006568AD00B0FBF5F5A7FB05356D094FF0AF
:10516000640909FB15A52D013235A7FB05356D092D
:1051700005F0F0053544FFF733F800EB800000EB55
:1051800080006668B600B0FBF6F6FFF729F800EB82
:10519000800000EB800063689B00B0FBF3F3A7FB8B
:1051A00003235B0909FB13694FEA091909F1320965
:1051B000A7FB0937C7F343172F44C8F80870BDE8A9
:1051C000F08700BF001001401F85EB512DE9F04131
:1051D00005460F4616469846069C2B681B6837EA1C
:1051E00003030CBF01230023B3421ED1B4F1FF3FE0
:1051F000F3D02CB1FCF744FEA0EB08008442ECD2C3
:105200002A68D36823F4D073D3602A68536923F0E3
:1052100001035361202385F8393085F83A300023A3
:1052200085F838300320BDE8F0810020BDE8F0812A
:1052300058B310B5044690F839300BB3242384F8E2
:1052400039302268D36823F40053D3602046FFF737
:105250001BFE2268136923F490431361226853698B
:1052600023F02A0353612268D36843F40053D360C8
:105270000020E063202384F8393084F83A3010BDF0
:1052800080F8383003F092F9D8E7012070472DE913
:10529000F04182B01E4690F83A30DBB2202B03D0AA
:1052A000022002B0BDE8F08104460D469046002978
:1052B00058D0002A58D090F83830012B01D1022064
:1052C000EFE7012380F838300023C363222380F8FE
:1052D0003A30FCF7D5FD0746A4F82C80A4F82E80C0
:1052E0001DE000963B46002220212046FFF76EFF7E
:1052F00000283BD1236933B923685B68C3F30803F3
:1053000025F8023B0BE023685B68DBB225F8013B24
:1053100005E023685B6803F07F032B700135E38DA4
:105320009BB2C3B1E38D9BB2013B9BB2E385A36803
:10533000B3F5805FD5D000963B4600222021204661
:10534000FFF744FFA0B92369002BE2D123685B6813
:105350002B700135E3E7202384F83A30002084F8ED
:1053600038009EE701209CE701209AE7032098E798
:10537000032096E738B590F83940E4B2202C01D0EC
:10538000022038BD002931D0002A31D090F83830C1
:10539000012B01D1022038BD13460446012280F8BA
:1053A000382001628384C3840025C563212280F8EC
:1053B0003920026B0F48D063226B0F481064226BB8
:1053C0000E48D064226B156522680432206BFDF70D
:1053D00009FA23686FF040021A6084F83850226896
:1053E000536943F080035361284638BD012038BD1E
:1053F000012038BD015400084D540008F95400083C
:1054000008B5836B0268126812F4807F0CD1002209
:10541000DA8419684A6922F080024A611A68D368FE
:1054200043F04003D36008BD184602F027FD08BDD5
:1054300008B50168CB6823F04003CB60202380F8D7
:10544000393002F01BFD002008BD704708B5806BA5
:10545000FFF7FBFF08BD704708B590F83A30DBB2A4
:10546000222B01D0022008BD8368B3F5805F0FD0E6
:1054700003690BBB836A5A1C8262026852681A7005
:10548000C38D9BB2013B9BB2C385F3B1002008BD25
:10549000826A036943B903685B68C3F30803138036
:1054A000836A02338362EBE703685B68DBB21380D5
:1054B000836A01338362E3E7826A531C8362036871
:1054C0005B6803F07F031370DAE70268D36823F0A8
:1054D0002003D3600268D36823F48073D36002682A
:1054E000536923F001035361202380F83A30FFF71A
:1054F000B2FF002008BD704710B5846B23685A695D
:1055000094F83930DBB2212B10D023685A6902F0AD
:10551000400294F83A30DBB2222B11D0E36B43F017
:105520001003E3632046FFF7E6FF10BD02F08002A0
:10553000002AEAD00023E3842046FFF758FCE4E782
:10554000002AEBD00023E3852046FFF759FCE5E76E
:1055500010B5044602681368D168526913F00F0051
:1055600005D113F0200F02D011F0200F53D10028E5
:1055700067D012F0010202D111F4907F61D013F0D4
:10558000010F06D011F4807F03D0E06B40F00100E2
:10559000E06313F0040F04D01AB1E06B40F0020096
:1055A000E06313F0020F04D01AB1E06B40F0040086
:1055B000E06313F0080F04D01AB1E26B42F0080266
:1055C000E263E26B002A48D013F0200F02D011F002
:1055D000200F24D123685B6903F04003E26B12F0D3
:1055E000080F00D13BB32046FFF70AFC23685A6935
:1055F00012F0400F1BD05A6922F040025A61636BCF
:105600008BB11A4A1A65606BFDF726F928B3606BF7
:10561000036D984710BD2046FFF71EFF10BD2046C2
:10562000FFF71AFFD6E72046FFF765FF10BD2046BB
:10563000FFF761FF10BD2046FFF75DFF0023E36326
:1056400010BD13F0800F02D011F0800F06D113F0BF
:10565000400F02D011F0400F04D110BD2046FFF7DB
:10566000DDFB10BD2046FFF7E3FEF6E771560008AC
:1056700008B5806B0023C385C384FFF73CFF08BDDA
:1056800090B583B000AF78600B46FB707B68FA780A
:105690001A707B6800225A70786800F0D9F82C489C
:1056A000FFF7F9F82A4B1B6800225A62284B1A6848
:1056B0007B681B7818467B685B781C4679680346D4
:1056C0009B0003449800034423440433DB000B4451
:1056D0005B684FF47A7101FB03F3D3627B681B783C
:1056E00019467B685B7818467A680B469B000B442A
:1056F00099000B4403440433DB0013445B684FF40C
:105700007A7202FB03F31A46114BDA607B681B784E
:1057100019467B685B7818467A680B469B000B44F9
:1057200099000B440344043332F933301946786846
:1057300000F078F87B685B780133DAB27B685A70E6
:105740000348FFF797F800BF0C37BD4690BD00BF78
:10575000B40C002090B583B000AF78607B685B78B4
:105760001A467B681B7819467B680B449B789A42E3
:105770004BDA7B681B7819467B685B7818467A6839
:105780000B469B000B4499000B440344043332F94D
:1057900033301946786800F069F8214B1A687B6845
:1057A0001B7818467B685B781C46796803469B002B
:1057B00003449800034423440433DB000B445B6838
:1057C0004FF47A7101FB03F3D3627B681B781946AF
:1057D0007B685B7818467A680B469B000B449900FF
:1057E0000B4403440433DB0013445B684FF47A72C8
:1057F00002FB03F31A460A4BDA607B685B780133DD
:10580000DAB27B685A70002306E0786800F020F86E
:105810000348FFF740F8012318460C37BD4690BDFA
:10582000B40C002080B582B000AF78600B467B805E
:10583000B7F902301946786800F018F800210348DB
:10584000FFF752FA00BF0837BD4680BD340C002078
:1058500080B582B000AF786000210348FFF76AFA94
:1058600000BF0837BD4680BD340C002080B485B031
:1058700000AFF8600B467B81224B1B6800225A6206
:10588000204B1B68B7F90A2007EE902AB8EEE77A9A
:10589000DFED1D6AC6EE877AFCEEE77AC7ED017A86
:1058A000BA8892B2DA62B7F90A3007EE903AB8EEE7
:1058B000E77ADFED156AC6EE877AFCEEE77AC7ED88
:1058C000017ABB889BB21A460E4BDA600D4B1B68FF
:1058D000B7F90A2007EE902AF8EEE77A37EEA77AB2
:1058E000DFED096AC6EE877AFCEEE77AC7ED017A4A
:1058F000BA8892B25A6300BF1437BD465DF8047B84
:10590000704700BF340C00200024744980B58AB071
:1059100000AF00233B6000237B600023BB600023BB
:10592000FB6000233B6100237B610123FB610023BB
:10593000BB6101233B623B4619461548FCF760FBFF
:105940000346002B14BF01230023DBB2002B02D03F
:10595000104802F013FF0E48FCF7E8FB02210C4848
:10596000FCF7ACFC0C4B1B6803F5587300220021BC
:10597000184600F092F9084B1B6803F55873074965
:10598000184600F0B3F800BF2837BD4680BD00BF01
:10599000640B00205CC40008240B002074C40008C1
:1059A00080B582B000AF7860244B254A002178682A
:1059B000FCF7EAFB234B01221A70234B1B6803F50B
:1059C0002273184600F0C8F91F4B1B6803F53A73A1
:1059D000184600F025FA1C4B1B6803F5E2731846C5
:1059E00000F0C0FA184B1B6803F50173184600F06D
:1059F00071FA154B1B6803F51973184600F086F908
:105A0000114B1B6803F5B8531033184600F02EFAFB
:105A10000E4B1B68142B08DD4FF480710C48FDF70A
:105A200009F90A4B00221A6004E0084B1B68013395
:105A3000064A136000BF0837BD4680BD98060020A7
:105A4000A0060020BC060020240B0020C406002075
:105A50000008024080B483B000AF786000BF0C370C
:105A6000BD465DF8047B704780B483B000AF7860BA
:105A700000BF0C37BD465DF8047B704780B582B02F
:105A800000AF78607B681B680B4A934203D10B4BD5
:105A900001221A700BE07B681B68094A934206D109
:105AA000084B1B6803F559731846FFF753FE00BFF8
:105AB0000837BD4680BD00BF00100040C80600206A
:105AC00000140040240B002080B582B000AF786045
:105AD000054B1B6803F51973184600F017F900BF52
